:100000000C94EE000C94BC0E0C94E30E0C941601B0
:100010000C9416010C9416010C9416010C94160104
:100020000C9416010C9416010C9416010C941601F4
:100030000C9416010C9416010C9416010C941601E4
:100040000C945F0D0C9416010C94F8170C942A185C
:100050000C9416010C9416010C9416010C941601C4
:100060000C9416010C9416016011E010E410E810D5
:10007000EC10F010F310F610FA10FD10011104113D
:1000800008110B1164111A111E117E112211431156
:1000900026114B114E11291155112D11301133110B
:1000A0006811431147114B114E115111551159113E
:1000B0005D110000000800020100000304070000B9
:1000C000000000000000010204081020408001022E
:1000D000040810200102040810200404040404048D
:1000E00004040202020202020303030303030000EA
:1000F0000000230026002900000000002500280041
:100100002B0000000000240027002A0052657475AF
:10011000726E696E6720746F2050726576696F75B4
:1001200073204D6F6465204661696C7572652E2E73
:100130002E006053657474696E67204944204D6FCA
:100140006465204661696C7572652E2E2E005365BC
:100150007474696E672042617564726174652053BE
:1001600075636365737366756C2100536574746998
:100170006E67204261756472617465204661696CC6
:100180007572652E2E2E00456E746572696E67203D
:10019000436F6E66696775726174696F6E204D6F2B
:1001A0006465205375636365737366756C210045E0
:1001B0006E746572696E6720436F6E6669677572EB
:1001C0006174696F6E204D6F6465204661696C755E
:1001D00072652E2E2E00F70BB60E501811241FBE7E
:1001E000CFEFD8E0DEBFCDBF13E0A0E0B1E0E8E1A3
:1001F000F1E402C005900D92AA38B107D9F726E0C4
:10020000AAE8B3E001C01D92A636B207E1F710E0FC
:10021000CEEED0E004C02197FE010E943320CB3EF9
:10022000D107C9F70E94A70E0C94FC1A0C94000089
:10023000E2E10E94BD010895E9E00E94BD01089538
:10024000EAE00E94BD010895E1E00E94BD01089529
:10025000E3E00E94BD010895E7E00E94BD0108951A
:10026000E5E00E94BD010895E0E00E94BD0108950F
:10027000E2E00E94BD010895E4E00E94BD010895FE
:10028000ECE00E94BD010895E8E00E94BD010895E0
:10029000EEE00E94BD010895E4E10E94BD010895D1
:1002A000E0E10E94BD010895E7E10E94BD010895CB
:1002B000E6E00E94BD010895EBE00E94BD010895B3
:1002C000EDE00E94BD010895EFE00E94BD01089598
:1002D000E1E10E94BD010895E3E10E94BD0108959E
:1002E000E5E10E94BD010895E6E10E94BD01089587
:1002F00021968A929A92AA92BA92CA92DA92EA9233
:10030000FA920A931A932197E0917601F09177017E
:100310000080F181E02DC083D1830895C0917801E0
:10032000D0917901E881F981C081D181219619911B
:100330000991F990E990D990C990B990A9909990B4
:100340008990219708952F903F90E7E6F1E0CDB78F
:10035000DEB7EDBFFEBF3F922F9208952F903F90E2
:10036000CDBFDEBF3F922F920895E0E80E94BD010D
:100370000895E0E40E94BD0108952F923F924F92AC
:100380005F926F927F922FB62F92CF93DF937E2E44
:10039000F894E0910001EF5FE0930001E13011F487
:1003A0000E94A301E0E0E0938601E72DE07849F0A8
:1003B0000E941106F0918701F17071F00E94C4044F
:1003C0000BC0E72DEC3140F4EE0FF0E0E85CFC4FA1
:1003D0000190F081E02D0995F0918601EF2FE170F9
:1003E00059F0F27011F00E9478018F938F2F0E94C4
:1003F0000C048F910E948E012091000121502093C6
:100400000001222311F40E94AE01DF91CF912F90C1
:100410002FBE7F906F905F904F903F902F900895E8
:10042000CF92DF92EF92FF920F931F93DC01EC913A
:10043000DB012C918E2F8170C82ED12CE12CF12C58
:100440008E2F8F7090E0A0E0B0E0B695A7959795BD
:100450008795DC01A753BC4F8C91C81AD108E108DD
:10046000F108EE70422F417050E060E070E0822FA2
:100470008F7090E0A0E0B0E0B695A795979587952E
:10048000DC01A753BC4F8C91481B510961097109CC
:10049000822F8E7097018601017011272227332742
:1004A0000E2B4170552766277727482B81E090E077
:1004B000041715072607370710F080E090E01F911A
:1004C0000F91FF90EF90DF90CF9008958F929F92C1
:1004D000AF92BF92EF92FF920F931F93CF93DF9350
:1004E0007C014A015B01B694A794979487944230AB
:1004F000510561057105E0F0440F551F8701040F98
:10050000151FE401CC0FDD1FCE0DDF1DB801CE019C
:100510000E941002892B61F0F8019081818128816D
:1005200039813183208398838983B501A401DBCF8E
:10053000DF91CF911F910F91FF90EF90BF90AF90FF
:100540009F908F9008954F925F926F927F928F92BB
:100550009F92AF92BF92CF92DF92EF92FF920F9352
:100560001F93CF93DF9300D000D000D0CDB7DEB77C
:100570008C016A017B01DC018C91282F30E040E086
:1005800050E029833A834B835C8346015701880CF2
:10059000991CAA1CBB1C29813A814B815C812815BE
:1005A00039054A055B0508F442C0240135013FEFD7
:1005B000431A530A630A730A89819A81AB81BC8109
:1005C00084159505A605B70580F0B201660F771F63
:1005D000600F711FC401880F991F800F911F0E9427
:1005E0001002892B11F0530142013401660C771C73
:1005F000600E711ECC0CDD1CD801AC0DBD1DBE8380
:10060000AD83B301CD010E941002892B81F0ED81F1
:10061000FE8190818181D3012D913C91119731838D
:1006200020839C9311968C9375016401AECF26961E
:100630000FB6F894DEBF0FBECDBFDF91CF911F91F3
:100640000F91FF90EF90DF90CF90BF90AF909F9071
:100650008F907F906F905F904F900895E6E0F5E067
:1006600040814F5F408350E060E070E0E82FEE0F84
:10067000FF0BE451FD4F0190F081E02D238530E028
:10068000F901E753FC4F908191509083FA01EE0FEE
:10069000FF1FEA5FFA4F220F331F9170292B20832F
:1006A000818386E095E00C946602E6E0F5E0408107
:1006B0004F5F408350E060E070E0E82FEE0FFF0BEB
:1006C000EC51FD4F0190F081E02D9381FA01EE0F86
:1006D000FF1FEA5FFA4F9083818386E095E00C94D8
:1006E0006602CF93DF93E6E0F5E080819FEF980FFD
:1006F0009083D281C38190E0880F991FDC01AA5FAB
:10070000BA4F8D919C919383828341E050E060E0E9
:1007100070E0CF010E94A3028D2F9C2FDF91CF911B
:10072000089580917E0190917F01A0918001B09108
:1007300081018F3F2FEF9207A207B20731F0039795
:10074000A105B10524F481E0089580E0089582E0D8
:100750000895880F990BFC01E451FD4F0190F08141
:10076000E02D0084F185E02D3097E9F02281211100
:100770001AC021E02283DC01AC51BD4F0D90BC9129
:10078000A02D13968C9113978183808190E0FC01BA
:10079000E753FC4F208121502083880F991F21703F
:1007A000822B13968C930895880F990BFC01E451CA
:1007B000FD4F0190F081E02D0084F185E02D309710
:1007C00061F02281213049F412822181FC01EC5137
:1007D000FD4F0190F081E02D2383089580918201E7
:1007E00090918301A0918401B091850140917E0197
:1007F00050917F01609180017091810148175907E4
:100800006A077B0741F0E0917C01F0917D0121E0D6
:1008100024830C9455030895CF93DF93882391F09C
:10082000C0917601D0917701E0917A01F0917B013E
:100830008481833049F081E0848380917E010E942D
:10084000550302C0C0E0D0E0E0917C01F0917D0151
:10085000F0937B01E0937A01809178019091790186
:10086000909377018093760180918201309183018A
:10087000209184019091850180937E0130937F01C6
:10088000209380019093810192E094830E94A903B8
:10089000CE01DF91CF91089580917E010E94D40313
:1008A000E0917A01F0917B018281882319F085E043
:1008B0008483089514820895CF93DF93282F220F05
:1008C000330BF901EC51FD4FC081D1819A81F901BF
:1008D000E451FD4F0190F081E02D2485921770F4D2
:1008E000911105C095E09C8391E0909387010E944F
:1008F0002E038A818F5F8A8380E001C084E0DF91CC
:10090000CF910895E82FEE0FFF0BEC51FD4F0190B2
:10091000F081E02D118210820C94610E1F93CF9311
:10092000DF930E947103182F892F492F092E000C85
:10093000550B660B770B40938201509383016093B4
:10094000840170938501292F220F330BF901EC519B
:10095000FD4FC081D181D0937D01C0937C01F9010D
:10096000E451FD4F2081318130937901209378014A
:100970009C81953019F40E9482041B831092870198
:10098000DF91CF911F910895E0918201F091830151
:10099000EE0FFF1FEC51FD4F0190F081E02D909183
:1009A00008058381891730F40E94EE030E948E04AB
:1009B00083E001C080E080938601089581E0809308
:1009C00086010C948E04EF92FF920F931F93CF93A6
:1009D000DF93C1E001C0CC0F8A95EAF783E00E9463
:1009E0005C0404E313E0D0E0F80181918F018C23D3
:1009F00019F08D2F0E945C04DF5FD330A9F701E36B
:100A000013E083ECE82E82E0F82ED1E0F80181912A
:100A10008F018C2339F0F70180819181FC01D68709
:100A20000E944A05F2E0EF0EF11C83E00433180740
:100A300069F7DF91CF911F910F91FF90EF9008958B
:100A40000E94F80681110E941907E0917A01F09145
:100A50007B0180819181892B21F080917E010E9410
:100A6000E0080C9441080E94F80681110E941907C1
:100A7000E0917A01F0917B0180819181892B21F0B5
:100A800080917E010E94E0080C94290881E0809307
:100A90008A030895AF92BF92CF92DF92EF92FF92B6
:100AA0000F931F93CF93DF93FC01A081B181AD9091
:100AB000BC90E501AC89BD89109739F0428553851A
:100AC0006485758530E020E017C0D50155969C936C
:100AD0008E93549757969C938E93569715821482B3
:100AE000138212825BC012968D919C9113973A2FBC
:100AF0002B2F009779F0DC011A96CD90DD90ED90C8
:100B0000FC901D974C155D056E057F0560F7CD01C6
:100B1000A32FB22F93838283B583A483009719F008
:100B2000EC01FD83EC83109729F01396FC93EE9370
:100B3000129705C0D5015596FC93EE935497E501A5
:100B4000AE89BF891A968D919D910D90BC91A02D73
:100B5000088919892A893B8980179107A207B30759
:100B600080F4041715072607370728F04817590798
:100B70006A077B0798F4D5015796FC93EE93569736
:100B80000DC0041715072607370740F44817590703
:100B90006A077B0718F4E501FF8BEE8BDF91CF919D
:100BA0001F910F91FF90EF90DF90CF90BF90AF908B
:100BB0000895CF93DF93DC01ED91FC9111970190A3
:100BC000F081E02D848995891296CD91DC9113975F
:100BD000A817B90711F4D58BC48B86899789A817F4
:100BE000B90711F4D78BC68B209731F014968D91ED
:100BF0009C9115979D838C8314960D90BC91A02D8C
:100C0000109721F01396DC93CE93129786899789DB
:100C1000892B21F484899589978B868BDF91CF91DD
:100C20000895EF92FF920F931F93CF93DF93FC01F0
:100C300080918A03882309F4B5C084859585A685AB
:100C4000B7850196A11DB11D84879587A687B787B3
:100C5000408151816281738184179507A607B70788
:100C600009F0A0C040895189628973894F5F5F4F45
:100C70006F4F7F4F84819581A681B7818417950737
:100C8000A607B70718F440E050E0BA01408B518B3B
:100C9000628B738B1486158616861786C689D7894C
:100CA000209709F47FC08A859B85AC85BD85481750
:100CB00059076A077B0709F075C0CE01DC0112965F
:100CC000ED90FC901397E114F10471F0D7011A969E
:100CD0000D911D912D913C911D9740175107620771
:100CE000730711F4C701EACF2C813D81211531052D
:100CF00029F0D9011396FC92EE921297E114F104B7
:100D000029F0D70115963C932E93149724893589A1
:100D1000C217D30711F4F58AE48AE114F10419F03B
:100D2000F78AE68A04C024893589378B268B8F01A0
:100D3000FC0113821282EA80FB80E881F981028043
:100D4000F381E02DCE0109954E815F81688579851B
:100D5000411551056105710509F18A859B85AC85B1
:100D6000BD85840F951FA61FB71FF80144815581CB
:100D700066817781481759076A077B0738F4841B17
:100D8000950BA60BB70B0197A109B1098A879B8721
:100D9000AC87BD87CE010E944A0501C01E86E701CF
:100DA000209749F6DF91CF911F910F91FF90EF901F
:100DB0000895FC0182810C945C040E94F8068091E5
:100DC00068010895809368010E94E3040E9446052B
:100DD0000C94DE040C94600ECF93C82F0E949103F4
:100DE000811102C00E949D0E8C2FCF910C941C018A
:100DF000809197038130D9F080918F039091900377
:100E0000A0919103B0919203892B8A2B8B2B79F4BB
:100E100081E0409193035091940360919503709108
:100E20009603452B462B472B19F480E0089581E06B
:100E300008951092970310929303109294031092C6
:100E400095031092960310928F03109290031092C4
:100E500091031092920380918B0390918C03A09147
:100E60008D03B0918E038093980390939903A09380
:100E70009A03B0939B0308950E94A00E809198035B
:100E800090919903A0919A03B0919B030196A11DA3
:100E9000B11D8093980390939903A0939A03B09304
:100EA0009B038091930390919403A0919503B0913B
:100EB00096030196A11DB11D809393039093940313
:100EC000A0939503B0939603089580919303909116
:100ED0009403A0919503B09196030097A105B105E5
:100EE00069F1409198035091990360919A03709130
:100EF0009B03415051096109710940939803509334
:100F0000990360939A0370939B030197A109B10918
:100F10008093930390939403A0939503B0939603C7
:100F20008091980390919903A0919A03B0919B03AB
:100F3000892B8A2B8B2B11F40C949E0E0895809193
:100F4000930390919403A0919503B0919603892BFC
:100F50008A2B8B2B89F480918F0390919003A09121
:100F60009103B0919203892B8A2B8B2B29F40E9439
:100F7000A00E81E0809397030895809197038823C2
:100F800021F0109297030C949E0E08950E94A40ED7
:100F90008091980390919903A0919A03B0919B033B
:100FA0000196A11DB11D8093980390939903A0937E
:100FB0009A03B0939B0380918F0390919003A0912B
:100FC0009103B09192030196A11DB11D80938F03EF
:100FD00090939003A0939103B0939203089580910E
:100FE0008F0390919003A0919103B0919203009789
:100FF000A105B10569F14091980350919903609161
:101000009A0370919B034150510961097109409302
:1010100098035093990360939A0370939B030197ED
:10102000A109B10980938F0390939003A09391033A
:10103000B09392038091980390919903A0919A03A1
:10104000B0919B03892B8A2B8B2B11F40C94A20E4D
:1010500008950E94F806882311F083E1089580E046
:101060000895CF93C82F0E94F8068C2F0E945C042D
:10107000C82F8091870181110E94C4048C2FCF91C9
:101080000895CF930E94F806882311F0C3E101C0B0
:10109000C0E0E0917A01F0917B01828181508283EE
:1010A0000E944C0481E0809386010E948E048C2F64
:1010B000CF910895CF93C82F0E94F806E0917A014E
:1010C000F0917B018281815082838C2F0E945C048D
:1010D000C82F811108C00E944C0481E080938601D2
:1010E0000E948E0407C0E0917A01F0917B01828119
:1010F0008F5F82838C2FCF910895CF930E94F80643
:10110000882311F0C3E101C0C0E080917E010E94FC
:10111000D4030E94C40480917E0190917F01A0912C
:101120008001B091810140918201509183016091D1
:1011300084017091850184179507A607B70711F4FC
:101140000E94A9038C2FCF910895CF93DF93EC01D8
:101150000E94F806882311F083E101C080E04091ED
:101160007E0150917F016091800170918101433037
:1011700051056105710514F4488303C09091ED0198
:101180009883DF91CF9108950F931F93CF93C82F2A
:101190008B010E94F806882311F083E101C080E0F2
:1011A000EC2FEE0FFF0BEC51FD4F0190F081E02D85
:1011B00094819370F8019083CF911F910F910895BE
:1011C000880F990BFC01EC51FD4FA081B181ED918D
:1011D000FC911197309769F01D921C922091ED01BE
:1011E00093818481228314821382E92FF82F309710
:1011F000B9F70895CF93C82F0E94F806882311F0FD
:1012000083E101C080E0EC2FF0E0EE0FFF1FE45D12
:10121000FC4FA081B18190917E0112969C93129710
:10122000E0917A01F0917B012081318114963C9309
:101230002E931397B183A083938111969C9311975A
:101240002C9193819695921760F430E0D901A753C1
:10125000BC4F9C9191509C93220F331F9170292B6E
:101260002383CF910895CF93DF93C82F0E94F80670
:10127000882311F0D3E101C0D0E0EC2FF0E0EE0FB5
:10128000FF1FE45DFC4F0190F081E02DA0917A01F9
:10129000B0917B01818113968C9313978381948104
:1012A0008D939C93148213828091ED0182830E941E
:1012B000C4048D2FDF91CF910895DC01ED91FC9155
:1012C00084819581DC01ED91FC9109941F93CF936A
:1012D000DF93182FEB010E94F806882311F083E1B9
:1012E00001C080E0E12FF0E0EE0FFF1FED53FD4F56
:1012F0000190F081E02D0190F081E02D0190F081CE
:10130000E02D40815181628173814C835D836E83C6
:101310007F834481558166817781488359836A83BD
:101320007B834085518562857385488759876A87A5
:101330007B87DF91CF911F9108958F929F92AF92FB
:10134000BF92CF92DF92EF92FF920F931F93CF93B2
:10135000C82F8B010E94F806882311F083E101C099
:1013600080E0EC2FF0E0EE0FFF1FED53FD4F0190FA
:10137000F081E02D9685913029F54285538564856D
:1013800075850190F081E02D0190F081E02DC088FD
:10139000D188E288F3884C155D056E057F0540F421
:1013A00084809580A680B780480D591D6A1D7B1DDD
:1013B0004C195D096E097F09F801408351836283EE
:1013C000738301C085E0CF911F910F91FF90EF9043
:1013D000DF90CF90BF90AF909F908F9008958F92A5
:1013E0009F92AF92BF92CF92DF92EF92FF920F93B4
:1013F0001F93CF93DF93D82F4A015B0168017901D6
:101400000E94F806882311F0C3E101C0C0E0ED2F6F
:10141000F0E0EE0FFF1FED53FD4F0190F081E02D46
:101420008685811130C0A081B1810D90BC91A02D25
:1014300050964D915D916D917C915397480D591D3A
:101440006A1D7B1D14968D919D910D90BC91A02DD0
:1014500084179507A607B70740F4481B590B6A0B7A
:101460007B0B415051096109710942875387648799
:101470007587C682D782E086F18681E08687CF01B4
:101480000E944A0501C0C7E08C2FDF91CF911F91C8
:101490000F91FF90EF90DF90CF90BF90AF909F9013
:1014A0008F9008958F929F92AF92BF92CF92DF92CA
:1014B000EF92FF920F931F93CF93DF93C82F4A01B0
:1014C0005B01680179010E94F806882311F0D3E1DD
:1014D00001C0D0E0EC2FF0E0EE0FFF1FED53FD4F09
:1014E0000190F081E02D868581110EC08286938661
:1014F000A486B586C682D782E086F18681E086879B
:10150000CF010E944A0501C0D7E08D2FDF91CF9116
:101510001F910F91FF90EF90DF90CF90BF90AF9011
:101520009F908F9008950F931F93CF93DF93C82FB1
:101530000E94F806882311F0D3E101C0D0E0EC2F1F
:10154000F0E0EE0FFF1FED53FD4F00811181F80118
:101550008685813031F4C8010E94D905F8011686CC
:1015600001C0D5E08D2FDF91CF911F910F9108958C
:10157000CF92DF92EF92FF92C0907101D0907201F2
:10158000E0907301F090740120E030E040E252E41A
:10159000C701B6010E94971B87FF05C080E090E05D
:1015A000A0E2B2E40EC020E030E040EF52E4C70118
:1015B000B6010E94F61C181664F480E090E0A0EFDB
:1015C000B2E48093710190937201A0937301B09380
:1015D000740126E040E052EC61E070E08EED93E0B3
:1015E0000E944B1922E04DE063E08CE993E00E94F9
:1015F000F913882339F068EC70E080E090E00E94F5
:10160000E80DF0CF60E08CE993E00E94BE1060E04E
:1016100082E0FF90EF90DF90CF900C94CB0CCF92B4
:10162000DF92EF92FF9282E00E94360D892B09F043
:1016300067C02DEB33E04CEB53E065EC73E08CE9D5
:1016400093E00E94B814C090C503D090C603E09008
:10165000C703F090C803D701C60189749073AB71BA
:10166000BC7089349043AB41BC40D9F46091BE0357
:101670007091BF03762767277627072E000C880B0B
:10168000990B0E94461C20E030E040E85BE30E949A
:10169000FB1C6093B3037093B4038093B5039093E2
:1016A000B603CC2481EFD822E894E0F888E1F82250
:1016B000C11421EFD2062EEFE20628E1F20601F571
:1016C00081E09091BE03911101C080E08093B70347
:1016D00081E09091BF03911101C080E08093B0033D
:1016E00081E09091C003911101C080E08093B1032B
:1016F00081E09091C103911101C080E08093B20319
:10170000FF90EF90DF90CF900C944401CF93C09165
:1017100030038C2F0E945C016EEE71E08EED93E041
:101720000E9467154091B3035091B4036091B503D3
:101730007091B60322E030E08EED93E00E941E1718
:101740006AEF71E08EED93E00E9467156DEF71E036
:101750008EED93E00E94671520916A0130916B0134
:10176000922F832F27FF02C081509F4F792F770F31
:10177000770B4AE050E0692F8EED93E00E943C1613
:1017800069E072E08EED93E00E9486158091B703C8
:10179000882319F06BE072E002C062E172E08EED26
:1017A00093E00E9467158091B003882331F06AE1CD
:1017B00072E08EED93E00E9467158091B10388235B
:1017C00031F069E472E08EED93E00E94671580913C
:1017D000B203882331F06AE672E08EED93E00E9456
:1017E00067158C2F0E946001CF910C9444016AE030
:1017F0008CE993E00C94E613CF92DF92EF92FF9284
:101800000F938EED93E00E947D1818161906E4F5EB
:1018100041E060E070E08EED93E00E9490170E943E
:10182000461C6B017C01609371017093720180937F
:1018300073019093740120E030E040E252E40E9492
:10184000971B87FF0BC06DE872E08EED93E00E945E
:10185000861580E090E0A0E2B2E40EC020E030E027
:1018600040EF52E4C701B6010E94F61C181664F45A
:1018700080E090E0A0EFB2E4809371019093720158
:10188000A0937301B093740126E636E646E650E471
:101890006091710170917201809173019091740156
:1018A0000E949C1B20E030E040E853E40E94FB1CB7
:1018B0000E940E1C7F936F938EEB92E09F938F9309
:1018C00088EB93E09F938F930E94081B40E150E0C8
:1018D00060E070E088EB93E00E94E61970936A0183
:1018E00040E150E060E070E08AEB93E00E94E6198E
:1018F00060936B018EED93E00E94971880917501C3
:1019000080936C0189E6E82E81E0F82E08E021E062
:1019100043E055E060EF78E18CE993E00E947D14AC
:101920000F900F900F900F900F900F900F91FF90CE
:10193000EF90DF90CF900C94440184EC91E00C94F4
:10194000B5010895833081F028F4813099F0823018
:10195000A1F008958730A9F08830B9F08430D1F42F
:10196000809180008F7D03C0809180008F7780936D
:101970008000089584B58F7702C084B58F7D84BDC3
:1019800008958091B0008F7703C08091B0008F7D63
:101990008093B0000895CF93DF9390E0FC01EA5369
:1019A000FF4F2491FC01E652FF4F8491882361F19F
:1019B00090E0880F991FFC01EE5FFE4FC591D49116
:1019C000FC01E850FF4FA591B491611109C09FB788
:1019D000F8948881209582238883EC912E230BC074
:1019E000623061F49FB7F8948881322F3095832359
:1019F0008883EC912E2B2C939FBF06C08FB7F89451
:101A0000E8812E2B28838FBFDF91CF9108951F93FC
:101A1000CF93DF93282F30E0F901EE54FF4F8491EC
:101A2000F901EA53FF4FD491F901E652FF4FC491F7
:101A3000CC23C1F0162F81110E94A20CEC2FF0E0F4
:101A4000EE0FFF1FE850FF4FA591B4919FB7F89498
:101A5000111104C08C91D095D82302C0EC91DE2BDB
:101A6000DC939FBFDF91CF911F910895CF93DF93B8
:101A7000282F30E0F901EE54FF4F8491F901EA5329
:101A8000FF4FD491F901E652FF4FC491CC2391F05E
:101A900081110E94A20CEC2FF0E0EE0FFF1FE2512B
:101AA000FF4FA591B491EC91ED2381E090E021F4FA
:101AB00080E002C080E090E0DF91CF9108951F9216
:101AC0000F920FB60F9211242F933F934F935F9372
:101AD0006F937F938F939F93AF93BF93EF93FF93F6
:101AE0008091D5039091D603A091D703B091D803EC
:101AF0003091D40323E0230F2D3720F40196A11D4C
:101B0000B11D05C026E8230F0296A11DB11D20932B
:101B1000D4038093D5039093D603A093D703B093B7
:101B2000D8038091D9039091DA03A091DB03B0919F
:101B3000DC030196A11DB11D8093D9039093DA03B4
:101B4000A093DB03B093DC030E949D0CFF91EF9107
:101B5000BF91AF919F918F917F916F915F914F91C5
:101B60003F912F910F900FBE0F901F9018952FB798
:101B7000F8946091D5037091D6038091D70390912A
:101B8000D8032FBF08953FB7F8948091D90390915F
:101B9000DA03A091DB03B091DC0326B5A89B05C056
:101BA0002F3F19F00196A11DB11D3FBFBA2FA92FDC
:101BB000982F8827820F911DA11DB11DBC01CD0159
:101BC00042E0660F771F881F991F4A95D1F7089545
:101BD0008F929F92AF92BF92CF92DF92EF92FF923D
:101BE0006B017C010E94C30D4B015C01C114D10447
:101BF000E104F10401F10E945E0E0E94C30DDC01BC
:101C0000CB0188199909AA09BB09883E9340A1050F
:101C1000B10560F321E0C21AD108E108F10888EEAD
:101C2000880E83E0981EA11CB11CC114D104E104EC
:101C3000F10419F7DBCFFF90EF90DF90CF90BF90CA
:101C4000AF909F908F90089584B5826084BD84B5D5
:101C5000816084BD85B5826085BD85B5816085BDA7
:101C6000EEE6F0E0808181608083E1E8F0E01082C0
:101C7000808182608083808181608083E0E8F0E001
:101C8000808181608083E1EBF0E0808184608083EB
:101C9000E0EBF0E0808181608083EAE7F0E0808122
:101CA0008460808380818260808380818160808382
:101CB0008081806880831092C10008950895FFCFCD
:101CC000FFCFCF93DF93880F990BFC01E451FD4FB9
:101CD000C081D181AC81BD8111978A819B81A80F80
:101CE000B91F2D85CD010197FD013297223019F4DE
:101CF0002CE331E002C028E531E02C93DC013C9379
:101D00009E818F819083DF018E93CF0107971E9272
:101D10008A179B07E1F780E8DF0118978C93CF01C2
:101D200044971E928A179B07E1F7A881B98175979E
:101D3000ED93FC93DF91CF910895089578940895E1
:101D4000F894089578940895F894089508950E9459
:101D5000240E0E94A60E0E94A10C0E94B80A809137
:101D6000DD030E94EC0680E090E008958091370347
:101D70008093DD03089508951F920F920FB60F927E
:101D800011242F933F934F935F936F937F938F9380
:101D90009F93AF93BF93EF93FF93E091E601F09190
:101DA000E7010995FF91EF91BF91AF919F918F91BD
:101DB0007F916F915F914F913F912F910F900FBE47
:101DC0000F901F9018951F920F920FB60F9211242B
:101DD0002F933F934F935F936F937F938F939F9333
:101DE000AF93BF93EF93FF93E091E801F091E90186
:101DF0000995FF91EF91BF91AF919F918F917F9145
:101E00006F915F914F913F912F910F900FBE0F9067
:101E10001F90189520917D04222399F04FB7F894D4
:101E200020917D04213059F42DB320937B043DB3E0
:101E300020917C04209523232DBB4FBF02C04093EB
:101E40007B048CBD9DBD08958EBD00000DB407FEC2
:101E5000FDCF8EB5089580917D04882361F09FB7F2
:101E6000F89420917D0480917B04213019F48DBB7E
:101E70009FBF08958FBF0895CF93DF93EC0180E556
:101E800091E00E940A0F60E08A890E94070D80ECB1
:101E90000E94240F61E08A890E94070D0E942B0F87
:101EA00065E070E080E090E0DF91CF910C94E80D68
:101EB0001F93CF93DF93EC01162F80E591E00E94F2
:101EC0000A0F60E08A890E94070D83E00E94240FB8
:101ED000812F0E94240F80E00E94240F182F61E0C0
:101EE0008A890E94070D0E942B0F812FDF91CF91CD
:101EF0001F910895DF92EF92FF920F931F93CF935C
:101F0000DF938C01C62FD42EE52EF22E80E591E0D2
:101F10000E940A0F60E0F80182890E94070D83E0A9
:101F20000E94240F8C2F0E94240FCD2DDE2DCE0178
:101F30008F0D911D7C01EC16FD0629F080E00E94BA
:101F4000240F8993F8CF61E0F80182890E94070D80
:101F5000DF91CF911F910F91FF90EF90DF900C9444
:101F60002B0F0F931F93CF93DF93EC01062F142FAA
:101F700080E591E00E940A0F60E08A890E94070DC7
:101F800082E00E94240F802F0E94240F812F0E9444
:101F9000240F61E08A890E94070DDF91CF911F9184
:101FA0000F910C942B0FDF92EF92FF920F931F93E0
:101FB000CF93DF938C01C62FD42EE52EF22E80E531
:101FC00091E00E940A0F60E0F80182890E94070DEB
:101FD00082E00E94240F8C2F0E94240FCD2DDE2D35
:101FE000CE018F0D911D7C01EC16FD0621F089912B
:101FF0000E94240FF9CF61E0F80182890E94070D49
:10200000DF91CF911F910F91FF90EF90DF900C9493
:102010002B0FFF920F931F93CF93DF93EC01F62EBC
:10202000042F122F80E591E00E940A0F60E08A8958
:102030000E94070D85E00E94240F8F2D0E94240F1F
:10204000802F0E94240F812F0E94240F61E08A8933
:102050000E94070DDF91CF911F910F91FF900C947B
:102060002B0F1F93CF93DF93EC0180E591E00E944B
:102070000A0F60E08A890E94070D80EA0E94240FFF
:1020800080E00E94240F182F61E08A890E94070DCA
:102090000E942B0F812FDF91CF911F910895EF9216
:1020A000FF920F931F93CF93DF93EC01162F0E94A3
:1020B000B70D062FE12EF12C212F40EE6FE0CE015F
:1020C0000E9409106EE0CE010E94580F807E90E0C1
:1020D0008E159F0539F00E94B70D601B693C60F3B7
:1020E00081E001C080E0DF91CF911F910F91FF90BF
:1020F000EF9008950F931F93CF93DF93EC01162F6A
:102100006EE00E94580F807E803221F5103211F16E
:102110006BE2CE010E94580F082F007486FD06C0A6
:1021200020E440E46BE2CE010E94091020E440E488
:102130006CE2CE010E94091060E6CE010E944F10B1
:10214000811116C0011106C020E040E46BE2CE010F
:102150000E94091020E040E46CE2CE010E940910C8
:10216000612FCE01DF91CF911F910F910C944F10F1
:1021700081E0DF91CF911F910F910895FC01638B56
:102180000C947A10CF92DF92EF92FF920F931F93ED
:10219000CF93DF93342F3370313009F43FC008F40C
:1021A00066C0323009F0AAC0062F10E0F80131975E
:1021B000EE30F10508F0A2C0EC5CFF4F0C94332028
:1021C000C4E8D6EF23E987C0C4E8D6EF29E883C086
:1021D000C3E8D5EE27E87FC0C4E8D6EF25E87BC08A
:1021E000C4E8D6EF05C0C3E8D5EE02C0C1E8D3ED20
:1021F00024E871C0C4E8D6EF02C0C3E8D5EE21E8F8
:102200006AC0C4E8D6EF02C0C3E8D5EE20E863C0D8
:10221000C1E8D1ED2AC0C0E8D0EC27C0C62ED12C31
:10222000F6013197EE30F10508F068C0EE5BFF4F24
:102230000C943320C4E8D6EF27E64DC0C4E8D6EFAF
:1022400023E549C0C3E8D5EE2EE445C0C4E8D6EF87
:1022500042C0C3E8D5EE23E43EC0C3E8D5EE27C0B4
:10226000C3E8D5EE28C0C1E8DAEC20E034C0062F80
:1022700010E0F8013697E930F10508F03FC0E05B67
:10228000FF4F0C943320C4E8D6EF29E424C0C7E8FC
:10229000DFEF24EC20C0C4E8D6EF05C0C3E8D5EEDC
:1022A00002C0C1E8D3ED24E416C0C4E8D6EF21E4AF
:1022B00012C0C4E8D6EF20E40EC0C2E8D9EDD5CFF5
:1022C000C4E8D6EF27EA07C0C7E8DFEF2FE303C073
:1022D000C1E8D3ED28E142FDCF778C01422F6AE2BD
:1022E0000E94B10F4D2F69E2C8010E94B10F4C2F1F
:1022F00068E2C8010E94B10F80E001C081E0DF9177
:10230000CF911F910F91FF90EF90DF90CF900895A4
:102310000F931F93CF93DF9300D000D0CDB7DEB7DC
:102320004130B1F40C831B83890122273327502FBE
:102330005C71402F437078E0579F400D1124486036
:102340004A8355E0169507955A95E1F709830DC024
:10235000A80123E0569547952A95E1F74983029510
:10236000000F007E0A831C821B8224E0AE014F5FB7
:102370005F4F0E94D30F0F900F900F900F90DF913F
:10238000CF911F910F9108950F931F93CF93DF93D8
:1023900000D000D0CDB7DEB7E62FF42FA901662715
:1023A00077270C831B83F13081F4342F3C71242F69
:1023B0002370F8E03F9F200D112428602A8335E028
:1023C000569547953A95E1F70AC0242F2295220F9A
:1023D000207E2A8323E0569547952A95E1F7498385
:1023E00024E0AE014F5F5F4F6E2F0E94D30F0F901E
:1023F0000F900F900F90DF91CF911F910F91089543
:102400000F931F93CF93DF93EC0100E010E098014E
:1024100041E060E20E94C41100E010E0980141E058
:1024200064E2CE010E94C41100E010E0980141E096
:1024300060E0CE010E94C41100E010E0980140E08D
:1024400064E0CE010E94C41100E010E0980141E078
:1024500068E0CE010E94C41100E010E0980140E065
:1024600060E1CE010E94C41100E010E0980141E05B
:1024700064E1CE010E94C41100E010E0980140E048
:1024800068E1CE010E94C41110E340E0612FCE014B
:102490000E94B10F60E1610F40E0CE010E94B10FD8
:1024A00060E2610F40E0CE010E94B10F1F5F1E335A
:1024B00061F740E060E6CE010E94B10F40E060E7C6
:1024C000CE01DF91CF911F910F910C94B10FEF923C
:1024D000FF920F931F93CF93DF93EC01062FF42EFF
:1024E000E22E0E943C0F80E48B8B60E8CE010E94BC
:1024F0007A10182F882341F06FEA71E08EED93E097
:102500000E947415812F5CC067E871E08EED93E046
:102510000E9474154E2D6F2DCE010E94C21088238B
:1025200039F06BE671E08EED93E00E94741547C0C0
:102530006EE471E08EED93E00E947415CE010E946E
:10254000001243E06BE2CE010E94B10F4CE36CE05D
:10255000CE010E94B10F40E06DE0CE010E94B10FAC
:10256000002351F0033019F524E644E660E6CE017D
:102570000E94091020E607C024E044E660E6CE0190
:102580000E94091020E040E660E7CE010E94091099
:102590006B89CE010E947A10C82F882381F06CE0ED
:1025A00071E08EED93E00E9474158C2F09C062E3F8
:1025B00071E08EED93E00E94741581E001C080E02F
:1025C000DF91CF911F910F91FF90EF900895EF92BF
:1025D000FF920F931F93CF93DF9300D000D0CDB71E
:1025E000DEB77A018901FA011082F90110821182A5
:1025F0001282138224E0AE014F5F5F4F0E947A0F78
:102600002A813981822F90E065E0959587956A95BA
:10261000E1F7F8E03F9F800D911D1124092E000C79
:10262000AA0BBB0BF80180839183A283B38323FFA2
:1026300025C032E0880F991FAA1FBB1F3A95D1F71A
:102640002370820F911DA11DB11DBA2FA92F982FA4
:1026500088272B81820F911DA11DB11DBA2FA92F93
:10266000982F88272C81820F911DA11DB11D808379
:102670009183A283B38381E0F70180830F900F9051
:102680000F900F90DF91CF911F910F91FF90EF90DE
:102690000895FF920F931F93CF93DF93EC01F62ED3
:1026A000AC014A5F5F4F65E06F0D2D810E94D30F33
:1026B0008E85813019F48D8180648D8364E06F0D87
:1026C0004D81CE010E94B10F09811A812B813C817D
:1026D00048816F2DCE010E948811DF91CF911F910B
:1026E0000F91FF9008950F931F93CF93DF93EC0109
:1026F000162F9C012F5F3F4FAC010E94E7126FEF36
:10270000610FCE010E94580F082F64E0610FCE01C7
:102710000E94580F8D8303FF03C091E09E8701C084
:102720001E86282F2F702D83AE014A5F5F4F65E014
:10273000610FCE01DF91CF911F910F910C947A0F11
:102740008F929F92AF92BF92CF92DF92EF92FF92C1
:102750001F93CF93DF9300D01F92CDB7DEB74C010C
:102760006B018091EA019091EB01A091EC018983CA
:102770009A83AB83FB011082CE0101967C015E013E
:1027800094E0A90EB11CF70111917F01612FC401E2
:102790000E94580F982F987083FD04C01F5FF601A8
:1027A000108304C0EA14FB0471F792E0892F0F90A4
:1027B0000F900F90DF91CF911F91FF90EF90DF90DE
:1027C000CF90BF90AF909F908F900895CF93DF935D
:1027D000EC01862F6A8B61E00E94070D61E08A8917
:1027E0000E94CB0C8FE794E0998B888BDF91CF917F
:1027F0000895FF920F931F93CF93DF93EC01162F51
:10280000042FF22E0E94B0192F2D402F612FCE01E0
:102810000E94671291E0811101C090E0892FDF9141
:10282000CF911F910F91FF900895BF92CF92DF92A9
:10283000EF92FF920F931F93CF93DF931F92CDB729
:10284000DEB78C010E94C30D6B017C01BE016F5F7E
:102850007F4FC8010E94A013B82E0E94C30DDC0157
:10286000CB018C199D09AE09BF0922E0B21206C046
:10287000843C9940A105B10548F331C0843C99409E
:10288000A105B10560F56981C8010E9449136981FC
:10289000615028E048E0C8010E9409100E94C30D61
:1028A0006B017C0169816150C8010E94580FB82EEC
:1028B0000E94C30DDC01CB018C199D09AE09BF0933
:1028C000B3FE06C0843C9940A105B10558F309C088
:1028D000843C9940A105B10520F480E003C086E066
:1028E00001C087E00F90DF91CF911F910F91FF9072
:1028F000EF90DF90CF90BF900895EF92FF920F93EB
:10290000FC0141835283638374831686208305838D
:10291000F701DC0116969C01225F3F4F41914D93D8
:10292000A217B307D9F70F91FF90EF900C941514ED
:10293000CF93DF93EC010E94311080FF07C061E666
:10294000CE010E94731320E041E008C081FF0CC05B
:1029500061E7CE010E94731320E042E06CE2CE01F9
:102960000E94091080E001C084E0DF91CF910895BA
:10297000CF92DF92EF92FF920F931F93CF93DF934B
:10298000EC016B017A0189010E949814843099F15D
:102990008881882349F089819A81AB81BC81B068A4
:1029A00089839A83AB83BC838E85882349F0898190
:1029B0009A81AB81BC81B06489839A83AB83BC83E9
:1029C00089819A81AB81BC81F60180839183A28346
:1029D000B3838D81F7018083DE011696F8018D8126
:1029E00090E09F01201B310B281739071CF48D91B3
:1029F0008193F5CF80E0DF91CF911F910F91FF90F0
:102A0000EF90DF90CF900895CF92DF92EF92FF92F8
:102A10000F931F93CF93DF936C017A018B01C0E07A
:102A2000D0E0CE15DF0581F0D8016D918D01D60182
:102A3000ED91FC910190F081E02DC6010995892B63
:102A400011F02196EECF7E01C701DF91CF911F914A
:102A50000F91FF90EF90DF90CF9008956115710571
:102A600079F0FB0101900020E9F73197AF01461B97
:102A7000570BDC01ED91FC910280F381E02D09946C
:102A800080E090E00895EF92FF920F931F93CF9311
:102A9000DF938C017B01C0E0D0E0F701EC0FFD1F5C
:102AA0006491662361F0D801ED91FC910190F08171
:102AB000E02DC8010995892B11F02196EECFCE01AA
:102AC000DF91CF911F910F91FF90EF9008950C949B
:102AD0002E15DC01ED91FC910190F081E02D09941F
:102AE00068E673E00C942E150F931F93CF93DF933A
:102AF000EC010E9443158C01CE010E947015800FDD
:102B0000911FDF91CF911F910F9108950F931F9304
:102B1000CF93DF93EC010E942E158C01CE010E9411
:102B20007015800F911FDF91CF911F910F91089524
:102B30008F929F92AF92BF92EF92FF920F931F934B
:102B4000CF93DF93CDB7DEB7A1970FB6F894DEBF72
:102B50000FBECDBF7C01FA01CB0119A2223008F4CF
:102B60002AE08E010F5D1F4F822E912CA12CB12CDB
:102B7000BF01A50194010E941120F901CA01015071
:102B800011096A3014F4605D01C0695CD8016C936E
:102B9000232B242B252B61F7B801C7010E942E158A
:102BA000A1960FB6F894DEBF0FBECDBFDF91CF91D7
:102BB0001F910F91FF90EF90BF90AF909F908F90DB
:102BC00008952115310541F4DC01ED91FC9101904E
:102BD000F081E02D642F09940C9498159A01AB01B3
:102BE00060E070E00C94E115CF92DF92EF92FF92DB
:102BF0000F931F93CF93DF932115310581F4DC01EF
:102C0000ED91FC910190F081E02D642FDF91CF9147
:102C10001F910F91FF90EF90DF90CF9009942A3091
:102C2000310501F577FF1DC06A017B01EC016DE202
:102C30000E9469158C0144275527BA014C195D097A
:102C40006E097F092AE0CE010E949815800F911F1E
:102C5000DF91CF911F910F91FF90EF90DF90CF9078
:102C600008952AE0DF91CF911F910F91FF90EF908F
:102C7000DF90CF900C9498159A01AB01770F660BFB
:102C8000770B0C94F4157F928F929F92AF92BF9224
:102C9000CF92DF92EF92FF920F931F93CF93DF9328
:102CA0008C016A017B01722E9A01AB01C701B6014A
:102CB0000E94681D882319F06BE673E027C0460167
:102CC0005701E894B7F82FEF3FEF4FE75FE7C501F3
:102CD000B4010E94681D81110DC02FEF3FEF4FE737
:102CE0005FE7C501B4010E94971B18161CF46FE63C
:102CF00073E00CC02FEF3FEF4FE75FE4C701B60171
:102D00000E94F61C181694F463E773E0C801DF9183
:102D1000CF911F910F91FF90EF90DF90CF90BF90D8
:102D2000AF909F908F907F900C942E152FEF3FEFD8
:102D30004FE75FECC701B6010E94971B87FDE4CF08
:102D400020E030E0A901C701B6010E94971B87FF70
:102D50000AC06DE2C8010E946915EC01F7FAF0940F
:102D6000F7F8F09402C0C0E0D0E0B12C60E070E071
:102D700080E09FE37B1441F020E030E040E251E44A
:102D80000E949C1BB394F6CFA70196010E942B1BB7
:102D90006B017C010E94151C4B015C012AE0AB0118
:102DA000BC01C8010E949815C80FD91F7720B9F13E
:102DB000C501B4010E94441C9B01AC01C701B601CE
:102DC0000E942A1B6B017C016EE2C8010E946915FA
:102DD000C80FD91F20E030E040E251E4C701B6013E
:102DE0000E94FB1C4B015C010E94151C6B017C01C5
:102DF0004AE050E0C8010E94EE15C80FD91FB60185
:102E000080E090E00E94441C9B01AC01C501B4012C
:102E10000E942A1B6B017C017A947110DBCFCE01DA
:102E2000DF91CF911F910F91FF90EF90DF90CF90A6
:102E3000BF90AF909F908F907F9008950C94431611
:102E40000F931F93CF93DF93EC010E94B70D688718
:102E500079878A879B87E881F9810484F585E02D4D
:102E6000CE01099597FF17C00E94B70D08851985F7
:102E70002A853B85DC01CB01801B910BA20BB30B98
:102E80000C811D812E813F8180179107A207B30716
:102E900010F38FEF9FEFDF91CF911F910F91089566
:102EA000FF920F931F93CF93DF93EC018B01F42ECE
:102EB000CE010E94201797FD2DC08D32910519F18A
:102EC0009C01205331092A30310520F1FF2019F0EF
:102ED0008E329105D1F001301105D1F0023011058B
:102EE00051F48D30910539F024F40997029718F0C8
:102EF0000FC0809769F4E881F9810284F385E02DA1
:102F0000CE010995D5CF8DE201C08EE290E002C0DE
:102F10008FEF9FEFDF91CF911F910F91FF90089559
:102F2000BF92CF92DF92EF92FF920F931F93CF93B6
:102F3000DF938C01C42F40E00E945017FC0197FDE5
:102F400047C0C12CD12C7601B12C0C2E000CDD0B0E
:102F5000EC17FD0709F1ED32F105E1F0CF01C09763
:102F60000A97D0F4AAE0B0E0A70196010E943920A8
:102F70006F01FF0FEE08FF08DC01CB018C0D9D1DDA
:102F8000AE1DBF1D6C017D0120E3C21AD108E1080E
:102F9000F10802C0BB24B394D801ED91FC910284E6
:102FA000F385E02DC8010995C8010E942017FC0196
:102FB000C0970A9768F2CE17DF0751F2BB2061F085
:102FC00066277727CB016C197D098E099F0906C0FA
:102FD00060E070E0CB0102C0C701B601DF91CF9184
:102FE0001F910F91FF90EF90DF90CF90BF900895C9
:102FF0001F920F920FB60F9211242F938F939F93CE
:10300000EF93FF93E091EE03F091EF038081E09165
:10301000F403F091F50382FD12C090818091F703D3
:103020008F5F8F732091F803821751F0E091F703BF
:10303000F0E0E252FC4F958F8093F70301C080814E
:10304000FF91EF919F918F912F910F900FBE0F9055
:103050001F9018951F920F920FB60F9211242F9365
:103060003F934F935F936F937F938F939F93AF9310
:10307000BF93EF93FF938EED93E00E94BA18FF91F8
:10308000EF91BF91AF919F918F917F916F915F91E0
:103090004F913F912F910F900FBE0F901F90189559
:1030A000EEEDF3E01382128288EE93E0A0E0B0E050
:1030B00084839583A683B7838BE793E09183808392
:1030C00085EC90E09587848784EC90E097878687ED
:1030D00080EC90E0918B808B81EC90E0938B828BE5
:1030E00082EC90E0958B848B86EC90E0978B868BBE
:1030F000118E128E138E148E0895FC01918D228DE7
:10310000892F90E0805C9F4F821B91098F739927D4
:103110000895FC01918D828D981731F0828DE80F12
:10312000F11D858D90E008958FEF9FEF0895FC01CC
:10313000918D828D981761F0828DDF01A80FB11DEE
:103140005D968C91928D9F5F9F73928F90E0089512
:103150008FEF9FEF0895FC01538D448D252F30E0B4
:10316000842F90E0821B930B541710F0CF96089594
:1031700001970895FC01848DDF01A80FB11DA35AAA
:10318000BF4F2C91848D90E001968F739927848F87
:10319000A689B7892C93A089B1898C9183708064AA
:1031A0008C93938D848D981306C00288F389E02D4B
:1031B00080818F7D80830895EF92FF920F931F93FC
:1031C000CF93DF93EC0181E0888F9B8D8C8D9813DA
:1031D00005C0E889F989808185FD26C0F62E0B8D12
:1031E00010E00F5F1F4F0F731127E02E8C8DE81238
:1031F0000CC00FB607FCFACFE889F989808185FFFA
:10320000F5CFCE010E94BA18F1CF8B8DFE01E80FE9
:10321000F11DE35AFF4FF0829FB7F8940B8FEA89B4
:10322000FB89808180620AC09FB7F894EE89FF898C
:103230006083E889F98980818370806480839FBF7F
:1032400081E090E0DF91CF911F910F91FF90EF907F
:103250000895CF93DF93EC01888D8823C9F0EA8924
:10326000FB89808185FD05C0A889B9898C9186FD7F
:103270000FC00FB607FCF5CF808185FFF2CFA8897C
:10328000B9898C9185FFEDCFCE010E94BA18E7CFA6
:10329000DF91CF910895CF92DF92EF92FF921F932B
:1032A000CF93DF93EC016A017B01122FE889F98942
:1032B00082E080834115514E61057105B1F060E0F7
:1032C00079E08DE390E0A70196010E941120DA01D8
:1032D000C9010197A109B109B695A7959795879559
:1032E0009C01211580E13807A8F0E889F98910824E
:1032F00060E874E88EE190E0A70196010E94112039
:10330000DA01C9010197A109B109B695A795979569
:1033100087959C01EC85FD853083EE85FF852083B4
:10332000188EEC89FD891083EA89FB898081806190
:103330008083EA89FB89808188608083EA89FB89B0
:10334000808180688083EA89FB8980818F7D80838A
:10335000DF91CF911F91FF90EF90DF90CF90089574
:10336000CF93CFB7F89480917E04811127C0E4EE0B
:10337000F0E08491E0EDF0E09491E82FF0E0EE0FC2
:10338000FF1FEE5FFE4FA591B491EC91E92321F46C
:1033900061E08AE00E94070D61E08AE00E94CB0CA8
:1033A0008CB580618CBD8CB580648CBD61E08DE096
:1033B0000E94CB0C61E08BE00E94CB0C80917E04DC
:1033C0008F5F80937E04CFBFCF910895A0E0B0E0DF
:1033D000ECEEF9E10C9445205C016B017A0161157A
:1033E000710519F0FB0191838083E114F10429F048
:1033F000C7010297839708F0E5C0E5012196F50122
:103400001081812F90E00E94FF1A892B11F05E013C
:10341000F4CF1D3229F42196F501118101E007C096
:103420001B3221F4E5012296F501118100E0E1143F
:10343000F10409F1F0E1EF16F10429F43FC010E3C3
:10344000E114F10421F128E0E216F10401F154F451
:10345000E2E0EE16F10421F5812C912CA12CB0E4D0
:10346000BB2E3EC0FAE0EF16F10439F020E1E2167F
:10347000F104B1F430C0103319F1FAE0EF2EF12C61
:10348000ACEC8A2E982CA82CACE0BA2E29C078E09F
:10349000E72EF12C812C912CA12CE0E1BE2E20C036
:1034A00060E070E080E090E897010F2C000C440B86
:1034B000550B0E94112049015A0112C0103359F4D2
:1034C00088818F7D883509F0BACF198122960260F4
:1034D00080E1E82EF12C812C912CA12C68E0B62EF5
:1034E00040E060E070E0CB0127010F2C000C660883
:1034F0007708FE0150ED352E310E29E0231570F4CA
:103500002FEB210F2A3118F439EC332E06C02FE9A6
:10351000210F2A3118F529EA322E310E232D30E001
:103520002E153F05DCF447FD16C086169706A80643
:10353000B90670F0A30192010E940120630D711D74
:10354000811D911D61307105810520E8920710F001
:103550004FEF01C041E021961081CBCF202F217089
:10356000C114D10471F0442329F02197F601D183CD
:10357000C08307C001FF19C02297F601D183C08321
:1035800014C047FF12C0222329F060E070E080E001
:1035900090E804C06FEF7FEF8FEF9FE722E230E00B
:1035A000309365062093640609C0222381F090952C
:1035B0008095709561957F4F8F4F9F4F462F372F86
:1035C000282F12C040E030E020E090E00DC097FFCF
:1035D000F5CF82E290E090936506809364066FEFEA
:1035E0007FEF8FEF9FE7EACF642F732F822FCDB746
:1035F000DEB7E1E10C946120F8940C948A209111DB
:103600000C944E1F803219F089508550C8F70895E8
:10361000AEE0B0E0EEE0FBE10C9452200D891E8993
:1036200086E08C831A8309838FEF9FE79E838D83C7
:10363000AE01475E5F4F6F89788DCE0101960E9483
:103640006D1DEF81F885E00FF11F10822E96E4E0EA
:103650000C946E205058BB27AA270E94421B0C9442
:10366000BC1C0E94AE1C38F00E94B51C20F039F43E
:103670009F3F19F426F40C94AB1C0EF4E095E7FB85
:103680000C94A51CE92F0E94CD1C58F3BA176207B1
:1036900073078407950720F079F4A6F50C94EF1CC6
:1036A0000EF4E0950B2EBA2FA02D0B01B90190015D
:1036B0000C01CA01A0011124FF27591B99F0593FA1
:1036C00050F4503E68F11A16F040A22F232F342FE9
:1036D0004427585FF3CF469537952795A795F04037
:1036E0005395C9F77EF41F16BA0B620B730B840B4C
:1036F000BAF09150A1F0FF0FBB1F661F771F881F04
:10370000C2F70EC0BA0F621F731F841F48F487955B
:1037100077956795B795F7959E3F08F0B0CF93954D
:10372000880F08F09927EE0F9795879508950E94C6
:10373000811C08F481E008950E94B01B0C94BC1C0D
:103740000E94B51C58F00E94AE1C40F029F45F3F67
:1037500029F00C94A51C51110C94F01C0C94AB1C7A
:103760000E94CD1C68F39923B1F3552391F3951B67
:10377000550BBB27AA2762177307840738F09F5F92
:103780005F4F220F331F441FAA1FA9F335D00E2EFF
:103790003AF0E0E832D091505040E695001CCAF76C
:1037A0002BD0FE2F29D0660F771F881FBB1F26172F
:1037B00037074807AB07B0E809F0BB0B802DBF0106
:1037C000FF2793585F4F3AF09E3F510578F00C94D5
:1037D000A51C0C94F01C5F3FE4F3983ED4F386954F
:1037E00077956795B795F7959F5FC9F7880F911DF6
:1037F0009695879597F90895E1E0660F771F881FE2
:10380000BB1F621773078407BA0720F0621B730B94
:10381000840BBA0BEE1F88F7E09508950E94151CE3
:103820006894B1110C94F01C08950E94D51C88F086
:103830009F5798F0B92F9927B751B0F0E1F0660F74
:10384000771F881F991F1AF0BA95C9F714C0B130B5
:1038500091F00E94EF1CB1E008950C94EF1C672FCB
:10386000782F8827B85F39F0B93FCCF386957795E4
:103870006795B395D9F73EF49095809570956195CD
:103880007F4F8F4F9F4F0895E89409C097FB3EF4F8
:1038900090958095709561957F4F8F4F9F4F99239D
:1038A000A9F0F92F96E9BB279395F695879577951B
:1038B0006795B795F111F8CFFAF4BB0F11F460FFDB
:1038C0001BC06F5F7F4F8F4F9F4F16C0882311F033
:1038D00096E911C0772321F09EE8872F762F05C047
:1038E000662371F096E8862F70E060E02AF09A95E2
:1038F000660F771F881FDAF7880F9695879597F9D7
:103900000895990F0008550FAA0BE0E8FEEF161670
:103910001706E807F907C0F012161306E407F507C3
:1039200098F0621B730B840B950B39F40A2661F037
:10393000232B242B252B21F408950A2609F4A140DA
:10394000A6958FEF811D811D089597F99F6780E8E7
:1039500070E060E008959FEF80EC089500240A94E1
:103960001616170618060906089500240A9412165A
:103970001306140605060895092E0394000C11F48D
:10398000882352F0BB0F40F4BF2B11F460FF04C03A
:103990006F5F7F4F8F4F9F4F089557FD9058440F93
:1039A000551F59F05F3F71F04795880F97FB991F9E
:1039B00061F09F3F79F0879508951216130614065B
:1039C000551FF2CF4695F1DF08C0161617061806E8
:1039D000991FF1CF86957105610508940895E894C3
:1039E000BB2766277727CB0197F908950E94811C92
:1039F00008F48FEF08950E940E1D0C94BC1C0E94C9
:103A0000AE1C38F00E94B51C20F0952311F00C94E8
:103A1000A51C0C94AB1C11240C94F01C0E94CD1C12
:103A200070F3959FC1F3950F50E0551F629FF00111
:103A3000729FBB27F00DB11D639FAA27F00DB11D2A
:103A4000AA1F649F6627B00DA11D661F829F2227B3
:103A5000B00DA11D621F739FB00DA11D621F839F3A
:103A6000A00D611D221F749F3327A00D611D231F10
:103A7000849F600D211D822F762F6A2F11249F575E
:103A800050409AF0F1F088234AF0EE0FFF1FBB1F61
:103A9000661F771F881F91505040A9F79E3F510520
:103AA00080F00C94A51C0C94F01C5F3FE4F3983E4E
:103AB000D4F3869577956795B795F795E7959F5FCA
:103AC000C1F7FE2B880F911D9695879597F908955C
:103AD0000E94811C880B990B0895ABE0B0E0E3E7EE
:103AE000FDE10C9444206C017B018A01FC011782EA
:103AF0001682838181FFCCC1CE0101963C01F60183
:103B00009381F70193FD859193FF81917F01882334
:103B100009F4BAC1853239F493FD859193FF8191FF
:103B20007F01853229F4B60190E00E94671FE7CF3C
:103B3000912C212C312CFFE1F315D8F08B3279F048
:103B400038F4803279F08332A1F4232D20611DC036
:103B50008D3261F0803369F4232D216016C0832DEE
:103B60008260382EE32DE4603E2E2AC0F32DF860EB
:103B70001DC037FC2DC020ED280F2A3040F08E32BA
:103B8000B9F436FC81C1232D2064322E19C036FED3
:103B900006C08AE0989E200D1124922E11C0EAE002
:103BA0002E9E200D1124222EF32DF0623F2E08C0F0
:103BB0008C3621F4832D8068382E02C0883641F47B
:103BC000F70193FD859193FF81917F018111B3CF1F
:103BD000982F9F7D9554933028F40C5F1F4F9FE3DF
:103BE00099830DC0833631F0833771F0833509F046
:103BF00059C021C0F801808189830E5F1F4F88243E
:103C00008394912C530113C02801F2E04F0E511CF4
:103C1000F801A080B18036FE03C0692D70E002C0BB
:103C20006FEF7FEFC5010E945C1F4C018201F32DF5
:103C3000FF773F2E16C0280122E0420E511CF801EA
:103C4000A080B18036FE03C0692D70E002C06FEF26
:103C50007FEFC5010E94511F4C01F32DF0683F2EEC
:103C6000820133FC1BC0822D90E088169906B0F4C7
:103C7000B60180E290E00E94671F2A94F4CFF5011C
:103C800037FC859137FE81915F01B60190E00E947B
:103C9000671F21102A9421E0821A9108811491044F
:103CA00071F7E8C0843611F0893641F5F80137FE26
:103CB00007C060817181828193810C5F1F4F08C0B2
:103CC00060817181072E000C880B990B0E5F1F4FCE
:103CD000F32DFF763F2E97FF09C090958095709544
:103CE00061957F4F8F4F9F4FF0683F2E2AE030E065
:103CF000A3010E94A31F882E861845C0853731F482
:103D0000232D2F7EB22E2AE030E025C0932D997FFF
:103D1000B92E8F36C1F018F4883579F0B5C08037E8
:103D200019F0883721F0B0C0E92FE061BE2EB4FE53
:103D30000DC0FB2DF460BF2E09C034FE0AC0292F30
:103D40002660B22E06C028E030E005C020E130E059
:103D500002C020E132E0F801B7FE07C06081718146
:103D6000828193810C5F1F4F06C06081718180E06A
:103D700090E00E5F1F4FA3010E94A31F882E86189C
:103D8000FB2DFF773F2E36FE0DC0232D2E7FA22E5A
:103D9000891458F434FE0BC032FC09C0832D8E7E8A
:103DA000A82E05C0B82CA32C03C0B82C01C0B92C78
:103DB000A4FE0FC0FE01E80DF11D8081803321F4C7
:103DC0009A2D997EA92E09C0A2FE06C0B394B39481
:103DD00004C08A2D867809F0B394A3FC11C0A0FE1C
:103DE00006C0B21488F4280C922C9B180EC0B21492
:103DF00060F4B60180E290E00E94671FB394F7CFB1
:103E0000B21418F42B1802C0982C212CA4FE10C058
:103E1000B60180E390E00E94671FA2FE17C0A1FCDC
:103E200003C088E790E002C088E590E0B6010CC0CE
:103E30008A2D867859F0A1FE02C08BE201C080E293
:103E4000A7FC8DE2B60190E00E94671F891438F448
:103E5000B60180E390E00E94671F9A94F7CF8A949E
:103E6000F301E80DF11D8081B60190E00E94671F0B
:103E70008110F5CF222009F442CEB60180E290E015
:103E80000E94671F2A94F6CFF6018681978102C0AF
:103E90008FEF9FEF2B96E2E10C9460209927882703
:103EA0000895FC010590615070400110D8F780958D
:103EB00090958E0F9F1F0895FC01615070400190F6
:103EC0000110D8F7809590958E0F9F1F08950F933E
:103ED0001F93CF93DF93FB01238121FD03C08FEF5D
:103EE0009FEF2CC022FF16C0468157812481358167
:103EF0004217530744F4A081B1819D012F5F3F4FCA
:103F0000318320838C93268137812F5F3F4F378306
:103F1000268314C08B01EC01FB010084F185E02DA8
:103F20000995892BE1F6D80116968D919C911797EA
:103F3000019617969C938E931697CE01DF91CF91A1
:103F40001F910F910895FA01AA27283051F12031CD
:103F500081F1E8946F936E7F6E5F7F4F8F4F9F4F1D
:103F6000AF4FB1E03ED0B4E03CD0670F781F891F5F
:103F70009A1FA11D680F791F8A1F911DA11D6A0F2D
:103F8000711D811D911DA11D20D009F468943F91E0
:103F90002AE0269F11243019305D3193DEF6CF01DF
:103FA0000895462F4770405D4193B3E00FD0C9F7A5
:103FB000F6CF462F4F70405D4A3318F0495D31FD12
:103FC0004052419302D0A9F7EACFB4E0A695979565
:103FD000879577956795BA95C9F70097610571053B
:103FE00008959B01AC010A2E069457954795379585
:103FF0002795BA95C9F7620F731F841F951FA01DDF
:104000000895DB018F939F930E943920BF91AF9158
:10401000A29F800D911DA39F900DB29F900D112422
:104020000895A1E21A2EAA1BBB1BFD010DC0AA1FF9
:10403000BB1FEE1FFF1FA217B307E407F50720F011
:10404000A21BB30BE40BF50B661F771F881F991F8C
:104050001A9469F760957095809590959B01AC01D5
:10406000BD01CF010895EE0FFF1F0590F491E02DE3
:1040700009940E947B20A59F900DB49F900DA49F52
:10408000800D911D112408952F923F924F925F92BF
:104090006F927F928F929F92AF92BF92CF92DF9258
:1040A000EF92FF920F931F93CF93DF93CDB7DEB7BD
:1040B000CA1BDB0B0FB6F894DEBF0FBECDBF099451
:1040C0002A88398848885F846E847D848C849B84A8
:1040D000AA84B984C884DF80EE80FD800C811B81B6
:1040E000AA81B981CE0FD11D0FB6F894DEBF0FBEE5
:1040F000CDBFED010895A29FB001B39FC001A39F62
:10410000700D811D1124911DB29F700D811D112410
:08411000911D0895F894FFCF02
:104118000000000000000000000000000000000097
:104128000000000000000000000000000000000087
:104138000000000000000000000000000000000077
:104148000000000000000000000000000000000067
:104158000000000000000000000000000000000057
:104168000000000000000000000000000000000047
:104178000000000000000000FFFFFFFFFFFFFFFF3F
:10418800FF0000A0420100001E030000CF03FFFF54
:10419800FFFFFFFFFFFF0000C90200000000190039
:1041A80000001900000002D2020000000014000004
:1041B800001400000002DB02000000002C010000D7
:1041C800640000000200000004000000000300007A
:1041D8000000020001000000FFFF000001000000D5
:1041E8000000000000000000000000000500FF00C3
:1041F800000100FF0000BB0EBB0E304050FF4567BA
:104208006F5F73706565643A20003B2000536574E6
:104218005F73706565643A20003B00414343204F5B
:104228004E00414343204F4646004572726F72204C
:10423800696E2074686520414343207379737465FF
:104248006D2C2069742077696C6C20626520747508
:10425800726E6564206F66660047617320706564DE
:10426800616C2070726573736564204143432074E8
:1042780075726E6564206F6666004272616B6520B8
:10428800706564616C207072657373656420414366
:1042980043207475726E6564206F6666005365749A
:1042A8002053706565642076656C6F636974792046
:1042B8006D7573742062652067726561746572201C
:1042C8007468616E203430206B6D2F2F68002530A4
:1042D800345800A60197018801C4015D09CF02D9AD
:1042E8000602C4015D09D802D90601C4015D09E1CD
:1042F80002D90600BF01BA01B501CF0310030203BA
:10430800F4021E03000514058000860B0000020459
:1043180001000405800480000F0B00000103010068
:10432800020594058000FC0B000000020100120544
:10433800140650005F0E000003000100E101DC01DB
:104348000001010100000000EF07BD07C6079F0735
:1043580033053C07200565074108E206EA06FA0826
:10436800310833095A086609A5089D09DD06EF09D1
:104378007D08520A930AC4080D0A006E616E00692E
:104388006E66006F76660000000000DC180415AB4E
:0A4398001829197D189718891800DC
:00000001FF
