:100000000C94EE000C94340E0C945B0E0C941601C0
:100010000C9416010C9416010C9416010C94160104
:100020000C9416010C9416010C9416010C941601F4
:100030000C9416010C9416010C9416010C941601E4
:100040000C94D70C0C9416010C949F160C94D1169A
:100050000C9416010C9416010C9416010C941601C4
:100060000C9416010C941601D81058105C106010F6
:10007000641068106B106E107210751079107C107F
:1000800080108310DC1092109610F6109A10BB109E
:100090009E10C310C610A110CD10A510A810AB1053
:1000A000E010BB10BF10C310C610C910CD10D11086
:1000B000D510000000080002010000030407000042
:1000C000000000000000010204081020408001022E
:1000D000040810200102040810200404040404048D
:1000E00004040202020202020303030303030000EA
:1000F0000000230026002900000000002500280041
:100100002B0000000000240027002A0052657475AF
:10011000726E696E6720746F2050726576696F75B4
:1001200073204D6F6465204661696C7572652E2E73
:100130002E006053657474696E67204944204D6FCA
:100140006465204661696C7572652E2E2E005365BC
:100150007474696E672042617564726174652053BE
:1001600075636365737366756C2100536574746998
:100170006E67204261756472617465204661696CC6
:100180007572652E2E2E00456E746572696E67203D
:10019000436F6E66696775726174696F6E204D6F2B
:1001A0006465205375636365737366756C210045E0
:1001B0006E746572696E6720436F6E6669677572EB
:1001C0006174696F6E204D6F6465204661696C755E
:1001D00072652E2E2E00100C2E0EF71611241FBE47
:1001E000CFEFD8E0DEBFCDBF13E0A0E0B1E0E6E6A0
:1001F000FEE302C005900D92AE33B107D9F726E0B9
:10020000AEE3B3E001C01D92AC31B207E1F710E0FC
:10021000CEEED0E004C02197FE010E94DA1ECB3E54
:10022000D107C9F70E941F0E0C94A3190C9400006B
:10023000E2E10E94BD010895E9E00E94BD01089538
:10024000EAE00E94BD010895E1E00E94BD01089529
:10025000E3E00E94BD010895E7E00E94BD0108951A
:10026000E5E00E94BD010895E0E00E94BD0108950F
:10027000E2E00E94BD010895E4E00E94BD010895FE
:10028000ECE00E94BD010895E8E00E94BD010895E0
:10029000EEE00E94BD010895E4E10E94BD010895D1
:1002A000E0E10E94BD010895E7E10E94BD010895CB
:1002B000E6E00E94BD010895EBE00E94BD010895B3
:1002C000EDE00E94BD010895EFE00E94BD01089598
:1002D000E1E10E94BD010895E3E10E94BD0108959E
:1002E000E5E10E94BD010895E6E10E94BD01089587
:1002F00021968A929A92AA92BA92CA92DA92EA9233
:10030000FA920A931A932197E0917201F091730186
:100310000080F181E02DC083D1830895C0917401E4
:10032000D0917501E881F981C081D181219619911F
:100330000991F990E990D990C990B990A9909990B4
:100340008990219708952F903F90E7E6F1E0CDB78F
:10035000DEB7EDBFFEBF3F922F9208952F903F90E2
:10036000CDBFDEBF3F922F920895E0E80E94BD010D
:100370000895E0E40E94BD0108952F923F924F92AC
:100380005F926F927F922FB62F92CF93DF937E2E44
:10039000F894E0910001EF5FE0930001E13011F487
:1003A0000E94A301E0E0E0938201E72DE07849F0AC
:1003B0000E941106F0918301F17071F00E94C40453
:1003C0000BC0E72DEC3140F4EE0FF0E0E451FD4FAF
:1003D0000190F081E02D0995F0918201EF2FE170FD
:1003E00059F0F27011F00E9478018F938F2F0E94C4
:1003F0000C048F910E948E012091000121502093C6
:100400000001222311F40E94AE01DF91CF912F90C1
:100410002FBE7F906F905F904F903F902F900895E8
:10042000CF92DF92EF92FF920F931F93DC01EC913A
:10043000DB012C918E2F8170C82ED12CE12CF12C58
:100440008E2F8F7090E0A0E0B0E0B695A7959795BD
:100450008795DC01A158BC4F8C91C81AD108E108DE
:10046000F108EE70422F417050E060E070E0822FA2
:100470008F7090E0A0E0B0E0B695A795979587952E
:10048000DC01A158BC4F8C91481B510961097109CD
:10049000822F8E7097018601017011272227332742
:1004A0000E2B4170552766277727482B81E090E077
:1004B000041715072607370710F080E090E01F911A
:1004C0000F91FF90EF90DF90CF9008958F929F92C1
:1004D000AF92BF92EF92FF920F931F93CF93DF9350
:1004E0007C014A015B01B694A794979487944230AB
:1004F000510561057105E0F0440F551F8701040F98
:10050000151FE401CC0FDD1FCE0DDF1DB801CE019C
:100510000E941002892B61F0F8019081818128816D
:1005200039813183208398838983B501A401DBCF8E
:10053000DF91CF911F910F91FF90EF90BF90AF90FF
:100540009F908F9008954F925F926F927F928F92BB
:100550009F92AF92BF92CF92DF92EF92FF920F9352
:100560001F93CF93DF9300D000D000D0CDB7DEB77C
:100570008C016A017B01DC018C91282F30E040E086
:1005800050E029833A834B835C8346015701880CF2
:10059000991CAA1CBB1C29813A814B815C812815BE
:1005A00039054A055B0508F442C0240135013FEFD7
:1005B000431A530A630A730A89819A81AB81BC8109
:1005C00084159505A605B70580F0B201660F771F63
:1005D000600F711FC401880F991F800F911F0E9427
:1005E0001002892B11F0530142013401660C771C73
:1005F000600E711ECC0CDD1CD801AC0DBD1DBE8380
:10060000AD83B301CD010E941002892B81F0ED81F1
:10061000FE8190818181D3012D913C91119731838D
:1006200020839C9311968C9375016401AECF26961E
:100630000FB6F894DEBF0FBECDBFDF91CF911F91F3
:100640000F91FF90EF90DF90CF90BF90AF909F9071
:100650008F907F906F905F904F900895ECEBF4E057
:1006600040814F5F408350E060E070E0E82FEE0F84
:10067000FF0BE056FD4F0190F081E02D238530E027
:10068000F901E158FC4F908191509083FA01EE0FEF
:10069000FF1FE454FB4F220F331F9170292B20833F
:1006A00081838CEB94E00C946602ECEBF4E04081E7
:1006B0004F5F408350E060E070E0E82FEE0FFF0BEB
:1006C000E856FD4F0190F081E02D9381FA01EE0F85
:1006D000FF1FE454FB4F908381838CEB94E00C94D8
:1006E0006602CF93DF93ECEBF4E080819FEF980FED
:1006F0009083D281C38190E0880F991FDC01A454BC
:10070000BB4F8D919C919383828341E050E060E0E8
:1007100070E0CF010E94A3028D2F9C2FDF91CF911B
:10072000089580917A0190917B01A0917C01B09114
:100730007D018F3F2FEF9207A207B20731F0039799
:10074000A105B10524F481E0089580E0089582E0D8
:100750000895880F990BFC01E056FD4F0190F08140
:10076000E02D0084F185E02D3097E9F02281211100
:100770001AC021E02283DC01A856BD4F0D90BC9128
:10078000A02D13968C9113978183808190E0FC01BA
:10079000E158FC4F208121502083880F991F217040
:1007A000822B13968C930895880F990BFC01E056C9
:1007B000FD4F0190F081E02D0084F185E02D309710
:1007C00061F02281213049F412822181FC01E85636
:1007D000FD4F0190F081E02D2383089580917E01EB
:1007E00090917F01A0918001B091810140917A01A7
:1007F00050917B0160917C0170917D0148175907F0
:100800006A077B0741F0E0917801F091790121E0DE
:1008100024830C9455030895CF93DF93882391F09C
:10082000C0917201D0917301E0917601F09177014E
:100830008481833049F081E0848380917A010E9431
:10084000550302C0C0E0D0E0E0917801F091790159
:10085000F0937701E0937601809174019091750196
:10086000909373018093720180917E0130917F019A
:10087000209180019091810180937A0130937B01D6
:1008800020937C0190937D0192E094830E94A903C0
:10089000CE01DF91CF91089580917A010E94D40317
:1008A000E0917601F09177018281882319F085E04B
:1008B0008483089514820895CF93DF93282F220F05
:1008C000330BF901E856FD4FC081D1819A81F901BE
:1008D000E056FD4F0190F081E02D2485921770F4D1
:1008E000911105C095E09C8391E0909383010E9453
:1008F0002E038A818F5F8A8380E001C084E0DF91CC
:10090000CF910895E82FEE0FFF0BE856FD4F0190B1
:10091000F081E02D118210820C94D90D1F93CF939A
:10092000DF930E947103182F892F492F092E000C85
:10093000550B660B770B40937E0150937F016093BC
:10094000800170938101292F220F330BF901E856A2
:10095000FD4FC081D181D0937901C0937801F90115
:10096000E056FD4F20813181309375012093740151
:100970009C81953019F40E9482041B83109283019C
:10098000DF91CF911F910895E0917E01F0917F0159
:10099000EE0FFF1FE856FD4F0190F081E02D909182
:1009A000BE048381891730F40E94EE030E948E04F6
:1009B00083E001C080E080938201089581E080930C
:1009C00082010C948E04EF92FF920F931F93CF93AA
:1009D000DF93C1E001C0CC0F8A95EAF783E00E9463
:1009E0005C0408EE12E0D0E0F80181918F018C23C5
:1009F00019F08D2F0E945C04DF5FD330A9F705EE5C
:100A000012E087E7E82E82E0F82ED1E0F80181912C
:100A10008F018C2339F0F70180819181FC01D68709
:100A20000E944A05F2E0EF0EF11C82E0083E180732
:100A300069F7DF91CF911F910F91FF90EF9008958B
:100A40000E94F80681110E941907E0917601F09149
:100A5000770180819181892B21F080917A010E9418
:100A6000E0080C9441080E94F80681110E941907C1
:100A7000E0917601F091770180819181892B21F0BD
:100A800080917A010E94E0080C94290881E080930B
:100A90003E030895AF92BF92CF92DF92EF92FF9202
:100AA0000F931F93CF93DF93FC01A081B181AD9091
:100AB000BC90E501AC89BD89109739F0428553851A
:100AC0006485758530E020E017C0D50155969C936C
:100AD0008E93549757969C938E93569715821482B3
:100AE000138212825BC012968D919C9113973A2FBC
:100AF0002B2F009779F0DC011A96CD90DD90ED90C8
:100B0000FC901D974C155D056E057F0560F7CD01C6
:100B1000A32FB22F93838283B583A483009719F008
:100B2000EC01FD83EC83109729F01396FC93EE9370
:100B3000129705C0D5015596FC93EE935497E501A5
:100B4000AE89BF891A968D919D910D90BC91A02D73
:100B5000088919892A893B8980179107A207B30759
:100B600080F4041715072607370728F04817590798
:100B70006A077B0798F4D5015796FC93EE93569736
:100B80000DC0041715072607370740F44817590703
:100B90006A077B0718F4E501FF8BEE8BDF91CF919D
:100BA0001F910F91FF90EF90DF90CF90BF90AF908B
:100BB0000895CF93DF93DC01ED91FC9111970190A3
:100BC000F081E02D848995891296CD91DC9113975F
:100BD000A817B90711F4D58BC48B86899789A817F4
:100BE000B90711F4D78BC68B209731F014968D91ED
:100BF0009C9115979D838C8314960D90BC91A02D8C
:100C0000109721F01396DC93CE93129786899789DB
:100C1000892B21F484899589978B868BDF91CF91DD
:100C20000895EF92FF920F931F93CF93DF93FC01F0
:100C300080913E03882309F4B5C084859585A685F7
:100C4000B7850196A11DB11D84879587A687B787B3
:100C5000408151816281738184179507A607B70788
:100C600009F0A0C040895189628973894F5F5F4F45
:100C70006F4F7F4F84819581A681B7818417950737
:100C8000A607B70718F440E050E0BA01408B518B3B
:100C9000628B738B1486158616861786C689D7894C
:100CA000209709F47FC08A859B85AC85BD85481750
:100CB00059076A077B0709F075C0CE01DC0112965F
:100CC000ED90FC901397E114F10471F0D7011A969E
:100CD0000D911D912D913C911D9740175107620771
:100CE000730711F4C701EACF2C813D81211531052D
:100CF00029F0D9011396FC92EE921297E114F104B7
:100D000029F0D70115963C932E93149724893589A1
:100D1000C217D30711F4F58AE48AE114F10419F03B
:100D2000F78AE68A04C024893589378B268B8F01A0
:100D3000FC0113821282EA80FB80E881F981028043
:100D4000F381E02DCE0109954E815F81688579851B
:100D5000411551056105710509F18A859B85AC85B1
:100D6000BD85840F951FA61FB71FF80144815581CB
:100D700066817781481759076A077B0738F4841B17
:100D8000950BA60BB70B0197A109B1098A879B8721
:100D9000AC87BD87CE010E944A0501C01E86E701CF
:100DA000209749F6DF91CF911F910F91FF90EF901F
:100DB0000895FC0182810C945C040E94F8068091E5
:100DC00068010895809368010E94E3040E9446052B
:100DD0000C94DE040C94D80DCF93C82F0E9491037D
:100DE000811102C00E94150E8C2FCF910C941C0112
:100DF00080914B038130D9F080914303909144035B
:100E0000A0914503B0914603892B8A2B8B2B79F453
:100E100081E04091470350914803609149037091EC
:100E20004A03452B462B472B19F480E0089581E0B7
:100E3000089510924B0310924703109248031092AA
:100E4000490310924A0310924303109244031092F4
:100E500045031092460380913F0390914003A09177
:100E60004103B091420380934C0390934D03A093B0
:100E70004E03B0934F0308950E94180E80914C03C7
:100E800090914D03A0914E03B0914F030196A11D87
:100E9000B11D80934C0390934D03A0934E03B093E8
:100EA0004F038091470390914803A0914903B0916B
:100EB0004A030196A11DB11D8093470390934803F7
:100EC000A0934903B0934A030895809147039091FA
:100ED0004803A0914903B0914A030097A105B105C9
:100EE00069F140914C0350914D0360914E03709114
:100EF0004F03415051096109710940934C035093CC
:100F00004D0360934E0370934F030197A109B109FC
:100F10008093470390934803A0934903B0934A03F7
:100F200080914C0390914D03A0914E03B0914F03DB
:100F3000892B8A2B8B2B11F40C94160E089580911B
:100F4000470390914803A0914903B0914A03892B2C
:100F50008A2B8B2B89F48091430390914403A091B9
:100F60004503B0914603892B8A2B8B2B29F40E94D1
:100F7000180E81E080934B03089580914B038823E2
:100F800021F010924B030C94160E08950E941C0E33
:100F900080914C0390914D03A0914E03B0914F036B
:100FA0000196A11DB11D80934C0390934D03A09316
:100FB0004E03B0934F038091430390914403A0915B
:100FC0004503B09146030196A11DB11D80934303D3
:100FD00090934403A0934503B093460308958091F2
:100FE000430390914403A0914503B09146030097B9
:100FF000A105B10569F140914C0350914D036091F9
:101000004E0370914F03415051096109710940939A
:101010004C0350934D0360934E0370934F0301971D
:10102000A109B1098093430390934403A09345031E
:10103000B093460380914C0390914D03A0914E03D1
:10104000B0914F03892B8A2B8B2B11F40C941A0E21
:1010500008950E94F806882311F083E1089580E046
:101060000895CF93C82F0E94F8068C2F0E945C042D
:10107000C82F8091830181110E94C4048C2FCF91CD
:101080000895CF930E94F806882311F0C3E101C0B0
:10109000C0E0E0917601F0917701828181508283F6
:1010A0000E944C0481E0809382010E948E048C2F68
:1010B000CF910895CF93C82F0E94F806E091760152
:1010C000F09177018281815082838C2F0E945C0491
:1010D000C82F811108C00E944C0481E080938201D6
:1010E0000E948E0407C0E0917601F0917701828121
:1010F0008F5F82838C2FCF910895CF930E94F80643
:10110000882311F0C3E101C0C0E080917A010E9400
:10111000D4030E94C40480917A0190917B01A09134
:101120007C01B0917D0140917E0150917F016091E1
:1011300080017091810184179507A607B70711F404
:101140000E94A9038C2FCF910895CF93DF93EC01D8
:101150000E94F806882311F083E101C080E04091ED
:101160007A0150917B0160917C0170917D01433047
:1011700051056105710514F4488303C09091E9019C
:101180009883DF91CF9108950F931F93CF93C82F2A
:101190008B010E94F806882311F083E101C080E0F2
:1011A000EC2FEE0FFF0BE856FD4F0190F081E02D84
:1011B00094819370F8019083CF911F910F910895BE
:1011C000880F990BFC01E856FD4FA081B181ED918C
:1011D000FC911197309769F01D921C922091E901C2
:1011E00093818481228314821382E92FF82F309710
:1011F000B9F70895CF93C82F0E94F806882311F0FD
:1012000083E101C080E0EC2FF0E0EE0FFF1FE05221
:10121000FD4FA081B18190917A0112969C93129713
:10122000E0917601F09177012081318114963C9311
:101230002E931397B183A083938111969C9311975A
:101240002C9193819695921760F430E0D901A158C2
:10125000BC4F9C9191509C93220F331F9170292B6E
:101260002383CF910895CF93DF93C82F0E94F80670
:10127000882311F0D3E101C0D0E0EC2FF0E0EE0FB5
:10128000FF1FE052FD4F0190F081E02DA09176010B
:10129000B0917701818113968C9313978381948108
:1012A0008D939C93148213828091E90182830E9422
:1012B000C4048D2FDF91CF910895DC01ED91FC9155
:1012C00084819581DC01ED91FC9109941F93CF936A
:1012D000DF93182FEB010E94F806882311F083E1B9
:1012E00001C080E0E12FF0E0EE0FFF1FE958FD4F55
:1012F0000190F081E02D0190F081E02D0190F081CE
:10130000E02D40815181628173814C835D836E83C6
:101310007F834481558166817781488359836A83BD
:101320007B834085518562857385488759876A87A5
:101330007B87DF91CF911F9108958F929F92AF92FB
:10134000BF92CF92DF92EF92FF920F931F93CF93B2
:10135000C82F8B010E94F806882311F083E101C099
:1013600080E0EC2FF0E0EE0FFF1FE958FD4F0190F9
:10137000F081E02D9685913029F54285538564856D
:1013800075850190F081E02D0190F081E02DC088FD
:10139000D188E288F3884C155D056E057F0540F421
:1013A00084809580A680B780480D591D6A1D7B1DDD
:1013B0004C195D096E097F09F801408351836283EE
:1013C000738301C085E0CF911F910F91FF90EF9043
:1013D000DF90CF90BF90AF909F908F9008958F92A5
:1013E0009F92AF92BF92CF92DF92EF92FF920F93B4
:1013F0001F93CF93DF93D82F4A015B0168017901D6
:101400000E94F806882311F0C3E101C0C0E0ED2F6F
:10141000F0E0EE0FFF1FE958FD4F0190F081E02D45
:101420008685811130C0A081B1810D90BC91A02D25
:1014300050964D915D916D917C915397480D591D3A
:101440006A1D7B1D14968D919D910D90BC91A02DD0
:1014500084179507A607B70740F4481B590B6A0B7A
:101460007B0B415051096109710942875387648799
:101470007587C682D782E086F18681E08687CF01B4
:101480000E944A0501C0C7E08C2FDF91CF911F91C8
:101490000F91FF90EF90DF90CF90BF90AF909F9013
:1014A0008F9008958F929F92AF92BF92CF92DF92CA
:1014B000EF92FF920F931F93CF93DF93C82F4A01B0
:1014C0005B01680179010E94F806882311F0D3E1DD
:1014D00001C0D0E0EC2FF0E0EE0FFF1FE958FD4F08
:1014E0000190F081E02D868581110EC08286938661
:1014F000A486B586C682D782E086F18681E086879B
:10150000CF010E944A0501C0D7E08D2FDF91CF9116
:101510001F910F91FF90EF90DF90CF90BF90AF9011
:101520009F908F9008950F931F93CF93DF93C82FB1
:101530000E94F806882311F0D3E101C0D0E0EC2F1F
:10154000F0E0EE0FFF1FE958FD4F00811181F80117
:101550008685813031F4C8010E94D905F8011686CC
:1015600001C0D5E08D2FDF91CF911F910F9108958C
:101570008DE197ECA1EBB1E480936D0390936E0342
:10158000A0936F03B093700326E040E052EC61E05B
:1015900070E084E993E00E94F21722E04DE063E0FE
:1015A00080E593E00E947113882339F068EC70E0C5
:1015B00080E090E00E94600DF0CF60E080E593E075
:1015C0000E94361060E082E00C94430CEF92FF9290
:1015D0000F93CF93DF9320E030E040E853E4609135
:1015E0006D0370916E0380916F03909170030E9460
:1015F000A21B0E94B51A7F936F938AEE91E09F938E
:101600008F9384E693E09F938F930E94AF1940E1FC
:1016100050E060E070E084E693E00E948D18C9E637
:10162000D1E0798340E150E060E070E086E693E04D
:101630000E948D186A83809171018B837E0108E07E
:1016400021E043E055E060EF78E180E593E00E941F
:10165000F513809371036FEE71E084E993E00E94CB
:10166000FE140F900F900F900F900F900F90DF913E
:10167000CF910F91FF90EF900C9444016AEF71E0CD
:1016800084E993E00E94FE1482E00E94AE0C892B54
:1016900009F055C023E733E042E753E06BE773E01E
:1016A00080E593E00E94301480917B0390917C034D
:1016B000A0917D03B0917E0389749073AB71BC706F
:1016C00089349043AB41BC4009F56091740370913B
:1016D0007503762767277627072E000C880B990B52
:1016E0000E94ED1A20E030E040E85BE30E94A21B7C
:1016F000609368037093690380936A0390936B030C
:1017000069E072E084E993E00E94FE1480917B031B
:1017100090917C03A0917D03B0917E038827917FF7
:10172000AE7FB8718115914FAE4FB84141F481E061
:1017300090917403911101C080E080936C030C942C
:101740004401CF93C091E4028C2F0E945C0163E2BC
:1017500072E084E993E00E94DF14409168035091A5
:10176000690360916A0370916B0322E030E084E9C1
:1017700093E00E949D166EE372E084E993E00E947C
:10178000DF1461E472E084E993E00E94DF14609169
:101790006C0370E04AE050E084E993E00E94BB15DE
:1017A0006EE372E084E993E00E94FE146FE472E05D
:1017B00084E993E00E94DF144AE050E060916C01FC
:1017C00084E993E00E9466156EE372E084E993E099
:1017D0000E94DF1469E672E084E993E00E94DF145E
:1017E00020916A0130916B01922F832F27FF02C055
:1017F00081509F4F792F770F770B4AE050E0692F88
:1018000084E993E00E94BB1565E772E084E993E008
:101810000E94FE148C2F0E946001CF910C94440111
:101820006AE080E593E00C945E1380EC91E00C9408
:10183000B5010895833081F028F4813099F0823029
:10184000A1F008958730A9F08830B9F08430D1F440
:10185000809180008F7D03C0809180008F7780937E
:101860008000089584B58F7702C084B58F7D84BDD4
:1018700008958091B0008F7703C08091B0008F7D74
:101880008093B0000895CF93DF9390E0FC01EA537A
:10189000FF4F2491FC01E652FF4F8491882361F1B0
:1018A00090E0880F991FFC01EE5FFE4FC591D49127
:1018B000FC01E850FF4FA591B491611109C09FB799
:1018C000F8948881209582238883EC912E230BC085
:1018D000623061F49FB7F8948881322F309583236A
:1018E0008883EC912E2B2C939FBF06C08FB7F89462
:1018F000E8812E2B28838FBFDF91CF9108951F930E
:10190000CF93DF93282F30E0F901EE54FF4F8491FD
:10191000F901EA53FF4FD491F901E652FF4FC49108
:10192000CC23C1F0162F81110E941A0CEC2FF0E08D
:10193000EE0FFF1FE850FF4FA591B4919FB7F894A9
:10194000111104C08C91D095D82302C0EC91DE2BEC
:10195000DC939FBFDF91CF911F910895CF93DF93C9
:10196000282F30E0F901EE54FF4F8491F901EA533A
:10197000FF4FD491F901E652FF4FC491CC2391F06F
:1019800081110E941A0CEC2FF0E0EE0FFF1FE251C4
:10199000FF4FA591B491EC91ED2381E090E021F40B
:1019A00080E002C080E090E0DF91CF9108951F9227
:1019B0000F920FB60F9211242F933F934F935F9383
:1019C0006F937F938F939F93AF93BF93EF93FF9307
:1019D00080918B0390918C03A0918D03B0918E0325
:1019E00030918A0323E0230F2D3720F40196A11DA7
:1019F000B11D05C026E8230F0296A11DB11D20933D
:101A00008A0380938B0390938C03A0938D03B093F0
:101A10008E0380918F0390919003A0919103B091D8
:101A200092030196A11DB11D80938F0390939003A3
:101A3000A0939103B09392030E94150CFF91EF9134
:101A4000BF91AF919F918F917F916F915F914F91D6
:101A50003F912F910F900FBE0F901F9018952FB7A9
:101A6000F89460918B0370918C0380918D03909119
:101A70008E032FBF08953FB7F89480918F03909104
:101A80009003A0919103B091920326B5A89B05C045
:101A90002F3F19F00196A11DB11D3FBFBA2FA92FED
:101AA000982F8827820F911DA11DB11DBC01CD016A
:101AB00042E0660F771F881F991F4A95D1F7089556
:101AC0008F929F92AF92BF92CF92DF92EF92FF924E
:101AD0006B017C010E943B0D4B015C01C114D104E0
:101AE000E104F10401F10E94D60D0E943B0DDC01DE
:101AF000CB0188199909AA09BB09883E9340A10521
:101B0000B10560F321E0C21AD108E108F10888EEBE
:101B1000880E83E0981EA11CB11CC114D104E104FD
:101B2000F10419F7DBCFFF90EF90DF90CF90BF90DB
:101B3000AF909F908F90089584B5826084BD84B5E6
:101B4000816084BD85B5826085BD85B5816085BDB8
:101B5000EEE6F0E0808181608083E1E8F0E01082D1
:101B6000808182608083808181608083E0E8F0E012
:101B7000808181608083E1EBF0E0808184608083FC
:101B8000E0EBF0E0808181608083EAE7F0E0808133
:101B90008460808380818260808380818160808393
:101BA0008081806880831092C10008950895FFCFDE
:101BB000FFCFCF93DF93880F990BFC01E056FD4FC9
:101BC000C081D181AC81BD8111978A819B81A80F91
:101BD000B91F2D85CD010197FD013297223019F4EF
:101BE0002CE331E002C028E531E02C93DC013C938A
:101BF0009E818F819083DF018E93CF0107971E9284
:101C00008A179B07E1F780E8DF0118978C93CF01D3
:101C100044971E928A179B07E1F7A881B9817597AF
:101C2000ED93FC93DF91CF910895089578940895F2
:101C3000F894089578940895F894089508950E946A
:101C40009C0D0E941E0E0E94190C0E94B80A8091E1
:101C500093030E94EC0680E090E008958091EB02EF
:101C600080939303089508951F920F920FB60F92D9
:101C700011242F933F934F935F936F937F938F9391
:101C80009F93AF93BF93EF93FF93E091E201F091A5
:101C9000E3010995FF91EF91BF91AF919F918F91D2
:101CA0007F916F915F914F913F912F910F900FBE58
:101CB0000F901F9018951F920F920FB60F9211243C
:101CC0002F933F934F935F936F937F938F939F9344
:101CD000AF93BF93EF93FF93E091E401F091E5019F
:101CE0000995FF91EF91BF91AF919F918F917F9156
:101CF0006F915F914F913F912F910F900FBE0F9079
:101D00001F90189520913304222399F04FB7F8942F
:101D100020913304213059F42DB3209331043DB385
:101D200020913204209523232DBB4FBF02C0409346
:101D300031048CBD9DBD08958EBD00000DB407FE1D
:101D4000FDCF8EB5089580913304882361F09FB74D
:101D5000F8942091330480913104213019F48DBB23
:101D60009FBF08958FBF0895CF93DF93EC0180E567
:101D700091E00E94820E60E08A890E947F0C80ECD4
:101D80000E949C0E61E08A890E947F0C0E94A30E33
:101D900065E070E080E090E0DF91CF910C94600D01
:101DA0001F93CF93DF93EC01162F80E591E00E9403
:101DB000820E60E08A890E947F0C83E00E949C0E64
:101DC000812F0E949C0E80E00E949C0E182F61E0E3
:101DD0008A890E947F0C0E94A30E812FDF91CF91F0
:101DE0001F910895DF92EF92FF920F931F93CF936D
:101DF000DF938C01C62FD42EE52EF22E80E591E0E4
:101E00000E94820E60E0F80182890E947F0C83E0CC
:101E10000E949C0E8C2F0E949C0ECD2DDE2DCE019B
:101E20008F0D911D7C01EC16FD0629F080E00E94CB
:101E30009C0E8993F8CF61E0F80182890E947F0CA3
:101E4000DF91CF911F910F91FF90EF90DF900C9455
:101E5000A30E0F931F93CF93DF93EC01062F142F44
:101E600080E591E00E94820E60E08A890E947F0CEA
:101E700082E00E949C0E802F0E949C0E812F0E9467
:101E80009C0E61E08A890E947F0CDF91CF911F91A7
:101E90000F910C94A30EDF92EF92FF920F931F937A
:101EA000CF93DF938C01C62FD42EE52EF22E80E542
:101EB00091E00E94820E60E0F80182890E947F0C0E
:101EC00082E00E949C0E8C2F0E949C0ECD2DDE2D58
:101ED000CE018F0D911D7C01EC16FD0621F089913C
:101EE0000E949C0EF9CF61E0F80182890E947F0C6C
:101EF000DF91CF911F910F91FF90EF90DF900C94A5
:101F0000A30EFF920F931F93CF93DF93EC01F62E56
:101F1000042F122F80E591E00E94820E60E08A89F2
:101F20000E947F0C85E00E949C0E8F2D0E949C0ECB
:101F3000802F0E949C0E812F0E949C0E61E08A8956
:101F40000E947F0CDF91CF911F910F91FF900C9415
:101F5000A30E1F93CF93DF93EC0180E591E00E94E5
:101F6000820E60E08A890E947F0C80EA0E949C0EAB
:101F700080E00E949C0E182F61E08A890E947F0CED
:101F80000E94A30E812FDF91CF911F910895EF92B0
:101F9000FF920F931F93CF93DF93EC01162F0E94B4
:101FA0002F0D062FE12EF12C212F40EE6FE0CE01F8
:101FB0000E94810F6EE0CE010E94D00E807E90E0E4
:101FC0008E159F0539F00E942F0D601B693C60F350
:101FD00081E001C080E0DF91CF911F910F91FF90D0
:101FE000EF9008950F931F93CF93DF93EC01162F7B
:101FF0006EE00E94D00E807E803221F5103211F109
:102000006BE2CE010E94D00E082F007486FD06C040
:1020100020E440E46BE2CE010E94810F20E440E422
:102020006CE2CE010E94810F60E6CE010E94C70FD4
:10203000811116C0011106C020E040E46BE2CE0120
:102040000E94810F20E040E46CE2CE010E94810FEB
:10205000612FCE01DF91CF911F910F910C94C70F8B
:1020600081E0DF91CF911F910F910895FC01638B67
:102070000C94F20FCF92DF92EF92FF920F931F9387
:10208000CF93DF93342F3370313009F43FC008F41D
:1020900066C0323009F0AAC0062F10E0F80131976F
:1020A000EE30F10508F0A2C0EC5CFF4F0C94DA1E94
:1020B000C4E8D6EF23E987C0C4E8D6EF29E883C097
:1020C000C3E8D5EE27E87FC0C4E8D6EF25E87BC09B
:1020D000C4E8D6EF05C0C3E8D5EE02C0C1E8D3ED31
:1020E00024E871C0C4E8D6EF02C0C3E8D5EE21E809
:1020F0006AC0C4E8D6EF02C0C3E8D5EE20E863C0EA
:10210000C1E8D1ED2AC0C0E8D0EC27C0C62ED12C42
:10211000F6013197EE30F10508F068C0EE5BFF4F35
:102120000C94DA1EC4E8D6EF27E64DC0C4E8D6EF1B
:1021300023E549C0C3E8D5EE2EE445C0C4E8D6EF98
:1021400042C0C3E8D5EE23E43EC0C3E8D5EE27C0C5
:10215000C3E8D5EE28C0C1E8DAEC20E034C0062F91
:1021600010E0F8013697E930F10508F03FC0E05B78
:10217000FF4F0C94DA1EC4E8D6EF29E424C0C7E868
:10218000DFEF24EC20C0C4E8D6EF05C0C3E8D5EEED
:1021900002C0C1E8D3ED24E416C0C4E8D6EF21E4C0
:1021A00012C0C4E8D6EF20E40EC0C2E8D9EDD5CF06
:1021B000C4E8D6EF27EA07C0C7E8DFEF2FE303C084
:1021C000C1E8D3ED28E142FDCF778C01422F6AE2CE
:1021D0000E94290F4D2F69E2C8010E94290F4C2F40
:1021E00068E2C8010E94290F80E001C081E0DF9110
:1021F000CF911F910F91FF90EF90DF90CF900895B6
:102200000F931F93CF93DF9300D000D0CDB7DEB7ED
:102210004130B1F40C831B83890122273327502FCF
:102220005C71402F437078E0579F400D1124486047
:102230004A8355E0169507955A95E1F709830DC035
:10224000A80123E0569547952A95E1F74983029521
:10225000000F007E0A831C821B8224E0AE014F5FC8
:102260005F4F0E944B0F0F900F900F900F90DF91D8
:10227000CF911F910F9108950F931F93CF93DF93E9
:1022800000D000D0CDB7DEB7E62FF42FA901662726
:1022900077270C831B83F13081F4342F3C71242F7A
:1022A0002370F8E03F9F200D112428602A8335E039
:1022B000569547953A95E1F70AC0242F2295220FAB
:1022C000207E2A8323E0569547952A95E1F7498396
:1022D00024E0AE014F5F5F4F6E2F0E944B0F0F90B7
:1022E0000F900F900F90DF91CF911F910F91089554
:1022F0000F931F93CF93DF93EC0100E010E0980160
:1023000041E060E20E943C1100E010E0980141E0F1
:1023100064E2CE010E943C1100E010E0980141E02F
:1023200060E0CE010E943C1100E010E0980140E026
:1023300064E0CE010E943C1100E010E0980141E011
:1023400068E0CE010E943C1100E010E0980140E0FE
:1023500060E1CE010E943C1100E010E0980141E0F4
:1023600064E1CE010E943C1100E010E0980140E0E1
:1023700068E1CE010E943C1110E340E0612FCE01E4
:102380000E94290F60E1610F40E0CE010E94290FF9
:1023900060E2610F40E0CE010E94290F1F5F1E33F3
:1023A00061F740E060E6CE010E94290F40E060E75F
:1023B000CE01DF91CF911F910F910C94290FEF92D5
:1023C000FF920F931F93CF93DF93EC01062FF42E10
:1023D000E22E0E94B40E80E48B8B60E8CE010E9456
:1023E000F20F182F882341F06FEA71E084E993E03F
:1023F0000E94EC14812F5CC067E871E084E993E0EF
:102400000E94EC144E2D6F2DCE010E943A108823AD
:1024100039F06BE671E084E993E00E94EC1447C068
:102420006EE471E084E993E00E94EC14CE010E9416
:10243000781143E06BE2CE010E94290F4CE36CE07F
:10244000CE010E94290F40E06DE0CE010E94290FCD
:10245000002351F0033019F524E644E660E6CE018E
:102460000E94810F20E607C024E044E660E6CE012A
:102470000E94810F20E040E660E7CE010E94810FBC
:102480006B89CE010E94F20FC82F882381F06CE087
:1024900071E084E993E00E94EC148C2F09C062E3A0
:1024A00071E084E993E00E94EC1481E001C080E0D7
:1024B000DF91CF911F910F91FF90EF900895EF92D0
:1024C000FF920F931F93CF93DF9300D000D0CDB72F
:1024D000DEB77A018901FA011082F90110821182B6
:1024E0001282138224E0AE014F5F5F4F0E94F20E12
:1024F0002A813981822F90E065E0959587956A95CC
:10250000E1F7F8E03F9F800D911D1124092E000C8A
:10251000AA0BBB0BF80180839183A283B38323FFB3
:1025200025C032E0880F991FAA1FBB1F3A95D1F72B
:102530002370820F911DA11DB11DBA2FA92F982FB5
:1025400088272B81820F911DA11DB11DBA2FA92FA4
:10255000982F88272C81820F911DA11DB11D80838A
:102560009183A283B38381E0F70180830F900F9062
:102570000F900F90DF91CF911F910F91FF90EF90EF
:102580000895FF920F931F93CF93DF93EC01F62EE4
:10259000AC014A5F5F4F65E06F0D2D810E944B0FCC
:1025A0008E85813019F48D8180648D8364E06F0D98
:1025B0004D81CE010E94290F09811A812B813C8116
:1025C00048816F2DCE010E940011DF91CF911F91A4
:1025D0000F91FF9008950F931F93CF93DF93EC011A
:1025E000162F9C012F5F3F4FAC010E945F126FEFCF
:1025F000610FCE010E94D00E082F64E0610FCE0162
:102600000E94D00E8D8303FF03C091E09E8701C01E
:102610001E86282F2F702D83AE014A5F5F4F65E025
:10262000610FCE01DF91CF911F910F910C94F20EAB
:102630008F929F92AF92BF92CF92DF92EF92FF92D2
:102640001F93CF93DF9300D01F92CDB7DEB74C011D
:102650006B018091E6019091E701A091E8018983E7
:102660009A83AB83FB011082CE0101967C015E014F
:1026700094E0A90EB11CF70111917F01612FC401F3
:102680000E94D00E982F987083FD04C01F5FF60142
:10269000108304C0EA14FB0471F792E0892F0F90B5
:1026A0000F900F90DF91CF911F91FF90EF90DF90EF
:1026B000CF90BF90AF909F908F900895CF93DF936E
:1026C000EC01862F6A8B61E00E947F0C61E08A89B1
:1026D0000E94430C85E394E0998B888BDF91CF9126
:1026E0000895FF920F931F93CF93DF93EC01162F62
:1026F000042FF22E0E9457182F2D402F612FCE014C
:102700000E94DF1191E0811101C090E0892FDF91DB
:10271000CF911F910F91FF900895BF92CF92DF92BA
:10272000EF92FF920F931F93CF93DF931F92CDB73A
:10273000DEB78C010E943B0D6B017C01BE016F5F17
:102740007F4FC8010E941813B82E0E943B0DDC0178
:10275000CB018C199D09AE09BF0922E0B21206C057
:10276000843C9940A105B10548F331C0843C9940AF
:10277000A105B10560F56981C8010E94C112698196
:10278000615028E048E0C8010E94810F0E943B0D83
:102790006B017C0169816150C8010E94D00EB82E86
:1027A0000E943B0DDC01CB018C199D09AE09BF09CC
:1027B000B3FE06C0843C9940A105B10558F309C099
:1027C000843C9940A105B10520F480E003C086E077
:1027D00001C087E00F90DF91CF911F910F91FF9083
:1027E000EF90DF90CF90BF900895EF92FF920F93FC
:1027F000FC0141835283638374831686208305839F
:10280000F701DC0116969C01225F3F4F41914D93E9
:10281000A217B307D9F70F91FF90EF900C948D1387
:10282000CF93DF93EC010E94A90F80FF07C061E600
:10283000CE010E94EB1220E041E008C081FF0CC0F5
:1028400061E7CE010E94EB1220E042E06CE2CE0193
:102850000E94810F80E001C084E0DF91CF91089554
:10286000CF92DF92EF92FF920F931F93CF93DF935C
:10287000EC016B017A0189010E941014843099F1F6
:102880008881882349F089819A81AB81BC81B068B5
:1028900089839A83AB83BC838E85882349F08981A1
:1028A0009A81AB81BC81B06489839A83AB83BC83FA
:1028B00089819A81AB81BC81F60180839183A28357
:1028C000B3838D81F7018083DE011696F8018D8137
:1028D00090E09F01201B310B281739071CF48D91C4
:1028E0008193F5CF80E0DF91CF911F910F91FF9001
:1028F000EF90DF90CF900895CF92DF92EF92FF920A
:102900000F931F93CF93DF936C017A018B01C0E08B
:10291000D0E0CE15DF0581F0D8016D918D01D60193
:10292000ED91FC910190F081E02DC6010995892B74
:1029300011F02196EECF7E01C701DF91CF911F915B
:102940000F91FF90EF90DF90CF9008956115710582
:1029500079F0FB0101900020E9F73197AF01461BA8
:10296000570BDC01ED91FC910280F381E02D09947D
:1029700080E090E00895EF92FF920F931F93CF9322
:10298000DF938C017B01C0E0D0E0F701EC0FFD1F6D
:102990006491662361F0D801ED91FC910190F08182
:1029A000E02DC8010995892B11F02196EECFCE01BB
:1029B000DF91CF911F910F91FF90EF9008950C94AC
:1029C000A614DC01ED91FC910190F081E02D0994B9
:1029D0006CE173E00C94A6140F931F93CF93DF93D5
:1029E000EC010E94BB148C01CE010E94E814800F00
:1029F000911FDF91CF911F910F9108950F931F9316
:102A0000CF93DF93EC010E94A6148C01CE010E94AB
:102A1000E814800F911FDF91CF911F910F910895BE
:102A20008F929F92AF92BF92EF92FF920F931F935C
:102A3000CF93DF93CDB7DEB7A1970FB6F894DEBF83
:102A40000FBECDBF7C01FA01CB0119A2223008F4E0
:102A50002AE08E010F5D1F4F822E912CA12CB12CEC
:102A6000BF01A50194010E94B81EF901CA010150DD
:102A700011096A3014F4605D01C0695CD8016C937F
:102A8000232B242B252B61F7B801C7010E94A61424
:102A9000A1960FB6F894DEBF0FBECDBFDF91CF91E8
:102AA0001F910F91FF90EF90BF90AF909F908F90EC
:102AB00008952115310541F4DC01ED91FC9101905F
:102AC000F081E02D642F09940C9410159A01462F83
:102AD00050E060E070E00C9459159A01AB0160E0A1
:102AE00070E00C945915CF92DF92EF92FF920F9302
:102AF0001F93CF93DF932115310581F4DC01ED9114
:102B0000FC910190F081E02D642FDF91CF911F9116
:102B10000F91FF90EF90DF90CF9009942A3031050C
:102B200001F577FF1DC06A017B01EC016DE20E9497
:102B3000E1148C0144275527BA014C195D096E092F
:102B40007F092AE0CE010E941015800F911FDF91AE
:102B5000CF911F910F91FF90EF90DF90CF9008954C
:102B60002AE0DF91CF911F910F91FF90EF90DF90BE
:102B7000CF900C9410159A01AB01770F660B770B71
:102B80000C9473157F928F929F92AF92BF92CF92C7
:102B9000DF92EF92FF920F931F93CF93DF938C01FD
:102BA0006A017B01722E9A01AB01C701B6010E9436
:102BB0000F1C882319F06FE173E027C0460157010D
:102BC000E894B7F82FEF3FEF4FE75FE7C501B40197
:102BD0000E940F1C81110DC02FEF3FEF4FE75FE701
:102BE000C501B4010E943E1A18161CF463E273E09A
:102BF0000CC02FEF3FEF4FE75FE4C701B6010E9423
:102C00009D1B181694F467E273E0C801DF91CF9121
:102C10001F910F91FF90EF90DF90CF90BF90AF90FA
:102C20009F908F907F900C94A6142FEF3FEF4FE76B
:102C30005FECC701B6010E943E1A87FDE4CF20E099
:102C400030E0A901C701B6010E943E1A87FF0AC001
:102C50006DE2C8010E94E114EC01F7FAF094F7F874
:102C6000F09402C0C0E0D0E0B12C60E070E080E001
:102C70009FE37B1441F020E030E040E251E40E9409
:102C8000431AB394F6CFA70196010E94D2196B01A3
:102C90007C010E94BC1A4B015C012AE0AB01BC0123
:102CA000C8010E941015C80FD91F7720B9F1C501BE
:102CB000B4010E94EB1A9B01AC01C701B6010E944E
:102CC000D1196B017C016EE2C8010E94E114C80FAA
:102CD000D91F20E030E040E251E4C701B6010E9474
:102CE000A21B4B015C010E94BC1A6B017C014AE0F3
:102CF00050E0C8010E946D15C80FD91FB60180E0D1
:102D000090E00E94EB1A9B01AC01C501B4010E9446
:102D1000D1196B017C017A947110DBCFCE01DF9168
:102D2000CF911F910F91FF90EF90DF90CF90BF90C8
:102D3000AF909F908F907F9008950C94C2151F9232
:102D40000F920FB60F9211242F938F939F93EF93AF
:102D5000FF93E091A403F091A5038081E091AA0381
:102D6000F091AB0382FD12C090818091AD038F5F23
:102D70008F732091AE03821751F0E091AD03F0E024
:102D8000EC56FC4F958F8093AD0301C08081FF917D
:102D9000EF919F918F912F910F900FBE0F901F90E9
:102DA00018951F920F920FB60F9211242F933F93F5
:102DB0004F935F936F937F938F939F93AF93BF9343
:102DC000EF93FF9384E993E00E946117FF91EF91E5
:102DD000BF91AF919F918F917F916F915F914F9133
:102DE0003F912F910F900FBE0F901F901895E4E91F
:102DF000F3E01382128288EE93E0A0E0B0E08483D7
:102E00009583A683B7838FE293E09183808385ECDB
:102E100090E09587848784EC90E09787868780ECA4
:102E200090E0918B808B81EC90E0938B828B82EC95
:102E300090E0958B848B86EC90E0978B868B118E3F
:102E4000128E138E148E0895FC01918D228D892F80
:102E500090E0805C9F4F821B91098F7399270895A2
:102E6000FC01918D828D981731F0828DE80FF11D54
:102E7000858D90E008958FEF9FEF0895FC01918D6F
:102E8000828D981761F0828DDF01A80FB11D5D96CC
:102E90008C91928D9F5F9F73928F90E008958FEF3A
:102EA0009FEF0895FC01538D448D252F30E0842F32
:102EB00090E0821B930B541710F0CF960895019762
:102EC0000895FC01848DDF01A80FB11DA35ABF4FE7
:102ED0002C91848D90E001968F739927848FA68919
:102EE000B7892C93A089B1898C91837080648C936D
:102EF000938D848D981306C00288F389E02D80811C
:102F00008F7D80830895EF92FF920F931F93CF934D
:102F1000DF93EC0181E0888F9B8D8C8D981305C029
:102F2000E889F989808185FD26C0F62E0B8D10E099
:102F30000F5F1F4F0F731127E02E8C8DE8120CC00E
:102F40000FB607FCFACFE889F989808185FFF5CFB4
:102F5000CE010E946117F1CF8B8DFE01E80FF11DAC
:102F6000E35AFF4FF0829FB7F8940B8FEA89FB89F1
:102F7000808180620AC09FB7F894EE89FF896083E0
:102F8000E889F98980818370806480839FBF81E0B4
:102F900090E0DF91CF911F910F91FF90EF900895F6
:102FA000CF93DF93EC01888D8823C9F0EA89FB89F0
:102FB000808185FD05C0A889B9898C9186FD0FC0E7
:102FC0000FB607FCF5CF808185FFF2CFA889B989BC
:102FD0008C9185FFEDCFCE010E946117E7CFDF9185
:102FE000CF910895CF92DF92EF92FF921F93CF93EC
:102FF000DF93EC016A017B01122FE889F98982E0F5
:1030000080834115514E61057105B1F060E079E0B2
:103010008DE390E0A70196010E94B81EDA01C90174
:103020000197A109B109B695A795979587959C0138
:10303000211580E13807A8F0E889F989108260E855
:1030400074E88EE190E0A70196010E94B81EDA01B3
:10305000C9010197A109B109B695A79597958795DB
:103060009C01EC85FD853083EE85FF852083188EDD
:10307000EC89FD891083EA89FB89808180618083E6
:10308000EA89FB89808188608083EA89FB89808165
:1030900080688083EA89FB8980818F7D8083DF91CE
:1030A000CF911F91FF90EF90DF90CF900895CF9335
:1030B000CFB7F89480913404811127C0E4EEF0E09A
:1030C0008491E0EDF0E09491E82FF0E0EE0FFF1F27
:1030D000EE5FFE4FA591B491EC91E92321F461E0FC
:1030E0008AE00E947F0C61E08AE00E94430C8CB56C
:1030F00080618CBD8CB580648CBD61E08DE00E94E8
:10310000430C61E08BE00E94430C809134048F5F9C
:1031100080933404CFBFCF910895A0E0B0E0E3E9FD
:10312000F8E10C94EC1E5C016B017A0161157105EC
:1031300019F0FB0191838083E114F10429F0C701A8
:103140000297839708F0E5C0E5012196F50110810B
:10315000812F90E00E94A619892B11F05E01F4CF17
:103160001D3229F42196F501118101E007C01B32BF
:1031700021F4E5012296F501118100E0E114F1044A
:1031800009F1F0E1EF16F10429F43FC010E3E11476
:10319000F10421F128E0E216F10401F154F4E2E037
:1031A000EE16F10421F5812C912CA12CB0E4BB2E5C
:1031B0003EC0FAE0EF16F10439F020E1E216F10426
:1031C000B1F430C0103319F1FAE0EF2EF12CACEC71
:1031D0008A2E982CA82CACE0BA2E29C078E0E72ED5
:1031E000F12C812C912CA12CE0E1BE2E20C060E0BE
:1031F00070E080E090E897010F2C000C440B550B19
:103200000E94B81E49015A0112C0103359F4888136
:103210008F7D883509F0BACF19812296026080E14E
:10322000E82EF12C812C912CA12C68E0B62E40E0E8
:1032300060E070E0CB0127010F2C000C66087708D6
:10324000FE0150ED352E310E29E0231570F42FEBE1
:10325000210F2A3118F439EC332E06C02FE9210F43
:103260002A3118F529EA322E310E232D30E02E15A1
:103270003F05DCF447FD16C086169706A806B9067A
:1032800070F0A30192010E94A81E630D711D811DA3
:10329000911D61307105810520E8920710F04FEF14
:1032A00001C041E021961081CBCF202F2170C114A5
:1032B000D10471F0442329F02197F601D183C08312
:1032C00007C001FF19C02297F601D183C08314C043
:1032D00047FF12C0222329F060E070E080E090E810
:1032E00004C06FEF7FEF8FEF9FE722E230E0309373
:1032F0001B0620931A0609C0222381F09095809521
:10330000709561957F4F8F4F9F4F462F372F282FF6
:1033100012C040E030E020E090E00DC097FFF5CF14
:1033200082E290E090931B0680931A066FEF7FEF86
:103330008FEF9FE7EACF642F732F822FCDB7DEB7D1
:10334000E1E10C94081FF8940C94311F91110C9436
:10335000F51D803219F089508550C8F70895AEE008
:10336000B0E0E5EBF9E10C94F91E0D891E8986E0C9
:103370008C831A8309838FEF9FE79E838D83AE0131
:10338000475E5F4F6F89788DCE0101960E94141CB5
:10339000EF81F885E00FF11F10822E96E4E00C9487
:1033A000151F5058BB27AA270E94E9190C94631BCC
:1033B0000E94551B38F00E945C1B20F039F49F3F9F
:1033C00019F426F40C94521B0EF4E095E7FB0C94D0
:1033D0004C1BE92F0E94741B58F3BA17620773073E
:1033E0008407950720F079F4A6F50C94961B0EF44B
:1033F000E0950B2EBA2FA02D0B01B90190010C0105
:10340000CA01A0011124FF27591B99F0593F50F41C
:10341000503E68F11A16F040A22F232F342F442774
:10342000585FF3CF469537952795A795F04053956C
:10343000C9F77EF41F16BA0B620B730B840BBAF03C
:103440009150A1F0FF0FBB1F661F771F881FC2F7A7
:103450000EC0BA0F621F731F841F48F487957795BB
:103460006795B795F7959E3F08F0B0CF9395880F75
:1034700008F09927EE0F9795879508950E94281BCD
:1034800008F481E008950E94571A0C94631B0E946F
:103490005C1B58F00E94551B40F029F45F3F29F057
:1034A0000C944C1B51110C94971B0C94521B0E94B2
:1034B000741B68F39923B1F3552391F3951B550BB6
:1034C000BB27AA2762177307840738F09F5F5F4FF7
:1034D000220F331F441FAA1FA9F335D00E2E3AF036
:1034E000E0E832D091505040E695001CCAF72BD04E
:1034F000FE2F29D0660F771F881FBB1F261737079F
:103500004807AB07B0E809F0BB0B802DBF01FF27D0
:1035100093585F4F3AF09E3F510578F00C944C1B46
:103520000C94971B5F3FE4F3983ED4F38695779510
:103530006795B795F7959F5FC9F7880F911D969589
:10354000879597F90895E1E0660F771F881FBB1FE5
:10355000621773078407BA0720F0621B730B840B92
:10356000BA0BEE1F88F7E09508950E94BC1A689484
:10357000B1110C94971B08950E947C1B88F09F57F3
:1035800098F0B92F9927B751B0F0E1F0660F771F87
:10359000881F991F1AF0BA95C9F714C0B13091F07D
:1035A0000E94961BB1E008950C94961B672F782F0C
:1035B0008827B85F39F0B93FCCF386957795679542
:1035C000B395D9F73EF490958095709561957F4FAE
:1035D0008F4F9F4F0895E89409C097FB3EF4909554
:1035E0008095709561957F4F8F4F9F4F9923A9F0DC
:1035F000F92F96E9BB279395F6958795779567956B
:10360000B795F111F8CFFAF4BB0F11F460FF1BC0AE
:103610006F5F7F4F8F4F9F4F16C0882311F096E941
:1036200011C0772321F09EE8872F762F05C06623EF
:1036300071F096E8862F70E060E02AF09A95660FA8
:10364000771F881FDAF7880F9695879597F9089561
:10365000990F0008550FAA0BE0E8FEEF16161706A3
:10366000E807F907C0F012161306E407F50798F00B
:10367000621B730B840B950B39F40A2661F0232B24
:10368000242B252B21F408950A2609F4A140A695A0
:103690008FEF811D811D089597F99F6780E870E085
:1036A00060E008959FEF80EC089500240A941616B8
:1036B000170618060906089500240A941216130620
:1036C000140605060895092E0394000C11F48823AE
:1036D00052F0BB0F40F4BF2B11F460FF04C06F5FCA
:1036E0007F4F8F4F9F4F089557FD9058440F551FA0
:1036F00059F05F3F71F04795880F97FB991F61F074
:103700009F3F79F087950895121613061406551FEA
:10371000F2CF4695F1DF08C0161617061806991F56
:10372000F1CF86957105610508940895E894BB274B
:1037300066277727CB0197F908950E94281B08F484
:103740008FEF08950E94B51B0C94631B0E94551BBC
:1037500038F00E945C1B20F0952311F00C944C1B58
:103760000C94521B11240C94971B0E94741B70F331
:10377000959FC1F3950F50E0551F629FF001729F16
:10378000BB27F00DB11D639FAA27F00DB11DAA1F25
:10379000649F6627B00DA11D661F829F2227B00D72
:1037A000A11D621F739FB00DA11D621F839FA00DFD
:1037B000611D221F749F3327A00D611D231F849F4D
:1037C000600D211D822F762F6A2F11249F575040A4
:1037D0009AF0F1F088234AF0EE0FFF1FBB1F661F1F
:1037E000771F881F91505040A9F79E3F510580F0E8
:1037F0000C944C1B0C94971B5F3FE4F3983ED4F35E
:10380000869577956795B795F795E7959F5FC1F78B
:10381000FE2B880F911D9695879597F908950E9424
:10382000281B880B990B0895ABE0B0E0EAE1FCE1BE
:103830000C94EB1E6C017B018A01FC01178216823D
:10384000838181FFCCC1CE0101963C01F6019381B9
:10385000F70193FD859193FF81917F01882309F4FE
:10386000BAC1853239F493FD859193FF81917F012F
:10387000853229F4B60190E00E940E1EE7CF912C0C
:10388000212C312CFFE1F315D8F08B3279F038F48C
:10389000803279F08332A1F4232D20611DC08D3256
:1038A00061F0803369F4232D216016C0832D82607E
:1038B000382EE32DE4603E2E2AC0F32DF8601DC0A3
:1038C00037FC2DC020ED280F2A3040F08E32B9F49D
:1038D00036FC81C1232D2064322E19C036FE06C06D
:1038E0008AE0989E200D1124922E11C0EAE02E9EAF
:1038F000200D1124222EF32DF0623F2E08C08C36AD
:1039000021F4832D8068382E02C0883641F4F701F7
:1039100093FD859193FF81917F018111B3CF982F02
:103920009F7D9554933028F40C5F1F4F9FE399833C
:103930000DC0833631F0833771F0833509F059C0FB
:1039400021C0F801808189830E5F1F4F88248394F2
:10395000912C530113C02801F2E04F0E511CF801C5
:10396000A080B18036FE03C0692D70E002C06FEF09
:103970007FEFC5010E94031E4C018201F32DFF77EA
:103980003F2E16C0280122E0420E511CF801A080F3
:10399000B18036FE03C0692D70E002C06FEF7FEF8B
:1039A000C5010E94F81D4C01F32DF0683F2E8201E5
:1039B00033FC1BC0822D90E088169906B0F4B60146
:1039C00080E290E00E940E1E2A94F4CFF50137FCAD
:1039D000859137FE81915F01B60190E00E940E1E35
:1039E00021102A9421E0821A91088114910471F720
:1039F000E8C0843611F0893641F5F80137FE07C07A
:103A000060817181828193810C5F1F4F08C060814A
:103A10007181072E000C880B990B0E5F1F4FF32D41
:103A2000FF763F2E97FF09C0909580957095619520
:103A30007F4F8F4F9F4FF0683F2E2AE030E0A30169
:103A40000E944A1E882E861845C0853731F4232DE2
:103A50002F7EB22E2AE030E025C0932D997FB92E1B
:103A60008F36C1F018F4883579F0B5C0803719F079
:103A7000883721F0B0C0E92FE061BE2EB4FE0DC042
:103A8000FB2DF460BF2E09C034FE0AC0292F26602A
:103A9000B22E06C028E030E005C020E130E002C0D0
:103AA00020E132E0F801B7FE07C0608171818281B8
:103AB00093810C5F1F4F06C06081718180E090E0B0
:103AC0000E5F1F4FA3010E944A1E882E8618FB2DF1
:103AD000FF773F2E36FE0DC0232D2E7FA22E891498
:103AE00058F434FE0BC032FC09C0832D8E7EA82E04
:103AF00005C0B82CA32C03C0B82C01C0B92CA4FE5F
:103B00000FC0FE01E80DF11D8081803321F49A2D54
:103B1000997EA92E09C0A2FE06C0B394B39404C036
:103B20008A2D867809F0B394A3FC11C0A0FE06C0CC
:103B3000B21488F4280C922C9B180EC0B21460F4B6
:103B4000B60180E290E00E940E1EB394F7CFB2144B
:103B500018F42B1802C0982C212CA4FE10C0B6011A
:103B600080E390E00E940E1EA2FE17C0A1FC03C0DD
:103B700088E790E002C088E590E0B6010CC08A2D8D
:103B8000867859F0A1FE02C08BE201C080E2A7FC5A
:103B90008DE2B60190E00E940E1E891438F4B60141
:103BA00080E390E00E940E1E9A94F7CF8A94F3016E
:103BB000E80DF11D8081B60190E00E940E1E81107B
:103BC000F5CF222009F442CEB60180E290E00E94B7
:103BD0000E1E2A94F6CFF6018681978102C08FEFE0
:103BE0009FEF2B96E2E10C94071F992788270895F1
:103BF000FC010590615070400110D8F780959095B8
:103C00008E0F9F1F0895FC016150704001900110BC
:103C1000D8F7809590958E0F9F1F08950F931F934F
:103C2000CF93DF93FB01238121FD03C08FEF9FEF33
:103C30002CC022FF16C0468157812481358142174E
:103C4000530744F4A081B1819D012F5F3F4F318321
:103C500020838C93268137812F5F3F4F37832683C4
:103C600014C08B01EC01FB010084F185E02D099566
:103C7000892BE1F6D80116968D919C9117970196A4
:103C800017969C938E931697CE01DF91CF911F913B
:103C90000F910895FA01AA27283051F1203181F1BE
:103CA000E8946F936E7F6E5F7F4F8F4F9F4FAF4F44
:103CB000B1E03ED0B4E03CD0670F781F891F9A1F57
:103CC000A11D680F791F8A1F911DA11D6A0F711D0B
:103CD000811D911DA11D20D009F468943F912AE017
:103CE000269F11243019305D3193DEF6CF010895FF
:103CF000462F4770405D4193B3E00FD0C9F7F6CF30
:103D0000462F4F70405D4A3318F0495D31FD4052F7
:103D1000419302D0A9F7EACFB4E0A695979587958D
:103D200077956795BA95C9F700976105710508956C
:103D30009B01AC010A2E0694579547953795279518
:103D4000BA95C9F7620F731F841F951FA01D0895B0
:103D5000DB018F939F930E94E01EBF91AF91A29FC2
:103D6000800D911DA39F900DB29F900D1124089579
:103D7000A1E21A2EAA1BBB1BFD010DC0AA1FBB1F6F
:103D8000EE1FFF1FA217B307E407F50720F0A21BE1
:103D9000B30BE40BF50B661F771F881F991F1A944E
:103DA00069F760957095809590959B01AC01BD0178
:103DB000CF010895EE0FFF1F0590F491E02D0994B7
:103DC0000E94221FA59F900DB49F900DA49F800D6F
:103DD000911D112408952F923F924F925F926F92FE
:103DE0007F928F929F92AF92BF92CF92DF92EF928B
:103DF000FF920F931F93CF93DF93CDB7DEB7CA1B0C
:103E0000DB0B0FB6F894DEBF0FBECDBF09942A8836
:103E1000398848885F846E847D848C849B84AA84DE
:103E2000B984C884DF80EE80FD800C811B81AA816B
:103E3000B981CE0FD11D0FB6F894DEBF0FBECDBF36
:103E4000ED010895A29FB001B39FC001A39F700D23
:103E5000811D1124911DB29F700D811D1124911D92
:063E60000895F894FFCF65
:103E6600000000000000000000000000000000004C
:103E7600000000000000000000000000000000003C
:103E8600000000000000000000000000000000002C
:103E9600000000000000000000000000000000001C
:103EA600000000000000000000000000000000000C
:103EB60000000000000000000000000000000000FC
:103EC6000000000000000000FFFFFFFFFFFFFFFFF4
:103ED600FF010000D20200008503FFFFFFFFFFFF86
:103EE600FFFF00007D02000000001900000019001D
:103EF600000002860200000000140000001400000A
:103F060000028F0200000000E80300001900000014
:103F16000200000004000000000300000000020090
:103F260001000000FFFF000001000000000000008B
:103F360000000000000000000500FF00000100FF77
:103F46000000330E330E304050FF25303458004504
:103F56004E56494F552049434D00454E54524F55F4
:103F6600204E41205441534B00524543454245554E
:103F76002045474F2043414E2D2D2D2D2D2D2D2DE6
:103F86002D2D005265636562656E646F202D2D2DA3
:103F96002D2045676F5F73706565643A20003B208E
:103FA600004143435F656E61626C65643A2000457B
:103FB6006E7669616E646F202D2D2D2D2041434351
:103FC6005F696E7075743A20005365745F7370652F
:103FD60065643A20003B00A20193018401C0015DA3
:103FE600098302D90602C0015D098C02D90601C007
:103FF600015D099502D90600BB01B601B101850331
:10400600C402B602A802D202B604CA048000A10BFA
:10401600000002040100BA04360480003E0B0000D2
:1040260001030100B8044A058000E60A0000000208
:104036000100C804CA055000D70D000003000100A6
:10404600DD01D8010001010100000000EF07BD07F6
:10405600C6079F0733053C07200565074108E206AA
:10406600EA06FA08310833095A086609A5089D09BF
:10407600DD06EF097D08520A930AC4080D0A006E90
:10408600616E00696E66006F766600000000008350
:0E409600177C145217D01724173E173017004E
:00000001FF
