:100000000C94EE000C94280E0C944F0E0C941601D8
:100010000C9416010C9416010C9416010C94160104
:100020000C9416010C9416010C9416010C941601F4
:100030000C9416010C9416010C9416010C941601E4
:100040000C94CB0C0C9416010C948C160C94BE16CC
:100050000C9416010C9416010C9416010C941601C4
:100060000C9416010C941601CC104C105010541026
:1000700058105C105F106210661069106D107010DF
:1000800074107710D01086108A10EA108E10AF10FE
:100090009210B710BA109510C11099109C109F10B3
:1000A000D410AF10B310B710BA10BD10C110C510E6
:1000B000C91000000008000201000003040700004E
:1000C000000000000000010204081020408001022E
:1000D000040810200102040810200404040404048D
:1000E00004040202020202020303030303030000EA
:1000F0000000230026002900000000002500280041
:100100002B0000000000240027002A0052657475AF
:10011000726E696E6720746F2050726576696F75B4
:1001200073204D6F6465204661696C7572652E2E73
:100130002E006053657474696E67204944204D6FCA
:100140006465204661696C7572652E2E2E005365BC
:100150007474696E672042617564726174652053BE
:1001600075636365737366756C2100536574746998
:100170006E67204261756472617465204661696CC6
:100180007572652E2E2E00456E746572696E67203D
:10019000436F6E66696775726174696F6E204D6F2B
:1001A0006465205375636365737366756C210045E0
:1001B0006E746572696E6720436F6E6669677572EB
:1001C0006174696F6E204D6F6465204661696C755E
:1001D00072652E2E2E00040C220EE41611241FBE72
:1001E000CFEFD8E0DEBFCDBF13E0A0E0B1E0E0E4A8
:1001F000FEE302C005900D92AC31B107D9F726E0BD
:10020000ACE1B3E001C01D92AB37B207E1F710E0FB
:10021000CEEED0E004C02197FE010E94C71ECB3E67
:10022000D107C9F70E94130E0C9490190C9400008A
:10023000E2E10E94BD010895E9E00E94BD01089538
:10024000EAE00E94BD010895E1E00E94BD01089529
:10025000E3E00E94BD010895E7E00E94BD0108951A
:10026000E5E00E94BD010895E0E00E94BD0108950F
:10027000E2E00E94BD010895E4E00E94BD010895FE
:10028000ECE00E94BD010895E8E00E94BD010895E0
:10029000EEE00E94BD010895E4E10E94BD010895D1
:1002A000E0E10E94BD010895E7E10E94BD010895CB
:1002B000E6E00E94BD010895EBE00E94BD010895B3
:1002C000EDE00E94BD010895EFE00E94BD01089598
:1002D000E1E10E94BD010895E3E10E94BD0108959E
:1002E000E5E10E94BD010895E6E10E94BD01089587
:1002F00021968A929A92AA92BA92CA92DA92EA9233
:10030000FA920A931A932197E0917E01F0917F016E
:100310000080F181E02DC083D1830895C0918001D8
:10032000D0918101E881F981C081D1812196199113
:100330000991F990E990D990C990B990A9909990B4
:100340008990219708952F903F90E7E6F1E0CDB78F
:10035000DEB7EDBFFEBF3F922F9208952F903F90E2
:10036000CDBFDEBF3F922F920895E0E80E94BD010D
:100370000895E0E40E94BD0108952F923F924F92AC
:100380005F926F927F922FB62F92CF93DF937E2E44
:10039000F894E0910001EF5FE0930001E13011F487
:1003A0000E94A301E0E0E0938E01E72DE07849F0A0
:1003B0000E941B06F0918F01F17071F00E94CE0433
:1003C0000BC0E72DEC3140F4EE0FF0E0E553FD4FAC
:1003D0000190F081E02D0995F0918E01EF2FE170F1
:1003E00059F0F27011F00E9478018F938F2F0E94C4
:1003F00016048F910E948E012091000121502093BC
:100400000001222311F40E94AE01DF91CF912F90C1
:100410002FBE7F906F905F904F903F902F900895E8
:10042000CF92DF92EF92FF920F931F93DC01EC913A
:10043000DB012C918E2F8370C82ED12CE12CF12C56
:100440008E2F8F7190E0A0E0B0E032E0B695A795D6
:10045000979587953A95D1F7DC01A65ABC4F8C91B8
:10046000C81AD108E108F108EC71422F437050E03E
:1004700060E070E0822F8F7190E0A0E0B0E0F2E0E9
:10048000B695A79597958795FA95D1F7DC01A65A69
:10049000BC4F8C91481B510961097109822F8C71E5
:1004A0009701860103701127222733270E2B4370F3
:1004B000552766277727482B81E090E0041715071A
:1004C0002607370710F080E090E01F910F91FF9012
:1004D000EF90DF90CF9008958F929F92AF92BF924E
:1004E000EF92FF920F931F93CF93DF937C014A010A
:1004F0005B01B694A79497948794423051056105A7
:100500007105E0F0440F551F8701040F151FE4012A
:10051000CC0FDD1FCE0DDF1DB801CE010E941002F1
:10052000892B61F0F80190818181288139813183A3
:10053000208398838983B501A401DBCFDF91CF911C
:100540001F910F91FF90EF90BF90AF909F908F9071
:1005500008954F925F926F927F928F929F92AF9287
:10056000BF92CF92DF92EF92FF920F931F93CF93A0
:10057000DF9300D000D000D0CDB7DEB78C016A0188
:100580007B01DC018C91282F30E040E050E0298392
:100590003A834B835C8346015701880C991CAA1C43
:1005A000BB1C29813A814B815C81281539054A059C
:1005B0005B0508F442C0240135013FEF431A530A9A
:1005C000630A730A89819A81AB81BC818415950580
:1005D000A605B70580F0B201660F771F600F711F87
:1005E000C401880F991F800F911F0E941002892B50
:1005F00011F0530142013401660C771C600E711E2C
:10060000CC0CDD1CD801AC0DBD1DBE83AD83B30188
:10061000CD010E941002892B81F0ED81FE81908135
:100620008181D3012D913C911197318320839C933B
:1006300011968C9375016401AECF26960FB6F8948F
:10064000DEBF0FBECDBFDF91CF911F910F91FF9005
:10065000EF90DF90CF90BF90AF909F908F907F9062
:100660006F905F904F900895E9E9F4E040814F5F0B
:10067000408350E060E070E0E82FEE0FFF0BE2599E
:10068000FD4F0190F081E02D238530E0F901E65A1D
:10069000FC4F908191509083FA01EE0FFF1FE756B7
:1006A000FB4F220F331F220F331F9370292B208300
:1006B000818389E994E00C946C02E9E9F4E04081DB
:1006C0004F5F408350E060E070E0E82FEE0FFF0BDB
:1006D000EC59FD4F0190F081E02D9381FA01EE0F6E
:1006E000FF1FE756FB4F9083818389E994E00C94C8
:1006F0006C02CF93DF93E9E9F4E080819FEF980FDC
:100700009083D281C38190E0880F991FDC01A756A6
:10071000BB4F8D919C919383828341E050E060E0D8
:1007200070E0CF010E94A9028D2F9C2FDF91CF9105
:1007300008958091860190918701A0918801B091E0
:1007400089018F3F2FEF9207A207B20731F004977C
:10075000A105B10524F481E0089580E0089582E0C8
:100760000895880F990BFC01E259FD4F0190F0812B
:10077000E02D0084F185E02D3097F9F022812111E0
:100780001CC021E02283DC01AC59BD4F0D90BC910F
:10079000A02D13968C9113978183808190E0FC01AA
:1007A000E65AFC4F208121502083880F991F880F23
:1007B000991F2370822B13968C930895880F990BA1
:1007C000FC01E259FD4F0190F081E02D0084F1859C
:1007D000E02D309761F02281213049F4128221818D
:1007E000FC01EC59FD4F0190F081E02D2383089529
:1007F00080918A0190918B01A0918C01B0918D0123
:100800004091860150918701609188017091890122
:10081000481759076A077B0741F0E0918401F0917E
:10082000850121E024830C945D030895CF93DF9329
:10083000882391F0C0917E01D0917F01E0918201E7
:10084000F09183018481833049F081E08483809139
:1008500086010E945D0302C0C0E0D0E0E091840107
:10086000F0918501F0938301E093820180918001F2
:100870009091810190937F0180937E0180918A0104
:1008800030918B0120918C0190918D018093860194
:1008900030938701209388019093890192E094839B
:1008A0000E94B103CE01DF91CF910895809186011E
:1008B0000E94DE03E0918201F0918301828188230E
:1008C00019F085E08483089514820895CF93DF930F
:1008D000282F220F330BF901EC59FD4FC081D18134
:1008E0009A81F901E259FD4F0190F081E02D2485B4
:1008F000921770F4911105C095E09C8391E090935C
:100900008F010E9434038A818F5F8A8380E001C057
:1009100084E0DF91CF910895E82FEE0FFF0BEC59A3
:10092000FD4F0190F081E02D118210820C94CD0DCD
:100930001F93CF93DF930E947903182F892F492F9C
:10094000092E000C550B660B770B40938A015093D0
:100950008B0160938C0170938D01292F220F330B33
:10096000F901EC59FD4FC081D181D0938501C0932D
:100970008401F901E259FD4F2081318130938101D9
:10098000209380019C81953019F40E948C041B8374
:1009900010928F01DF91CF911F910895E0918A010C
:1009A000F0918B01EE0FFF1FEC59FD4F0190F0818C
:1009B000E02D90919B048381891730F40E94F80305
:1009C0000E94980483E001C080E080938E01089526
:1009D00081E080938E010C949804EF92FF920F9324
:1009E0001F93CF93DF93C1E001C0CC0F8A95EAF744
:1009F00084E00E94660406EC12E0D0E0F8018191E8
:100A00008F018C2319F08D2F0E946604DF5FD43094
:100A1000A9F703EC12E083E4E82E82E0F82ED1E09F
:100A2000F80181918F018C2339F0F7018081918148
:100A3000FC01D6870E945405F2E0EF0EF11C82E023
:100A4000063C180769F7DF91CF911F910F91FF9036
:100A5000EF9008950E94020781110E942307E09100
:100A60008201F091830180819181892B21F0809115
:100A700086010E94EA080C944B080E94020781112B
:100A80000E942307E0918201F0918301808191818E
:100A9000892B21F0809186010E94EA080C9433088A
:100AA00081E080931C030895AF92BF92CF92DF92B2
:100AB000EF92FF920F931F93CF93DF93FC01A081DE
:100AC000B181AD90BC90E501AC89BD89109739F03A
:100AD000428553856485758530E020E017C0D501D7
:100AE00055969C938E93549757969C938E935697B6
:100AF00015821482138212825BC012968D919C9192
:100B000013973A2F2B2F009779F0DC011A96CD908E
:100B1000DD90ED90FC901D974C155D056E057F05F1
:100B200060F7CD01A32FB22F93838283B583A48373
:100B3000009719F0EC01FD83EC83109729F01396D0
:100B4000FC93EE93129705C0D5015596FC93EE9356
:100B50005497E501AE89BF891A968D919D910D90AC
:100B6000BC91A02D088919892A893B898017910792
:100B7000A207B30780F4041715072607370728F0E4
:100B8000481759076A077B0798F4D5015796FC93D5
:100B9000EE9356970DC0041715072607370740F444
:100BA000481759076A077B0718F4E501FF8BEE8B9E
:100BB000DF91CF911F910F91FF90EF90DF90CF9039
:100BC000BF90AF900895CF93DF93DC01ED91FC913E
:100BD00011970190F081E02D848995891296CD912D
:100BE000DC911397A817B90711F4D58BC48B8689AC
:100BF0009789A817B90711F4D78BC68B209731F0C6
:100C000014968D919C9115979D838C8314960D90CD
:100C1000BC91A02D109721F01396DC93CE931297E0
:100C200086899789892B21F484899589978B868B6E
:100C3000DF91CF910895EF92FF920F931F93CF937F
:100C4000DF93FC0180911C03882309F4B5C08485DF
:100C50009585A685B7850196A11DB11D84879587C9
:100C6000A687B78740815181628173818417950778
:100C7000A607B70709F0A0C0408951896289738926
:100C80004F5F5F4F6F4F7F4F84819581A681B78102
:100C900084179507A607B70718F440E050E0BA019B
:100CA000408B518B628B738B148615861686178644
:100CB000C689D789209709F47FC08A859B85AC8532
:100CC000BD85481759076A077B0709F075C0CE0133
:100CD000DC011296ED90FC901397E114F10471F091
:100CE000D7011A960D911D912D913C911D9740179A
:100CF00051076207730711F4C701EACF2C813D81C8
:100D00002115310529F0D9011396FC92EE92129724
:100D1000E114F10429F0D70115963C932E93149712
:100D200024893589C217D30711F4F58AE48AE114BE
:100D3000F10419F0F78AE68A04C024893589378BD3
:100D4000268B8F01FC0113821282EA80FB80E881EE
:100D5000F9810280F381E02DCE0109954E815F81FA
:100D600068857985411551056105710509F18A8507
:100D70009B85AC85BD85840F951FA61FB71FF80105
:100D80004481558166817781481759076A077B0737
:100D900038F4841B950BA60BB70B0197A109B10979
:100DA0008A879B87AC87BD87CE010E94540501C00E
:100DB0001E86E701209749F6DF91CF911F910F9191
:100DC000FF90EF900895FC0182810C9466040E94CC
:100DD0000207809168010895809368010E94ED04E4
:100DE0000E9450050C94E8040C94CC0DCF93C82FAE
:100DF0000E949903811102C00E94090E8C2FCF918D
:100E00000C941C01809129038130D9F08091210339
:100E100090912203A0912303B0912403892B8A2B64
:100E20008B2B79F481E0409125035091260360914A
:100E3000270370912803452B462B472B19F480E09C
:100E4000089581E0089510922903109225031092CD
:100E50002603109227031092280310922103109268
:100E60002203109223031092240380911D0390917A
:100E70001E03A0911F03B091200380932A03909337
:100E80002B03A0932C03B0932D0308950E940C0E06
:100E900080912A0390912B03A0912C03B0912D03F4
:100EA0000196A11DB11D80932A0390932B03A0935B
:100EB0002C03B0932D038091250390912603A091DC
:100EC0002703B09128030196A11DB11D809325032E
:100ED00090932603A0932703B0932803089580914D
:100EE000250390912603A0912703B0912803009732
:100EF000A105B10569F140912A0350912B0360913E
:100F00002C0370912D0341505109610971094093DF
:100F10002A0350932B0360932C0370932D030197A6
:100F2000A109B1098093250390932603A093270379
:100F3000B093280380912A0390912B03A0912C0356
:100F4000B0912D03892B8A2B8B2B11F40C940A0E54
:100F500008958091250390912603A0912703B091D5
:100F60002803892B8A2B8B2B89F480912103909164
:100F70002203A0912303B0912403892B8A2B8B2B6E
:100F800029F40E940C0E81E080932903089580913A
:100F90002903882321F0109229030C940A0E089546
:100FA0000E94100E80912A0390912B03A0912C0394
:100FB000B0912D030196A11DB11D80932A0390933A
:100FC0002B03A0932C03B0932D03809121039091C8
:100FD0002203A0912303B09124030196A11DB11D0A
:100FE0008093210390932203A0932303B0932403BF
:100FF00008958091210390912203A0912303B09141
:1010000024030097A105B10569F140912A0350918D
:101010002B0360912C0370912D03415051096109FC
:10102000710940932A0350932B0360932C03709310
:101030002D030197A109B109809321039093220305
:10104000A0932303B093240380912A0390912B0350
:10105000A0912C03B0912D03892B8A2B8B2B11F49B
:101060000C940E0E08950E940207882311F083E16C
:10107000089580E00895CF93C82F0E9402078C2F17
:101080000E946604C82F80918F0181110E94CE04B6
:101090008C2FCF910895CF930E940207882311F0DF
:1010A000C3E101C0C0E0E0918201F091830182813F
:1010B000815082830E94560481E080938E010E94B9
:1010C00098048C2FCF910895CF93C82F0E940207C8
:1010D000E0918201F09183018281815082838C2F83
:1010E0000E946604C82F811108C00E94560481E046
:1010F00080938E010E94980407C0E0918201F091D4
:10110000830182818F5F82838C2FCF910895CF934B
:101110000E940207882311F0C3E101C0C0E0809162
:1011200086010E94DE030E94CE0480918601909188
:101130008701A0918801B091890140918A01509165
:101140008B0160918C0170918D0184179507A60722
:10115000B70711F40E94B1038C2FCF910895CF935C
:10116000DF93EC010E940207882311F083E101C0A4
:1011700080E04091860150918701609188017091D3
:101180008901443051056105710514F4488303C099
:101190009091FA019883DF91CF9108950F931F9357
:1011A000CF93C82F8B010E940207882311F083E19F
:1011B00001C080E0EC2FEE0FFF0BEC59FD4F0190CA
:1011C000F081E02D94819370F8019083CF911F916D
:1011D0000F910895880F990BFC01EC59FD4FA081E8
:1011E000B181ED91FC911197309769F01D921C929D
:1011F0002091FA0193818481228314821382E92F42
:10120000F82F3097B9F70895CF93C82F0E9402079F
:10121000882311F083E101C080E0EC2FF0E0EE0FB5
:10122000FF1FE254FD4FA081B1819091860112967B
:101230009C931297E0918201F0918301208131818A
:1012400014963C932E931397B183A08393811196A8
:101250009C9311972C91938196959695921770F483
:1012600030E0D901A65ABC4F9C9191509C93220F1B
:10127000331F220F331F9370292B2383CF9108959F
:10128000CF93DF93C82F0E940207882311F0D3E188
:1012900001C0D0E0EC2FF0E0EE0FFF1FE254FD4F55
:1012A0000190F081E02DA0918201B09183018181B4
:1012B00013968C931397838194818D939C931482BE
:1012C00013828091FA0182830E94CE048D2FDF91D8
:1012D000CF910895DC01ED91FC9184819581DC0131
:1012E000ED91FC9109941F93CF93DF93182FEB019D
:1012F0000E940207882311F083E101C080E0E12F02
:10130000F0E0EE0FFF1FED5BFD4F0190F081E02D4F
:101310000190F081E02D0190F081E02D408151811C
:10132000628173814C835D836E837F8344815581A9
:1013300066817781488359836A837B8340855185A1
:1013400062857385488759876A877B87DF91CF914C
:101350001F9108958F929F92AF92BF92CF92DF928A
:10136000EF92FF920F931F93CF93C82F8B010E9490
:101370000207882311F083E101C080E0EC2FF0E048
:10138000EE0FFF1FED5BFD4F0190F081E02D968584
:10139000913029F542855385648575850190F081EA
:1013A000E02D0190F081E02DC088D188E288F3889B
:1013B0004C155D056E057F0540F484809580A68000
:1013C000B780480D591D6A1D7B1D4C195D096E09BA
:1013D0007F09F801408351836283738301C085E0F4
:1013E000CF911F910F91FF90EF90DF90CF90BF9022
:1013F000AF909F908F9008958F929F92AF92BF92DF
:10140000CF92DF92EF92FF920F931F93CF93DF93D0
:10141000D82F4A015B01680179010E9402078823E5
:1014200011F0C3E101C0C0E0ED2FF0E0EE0FFF1FAF
:10143000ED5BFD4F0190F081E02D8685811130C07C
:10144000A081B1810D90BC91A02D50964D915D91E0
:101450006D917C915397480D591D6A1D7B1D149603
:101460008D919D910D90BC91A02D84179507A60795
:10147000B70740F4481B590B6A0B7B0B41505109CD
:10148000610971094287538764877587C682D7824D
:10149000E086F18681E08687CF010E94540501C075
:1014A000C7E08C2FDF91CF911F910F91FF90EF90AC
:1014B000DF90CF90BF90AF909F908F9008958F92C4
:1014C0009F92AF92BF92CF92DF92EF92FF920F93D3
:1014D0001F93CF93DF93C82F4A015B016801790105
:1014E0000E940207882311F0D3E101C0D0E0EC2F65
:1014F000F0E0EE0FFF1FED5BFD4F0190F081E02D5E
:10150000868581110EC082869386A486B586C682A2
:10151000D782E086F18681E08687CF010E9454055C
:1015200001C0D7E08D2FDF91CF911F910F91FF90D8
:10153000EF90DF90CF90BF90AF909F908F900895E5
:101540000F931F93CF93DF93C82F0E940207882326
:1015500011F0D3E101C0D0E0EC2FF0E0EE0FFF1F5F
:10156000ED5BFD4F00811181F8018685813031F4FA
:10157000C8010E94E305F801168601C0D5E08D2F51
:10158000DF91CF911F910F91089526E040E052EC3A
:1015900061E070E08FE693E00E94DF1722E04DE00B
:1015A00063E08EE293E00E946513882339F068ECD3
:1015B00070E080E090E00E94540DF0CF60E08EE299
:1015C00093E00E942A1060E082E00C94370CEF92C6
:1015D000FF920F93CF93DF9320E030E040E853E495
:1015E0006091790170917A0180917B0190917C01E9
:1015F0000E948F1B0E94A21A7F936F938BEF91E042
:101600009F938F9389E493E09F938F930E949C19FB
:1016100040E150E060E070E089E493E00E947A18D5
:10162000C9E6D1E0798340E150E060E070E08BE40E
:1016300093E00E947A186A837E0108E021E043E08B
:1016400055E060EF78E18EE293E00E94E913809329
:1016500043030F900F900F900F900F900F90DF911A
:10166000CF910F91FF90EF900C944401EF92FF9275
:101670000F9380917D018093720181E7E82E81E0D4
:10168000F82E08E021E040E054E060EF7CE08EE2DC
:1016900093E00E94E913809342030F91FF90EF9033
:1016A0000C94440182E00E94A20C892B09F055C0E1
:1016B0002EE433E04DE453E066E573E08EE293E020
:1016C0000E9424148091560390915703A0915803CF
:1016D000B0915903847B917AA274BC70843B914A87
:1016E000A244BC4009F560914F03709150037627E6
:1016F00067277627072E000C880B990B0E94DA1AB1
:1017000020E030E040E85BE30E948F1B60934403DD
:1017100070934503809346039093470360E072E023
:101720008FE693E00E94F214809156039091570344
:10173000A0915803B09159038827917FAE7FB8716B
:101740008115914FAE4FB84141F481E090914F0324
:10175000911101C080E0809348030C944401CF9321
:10176000C091C2028C2F0E945C016AE172E08FE698
:1017700093E00E94D31460917D0170E04AE050E054
:101780008FE693E00E94A81566E272E08FE693E090
:101790000E94D31469E272E08FE693E00E94D314B2
:1017A0004091790150917A0160917B0170917C01A7
:1017B00022E030E08FE693E00E948A1665E372E053
:1017C0008FE693E00E94F21467E372E08FE693E005
:1017D0000E94D31440914403509145036091460305
:1017E0007091470322E030E08FE693E00E948A1672
:1017F00066E272E08FE693E00E94D3148C2F0E9481
:101800006001CF910C9444016AE08EE293E00C9465
:10181000521381ED91E00C94B5010895833081F06D
:1018200028F4813099F08230A1F008958730A9F032
:101830008830B9F08430D1F4809180008F7D03C06E
:10184000809180008F7780938000089584B58F7792
:1018500002C084B58F7D84BD08958091B0008F77DC
:1018600003C08091B0008F7D8093B0000895CF9326
:10187000DF9390E0FC01EA53FF4F2491FC01E65214
:10188000FF4F8491882361F190E0880F991FFC013C
:10189000EE5FFE4FC591D491FC01E850FF4FA5913A
:1018A000B491611109C09FB7F89488812095822373
:1018B0008883EC912E230BC0623061F49FB7F894BB
:1018C0008881322F309583238883EC912E2B2C93A3
:1018D0009FBF06C08FB7F894E8812E2B28838FBF57
:1018E000DF91CF9108951F93CF93DF93282F30E09E
:1018F000F901EE54FF4F8491F901EA53FF4FD4915F
:10190000F901E652FF4FC491CC23C1F0162F81118B
:101910000E940E0CEC2FF0E0EE0FFF1FE850FF4F7F
:10192000A591B4919FB7F894111104C08C91D095F2
:10193000D82302C0EC91DE2BDC939FBFDF91CF91C7
:101940001F910895CF93DF93282F30E0F901EE54D3
:10195000FF4F8491F901EA53FF4FD491F901E65208
:10196000FF4FC491CC2391F081110E940E0CEC2FFB
:10197000F0E0EE0FFF1FE251FF4FA591B491EC9103
:10198000ED2381E090E021F480E002C080E090E06F
:10199000DF91CF9108951F920F920FB60F921124ED
:1019A0002F933F934F935F936F937F938F939F9367
:1019B000AF93BF93EF93FF9380916603909167037A
:1019C000A0916803B09169033091650323E0230F70
:1019D0002D3720F40196A11DB11D05C026E8230F67
:1019E0000296A11DB11D2093650380936603909319
:1019F0006703A0936803B093690380916A03909191
:101A00006B03A0916C03B0916D030196A11DB11DF4
:101A100080936A0390936B03A0936C03B0936D0360
:101A20000E94090CFF91EF91BF91AF919F918F910F
:101A30007F916F915F914F913F912F910F900FBECA
:101A40000F901F9018952FB7F894609166037091CE
:101A5000670380916803909169032FBF08953FB792
:101A6000F89480916A0390916B03A0916C03B091FC
:101A70006D0326B5A89B05C02F3F19F00196A11D47
:101A8000B11D3FBFBA2FA92F982F8827820F911D14
:101A9000A11DB11DBC01CD0142E0660F771F881F5B
:101AA000991F4A95D1F708958F929F92AF92BF9256
:101AB000CF92DF92EF92FF926B017C010E942F0D7B
:101AC0004B015C01C114D104E104F10401F10E9455
:101AD000CA0D0E942F0DDC01CB0188199909AA09B2
:101AE000BB09883E9340A105B10560F321E0C21A0D
:101AF000D108E108F10888EE880E83E0981EA11C49
:101B0000B11CC114D104E104F10419F7DBCFFF903B
:101B1000EF90DF90CF90BF90AF909F908F900895FF
:101B200084B5826084BD84B5816084BD85B58260E2
:101B300085BD85B5816085BDEEE6F0E08081816080
:101B40008083E1E8F0E01082808182608083808180
:101B500081608083E0E8F0E0808181608083E1EB58
:101B6000F0E0808184608083E0EBF0E08081816040
:101B70008083EAE7F0E080818460808380818260F6
:101B800080838081816080838081806880831092DF
:101B9000C10008950895FFCFFFCFCF93DF93880F43
:101BA000990BFC01E259FD4FC081D181AC81BD810F
:101BB00011978A819B81A80FB91F2D85CD010197AF
:101BC000FD013297223019F42CE331E002C028E500
:101BD00031E02C93DC013C939E818F819083DF0167
:101BE0008E93CF0107971E928A179B07E1F780E833
:101BF000DF0118978C93CF0144971E928A179B0799
:101C0000E1F7A881B9817597ED93FC93DF91CF91AE
:101C10000895089578940895F8940895789408950F
:101C2000F894089508950E94900D0E94120E0E944B
:101C30000D0C0E94C50A80916E030E94F60680E09A
:101C400090E008958091CA0280936E0308950895EC
:101C50001F920F920FB60F9211242F933F934F9321
:101C60005F936F937F938F939F93AF93BF93EF9304
:101C7000FF93E091F301F091F4010995FF91EF9149
:101C8000BF91AF919F918F917F916F915F914F9194
:101C90003F912F910F900FBE0F901F9018951F929C
:101CA0000F920FB60F9211242F933F934F935F9390
:101CB0006F937F938F939F93AF93BF93EF93FF9314
:101CC000E091F501F091F6010995FF91EF91BF9137
:101CD000AF919F918F917F916F915F914F913F91C4
:101CE0002F910F900FBE0F901F90189520910E040A
:101CF000222399F04FB7F89420910E04213059F423
:101D00002DB320930C043DB320910D042095232383
:101D10002DBB4FBF02C040930C048CBD9DBD0895E8
:101D20008EBD00000DB407FEFDCF8EB508958091E5
:101D30000E04882361F09FB7F89420910E048091DF
:101D40000C04213019F48DBB9FBF08958FBF0895F7
:101D5000CF93DF93EC0180E591E00E94760E60E086
:101D60008A890E94730C80EC0E94900E61E08A893F
:101D70000E94730C0E94970E65E070E080E090E096
:101D8000DF91CF910C94540D1F93CF93DF93EC010F
:101D9000162F80E591E00E94760E60E08A890E940D
:101DA000730C83E00E94900E812F0E94900E80E0C1
:101DB0000E94900E182F61E08A890E94730C0E9485
:101DC000970E812FDF91CF911F910895DF92EF92AF
:101DD000FF920F931F93CF93DF938C01C62FD42EC6
:101DE000E52EF22E80E591E00E94760E60E0F8018B
:101DF00082890E94730C83E00E94900E8C2F0E94B7
:101E0000900ECD2DDE2DCE018F0D911D7C01EC1697
:101E1000FD0629F080E00E94900E8993F8CF61E0E2
:101E2000F80182890E94730CDF91CF911F910F916D
:101E3000FF90EF90DF900C94970E0F931F93CF932A
:101E4000DF93EC01062F142F80E591E00E94760EBF
:101E500060E08A890E94730C82E00E94900E802FBD
:101E60000E94900E812F0E94900E61E08A890E944C
:101E7000730CDF91CF911F910F910C94970EDF920D
:101E8000EF92FF920F931F93CF93DF938C01C62F96
:101E9000D42EE52EF22E80E591E00E94760E60E0D1
:101EA000F80182890E94730C82E00E94900E8C2FB0
:101EB0000E94900ECD2DDE2DCE018F0D911D7C0147
:101EC000EC16FD0621F089910E94900EF9CF61E099
:101ED000F80182890E94730CDF91CF911F910F91BD
:101EE000FF90EF90DF900C94970EFF920F931F934B
:101EF000CF93DF93EC01F62E042F122F80E591E0B3
:101F00000E94760E60E08A890E94730C85E00E9430
:101F1000900E8F2D0E94900E802F0E94900E812F88
:101F20000E94900E61E08A890E94730CDF91CF912C
:101F30001F910F91FF900C94970E1F93CF93DF93F7
:101F4000EC0180E591E00E94760E60E08A890E94B3
:101F5000730C80EA0E94900E80E00E94900E182F71
:101F600061E08A890E94730C0E94970E812FDF9195
:101F7000CF911F910895EF92FF920F931F93CF93EC
:101F8000DF93EC01162F0E94230D062FE12EF12C7A
:101F9000212F40EE6FE0CE010E94750F6EE0CE0162
:101FA0000E94C40E807E90E08E159F0539F00E943D
:101FB000230D601B693C60F381E001C080E0DF918C
:101FC000CF911F910F91FF90EF9008950F931F9362
:101FD000CF93DF93EC01162F6EE00E94C40E807E3B
:101FE000803221F5103211F16BE2CE010E94C40E55
:101FF000082F007486FD06C020E440E46BE2CE01A9
:102000000E94750F20E440E46CE2CE010E94750F3F
:1020100060E6CE010E94BB0F811116C0011106C0FF
:1020200020E040E46BE2CE010E94750F20E040E426
:102030006CE2CE010E94750F612FCE01DF91CF912E
:102040001F910F910C94BB0F81E0DF91CF911F91F5
:102050000F910895FC01638B0C94E60FCF92DF92F1
:10206000EF92FF920F931F93CF93DF93342F337030
:10207000313009F43FC008F466C0323009F0AAC01C
:10208000062F10E0F8013197EE30F10508F0A2C0FC
:10209000EC5CFF4F0C94C71EC4E8D6EF23E987C061
:1020A000C4E8D6EF29E883C0C3E8D5EE27E87FC0AF
:1020B000C4E8D6EF25E87BC0C4E8D6EF05C0C3E886
:1020C000D5EE02C0C1E8D3ED24E871C0C4E8D6EF74
:1020D00002C0C3E8D5EE21E86AC0C4E8D6EF02C06A
:1020E000C3E8D5EE20E863C0C1E8D1ED2AC0C0E85E
:1020F000D0EC27C0C62ED12CF6013197EE30F10579
:1021000008F068C0EE5BFF4F0C94C71EC4E8D6EF22
:1021100027E64DC0C4E8D6EF23E549C0C3E8D5EEB5
:102120002EE445C0C4E8D6EF42C0C3E8D5EE23E4B0
:102130003EC0C3E8D5EE27C0C3E8D5EE28C0C1E84D
:10214000DAEC20E034C0062F10E0F8013697E930D1
:10215000F10508F03FC0E05BFF4F0C94C71EC4E8D8
:10216000D6EF29E424C0C7E8DFEF24EC20C0C4E8A0
:10217000D6EF05C0C3E8D5EE02C0C1E8D3ED24E434
:1021800016C0C4E8D6EF21E412C0C4E8D6EF20E4BC
:102190000EC0C2E8D9EDD5CFC4E8D6EF27EA07C014
:1021A000C7E8DFEF2FE303C0C1E8D3ED28E142FD2C
:1021B000CF778C01422F6AE20E941D0F4D2F69E2FA
:1021C000C8010E941D0F4C2F68E2C8010E941D0F1C
:1021D00080E001C081E0DF91CF911F910F91FF90CE
:1021E000EF90DF90CF9008950F931F93CF93DF93DD
:1021F00000D000D0CDB7DEB74130B1F40C831B83E3
:10220000890122273327502F5C71402F437078E0DB
:10221000579F400D112448604A8355E01695079555
:102220005A95E1F709830DC0A80123E0569547951B
:102230002A95E1F749830295000F007E0A831C82EC
:102240001B8224E0AE014F5F5F4F0E943F0F0F9053
:102250000F900F900F90DF91CF911F910F910895E4
:102260000F931F93CF93DF9300D000D0CDB7DEB78D
:10227000E62FF42FA901662777270C831B83F13003
:1022800081F4342F3C71242F2370F8E03F9F200D00
:10229000112428602A8335E0569547953A95E1F751
:1022A0000AC0242F2295220F207E2A8323E05695F0
:1022B00047952A95E1F7498324E0AE014F5F5F4FD0
:1022C0006E2F0E943F0F0F900F900F900F90DF9195
:1022D000CF911F910F9108950F931F93CF93DF9389
:1022E000EC0100E010E0980141E060E20E94301152
:1022F00000E010E0980141E064E2CE010E9430115C
:1023000000E010E0980141E060E0CE010E94301151
:1023100000E010E0980140E064E0CE010E9430113E
:1023200000E010E0980141E068E0CE010E94301129
:1023300000E010E0980140E060E1CE010E94301121
:1023400000E010E0980141E064E1CE010E9430110C
:1023500000E010E0980140E068E1CE010E943011F9
:1023600010E340E0612FCE010E941D0F60E1610F7C
:1023700040E0CE010E941D0F60E2610F40E0CE01FF
:102380000E941D0F1F5F1E3361F740E060E6CE0123
:102390000E941D0F40E060E7CE01DF91CF911F91B9
:1023A0000F910C941D0FEF92FF920F931F93CF93F9
:1023B000DF93EC01062FF42EE22E0E94A80E80E49B
:1023C0008B8B60E8CE010E94E60F182F882341F026
:1023D0006FEA71E08FE693E00E94E014812F5CC009
:1023E00067E871E08FE693E00E94E0144E2D6F2DB8
:1023F000CE010E942E10882339F06BE671E08FE643
:1024000093E00E94E01447C06EE471E08FE693E031
:102410000E94E014CE010E946C1143E06BE2CE01F9
:102420000E941D0F4CE36CE0CE010E941D0F40E0A6
:102430006DE0CE010E941D0F002351F0033019F50D
:1024400024E644E660E6CE010E94750F20E607C050
:1024500024E044E660E6CE010E94750F20E040E6ED
:1024600060E7CE010E94750F6B89CE010E94E60FD6
:10247000C82F882381F06CE071E08FE693E00E9422
:10248000E0148C2F09C062E371E08FE693E00E94B4
:10249000E01481E001C080E0DF91CF911F910F91A6
:1024A000FF90EF900895EF92FF920F931F93CF93B9
:1024B000DF9300D000D0CDB7DEB77A018901FA01F1
:1024C0001082F901108211821282138224E0AE017F
:1024D0004F5F5F4F0E94E60E2A813981822F90E084
:1024E00065E0959587956A95E1F7F8E03F9F800D47
:1024F000911D1124092E000CAA0BBB0BF80180833F
:102500009183A283B38323FF25C032E0880F991FF4
:10251000AA1FBB1F3A95D1F72370820F911DA11DF1
:10252000B11DBA2FA92F982F88272B81820F911DBB
:10253000A11DB11DBA2FA92F982F88272C81820F9A
:10254000911DA11DB11D80839183A283B38381E07E
:10255000F70180830F900F900F900F90DF91CF9134
:102560001F910F91FF90EF900895FF920F931F938B
:10257000CF93DF93EC01F62EAC014A5F5F4F65E02D
:102580006F0D2D810E943F0F8E85813019F48D8152
:1025900080648D8364E06F0D4D81CE010E941D0F1C
:1025A00009811A812B813C8148816F2DCE010E94C7
:1025B000F410DF91CF911F910F91FF9008950F9329
:1025C0001F93CF93DF93EC01162F9C012F5F3F4F9A
:1025D000AC010E9453126FEF610FCE010E94C40E36
:1025E000082F64E0610FCE010E94C40E8D8303FFAB
:1025F00003C091E09E8701C01E86282F2F702D8377
:10260000AE014A5F5F4F65E0610FCE01DF91CF9170
:102610001F910F910C94E60E8F929F92AF92BF92F2
:10262000CF92DF92EF92FF921F93CF93DF9300D070
:102630001F92CDB7DEB74C016B018091F7019091ED
:10264000F801A091F90189839A83AB83FB01108281
:10265000CE0101967C015E0194E0A90EB11CF70148
:1026600011917F01612FC4010E94C40E982F9870B0
:1026700083FD04C01F5FF601108304C0EA14FB044D
:1026800071F792E0892F0F900F900F90DF91CF910B
:102690001F91FF90EF90DF90CF90BF90AF909F90F1
:1026A0008F900895CF93DF93EC01862F6A8B61E0C2
:1026B0000E94730C61E08A890E94370C80E194E0EB
:1026C000998B888BDF91CF910895FF920F931F9381
:1026D000CF93DF93EC01162F042FF22E0E944418A3
:1026E0002F2D402F612FCE010E94D31191E0811137
:1026F00001C090E0892FDF91CF911F910F91FF9042
:102700000895BF92CF92DF92EF92FF920F931F93A3
:10271000CF93DF931F92CDB7DEB78C010E942F0DB0
:102720006B017C01BE016F5F7F4FC8010E940C13DB
:10273000B82E0E942F0DDC01CB018C199D09AE092A
:10274000BF0922E0B21206C0843C9940A105B10540
:1027500048F331C0843C9940A105B10560F5698119
:10276000C8010E94B5126981615028E048E0C801A3
:102770000E94750F0E942F0D6B017C0169816150D1
:10278000C8010E94C40EB82E0E942F0DDC01CB019F
:102790008C199D09AE09BF09B3FE06C0843C99405F
:1027A000A105B10558F309C0843C9940A105B105C4
:1027B00020F480E003C086E001C087E00F90DF9145
:1027C000CF911F910F91FF90EF90DF90CF90BF902E
:1027D0000895EF92FF920F93FC014183528363832C
:1027E0007483168620830583F701DC0116969C010D
:1027F000225F3F4F41914D93A217B307D9F70F9135
:10280000FF90EF900C948113CF93DF93EC010E9423
:102810009D0F80FF07C061E6CE010E94DF1220E01D
:1028200041E008C081FF0CC061E7CE010E94DF12C9
:1028300020E042E06CE2CE010E94750F80E001C012
:1028400084E0DF91CF910895CF92DF92EF92FF92D3
:102850000F931F93CF93DF93EC016B017A018901F2
:102860000E940414843099F18881882349F0898179
:102870009A81AB81BC81B06889839A83AB83BC8326
:102880008E85882349F089819A81AB81BC81B064AF
:1028900089839A83AB83BC8389819A81AB81BC8114
:1028A000F60180839183A283B3838D81F7018083B6
:1028B000DE011696F8018D8190E09F01201B310BFF
:1028C000281739071CF48D918193F5CF80E0DF91B3
:1028D000CF911F910F91FF90EF90DF90CF900895CF
:1028E000CF92DF92EF92FF920F931F93CF93DF93DC
:1028F0006C017A018B01C0E0D0E0CE15DF0581F0DC
:10290000D8016D918D01D601ED91FC910190F0817E
:10291000E02DC6010995892B11F02196EECF7E019D
:10292000C701DF91CF911F910F91FF90EF90DF9042
:10293000CF9008956115710579F0FB010190002099
:10294000E9F73197AF01461B570BDC01ED91FC9184
:102950000280F381E02D099480E090E00895EF92E9
:10296000FF920F931F93CF93DF938C017B01C0E005
:10297000D0E0F701EC0FFD1F6491662361F0D801F0
:10298000ED91FC910190F081E02DC8010995892B12
:1029900011F02196EECFCE01DF91CF911F910F91D3
:1029A000FF90EF9008950C949A14DC01ED91FC9146
:1029B0000190F081E02D09946BEF72E00C949A1471
:1029C0000F931F93CF93DF93EC010E94AF148C0100
:1029D000CE010E94DC14800F911FDF91CF911F91D7
:1029E0000F9108950F931F93CF93DF93EC010E94F3
:1029F0009A148C01CE010E94DC14800F911FDF918C
:102A0000CF911F910F9108958F929F92AF92BF9295
:102A1000EF92FF920F931F93CF93DF93CDB7DEB763
:102A2000A1970FB6F894DEBF0FBECDBF7C01FA01AF
:102A3000CB0119A2223008F42AE08E010F5D1F4F4E
:102A4000822E912CA12CB12CBF01A50194010E94D2
:102A5000A51EF901CA01015011096A3014F4605D24
:102A600001C0695CD8016C93232B242B252B61F7C3
:102A7000B801C7010E949A14A1960FB6F894DEBF60
:102A80000FBECDBFDF91CF911F910F91FF90EF90BF
:102A9000BF90AF909F908F9008952115310541F41C
:102AA000DC01ED91FC910190F081E02D642F0994FF
:102AB0000C9404159A01AB0160E070E00C944D1584
:102AC000CF92DF92EF92FF920F931F93CF93DF93FA
:102AD0002115310581F4DC01ED91FC910190F0812B
:102AE000E02D642FDF91CF911F910F91FF90EF9018
:102AF000DF90CF9009942A30310501F577FF1DC092
:102B00006A017B01EC016DE20E94D5148C0144271F
:102B10005527BA014C195D096E097F092AE0CE01DB
:102B20000E940415800F911FDF91CF911F910F918B
:102B3000FF90EF90DF90CF9008952AE0DF91CF9142
:102B40001F910F91FF90EF90DF90CF900C940415A0
:102B50009A01AB01770F660B770B0C9460157F928F
:102B60008F929F92AF92BF92CF92DF92EF92FF929D
:102B70000F931F93CF93DF938C016A017B01722E19
:102B80009A01AB01C701B6010E94FC1B882319F012
:102B90006EEF72E027C046015701E894B7F82FEFB7
:102BA0003FEF4FE75FE7C501B4010E94FC1B8111B5
:102BB0000DC02FEF3FEF4FE75FE7C501B4010E9463
:102BC0002B1A18161CF462E073E00CC02FEF3FEFD5
:102BD0004FE75FE4C701B6010E948A1B181694F400
:102BE00066E073E0C801DF91CF911F910F91FF90D4
:102BF000EF90DF90CF90BF90AF909F908F907F909D
:102C00000C949A142FEF3FEF4FE75FECC701B6012A
:102C10000E942B1A87FDE4CF20E030E0A901C70114
:102C2000B6010E942B1A87FF0AC06DE2C8010E94FC
:102C3000D514EC01F7FAF094F7F8F09402C0C0E074
:102C4000D0E0B12C60E070E080E09FE37B1441F0C5
:102C500020E030E040E251E40E94301AB394F6CF15
:102C6000A70196010E94BF196B017C010E94A91A5D
:102C70004B015C012AE0AB01BC01C8010E940415B4
:102C8000C80FD91F7720B9F1C501B4010E94D81A25
:102C90009B01AC01C701B6010E94BE196B017C010A
:102CA0006EE2C8010E94D514C80FD91F20E030E0A1
:102CB00040E251E4C701B6010E948F1B4B015C0149
:102CC0000E94A91A6B017C014AE050E0C8010E94F1
:102CD0005A15C80FD91FB60180E090E00E94D81A9B
:102CE0009B01AC01C501B4010E94BE196B017C01BE
:102CF0007A947110DBCFCE01DF91CF911F910F91AC
:102D0000FF90EF90DF90CF90BF90AF909F908F900B
:102D10007F9008950C94AF151F920F920FB60F92EB
:102D200011242F938F939F93EF93FF93E0917F0351
:102D3000F09180038081E0918503F091860382FD0C
:102D400012C09081809188038F5F8F7320918903D7
:102D5000821751F0E0918803F0E0E159FC4F958F24
:102D60008093880301C08081FF91EF919F918F91A3
:102D70002F910F900FBE0F901F9018951F920F92DA
:102D80000FB60F9211242F933F934F935F936F933E
:102D90007F938F939F93AF93BF93EF93FF938FE6B0
:102DA00093E00E944E17FF91EF91BF91AF919F91D9
:102DB0008F917F916F915F914F913F912F910F90E4
:102DC0000FBE0F901F901895EFE6F3E0138212826A
:102DD00088EE93E0A0E0B0E084839583A683B78378
:102DE0008EE093E09183808385EC90E095878487E3
:102DF00084EC90E09787868780EC90E0918B808BC5
:102E000081EC90E0938B828B82EC90E0958B848BAD
:102E100086EC90E0978B868B118E128E138E148E1B
:102E20000895FC01918D228D892F90E0805C9F4F49
:102E3000821B91098F7399270895FC01918D828DD2
:102E4000981731F0828DE80FF11D858D90E008957F
:102E50008FEF9FEF0895FC01918D828D981761F09F
:102E6000828DDF01A80FB11D5D968C91928D9F5FC1
:102E70009F73928F90E008958FEF9FEF0895FC016C
:102E8000538D448D252F30E0842F90E0821B930BCF
:102E9000541710F0CF96089501970895FC01848D82
:102EA000DF01A80FB11DA35ABF4F2C91848D90E074
:102EB00001968F739927848FA689B7892C93A0894F
:102EC000B1898C91837080648C93938D848D9813D9
:102ED00006C00288F389E02D80818F7D808308956C
:102EE000EF92FF920F931F93CF93DF93EC0181E05A
:102EF000888F9B8D8C8D981305C0E889F989808116
:102F000085FD26C0F62E0B8D10E00F5F1F4F0F734F
:102F10001127E02E8C8DE8120CC00FB607FCFACFFB
:102F2000E889F989808185FFF5CFCE010E944E178F
:102F3000F1CF8B8DFE01E80FF11DE35AFF4FF082B8
:102F40009FB7F8940B8FEA89FB89808180620AC061
:102F50009FB7F894EE89FF896083E889F9898081B9
:102F60008370806480839FBF81E090E0DF91CF9188
:102F70001F910F91FF90EF900895CF93DF93EC0195
:102F8000888D8823C9F0EA89FB89808185FD05C089
:102F9000A889B9898C9186FD0FC00FB607FCF5CFC3
:102FA000808185FFF2CFA889B9898C9185FFEDCF0B
:102FB000CE010E944E17E7CFDF91CF910895CF92B7
:102FC000DF92EF92FF921F93CF93DF93EC016A01A0
:102FD0007B01122FE889F98982E080834115514EE7
:102FE00061057105B1F060E079E08DE390E0A70143
:102FF00096010E94A51EDA01C9010197A109B10934
:10300000B695A795979587959C01211580E138077E
:10301000A8F0E889F989108260E874E88EE190E010
:10302000A70196010E94A51EDA01C9010197A10915
:10303000B109B695A795979587959C01EC85FD8577
:103040003083EE85FF852083188EEC89FD891083FF
:10305000EA89FB89808180618083EA89FB8980819C
:1030600088608083EA89FB89808180688083EA891F
:10307000FB8980818F7D8083DF91CF911F91FF90AD
:10308000EF90DF90CF900895CF93CFB7F8948091D1
:103090000F04811127C0E4EEF0E08491E0EDF0E050
:1030A0009491E82FF0E0EE0FFF1FEE5FFE4FA59129
:1030B000B491EC91E92321F461E08AE00E94730C61
:1030C00061E08AE00E94370C8CB580618CBD8CB5C4
:1030D00080648CBD61E08DE00E94370C61E08BE084
:1030E0000E94370C80910F048F5F80930F04CFBF35
:1030F000CF910895A0E0B0E0E0E8F8E10C94D91E8B
:103100005C016B017A016115710519F0FB01918376
:103110008083E114F10429F0C7010297839708F036
:10312000E5C0E5012196F5011081812F90E00E9414
:103130009319892B11F05E01F4CF1D3229F42196E9
:10314000F501118101E007C01B3221F4E50122964F
:10315000F501118100E0E114F10409F1F0E1EF164D
:10316000F10429F43FC010E3E114F10421F128E057
:10317000E216F10401F154F4E2E0EE16F10421F557
:10318000812C912CA12CB0E4BB2E3EC0FAE0EF16AE
:10319000F10439F020E1E216F104B1F430C010334B
:1031A00019F1FAE0EF2EF12CACEC8A2E982CA82C19
:1031B000ACE0BA2E29C078E0E72EF12C812C912CBE
:1031C000A12CE0E1BE2E20C060E070E080E090E83D
:1031D00097010F2C000C440B550B0E94A51E4901B2
:1031E0005A0112C0103359F488818F7D883509F057
:1031F000BACF19812296026080E1E82EF12C812C51
:10320000912CA12C68E0B62E40E060E070E0CB018C
:1032100027010F2C000C66087708FE0150ED352EB3
:10322000310E29E0231570F42FEB210F2A3118F409
:1032300039EC332E06C02FE9210F2A3118F529EA7F
:10324000322E310E232D30E02E153F05DCF447FDE4
:1032500016C086169706A806B90670F0A30192015B
:103260000E94951E630D711D811D911D61307105B8
:10327000810520E8920710F04FEF01C041E0219650
:103280001081CBCF202F2170C114D10471F04423C1
:1032900029F02197F601D183C08307C001FF19C02F
:1032A0002297F601D183C08314C047FF12C02223A6
:1032B00029F060E070E080E090E804C06FEF7FEFFD
:1032C0008FEF9FE722E230E030937A062093790671
:1032D00009C0222381F090958095709561957F4F6C
:1032E0008F4F9F4F462F372F282F12C040E030E0DE
:1032F00020E090E00DC097FFF5CF82E290E0909340
:103300007A06809379066FEF7FEF8FEF9FE7EACF22
:10331000642F732F822FCDB7DEB7E1E10C94F51E39
:10332000F8940C941E1F91110C94E21D803219F038
:1033300089508550C8F70895AEE0B0E0E2EAF9E1BF
:103340000C94E61E0D891E8986E08C831A830983FE
:103350008FEF9FE79E838D83AE01475E5F4F6F893E
:10336000788DCE0101960E94011CEF81F885E00F57
:10337000F11F10822E96E4E00C94021F5058BB27D8
:10338000AA270E94D6190C94501B0E94421B38F0A9
:103390000E94491B20F039F49F3F19F426F40C9445
:1033A0003F1B0EF4E095E7FB0C94391BE92F0E94BC
:1033B000611B58F3BA17620773078407950720F05B
:1033C00079F4A6F50C94831B0EF4E0950B2EBA2F1E
:1033D000A02D0B01B90190010C01CA01A00111241B
:1033E000FF27591B99F0593F50F4503E68F11A16C7
:1033F000F040A22F232F342F4427585FF3CF469558
:1034000037952795A795F0405395C9F77EF41F1679
:10341000BA0B620B730B840BBAF09150A1F0FF0F43
:10342000BB1F661F771F881FC2F70EC0BA0F621F2F
:10343000731F841F48F4879577956795B795F7951F
:103440009E3F08F0B0CF9395880F08F09927EE0FB4
:103450009795879508950E94151B08F481E00895BB
:103460000E94441A0C94501B0E94491B58F00E9461
:10347000421B40F029F45F3F29F00C94391B511195
:103480000C94841B0C943F1B0E94611B68F39923CE
:10349000B1F3552391F3951B550BBB27AA27621750
:1034A0007307840738F09F5F5F4F220F331F441F5D
:1034B000AA1FA9F335D00E2E3AF0E0E832D0915091
:1034C0005040E695001CCAF72BD0FE2F29D0660F7E
:1034D000771F881FBB1F261737074807AB07B0E8C1
:1034E00009F0BB0B802DBF01FF2793585F4F3AF0C7
:1034F0009E3F510578F00C94391B0C94841B5F3F60
:10350000E4F3983ED4F3869577956795B795F7954C
:103510009F5FC9F7880F911D9695879597F9089534
:10352000E1E0660F771F881FBB1F621773078407D0
:10353000BA0720F0621B730B840BBA0BEE1F88F7DF
:10354000E09508950E94A91A6894B1110C94841B07
:1035500008950E94691B88F09F5798F0B92F99270A
:10356000B751B0F0E1F0660F771F881F991F1AF06E
:10357000BA95C9F714C0B13091F00E94831BB1E035
:1035800008950C94831B672F782F8827B85F39F034
:10359000B93FCCF3869577956795B395D9F73EF407
:1035A00090958095709561957F4F8F4F9F4F0895AF
:1035B000E89409C097FB3EF49095809570956195CD
:1035C0007F4F8F4F9F4F9923A9F0F92F96E9BB2783
:1035D0009395F695879577956795B795F111F8CFFF
:1035E000FAF4BB0F11F460FF1BC06F5F7F4F8F4F6A
:1035F0009F4F16C0882311F096E911C0772321F060
:103600009EE8872F762F05C0662371F096E8862FF7
:1036100070E060E02AF09A95660F771F881FDAF74E
:10362000880F9695879597F90895990F0008550F7B
:10363000AA0BE0E8FEEF16161706E807F907C0F038
:1036400012161306E407F50798F0621B730B840B40
:10365000950B39F40A2661F0232B242B252B21F41A
:1036600008950A2609F4A140A6958FEF811D811DBA
:10367000089597F99F6780E870E060E008959FEFF4
:1036800080EC089500240A941616170618060906F9
:10369000089500240A9412161306140605060895C8
:1036A000092E0394000C11F4882352F0BB0F40F450
:1036B000BF2B11F460FF04C06F5F7F4F8F4F9F4F90
:1036C000089557FD9058440F551F59F05F3F71F012
:1036D0004795880F97FB991F61F09F3F79F0879579
:1036E0000895121613061406551FF2CF4695F1DF02
:1036F00008C0161617061806991FF1CF8695710592
:10370000610508940895E894BB2766277727CB01C5
:1037100097F908950E94151B08F48FEF08950E94F1
:10372000A21B0C94501B0E94421B38F00E94491BA4
:1037300020F0952311F00C94391B0C943F1B11249D
:103740000C94841B0E94611B70F3959FC1F3950F2D
:1037500050E0551F629FF001729FBB27F00DB11D15
:10376000639FAA27F00DB11DAA1F649F6627B00DA5
:10377000A11D661F829F2227B00DA11D621F739F8E
:10378000B00DA11D621F839FA00D611D221F749F9C
:103790003327A00D611D231F849F600D211D822FE3
:1037A000762F6A2F11249F5750409AF0F1F088230A
:1037B0004AF0EE0FFF1FBB1F661F771F881F915037
:1037C0005040A9F79E3F510580F00C94391B0C9492
:1037D000841B5F3FE4F3983ED4F386957795679515
:1037E000B795F795E7959F5FC1F7FE2B880F911D61
:1037F0009695879597F908950E94151B880B990B4C
:103800000895ABE0B0E0E7E0FCE10C94D81E6C0159
:103810007B018A01FC0117821682838181FFCCC162
:10382000CE0101963C01F6019381F70193FD85914C
:1038300093FF81917F01882309F4BAC1853239F45D
:1038400093FD859193FF81917F01853229F4B60123
:1038500090E00E94FB1DE7CF912C212C312CFFE141
:10386000F315D8F08B3279F038F4803279F0833266
:10387000A1F4232D20611DC08D3261F0803369F4E5
:10388000232D216016C0832D8260382EE32DE46045
:103890003E2E2AC0F32DF8601DC037FC2DC020ED50
:1038A000280F2A3040F08E32B9F436FC81C1232D26
:1038B0002064322E19C036FE06C08AE0989E200D84
:1038C0001124922E11C0EAE02E9E200D1124222EEA
:1038D000F32DF0623F2E08C08C3621F4832D8068D2
:1038E000382E02C0883641F4F70193FD859193FF8D
:1038F00081917F018111B3CF982F9F7D9554933093
:1039000028F40C5F1F4F9FE399830DC0833631F07D
:10391000833771F0833509F059C021C0F8018081E7
:1039200089830E5F1F4F88248394912C530113C009
:103930002801F2E04F0E511CF801A080B18036FE44
:1039400003C0692D70E002C06FEF7FEFC5010E94D8
:10395000F01D4C018201F32DFF773F2E16C0280188
:1039600022E0420E511CF801A080B18036FE03C057
:10397000692D70E002C06FEF7FEFC5010E94E51D69
:103980004C01F32DF0683F2E820133FC1BC0822DC9
:1039900090E088169906B0F4B60180E290E00E94AB
:1039A000FB1D2A94F4CFF50137FC859137FE8191F8
:1039B0005F01B60190E00E94FB1D21102A9421E0D6
:1039C000821A91088114910471F7E8C0843611F0CD
:1039D000893641F5F80137FE07C060817181828127
:1039E00093810C5F1F4F08C060817181072E000C0E
:1039F000880B990B0E5F1F4FF32DFF763F2E97FF1D
:103A000009C090958095709561957F4F8F4F9F4F1E
:103A1000F0683F2E2AE030E0A3010E94371E882E76
:103A2000861845C0853731F4232D2F7EB22E2AE02B
:103A300030E025C0932D997FB92E8F36C1F018F450
:103A4000883579F0B5C0803719F0883721F0B0C0DB
:103A5000E92FE061BE2EB4FE0DC0FB2DF460BF2E39
:103A600009C034FE0AC0292F2660B22E06C028E005
:103A700030E005C020E130E002C020E132E0F80192
:103A8000B7FE07C060817181828193810C5F1F4FF7
:103A900006C06081718180E090E00E5F1F4FA3013E
:103AA0000E94371E882E8618FB2DFF773F2E36FE8C
:103AB0000DC0232D2E7FA22E891458F434FE0BC086
:103AC00032FC09C0832D8E7EA82E05C0B82CA32CF5
:103AD00003C0B82C01C0B92CA4FE0FC0FE01E80D34
:103AE000F11D8081803321F49A2D997EA92E09C081
:103AF000A2FE06C0B394B39404C08A2D867809F060
:103B0000B394A3FC11C0A0FE06C0B21488F4280C24
:103B1000922C9B180EC0B21460F4B60180E290E0C3
:103B20000E94FB1DB394F7CFB21418F42B1802C0F7
:103B3000982C212CA4FE10C0B60180E390E00E94D6
:103B4000FB1DA2FE17C0A1FC03C088E790E002C0E5
:103B500088E590E0B6010CC08A2D867859F0A1FE68
:103B600002C08BE201C080E2A7FC8DE2B60190E0CA
:103B70000E94FB1D891438F4B60180E390E00E9496
:103B8000FB1D9A94F7CF8A94F301E80DF11D808113
:103B9000B60190E00E94FB1D8110F5CF222009F4B0
:103BA00042CEB60180E290E00E94FB1D2A94F6CF3F
:103BB000F6018681978102C08FEF9FEF2B96E2E19D
:103BC0000C94F41E992788270895FC0105906150F4
:103BD00070400110D8F7809590958E0F9F1F089523
:103BE000FC016150704001900110D8F780959095CC
:103BF0008E0F9F1F08950F931F93CF93DF93FB01A9
:103C0000238121FD03C08FEF9FEF2CC022FF16C040
:103C100046815781248135814217530744F4A0819E
:103C2000B1819D012F5F3F4F318320838C9326818B
:103C300037812F5F3F4F3783268314C08B01EC0100
:103C4000FB010084F185E02D0995892BE1F6D8016F
:103C500016968D919C911797019617969C938E932B
:103C60001697CE01DF91CF911F910F910895FA0120
:103C7000AA27283051F1203181F1E8946F936E7FAB
:103C80006E5F7F4F8F4F9F4FAF4FB1E03ED0B4E09C
:103C90003CD0670F781F891F9A1FA11D680F791FDD
:103CA0008A1F911DA11D6A0F711D811D911DA11DEE
:103CB00020D009F468943F912AE0269F11243019FE
:103CC000305D3193DEF6CF010895462F4770405D99
:103CD0004193B3E00FD0C9F7F6CF462F4F70405D48
:103CE0004A3318F0495D31FD4052419302D0A9F7A3
:103CF000EACFB4E0A6959795879577956795BA959D
:103D0000C9F700976105710508959B01AC010A2E62
:103D100006945795479537952795BA95C9F7620F39
:103D2000731F841F951FA01D0895DB018F939F9320
:103D30000E94CD1EBF91AF91A29F800D911DA39FA8
:103D4000900DB29F900D11240895A1E21A2EAA1B86
:103D5000BB1BFD010DC0AA1FBB1FEE1FFF1FA2173B
:103D6000B307E407F50720F0A21BB30BE40BF50B38
:103D7000661F771F881F991F1A9469F760957095C1
:103D8000809590959B01AC01BD01CF010895EE0F88
:103D9000FF1F0590F491E02D09940E940F1FA59F2D
:103DA000900DB49F900DA49F800D911D1124089536
:103DB0002F923F924F925F926F927F928F929F923B
:103DC000AF92BF92CF92DF92EF92FF920F931F9329
:103DD000CF93DF93CDB7DEB7CA1BDB0B0FB6F894DA
:103DE000DEBF0FBECDBF09942A88398848885F841A
:103DF0006E847D848C849B84AA84B984C884DF808B
:103E0000EE80FD800C811B81AA81B981CE0FD11D6E
:103E10000FB6F894DEBF0FBECDBFED010895A29F8F
:103E2000B001B39FC001A39F700D811D1124911D8E
:103E3000B29F700D811D1124911D0895F894FFCF3C
:103E40000000000000000000000000000000000072
:103E50000000000000000000000000000000000062
:103E60000000000000000000000000000000000052
:103E70000000000000000000000000000000000042
:103E80000000000000000000000000000000000032
:103E90000000000000000000000000000000000022
:103EA0000000000000000000FFFFFFFFFFFFFFFF1A
:103EB000FFFFFFFFFFFFFFFFFF1DC7B14101000034
:103EC000B00200006003FFFFFFFFFFFFFFFF0000E5
:103ED000490200000000F4010000F4010000025259
:103EE00002000000005A000000B80B0000025B0254
:103EF0000000000064000000B80B00000200000099
:103F000004000000000300000000020000000002A6
:103F10000001000000FFFF000001000000000000A1
:103F20000000000000000000000500FF000001008C
:103F3000FF0000270E270E304050FF253034580078
:103F4000524543454245552045474F2043414E2D5C
:103F50002D2D2D2D2D2D2D2D2D004143435F696ECF
:103F60007075743A20003B20005365745F73706570
:103F700065643A20003B0045676F5F737065656458
:103F80003A2000AE019F019001D1016A094F02E37E
:103F90000601D1016A095802E30603D1016A0961E9
:103FA00002E30602CC01C701C201BD016003A20207
:103FB000940286027802B0029304F9058000360B61
:103FC000000003040100950429058000E70A0000B1
:103FD000020301009104A9048000AF0B000001025C
:103FE0000100970411048000520B00000002010040
:103FF000A704A9055000CB0D000004000100EE014C
:10400000E901000101010000000000F907C707D025
:1040100007A9073D0546072A056F074B08EC06F47C
:104020000604093B08400964087309AF08AA09E7B8
:1040300006FC0987085F0AA00ACE080D0A006E6117
:104040006E00696E66006F766600000000007017F3
:0C40500070143F17BD1711172B171D1718
:00000001FF
