:100000000C94EE000C94CA0F0C94F10F0C94160192
:100010000C9416010C9416010C9416010C94160104
:100020000C9416010C9416010C9416010C941601F4
:100030000C9416010C9416010C9416010C941601E4
:100040000C946D0E0C9416010C94DF170C9411187F
:100050000C9416010C9416010C9416010C941601C4
:100060000C9416010C9416016E12EE11F211F61199
:10007000FA11FE110112041208120B120F121212C1
:1000800016121912721228122C128C1230125112DE
:10009000341259125C12371263123B123E12411293
:1000A00076125112551259125C125F1263126712C6
:1000B0006B120000000800020100000304070000AA
:1000C000000000000000010204081020408001022E
:1000D000040810200102040810200404040404048D
:1000E00004040202020202020303030303030000EA
:1000F0000000230026002900000000002500280041
:100100002B0000000000240027002A0052657475AF
:10011000726E696E6720746F2050726576696F75B4
:1001200073204D6F6465204661696C7572652E2E73
:100130002E006053657474696E67204944204D6FCA
:100140006465204661696C7572652E2E2E005365BC
:100150007474696E672042617564726174652053BE
:1001600075636365737366756C2100536574746998
:100170006E67204261756472617465204661696CC6
:100180007572652E2E2E00456E746572696E67203D
:10019000436F6E66696775726174696F6E204D6F2B
:1001A0006465205375636365737366756C210045E0
:1001B0006E746572696E6720436F6E6669677572EB
:1001C0006174696F6E204D6F6465204661696C755E
:1001D00072652E2E2E00840DC40F371811241FBEF9
:1001E000CFEFD8E0DEBFCDBF13E0A0E0B1E0E6EE98
:1001F000F0E402C005900D92A036B107D9F728E0CF
:10020000A0E6B3E001C01D92AC35B207E1F710E003
:10021000CEEED0E004C02197FE010E941A20CB3E12
:10022000D107C9F70E94B50F0C94E31A0C94000093
:10023000E2E10E94BD010895E9E00E94BD01089538
:10024000EAE00E94BD010895E1E00E94BD01089529
:10025000E3E00E94BD010895E7E00E94BD0108951A
:10026000E5E00E94BD010895E0E00E94BD0108950F
:10027000E2E00E94BD010895E4E00E94BD010895FE
:10028000ECE00E94BD010895E8E00E94BD010895E0
:10029000EEE00E94BD010895E4E10E94BD010895D1
:1002A000E0E10E94BD010895E7E10E94BD010895CB
:1002B000E6E00E94BD010895EBE00E94BD010895B3
:1002C000EDE00E94BD010895EFE00E94BD01089598
:1002D000E1E10E94BD010895E3E10E94BD0108959E
:1002E000E5E10E94BD010895E6E10E94BD01089587
:1002F00021968A929A92AA92BA92CA92DA92EA9233
:10030000FA920A931A932197E0919501F091960140
:100310000080F181E02DC083D1830895C0919701C1
:10032000D0919801E881F981C081D18121961991FC
:100330000991F990E990D990C990B990A9909990B4
:100340008990219708952F903F90E7E6F1E0CDB78F
:10035000DEB7EDBFFEBF3F922F9208952F903F90E2
:10036000CDBFDEBF3F922F920895E0E80E94BD010D
:100370000895E0E40E94BD0108952F923F924F92AC
:100380005F926F927F922FB62F92CF93DF937E2E44
:10039000F894E0910001EF5FE0930001E13011F487
:1003A0000E94A301E0E0E093A501E72DE07849F089
:1003B0000E941106F091A601F17071F00E94C40430
:1003C0000BC0E72DEC3140F4EE0FF0E0E15FFC4FA5
:1003D0000190F081E02D0995F091A501EF2FE170DA
:1003E00059F0F27011F00E9478018F938F2F0E94C4
:1003F0000C048F910E948E012091000121502093C6
:100400000001222311F40E94AE01DF91CF912F90C1
:100410002FBE7F906F905F904F903F902F900895E8
:10042000CF92DF92EF92FF920F931F93DC01EC913A
:10043000DB012C918E2F8170C82ED12CE12CF12C58
:100440008E2F8F7090E0A0E0B0E0B695A7959795BD
:100450008795DC01AB54BC4F8C91C81AD108E108D8
:10046000F108EE70422F417050E060E070E0822FA2
:100470008F7090E0A0E0B0E0B695A795979587952E
:10048000DC01AB54BC4F8C91481B510961097109C7
:10049000822F8E7097018601017011272227332742
:1004A0000E2B4170552766277727482B81E090E077
:1004B000041715072607370710F080E090E01F911A
:1004C0000F91FF90EF90DF90CF9008958F929F92C1
:1004D000AF92BF92EF92FF920F931F93CF93DF9350
:1004E0007C014A015B01B694A794979487944230AB
:1004F000510561057105E0F0440F551F8701040F98
:10050000151FE401CC0FDD1FCE0DDF1DB801CE019C
:100510000E941002892B61F0F8019081818128816D
:1005200039813183208398838983B501A401DBCF8E
:10053000DF91CF911F910F91FF90EF90BF90AF90FF
:100540009F908F9008954F925F926F927F928F92BB
:100550009F92AF92BF92CF92DF92EF92FF920F9352
:100560001F93CF93DF9300D000D000D0CDB7DEB77C
:100570008C016A017B01DC018C91282F30E040E086
:1005800050E029833A834B835C8346015701880CF2
:10059000991CAA1CBB1C29813A814B815C812815BE
:1005A00039054A055B0508F442C0240135013FEFD7
:1005B000431A530A630A730A89819A81AB81BC8109
:1005C00084159505A605B70580F0B201660F771F63
:1005D000600F711FC401880F991F800F911F0E9427
:1005E0001002892B11F0530142013401660C771C73
:1005F000600E711ECC0CDD1CD801AC0DBD1DBE8380
:10060000AD83B301CD010E941002892B81F0ED81F1
:10061000FE8190818181D3012D913C91119731838D
:1006200020839C9311968C9375016401AECF26961E
:100630000FB6F894DEBF0FBECDBFDF91CF911F91F3
:100640000F91FF90EF90DF90CF90BF90AF909F9071
:100650008F907F906F905F904F900895E2E7F7E062
:1006600040814F5F408350E060E070E0E82FEE0F84
:10067000FF0BEF55FD4F0190F081E02D238530E019
:10068000F901EB54FC4F908191509083FA01EE0FE9
:10069000FF1FEE58F84F220F331F9170292B208334
:1006A000818382E797E00C946602E2E7F7E04081FD
:1006B0004F5F408350E060E070E0E82FEE0FFF0BEB
:1006C000EB56FD4F0190F081E02D9381FA01EE0F82
:1006D000FF1FEE58F84F9083818382E797E00C94D8
:1006E0006602CF93DF93E2E7F7E080819FEF980FF8
:1006F0009083D281C38190E0880F991FDC01AE58AE
:10070000B84F8D919C919383828341E050E060E0EB
:1007100070E0CF010E94A3028D2F9C2FDF91CF911B
:10072000089580919D0190919E01A0919F01B091AB
:10073000A0018F3F2FEF9207A207B20731F0059774
:10074000A105B10524F481E0089580E0089582E0D8
:100750000895880F990BFC01EF55FD4F0190F08132
:10076000E02D0084F185E02D3097E9F02281211100
:100770001AC021E02283DC01AB56BD4F0D90BC9125
:10078000A02D13968C9113978183808190E0FC01BA
:10079000EB54FC4F208121502083880F991F21703A
:1007A000822B13968C930895880F990BFC01EF55BB
:1007B000FD4F0190F081E02D0084F185E02D309710
:1007C00061F02281213049F412822181FC01EB5633
:1007D000FD4F0190F081E02D238308958091A101C8
:1007E0009091A201A091A301B091A40140919D011B
:1007F00050919E0160919F017091A0014817590787
:100800006A077B0741F0E0919B01F0919C0121E098
:1008100024830C9455030895CF93DF93882391F09C
:10082000C0919501D0919601E0919901F0919A01C2
:100830008481833049F081E0848380919D010E940E
:10084000550302C0C0E0D0E0E0919B01F0919C0113
:10085000F0939A01E093990180919701909198010A
:1008600090939601809395018091A1013091A2010E
:100870002091A3019091A40180939D0130939E014A
:1008800020939F019093A00192E094830E94A9037A
:10089000CE01DF91CF91089580919D010E94D403F4
:1008A000E0919901F0919A018281882319F085E005
:1008B0008483089514820895CF93DF93282F220F05
:1008C000330BF901EB56FD4FC081D1819A81F901BB
:1008D000EF55FD4F0190F081E02D2485921770F4C3
:1008E000911105C095E09C8391E09093A6010E9430
:1008F0002E038A818F5F8A8380E001C084E0DF91CC
:10090000CF910895E82FEE0FFF0BEB56FD4F0190AE
:10091000F081E02D118210820C946F0F1F93CF9302
:10092000DF930E947103182F892F492F092E000C85
:10093000550B660B770B4093A1015093A201609376
:10094000A3017093A401292F220F330BF901EB5659
:10095000FD4FC081D181D0939C01C0939B01F901CF
:10096000EF55FD4F208131813093980120939701FD
:100970009C81953019F40E9482041B831092A60179
:10098000DF91CF911F910895E091A101F091A20113
:10099000EE0FFF1FEB56FD4F0190F081E02D90917F
:1009A00074078381891730F40E94EE030E948E043D
:1009B00083E001C080E08093A501089581E08093E9
:1009C000A5010C948E04EF92FF920F931F93CF9387
:1009D000DF93C1E001C0CC0F8A95EAF785E00E9461
:1009E0005C0409E013E0D0E0F80181918F018C23D1
:1009F00019F08D2F0E945C04DF5FD530A9F706E067
:100A000013E084E7E82E82E0F82ED1E0F80181912E
:100A10008F018C2339F0F70180819181FC01D68709
:100A20000E944A05F2E0EF0EF11C83E0093018073E
:100A300069F7DF91CF911F910F91FF90EF9008958B
:100A40000E94F80681110E941907E0919901F09126
:100A50009A0180819181892B21F080919D010E94D2
:100A6000E0080C9441080E94F80681110E941907C1
:100A7000E0919901F0919A0180819181892B21F077
:100A800080919D010E94E0080C94290881E08093E8
:100A900060030895AF92BF92CF92DF92EF92FF92E0
:100AA0000F931F93CF93DF93FC01A081B181AD9091
:100AB000BC90E501AC89BD89109739F0428553851A
:100AC0006485758530E020E017C0D50155969C936C
:100AD0008E93549757969C938E93569715821482B3
:100AE000138212825BC012968D919C9113973A2FBC
:100AF0002B2F009779F0DC011A96CD90DD90ED90C8
:100B0000FC901D974C155D056E057F0560F7CD01C6
:100B1000A32FB22F93838283B583A483009719F008
:100B2000EC01FD83EC83109729F01396FC93EE9370
:100B3000129705C0D5015596FC93EE935497E501A5
:100B4000AE89BF891A968D919D910D90BC91A02D73
:100B5000088919892A893B8980179107A207B30759
:100B600080F4041715072607370728F04817590798
:100B70006A077B0798F4D5015796FC93EE93569736
:100B80000DC0041715072607370740F44817590703
:100B90006A077B0718F4E501FF8BEE8BDF91CF919D
:100BA0001F910F91FF90EF90DF90CF90BF90AF908B
:100BB0000895CF93DF93DC01ED91FC9111970190A3
:100BC000F081E02D848995891296CD91DC9113975F
:100BD000A817B90711F4D58BC48B86899789A817F4
:100BE000B90711F4D78BC68B209731F014968D91ED
:100BF0009C9115979D838C8314960D90BC91A02D8C
:100C0000109721F01396DC93CE93129786899789DB
:100C1000892B21F484899589978B868BDF91CF91DD
:100C20000895EF92FF920F931F93CF93DF93FC01F0
:100C300080916003882309F4B5C084859585A685D5
:100C4000B7850196A11DB11D84879587A687B787B3
:100C5000408151816281738184179507A607B70788
:100C600009F0A0C040895189628973894F5F5F4F45
:100C70006F4F7F4F84819581A681B7818417950737
:100C8000A607B70718F440E050E0BA01408B518B3B
:100C9000628B738B1486158616861786C689D7894C
:100CA000209709F47FC08A859B85AC85BD85481750
:100CB00059076A077B0709F075C0CE01DC0112965F
:100CC000ED90FC901397E114F10471F0D7011A969E
:100CD0000D911D912D913C911D9740175107620771
:100CE000730711F4C701EACF2C813D81211531052D
:100CF00029F0D9011396FC92EE921297E114F104B7
:100D000029F0D70115963C932E93149724893589A1
:100D1000C217D30711F4F58AE48AE114F10419F03B
:100D2000F78AE68A04C024893589378B268B8F01A0
:100D3000FC0113821282EA80FB80E881F981028043
:100D4000F381E02DCE0109954E815F81688579851B
:100D5000411551056105710509F18A859B85AC85B1
:100D6000BD85840F951FA61FB71FF80144815581CB
:100D700066817781481759076A077B0738F4841B17
:100D8000950BA60BB70B0197A109B1098A879B8721
:100D9000AC87BD87CE010E944A0501C01E86E701CF
:100DA000209749F6DF91CF911F910F91FF90EF901F
:100DB0000895FC0182810C945C040E94F8068091E5
:100DC00068010895809368010E94E3040E9446052B
:100DD0000C94DE040C946E0FCF93C82F0E949103E5
:100DE000811102C00E94AB0F8C2FCF910C941C017B
:100DF00080916D038130D9F08091650390916603F5
:100E0000A0916703B0916803892B8A2B8B2B79F40F
:100E100081E04091690350916A0360916B03709186
:100E20006C03452B462B472B19F480E0089581E095
:100E3000089510926D031092690310926A03109244
:100E40006B0310926C03109265031092660310926C
:100E50006703109268038091610390916203A091EF
:100E60006303B091640380936E0390936F03A09328
:100E70007003B093710308950E94AE0F80916E03CA
:100E800090916F03A0917003B09171030196A11D21
:100E9000B11D80936E0390936F03A0937003B09382
:100EA00071038091690390916A03A0916B03B091E3
:100EB0006C030196A11DB11D8093690390936A0391
:100EC000A0936B03B0936C03089580916903909194
:100ED0006A03A0916B03B0916C030097A105B10563
:100EE00069F140916E0350916F03609170037091AE
:100EF0007103415051096109710940936E03509388
:100F00006F0360937003709371030197A109B10996
:100F10008093690390936A03A0936B03B0936C036F
:100F200080916E0390916F03A0917003B091710353
:100F3000892B8A2B8B2B11F40C94AC0F0895809184
:100F4000690390916A03A0916B03B0916C03892BA4
:100F50008A2B8B2B89F48091650390916603A09175
:100F60006703B0916803892B8A2B8B2B29F40E948D
:100F7000AE0F81E080936D03089580916D03882307
:100F800021F010926D030C94AC0F08950E94B20FE3
:100F900080916E0390916F03A0917003B0917103E3
:100FA0000196A11DB11D80936E0390936F03A093D2
:100FB0007003B09371038091650390916603A091D3
:100FC0006703B09168030196A11DB11D809365036D
:100FD00090936603A0936703B0936803089580918C
:100FE000650390916603A0916703B0916803009731
:100FF000A105B10569F140916E0350916F036091B5
:101000007003709171034150510961097109409356
:101010006E0350936F036093700370937103019795
:10102000A109B1098093650390936603A0936703B8
:10103000B093680380916E0390916F03A091700349
:10104000B0917103892B8A2B8B2B11F40C94B00F68
:1010500008950E94F806882311F083E1089580E046
:101060000895CF93C82F0E94F8068C2F0E945C042D
:10107000C82F8091A60181110E94C4048C2FCF91AA
:101080000895CF930E94F806882311F0C3E101C0B0
:10109000C0E0E0919901F0919A01828181508283B0
:1010A0000E944C0481E08093A5010E948E048C2F45
:1010B000CF910895CF93C82F0E94F806E09199012F
:1010C000F0919A018281815082838C2F0E945C046E
:1010D000C82F811108C00E944C0481E08093A501B3
:1010E0000E948E0407C0E0919901F0919A018281DB
:1010F0008F5F82838C2FCF910895CF930E94F80643
:10110000882311F0C3E101C0C0E080919D010E94DD
:10111000D4030E94C40480919D0190919E01A091EE
:101120009F01B091A0014091A1015091A201609155
:10113000A3017091A40184179507A607B70711F4BE
:101140000E94A9038C2FCF910895CF93DF93EC01D8
:101150000E94F806882311F083E101C080E04091ED
:101160009D0150919E0160919F017091A0014530B9
:1011700051056105710514F4488303C0909116026E
:101180009883DF91CF9108950F931F93CF93C82F2A
:101190008B010E94F806882311F083E101C080E0F2
:1011A000EC2FEE0FFF0BEB56FD4F0190F081E02D81
:1011B00094819370F8019083CF911F910F910895BE
:1011C000880F990BFC01EB56FD4FA081B181ED9189
:1011D000FC911197309769F01D921C922091160294
:1011E00093818481228314821382E92FF82F309710
:1011F000B9F70895CF93C82F0E94F806882311F0FD
:1012000083E101C080E0EC2FF0E0EE0FFF1FEF5F05
:10121000FC4FA081B18190919D0112969C931297F1
:10122000E0919901F0919A012081318114963C93CB
:101230002E931397B183A083938111969C9311975A
:101240002C9193819695921760F430E0D901AB54BC
:10125000BC4F9C9191509C93220F331F9170292B6E
:101260002383CF910895CF93DF93C82F0E94F80670
:10127000882311F0D3E101C0D0E0EC2FF0E0EE0FB5
:10128000FF1FEF5FFC4F0190F081E02DA0919901CD
:10129000B0919A01818113968C93139783819481E5
:1012A0008D939C93148213828091160282830E94F4
:1012B000C4048D2FDF91CF910895DC01ED91FC9155
:1012C00084819581DC01ED91FC9109941F93CF936A
:1012D000DF93182FEB010E94F806882311F083E1B9
:1012E00001C080E0E12FF0E0EE0FFF1FEC58FD4F52
:1012F0000190F081E02D0190F081E02D0190F081CE
:10130000E02D40815181628173814C835D836E83C6
:101310007F834481558166817781488359836A83BD
:101320007B834085518562857385488759876A87A5
:101330007B87DF91CF911F9108958F929F92AF92FB
:10134000BF92CF92DF92EF92FF920F931F93CF93B2
:10135000C82F8B010E94F806882311F083E101C099
:1013600080E0EC2FF0E0EE0FFF1FEC58FD4F0190F6
:10137000F081E02D9685913029F54285538564856D
:1013800075850190F081E02D0190F081E02DC088FD
:10139000D188E288F3884C155D056E057F0540F421
:1013A00084809580A680B780480D591D6A1D7B1DDD
:1013B0004C195D096E097F09F801408351836283EE
:1013C000738301C085E0CF911F910F91FF90EF9043
:1013D000DF90CF90BF90AF909F908F9008958F92A5
:1013E0009F92AF92BF92CF92DF92EF92FF920F93B4
:1013F0001F93CF93DF93D82F4A015B0168017901D6
:101400000E94F806882311F0C3E101C0C0E0ED2F6F
:10141000F0E0EE0FFF1FEC58FD4F0190F081E02D42
:101420008685811130C0A081B1810D90BC91A02D25
:1014300050964D915D916D917C915397480D591D3A
:101440006A1D7B1D14968D919D910D90BC91A02DD0
:1014500084179507A607B70740F4481B590B6A0B7A
:101460007B0B415051096109710942875387648799
:101470007587C682D782E086F18681E08687CF01B4
:101480000E944A0501C0C7E08C2FDF91CF911F91C8
:101490000F91FF90EF90DF90CF90BF90AF909F9013
:1014A0008F9008958F929F92AF92BF92CF92DF92CA
:1014B000EF92FF920F931F93CF93DF93C82F4A01B0
:1014C0005B01680179010E94F806882311F0D3E1DD
:1014D00001C0D0E0EC2FF0E0EE0FFF1FEC58FD4F05
:1014E0000190F081E02D868581110EC08286938661
:1014F000A486B586C682D782E086F18681E086879B
:10150000CF010E944A0501C0D7E08D2FDF91CF9116
:101510001F910F91FF90EF90DF90CF90BF90AF9011
:101520009F908F9008950F931F93CF93DF93C82FB1
:101530000E94F806882311F0D3E101C0D0E0EC2F1F
:10154000F0E0EE0FFF1FEC58FD4F00811181F80114
:101550008685813031F4C8010E94D905F8011686CC
:1015600001C0D5E08D2FDF91CF911F910F9108958C
:1015700026E040E052EC61E070E08CEC93E00E94E9
:10158000321922E04DE063E082E793E00E94071504
:10159000882339F068EC70E080E090E00E94F60E5D
:1015A000F0CF67E172E08CEC93E00E94941660E06B
:1015B00082E793E00E94CC1160E082E00C94D90DA8
:1015C000CF93C09105038C2F0E945C0182E00E94A2
:1015D000440E892BE1F52BE833E04AE853E066E856
:1015E00073E082E793E00E94C61580918603909194
:1015F0008703A0918803B09189038071927EAF7EAA
:10160000B8718031924EAF4EB84109F560918C03AC
:1016100070918D03762767277627072E000C880B9D
:10162000990B0E942D1C2AE037ED43E25CE30E94F7
:10163000E21C20E030E040EA50E40E94111B60937D
:10164000B1037093B2038093B3039093B4038C2FD0
:101650000E946001CF910C944401EF92FF920F938E
:101660001F93CF93C09105038C2F0E945C0120E053
:1016700030E040E853E460918501709186018091EB
:101680008701909188010E94E21C0E94F51B7F93C4
:101690006F9381E392E09F938F9387E993E09F9309
:1016A0008F930E94EF1A40E150E060E070E087E91C
:1016B00093E00E94CD1909E711E0F801718340E140
:1016C00050E060E070E089E993E00E94CD19F801F4
:1016D0006283780108E021E047E050E06BE17FE0C1
:1016E00082E793E00E948B158C2F0E9460010F907F
:1016F0000F900F900F900F900F90CF911F910F911F
:10170000FF90EF900C944401EF92FF920F931F9380
:10171000CF93C09105038C2F0E945C016091A503BB
:101720007091A6038091A7039091A8030E94F51BD6
:101730007F936F9381E392E09F938F938BE993E084
:101740009F938F930E94EF1A40E150E060E070E0B9
:101750008BE993E00E94CD1901E711E0F801718354
:1017600040E150E060E070E08DE993E00E94CD1927
:10177000F8016283780108E021E048E050E86BE17D
:101780007AE082E793E00E948B158C2F0E94600123
:101790000F900F900F900F900F900F90CF911F917F
:1017A0000F91FF90EF900C944401EF92FF920F93F2
:1017B0001F93CF93C09105038C2F0E945C0120E002
:1017C00030E040E853E46091A9037091AA0380914E
:1017D000AB039091AC030E94E21C0E94F51B7F9327
:1017E0006F9381E392E09F938F9383E993E09F93BC
:1017F0008F930E94EF1A40E150E060E070E083E9CF
:1018000093E00E94CD1909E611E0F801718340E1EF
:1018100050E060E070E085E993E00E94CD19F801A6
:101820006283780108E021E049E450E36BE17CE069
:1018300082E793E00E948B158C2F0E9460010F902D
:101840000F900F900F900F900F90CF911F910F91CD
:10185000FF90EF900C9444014F925F926F927F92B1
:101860008F929F92AF92BF92CF92DF92EF92FF92B0
:10187000CF93DF9300D000D0CDB7DEB78091A50322
:101880009091A603A091A703B091A8038093A10310
:101890009093A203A093A303B093A403C0908101EB
:1018A000D0908201E0908301F09084012091B103F7
:1018B0003091B2034091B3035091B403C701B60114
:1018C0000E94E21C209185013091860140918701A0
:1018D000509188010E94121B2B013C0160938501ED
:1018E0007093860180938701909388012091AD03C6
:1018F0003091AE034091AF035091B003C701B601E0
:101900000E94E21C2091890130918A0140918B0153
:1019100050918C010E94121B4B015C016093890164
:1019200070938A0180938B0190938C01A3019201A3
:10193000C701B6010E94E21C20918D0130918E01F9
:1019400040918F01509190010E94121B69837A830C
:101950008B839C8360938D0170938E0180938F01A4
:1019600090939001A5019401C701B6010E94E21C69
:1019700020919101309192014091930150919401F5
:101980000E94121B609391017093920180939301C6
:101990009093940120919F033091A0032F5F3F4FBC
:1019A0003093A00320939F0329813A814B815C816E
:1019B0000E94111B6B017C016093A5037093A60329
:1019C0008093A7039093A803A3019201C501B401DA
:1019D0000E94111B6093A9037093AA038093AB0329
:1019E0009093AC0320E030E048E453E4C701B60133
:1019F0000E94DD1C181664F480E090E0A8E4B3E4D3
:101A00008093A5039093A603A093A703B093A80384
:101A100066E372E08CEC93E00E9475164091B1038E
:101A20005091B2036091B3037091B40322E030E0AF
:101A30008CEC93E00E94DD1760E472E08CEC93E0A4
:101A40000E94751663E472E08CEC93E00E947516B8
:101A50004091A5035091A6036091A7037091A8033C
:101A600022E030E08CEC93E00E94DD1760E472E04D
:101A70008CEC93E00E94751667E572E08CEC93E0C5
:101A80000E947516409185015091860160918701F1
:101A90007091880122E030E08CEC93E00E94DD1729
:101AA00060E472E08CEC93E00E94751663E672E0ED
:101AB0008CEC93E00E9475164091A9035091AA0303
:101AC0006091AB037091AC0322E030E08CEC93E0CA
:101AD0000E94DD1760E472E08CEC93E00E949416A3
:101AE0000F900F900F900F90DF91CF91FF90EF909C
:101AF000DF90CF90BF90AF909F908F907F906F902E
:101B00005F904F900C94440120918D0130918E0193
:101B100040918F01509190016091910170919201DB
:101B200080919301909194010E94111B6093A503F1
:101B30007093A6038093A7039093A8036093A103D7
:101B40007093A2038093A3039093A4036AE082E7B7
:101B500093E00C94F4148DEE91E00C94B50108958B
:101B6000833081F028F4813099F08230A1F008951B
:101B70008730A9F08830B9F08430D1F480918000AA
:101B80008F7D03C0809180008F77809380000895BF
:101B900084B58F7702C084B58F7D84BD0895809110
:101BA000B0008F7703C08091B0008F7D8093B0002C
:101BB0000895CF93DF9390E0FC01EA53FF4F249107
:101BC000FC01E652FF4F8491882361F190E0880F79
:101BD000991FFC01EE5FFE4FC591D491FC01E850C6
:101BE000FF4FA591B491611109C09FB7F894888106
:101BF000209582238883EC912E230BC0623061F400
:101C00009FB7F8948881322F309583238883EC9195
:101C10002E2B2C939FBF06C08FB7F894E8812E2BF4
:101C200028838FBFDF91CF9108951F93CF93DF93C8
:101C3000282F30E0F901EE54FF4F8491F901EA5367
:101C4000FF4FD491F901E652FF4FC491CC23C1F06C
:101C5000162F81110E94B00DEC2FF0E0EE0FFF1F48
:101C6000E850FF4FA591B4919FB7F894111104C0AB
:101C70008C91D095D82302C0EC91DE2BDC939FBFD2
:101C8000DF91CF911F910895CF93DF93282F30E0FC
:101C9000F901EE54FF4F8491F901EA53FF4FD491BB
:101CA000F901E652FF4FC491CC2391F081110E94BB
:101CB000B00DEC2FF0E0EE0FFF1FE251FF4FA591AA
:101CC000B491EC91ED2381E090E021F480E002C03A
:101CD00080E090E0DF91CF9108951F920F920FB6B0
:101CE0000F9211242F933F934F935F936F937F93A2
:101CF0008F939F93AF93BF93EF93FF938091C30311
:101D00009091C403A091C503B091C6033091C20362
:101D100023E0230F2D3720F40196A11DB11D05C02E
:101D200026E8230F0296A11DB11D2093C2038093C4
:101D3000C3039093C403A093C503B093C6038091DB
:101D4000C7039091C803A091C903B091CA0301963B
:101D5000A11DB11D8093C7039093C803A093C9032D
:101D6000B093CA030E94AB0DFF91EF91BF91AF9169
:101D70009F918F917F916F915F914F913F912F91A3
:101D80000F900FBE0F901F9018952FB7F894609189
:101D9000C3037091C4038091C5039091C6032FBF04
:101DA00008953FB7F8948091C7039091C803A0911C
:101DB000C903B091CA0326B5A89B05C02F3F19F0EF
:101DC0000196A11DB11D3FBFBA2FA92F982F8827BB
:101DD000820F911DA11DB11DBC01CD0142E0660F16
:101DE000771F881F991F4A95D1F708958F929F9268
:101DF000AF92BF92CF92DF92EF92FF926B017C0184
:101E00000E94D10E4B015C01C114D104E104F10424
:101E100001F10E946C0F0E94D10EDC01CB018819E8
:101E20009909AA09BB09883E9340A105B10560F351
:101E300021E0C21AD108E108F10888EE880E83E09B
:101E4000981EA11CB11CC114D104E104F10419F7BE
:101E5000DBCFFF90EF90DF90CF90BF90AF909F903F
:101E60008F90089584B5826084BD84B5816084BDFF
:101E700085B5826085BD85B5816085BDEEE6F0E003
:101E8000808181608083E1E8F0E01082808182605F
:101E90008083808181608083E0E8F0E080818160E0
:101EA0008083E1EBF0E0808184608083E0EBF0E010
:101EB000808181608083EAE7F0E0808184608083B4
:101EC000808182608083808181608083808180685E
:101ED00080831092C10008950895FFCFFFCFCF9364
:101EE000DF93880F990BFC01EF55FD4FC081D18125
:101EF000AC81BD8111978A819B81A80FB91F2D8567
:101F0000CD010197FD013297223019F42CE331E025
:101F100002C028E531E02C93DC013C939E818F8147
:101F20009083DF018E93CF0107971E928A179B073C
:101F3000E1F780E8DF0118978C93CF0144971E9258
:101F40008A179B07E1F7A881B9817597ED93FC93F8
:101F5000DF91CF910895089578940895F8940895A5
:101F600078940895F894089508950E94320F0E947D
:101F7000B40F0E94AF0D0E94B80A8091CB030E945B
:101F8000EC0680E090E0089580910E038093CB03EF
:101F9000089508951F920F920FB60F9211242F9358
:101FA0003F934F935F936F937F938F939F93AF93E1
:101FB000BF93EF93FF93E0910F02F0911002099508
:101FC000FF91EF91BF91AF919F918F917F916F9111
:101FD0005F914F913F912F910F900FBE0F901F90E7
:101FE00018951F920F920FB60F9211242F933F93C3
:101FF0004F935F936F937F938F939F93AF93BF9311
:10200000EF93FF93E0911102F09112020995FF9175
:10201000EF91BF91AF919F918F917F916F915F9160
:102020004F913F912F910F900FBE0F901F901895D9
:1020300020916B04222399F04FB7F89420916B0400
:10204000213059F42DB3209369043DB320916A04E3
:10205000209523232DBB4FBF02C0409369048CBD44
:102060009DBD08958EBD00000DB407FEFDCF8EB559
:10207000089580916B04882361F09FB7F8942091B4
:102080006B0480916904213019F48DBB9FBF0895C2
:102090008FBF0895CF93DF93EC0180E591E00E941C
:1020A000181060E08A890E94150E80EC0E943210A0
:1020B00061E08A890E94150E0E94391065E070E087
:1020C00080E090E0DF91CF910C94F60E1F93CF93B8
:1020D000DF93EC01162F80E591E00E94181060E07C
:1020E0008A890E94150E83E00E943210812F0E947F
:1020F000321080E00E943210182F61E08A890E941D
:10210000150E0E943910812FDF91CF911F910895F4
:10211000DF92EF92FF920F931F93CF93DF938C0187
:10212000C62FD42EE52EF22E80E591E00E941810E5
:1021300060E0F80182890E94150E83E00E9432104F
:102140008C2F0E943210CD2DDE2DCE018F0D911DD2
:102150007C01EC16FD0629F080E00E943210899384
:10216000F8CF61E0F80182890E94150EDF91CF91CE
:102170001F910F91FF90EF90DF900C9439100F9307
:102180001F93CF93DF93EC01062F142F80E591E08E
:102190000E94181060E08A890E94150E82E00E9459
:1021A0003210802F0E943210812F0E94321061E085
:1021B0008A890E94150EDF91CF911F910F910C9487
:1021C0003910DF92EF92FF920F931F93CF93DF931B
:1021D0008C01C62FD42EE52EF22E80E591E00E94D0
:1021E000181060E0F80182890E94150E82E00E94BA
:1021F00032108C2F0E943210CD2DDE2DCE018F0D8E
:10220000911D7C01EC16FD0621F089910E9432108F
:10221000F9CF61E0F80182890E94150EDF91CF911C
:102220001F910F91FF90EF90DF900C943910FF9267
:102230000F931F93CF93DF93EC01F62E042F122FF1
:1022400080E591E00E94181060E08A890E94150ED6
:1022500085E00E9432108F2D0E943210802F0E9444
:102260003210812F0E94321061E08A890E94150E7F
:10227000DF91CF911F910F91FF900C9439101F9314
:10228000CF93DF93EC0180E591E00E94181060E0AD
:102290008A890E94150E80EA0E94321080E00E9416
:1022A0003210182F61E08A890E94150E0E943910A1
:1022B000812FDF91CF911F910895EF92FF920F939D
:1022C0001F93CF93DF93EC01162F0E94C50E062FAC
:1022D000E12EF12C212F40EE6FE0CE010E9417116C
:1022E0006EE0CE010E946610807E90E08E159F0504
:1022F00039F00E94C50E601B693C60F381E001C0AB
:1023000080E0DF91CF911F910F91FF90EF900895A2
:102310000F931F93CF93DF93EC01162F6EE00E9473
:102320006610807E803221F5103211F16BE2CE0111
:102330000E946610082F007486FD06C020E440E469
:102340006BE2CE010E94171120E440E46CE2CE0162
:102350000E94171160E6CE010E945D11811116C026
:10236000011106C020E040E46BE2CE010E9417118B
:1023700020E040E46CE2CE010E941711612FCE01F3
:10238000DF91CF911F910F910C945D1181E0DF914E
:10239000CF911F910F910895FC01638B0C948811CC
:1023A000CF92DF92EF92FF920F931F93CF93DF9321
:1023B000342F3370313009F43FC008F466C0323036
:1023C00009F0AAC0062F10E0F8013197EE30F105B0
:1023D00008F0A2C0EC5CFF4F0C941A20C4E8D6EFC2
:1023E00023E987C0C4E8D6EF29E883C0C3E8D5EE67
:1023F00027E87FC0C4E8D6EF25E87BC0C4E8D6EF65
:1024000005C0C3E8D5EE02C0C1E8D3ED24E871C031
:10241000C4E8D6EF02C0C3E8D5EE21E86AC0C4E83C
:10242000D6EF02C0C3E8D5EE20E863C0C1E8D1ED25
:102430002AC0C0E8D0EC27C0C62ED12CF6013197B7
:10244000EE30F10508F068C0EE5BFF4F0C941A20E7
:10245000C4E8D6EF27E64DC0C4E8D6EF23E549C06F
:10246000C3E8D5EE2EE445C0C4E8D6EF42C0C3E8C9
:10247000D5EE23E43EC0C3E8D5EE27C0C3E8D5EED1
:1024800028C0C1E8DAEC20E034C0062F10E0F801E3
:102490003697E930F10508F03FC0E05BFF4F0C9440
:1024A0001A20C4E8D6EF29E424C0C7E8DFEF24EC03
:1024B00020C0C4E8D6EF05C0C3E8D5EE02C0C1E82D
:1024C000D3ED24E416C0C4E8D6EF21E412C0C4E87A
:1024D000D6EF20E40EC0C2E8D9EDD5CFC4E8D6EFE0
:1024E00027EA07C0C7E8DFEF2FE303C0C1E8D3ED59
:1024F00028E142FDCF778C01422F6AE20E94BF1093
:102500004D2F69E2C8010E94BF104C2F68E2C8013C
:102510000E94BF1080E001C081E0DF91CF911F9148
:102520000F91FF90EF90DF90CF9008950F931F933E
:10253000CF93DF9300D000D0CDB7DEB74130B1F4F8
:102540000C831B83890122273327502F5C71402F76
:10255000437078E0579F400D112448604A8355E04E
:10256000169507955A95E1F709830DC0A80123E058
:10257000569547952A95E1F749830295000F007E0D
:102580000A831C821B8224E0AE014F5F5F4F0E94D2
:10259000E1100F900F900F900F90DF91CF911F914E
:1025A0000F9108950F931F93CF93DF9300D000D026
:1025B000CDB7DEB7E62FF42FA901662777270C8366
:1025C0001B83F13081F4342F3C71242F2370F8E009
:1025D0003F9F200D112428602A8335E056954795AA
:1025E0003A95E1F70AC0242F2295220F207E2A83F4
:1025F00023E0569547952A95E1F7498324E0AE01FB
:102600004F5F5F4F6E2F0E94E1100F900F900F9061
:102610000F90DF91CF911F910F9108950F931F930A
:10262000CF93DF93EC0100E010E0980141E060E21D
:102630000E94D21200E010E0980141E064E2CE0175
:102640000E94D21200E010E0980141E060E0CE016B
:102650000E94D21200E010E0980140E064E0CE0158
:102660000E94D21200E010E0980141E068E0CE0143
:102670000E94D21200E010E0980140E060E1CE013B
:102680000E94D21200E010E0980141E064E1CE0126
:102690000E94D21200E010E0980140E068E1CE0113
:1026A0000E94D21210E340E0612FCE010E94BF10C1
:1026B00060E1610F40E0CE010E94BF1060E2610F57
:1026C00040E0CE010E94BF101F5F1E3361F740E063
:1026D00060E6CE010E94BF1040E060E7CE01DF91CE
:1026E000CF911F910F910C94BF10EF92FF920F9317
:1026F0001F93CF93DF93EC01062FF42EE22E0E945E
:102700004A1080E48B8B60E8CE010E948811182F5C
:10271000882341F06FEA71E08CEC93E00E9482160E
:10272000812F5CC067E871E08CEC93E00E94821618
:102730004E2D6F2DCE010E94D011882339F06BE60B
:1027400071E08CEC93E00E94821647C06EE471E069
:102750008CEC93E00E948216CE010E940E1343E09F
:102760006BE2CE010E94BF104CE36CE0CE010E94F0
:10277000BF1040E06DE0CE010E94BF10002351F079
:10278000033019F524E644E660E6CE010E941711F5
:1027900020E607C024E044E660E6CE010E9417115F
:1027A00020E040E660E7CE010E9417116B89CE0160
:1027B0000E948811C82F882381F06CE071E08CECB6
:1027C00093E00E9482168C2F09C062E371E08CECCA
:1027D00093E00E94821681E001C080E0DF91CF91FA
:1027E0001F910F91FF90EF900895EF92FF920F933A
:1027F0001F93CF93DF9300D000D0CDB7DEB77A011F
:102800008901FA011082F901108211821282138269
:1028100024E0AE014F5F5F4F0E9488102A8139810A
:10282000822F90E065E0959587956A95E1F7F8E04D
:102830003F9F800D911D1124092E000CAA0BBB0B8C
:10284000F80180839183A283B38323FF25C032E004
:10285000880F991FAA1FBB1F3A95D1F72370820FCB
:10286000911DA11DB11DBA2FA92F982F88272B814B
:10287000820F911DA11DB11DBA2FA92F982F882756
:102880002C81820F911DA11DB11D80839183A28394
:10289000B38381E0F70180830F900F900F900F902A
:1028A000DF91CF911F910F91FF90EF900895FF92CC
:1028B0000F931F93CF93DF93EC01F62EAC014A5F89
:1028C0005F4F65E06F0D2D810E94E1108E85813094
:1028D00019F48D8180648D8364E06F0D4D81CE018C
:1028E0000E94BF1009811A812B813C8148816F2D84
:1028F000CE010E949612DF91CF911F910F91FF9010
:1029000008950F931F93CF93DF93EC01162F9C0133
:102910002F5F3F4FAC010E94F5136FEF610FCE01A7
:102920000E946610082F64E0610FCE010E946610BD
:102930008D8303FF03C091E09E8701C01E86282F70
:102940002F702D83AE014A5F5F4F65E0610FCE01AE
:10295000DF91CF911F910F910C9488108F929F92CD
:10296000AF92BF92CF92DF92EF92FF921F93CF93DD
:10297000DF9300D01F92CDB7DEB74C016B01809181
:10298000130290911402A091150289839A83AB835C
:10299000FB011082CE0101967C015E0194E0A90E3C
:1029A000B11CF70111917F01612FC4010E946610D3
:1029B000982F987083FD04C01F5FF601108304C038
:1029C000EA14FB0471F792E0892F0F900F900F909B
:1029D000DF91CF911F91FF90EF90DF90CF90BF904C
:1029E000AF909F908F900895CF93DF93EC01862F47
:1029F0006A8B61E00E94150E61E08A890E94D90D00
:102A00008DE694E0998B888BDF91CF910895FF92AA
:102A10000F931F93CF93DF93EC01162F042FF22E09
:102A20000E9497192F2D402F612FCE010E94751300
:102A300091E0811101C090E0892FDF91CF911F912A
:102A40000F91FF900895BF92CF92DF92EF92FF9285
:102A50000F931F93CF93DF931F92CDB7DEB78C01F7
:102A60000E94D10E6B017C01BE016F5F7F4FC801D8
:102A70000E94AE14B82E0E94D10EDC01CB018C193D
:102A80009D09AE09BF0922E0B21206C0843C9940FC
:102A9000A105B10548F331C0843C9940A105B105B9
:102AA00060F56981C8010E9457146981615028E06E
:102AB00048E0C8010E9417110E94D10E6B017C01F1
:102AC00069816150C8010E946610B82E0E94D10E23
:102AD000DC01CB018C199D09AE09BF09B3FE06C00C
:102AE000843C9940A105B10558F309C0843C994044
:102AF000A105B10520F480E003C086E001C087E0B5
:102B00000F90DF91CF911F910F91FF90EF90DF9089
:102B1000CF90BF900895EF92FF920F93FC014183F5
:102B2000528363837483168620830583F701DC0157
:102B300016969C01225F3F4F41914D93A217B30718
:102B4000D9F70F91FF90EF900C942315CF93DF935B
:102B5000EC010E943F1180FF07C061E6CE010E9498
:102B6000811420E041E008C081FF0CC061E7CE0184
:102B70000E94811420E042E06CE2CE010E94171115
:102B800080E001C084E0DF91CF910895CF92DF9281
:102B9000EF92FF920F931F93CF93DF93EC016B01A2
:102BA0007A0189010E94A615843099F188818823D1
:102BB00049F089819A81AB81BC81B06889839A830D
:102BC000AB83BC838E85882349F089819A81AB8150
:102BD000BC81B06489839A83AB83BC8389819A81E9
:102BE000AB81BC81F60180839183A283B3838D8105
:102BF000F7018083DE011696F8018D8190E09F0138
:102C0000201B310B281739071CF48D918193F5CFC8
:102C100080E0DF91CF911F910F91FF90EF90DF90B7
:102C2000CF900895CF92DF92EF92FF920F931F9370
:102C3000CF93DF936C017A018B01C0E0D0E0CE1519
:102C4000DF0581F0D8016D918D01D601ED91FC91E8
:102C50000190F081E02DC6010995892B11F0219694
:102C6000EECF7E01C701DF91CF911F910F91FF90B1
:102C7000EF90DF90CF9008956115710579F0FB0119
:102C800001900020E9F73197AF01461B570BDC019B
:102C9000ED91FC910280F381E02D099480E090E0B9
:102CA0000895EF92FF920F931F93CF93DF938C01C0
:102CB0007B01C0E0D0E0F701EC0FFD1F64916623BB
:102CC00061F0D801ED91FC910190F081E02DC801F7
:102CD0000995892B11F02196EECFCE01DF91CF918E
:102CE0001F910F91FF90EF9008950C943C16DC011A
:102CF000ED91FC910190F081E02D09946FE373E078
:102D00000C943C160F931F93CF93DF93EC010E941A
:102D100051168C01CE010E947E16800F911FDF910B
:102D2000CF911F910F9108950F931F93CF93DF932E
:102D3000EC010E943C168C01CE010E947E16800F91
:102D4000911FDF91CF911F910F9108958F929F92C4
:102D5000AF92BF92EF92FF920F931F93CF93DF93A7
:102D6000CDB7DEB7A1970FB6F894DEBF0FBECDBFCB
:102D70007C01FA01CB0119A2223008F42AE08E016D
:102D80000F5D1F4F822E912CA12CB12CBF01A501EC
:102D900094010E94F81FF901CA01015011096A301B
:102DA00014F4605D01C0695CD8016C93232B242B63
:102DB000252B61F7B801C7010E943C16A1960FB6FA
:102DC000F894DEBF0FBECDBFDF91CF911F910F9161
:102DD000FF90EF90BF90AF909F908F900895211536
:102DE000310541F4DC01ED91FC910190F081E02D81
:102DF000642F09940C94A6169A01AB0160E070E070
:102E00000C94EF167F928F929F92AF92BF92CF92C7
:102E1000DF92EF92FF920F931F93CF93DF938C017A
:102E20006A017B01722E9A01AB01C701B6010E94B3
:102E30004F1D882319F062E473E027C04601570153
:102E4000E894B7F82FEF3FEF4FE75FE7C501B40114
:102E50000E944F1D81110DC02FEF3FEF4FE75FE73D
:102E6000C501B4010E947E1B18161CF466E473E0D1
:102E70000CC02FEF3FEF4FE75FE4C701B6010E94A0
:102E8000DD1C181694F46AE473E0C801DF91CF9159
:102E90001F910F91FF90EF90DF90CF90BF90AF9078
:102EA0009F908F907F900C943C162FEF3FEF4FE751
:102EB0005FECC701B6010E947E1B87FDE4CF20E0D6
:102EC00030E0A901C701B6010E947E1B87FF0AC03E
:102ED0006DE2C8010E947716EC01F7FAF094F7F85A
:102EE000F09402C0C0E0D0E0B12C60E070E080E07F
:102EF0009FE37B1441F020E030E040E251E40E9487
:102F0000831BB394F6CFA70196010E94121B6B019D
:102F10007C010E94FC1B4B015C012AE0AB01BC015F
:102F2000C8010E94A616C80FD91F7720B9F1C501A4
:102F3000B4010E942B1C9B01AC01C701B6010E9489
:102F4000111B6B017C016EE2C8010E947716C80F4D
:102F5000D91F20E030E040E251E4C701B6010E94F1
:102F6000E21C4B015C010E94FC1B6B017C014AE0EE
:102F700050E0C8010E94FC16C80FD91FB60180E0BE
:102F800090E00E942B1C9B01AC01C501B4010E9482
:102F9000111B6B017C017A947110DBCFCE01DF91A4
:102FA000CF911F910F91FF90EF90DF90CF90BF9046
:102FB000AF909F908F907F9008950C9402171F926E
:102FC0000F920FB60F9211242F938F939F93EF932D
:102FD000FF93E091DC03F091DD038081E091E20357
:102FE000F091E30382FD12C090818091E5038F5F31
:102FF0008F732091E603821751F0E091E503F0E032
:10300000E453FC4F958F8093E50301C08081FF91CD
:10301000EF919F918F912F910F900FBE0F901F9066
:1030200018951F920F920FB60F9211242F933F9372
:103030004F935F936F937F938F939F93AF93BF93C0
:10304000EF93FF938CEC93E00E94A118FF91EF9116
:10305000BF91AF919F918F917F916F915F914F91B0
:103060003F912F910F900FBE0F901F901895ECEC91
:10307000F3E01382128288EE93E0A0E0B0E0848354
:103080009583A683B78382E593E09183808385EC63
:1030900090E09587848784EC90E09787868780EC22
:1030A00090E0918B808B81EC90E0938B828B82EC13
:1030B00090E0958B848B86EC90E0978B868B118EBD
:1030C000128E138E148E0895FC01918D228D892FFE
:1030D00090E0805C9F4F821B91098F739927089520
:1030E000FC01918D828D981731F0828DE80FF11DD2
:1030F000858D90E008958FEF9FEF0895FC01918DED
:10310000828D981761F0828DDF01A80FB11D5D9649
:103110008C91928D9F5F9F73928F90E008958FEFB7
:103120009FEF0895FC01538D448D252F30E0842FAF
:1031300090E0821B930B541710F0CF9608950197DF
:103140000895FC01848DDF01A80FB11DA35ABF4F64
:103150002C91848D90E001968F739927848FA68996
:10316000B7892C93A089B1898C91837080648C93EA
:10317000938D848D981306C00288F389E02D808199
:103180008F7D80830895EF92FF920F931F93CF93CB
:10319000DF93EC0181E0888F9B8D8C8D981305C0A7
:1031A000E889F989808185FD26C0F62E0B8D10E017
:1031B0000F5F1F4F0F731127E02E8C8DE8120CC08C
:1031C0000FB607FCFACFE889F989808185FFF5CF32
:1031D000CE010E94A118F1CF8B8DFE01E80FF11DE9
:1031E000E35AFF4FF0829FB7F8940B8FEA89FB896F
:1031F000808180620AC09FB7F894EE89FF8960835E
:10320000E889F98980818370806480839FBF81E031
:1032100090E0DF91CF911F910F91FF90EF90089573
:10322000CF93DF93EC01888D8823C9F0EA89FB896D
:10323000808185FD05C0A889B9898C9186FD0FC064
:103240000FB607FCF5CF808185FFF2CFA889B98939
:103250008C9185FFEDCFCE010E94A118E7CFDF91C1
:10326000CF910895CF92DF92EF92FF921F93CF9369
:10327000DF93EC016A017B01122FE889F98982E072
:1032800080834115514E61057105B1F060E079E030
:103290008DE390E0A70196010E94F81FDA01C901B1
:1032A0000197A109B109B695A795979587959C01B6
:1032B000211580E13807A8F0E889F989108260E8D3
:1032C00074E88EE190E0A70196010E94F81FDA01F0
:1032D000C9010197A109B109B695A7959795879559
:1032E0009C01EC85FD853083EE85FF852083188E5B
:1032F000EC89FD891083EA89FB8980818061808364
:10330000EA89FB89808188608083EA89FB898081E2
:1033100080688083EA89FB8980818F7D8083DF914B
:10332000CF911F91FF90EF90DF90CF900895CF93B2
:10333000CFB7F89480916C04811127C0E4EEF0E0DF
:103340008491E0EDF0E09491E82FF0E0EE0FFF1FA4
:10335000EE5FFE4FA591B491EC91E92321F461E079
:103360008AE00E94150E61E08AE00E94D90D8CB5BA
:1033700080618CBD8CB580648CBD61E08DE00E9465
:10338000D90D61E08BE00E94D90D80916C048F5FB4
:1033900080936C04CFBFCF910895A0E0B0E0E3ED3F
:1033A000F9E10C942C205C016B017A016115710527
:1033B00019F0FB0191838083E114F10429F0C70126
:1033C0000297839708F0E5C0E5012196F501108189
:1033D000812F90E00E94E61A892B11F05E01F4CF54
:1033E0001D3229F42196F501118101E007C01B323D
:1033F00021F4E5012296F501118100E0E114F104C8
:1034000009F1F0E1EF16F10429F43FC010E3E114F3
:10341000F10421F128E0E216F10401F154F4E2E0B4
:10342000EE16F10421F5812C912CA12CB0E4BB2ED9
:103430003EC0FAE0EF16F10439F020E1E216F104A3
:10344000B1F430C0103319F1FAE0EF2EF12CACECEE
:103450008A2E982CA82CACE0BA2E29C078E0E72E52
:10346000F12C812C912CA12CE0E1BE2E20C060E03B
:1034700070E080E090E897010F2C000C440B550B96
:103480000E94F81F49015A0112C0103359F4888173
:103490008F7D883509F0BACF19812296026080E1CC
:1034A000E82EF12C812C912CA12C68E0B62E40E066
:1034B00060E070E0CB0127010F2C000C6608770854
:1034C000FE0150ED352E310E29E0231570F42FEB5F
:1034D000210F2A3118F439EC332E06C02FE9210FC1
:1034E0002A3118F529EA322E310E232D30E02E151F
:1034F0003F05DCF447FD16C086169706A806B906F8
:1035000070F0A30192010E94E81F630D711D811DDF
:10351000911D61307105810520E8920710F04FEF91
:1035200001C041E021961081CBCF202F2170C11422
:10353000D10471F0442329F02197F601D183C0838F
:1035400007C001FF19C02297F601D183C08314C0C0
:1035500047FF12C0222329F060E070E080E090E88D
:1035600004C06FEF7FEF8FEF9FE722E230E03093F0
:103570005B0820935A0809C0222381F0909580951A
:10358000709561957F4F8F4F9F4F462F372F282F74
:1035900012C040E030E020E090E00DC097FFF5CF92
:1035A00082E290E090935B0880935A086FEF7FEF80
:1035B0008FEF9FE7EACF642F732F822FCDB7DEB74F
:1035C000E1E10C944820F8940C94712091110C9432
:1035D000351F803219F089508550C8F70895AEE044
:1035E000B0E0E5EFFAE10C9439200D891E8986E000
:1035F0008C831A8309838FEF9FE79E838D83AE01AF
:10360000475E5F4F6F89788DCE0101960E94541DF1
:10361000EF81F885E00FF11F10822E96E4E00C9404
:1036200055205058BB27AA270E94291B0C94A31C85
:103630000E94951C38F00E949C1C20F039F49F3F9A
:1036400019F426F40C94921C0EF4E095E7FB0C940C
:103650008C1CE92F0E94B41C58F3BA176207730739
:103660008407950720F079F4A6F50C94D61C0EF487
:10367000E0950B2EBA2FA02D0B01B90190010C0182
:10368000CA01A0011124FF27591B99F0593F50F49A
:10369000503E68F11A16F040A22F232F342F4427F2
:1036A000585FF3CF469537952795A795F0405395EA
:1036B000C9F77EF41F16BA0B620B730B840BBAF0BA
:1036C0009150A1F0FF0FBB1F661F771F881FC2F725
:1036D0000EC0BA0F621F731F841F48F48795779539
:1036E0006795B795F7959E3F08F0B0CF9395880FF3
:1036F00008F09927EE0F9795879508950E94681C0A
:1037000008F481E008950E94971B0C94A31C0E946A
:103710009C1C58F00E94951C40F029F45F3F29F052
:103720000C948C1C51110C94D71C0C94921C0E946C
:10373000B41C68F39923B1F3552391F3951B550BF2
:10374000BB27AA2762177307840738F09F5F5F4F74
:10375000220F331F441FAA1FA9F335D00E2E3AF0B3
:10376000E0E832D091505040E695001CCAF72BD0CB
:10377000FE2F29D0660F771F881FBB1F261737071C
:103780004807AB07B0E809F0BB0B802DBF01FF274E
:1037900093585F4F3AF09E3F510578F00C948C1C83
:1037A0000C94D71C5F3FE4F3983ED4F3869577954D
:1037B0006795B795F7959F5FC9F7880F911D969507
:1037C000879597F90895E1E0660F771F881FBB1F63
:1037D000621773078407BA0720F0621B730B840B10
:1037E000BA0BEE1F88F7E09508950E94FC1B6894C1
:1037F000B1110C94D71C08950E94BC1C88F09F57EF
:1038000098F0B92F9927B751B0F0E1F0660F771F04
:10381000881F991F1AF0BA95C9F714C0B13091F0FA
:103820000E94D61CB1E008950C94D61C672F782F07
:103830008827B85F39F0B93FCCF3869577956795BF
:10384000B395D9F73EF490958095709561957F4F2B
:103850008F4F9F4F0895E89409C097FB3EF49095D1
:103860008095709561957F4F8F4F9F4F9923A9F059
:10387000F92F96E9BB279395F695879577956795E8
:10388000B795F111F8CFFAF4BB0F11F460FF1BC02C
:103890006F5F7F4F8F4F9F4F16C0882311F096E9BF
:1038A00011C0772321F09EE8872F762F05C066236D
:1038B00071F096E8862F70E060E02AF09A95660F26
:1038C000771F881FDAF7880F9695879597F90895DF
:1038D000990F0008550FAA0BE0E8FEEF1616170621
:1038E000E807F907C0F012161306E407F50798F089
:1038F000621B730B840B950B39F40A2661F0232BA2
:10390000242B252B21F408950A2609F4A140A6951D
:103910008FEF811D811D089597F99F6780E870E002
:1039200060E008959FEF80EC089500240A94161635
:10393000170618060906089500240A94121613069D
:10394000140605060895092E0394000C11F488232B
:1039500052F0BB0F40F4BF2B11F460FF04C06F5F47
:103960007F4F8F4F9F4F089557FD9058440F551F1D
:1039700059F05F3F71F04795880F97FB991F61F0F1
:103980009F3F79F087950895121613061406551F68
:10399000F2CF4695F1DF08C0161617061806991FD4
:1039A000F1CF86957105610508940895E894BB27C9
:1039B00066277727CB0197F908950E94681C08F4C1
:1039C0008FEF08950E94F51C0C94A31C0E94951C77
:1039D00038F00E949C1C20F0952311F00C948C1C54
:1039E0000C94921C11240C94D71C0E94B41C70F3EC
:1039F000959FC1F3950F50E0551F629FF001729F94
:103A0000BB27F00DB11D639FAA27F00DB11DAA1FA2
:103A1000649F6627B00DA11D661F829F2227B00DEF
:103A2000A11D621F739FB00DA11D621F839FA00D7A
:103A3000611D221F749F3327A00D611D231F849FCA
:103A4000600D211D822F762F6A2F11249F57504021
:103A50009AF0F1F088234AF0EE0FFF1FBB1F661F9C
:103A6000771F881F91505040A9F79E3F510580F065
:103A70000C948C1C0C94D71C5F3FE4F3983ED4F359
:103A8000869577956795B795F795E7959F5FC1F709
:103A9000FE2B880F911D9695879597F908950E94A2
:103AA000681C880B990B0895ABE0B0E0EAE5FDE1F6
:103AB0000C942B206C017B018A01FC011782168279
:103AC000838181FFCCC1CE0101963C01F601938137
:103AD000F70193FD859193FF81917F01882309F47C
:103AE000BAC1853239F493FD859193FF81917F01AD
:103AF000853229F4B60190E00E944E1FE7CF912C49
:103B0000212C312CFFE1F315D8F08B3279F038F409
:103B1000803279F08332A1F4232D20611DC08D32D3
:103B200061F0803369F4232D216016C0832D8260FB
:103B3000382EE32DE4603E2E2AC0F32DF8601DC020
:103B400037FC2DC020ED280F2A3040F08E32B9F41A
:103B500036FC81C1232D2064322E19C036FE06C0EA
:103B60008AE0989E200D1124922E11C0EAE02E9E2C
:103B7000200D1124222EF32DF0623F2E08C08C362A
:103B800021F4832D8068382E02C0883641F4F70175
:103B900093FD859193FF81917F018111B3CF982F80
:103BA0009F7D9554933028F40C5F1F4F9FE39983BA
:103BB0000DC0833631F0833771F0833509F059C079
:103BC00021C0F801808189830E5F1F4F8824839470
:103BD000912C530113C02801F2E04F0E511CF80143
:103BE000A080B18036FE03C0692D70E002C06FEF87
:103BF0007FEFC5010E94431F4C018201F32DFF7727
:103C00003F2E16C0280122E0420E511CF801A08070
:103C1000B18036FE03C0692D70E002C06FEF7FEF08
:103C2000C5010E94381F4C01F32DF0683F2E820120
:103C300033FC1BC0822D90E088169906B0F4B601C3
:103C400080E290E00E944E1F2A94F4CFF50137FCE9
:103C5000859137FE81915F01B60190E00E944E1F71
:103C600021102A9421E0821A91088114910471F79D
:103C7000E8C0843611F0893641F5F80137FE07C0F7
:103C800060817181828193810C5F1F4F08C06081C8
:103C90007181072E000C880B990B0E5F1F4FF32DBF
:103CA000FF763F2E97FF09C090958095709561959E
:103CB0007F4F8F4F9F4FF0683F2E2AE030E0A301E7
:103CC0000E948A1F882E861845C0853731F4232D1F
:103CD0002F7EB22E2AE030E025C0932D997FB92E99
:103CE0008F36C1F018F4883579F0B5C0803719F0F7
:103CF000883721F0B0C0E92FE061BE2EB4FE0DC0C0
:103D0000FB2DF460BF2E09C034FE0AC0292F2660A7
:103D1000B22E06C028E030E005C020E130E002C04D
:103D200020E132E0F801B7FE07C060817181828135
:103D300093810C5F1F4F06C06081718180E090E02D
:103D40000E5F1F4FA3010E948A1F882E8618FB2D2D
:103D5000FF773F2E36FE0DC0232D2E7FA22E891415
:103D600058F434FE0BC032FC09C0832D8E7EA82E81
:103D700005C0B82CA32C03C0B82C01C0B92CA4FEDC
:103D80000FC0FE01E80DF11D8081803321F49A2DD2
:103D9000997EA92E09C0A2FE06C0B394B39404C0B4
:103DA0008A2D867809F0B394A3FC11C0A0FE06C04A
:103DB000B21488F4280C922C9B180EC0B21460F434
:103DC000B60180E290E00E944E1FB394F7CFB21488
:103DD00018F42B1802C0982C212CA4FE10C0B60198
:103DE00080E390E00E944E1FA2FE17C0A1FC03C01A
:103DF00088E790E002C088E590E0B6010CC08A2D0B
:103E0000867859F0A1FE02C08BE201C080E2A7FCD7
:103E10008DE2B60190E00E944E1F891438F4B6017D
:103E200080E390E00E944E1F9A94F7CF8A94F301AA
:103E3000E80DF11D8081B60190E00E944E1F8110B7
:103E4000F5CF222009F442CEB60180E290E00E9434
:103E50004E1F2A94F6CFF6018681978102C08FEF1C
:103E60009FEF2B96E2E10C9447209927882708952D
:103E7000FC010590615070400110D8F78095909535
:103E80008E0F9F1F0895FC0161507040019001103A
:103E9000D8F7809590958E0F9F1F08950F931F93CD
:103EA000CF93DF93FB01238121FD03C08FEF9FEFB1
:103EB0002CC022FF16C046815781248135814217CC
:103EC000530744F4A081B1819D012F5F3F4F31839F
:103ED00020838C93268137812F5F3F4F3783268342
:103EE00014C08B01EC01FB010084F185E02D0995E4
:103EF000892BE1F6D80116968D919C911797019622
:103F000017969C938E931697CE01DF91CF911F91B8
:103F10000F910895FA01AA27283051F1203181F13B
:103F2000E8946F936E7F6E5F7F4F8F4F9F4FAF4FC1
:103F3000B1E03ED0B4E03CD0670F781F891F9A1FD4
:103F4000A11D680F791F8A1F911DA11D6A0F711D88
:103F5000811D911DA11D20D009F468943F912AE094
:103F6000269F11243019305D3193DEF6CF0108957C
:103F7000462F4770405D4193B3E00FD0C9F7F6CFAD
:103F8000462F4F70405D4A3318F0495D31FD405275
:103F9000419302D0A9F7EACFB4E0A695979587950B
:103FA00077956795BA95C9F70097610571050895EA
:103FB0009B01AC010A2E0694579547953795279596
:103FC000BA95C9F7620F731F841F951FA01D08952E
:103FD000DB018F939F930E942020BF91AF91A29FFE
:103FE000800D911DA39F900DB29F900D11240895F7
:103FF000A1E21A2EAA1BBB1BFD010DC0AA1FBB1FED
:10400000EE1FFF1FA217B307E407F50720F0A21B5E
:10401000B30BE40BF50B661F771F881F991F1A94CB
:1040200069F760957095809590959B01AC01BD01F5
:10403000CF010895EE0FFF1F0590F491E02D099434
:104040000E946220A59F900DB49F900DA49F800DAB
:10405000911D112408952F923F924F925F926F927B
:104060007F928F929F92AF92BF92CF92DF92EF9208
:10407000FF920F931F93CF93DF93CDB7DEB7CA1B89
:10408000DB0B0FB6F894DEBF0FBECDBF09942A88B4
:10409000398848885F846E847D848C849B84AA845C
:1040A000B984C884DF80EE80FD800C811B81AA81E9
:1040B000B981CE0FD11D0FB6F894DEBF0FBECDBFB4
:1040C000ED010895A29FB001B39FC001A39F700DA1
:1040D000811D1124911DB29F700D811D1124911D10
:0640E0000895F894FFCFE3
:1040E60000000000000000000000000000000000CA
:1040F60000000000000000000000000000000000BA
:1041060000000000000000000000000000000000A9
:104116000000000000000000000000000000000099
:104126000000000000000000000000000000000089
:104136000000000000000000000000000000000079
:104146000000000000000000FFFFFFFFFFFFFFFF71
:10415600FFFFFFFFFFFFFFFFFFFFFFFFFFFFFFFF69
:10416600FF6F12833A398E9B410000C84100002040
:1041760041000048420000F3020000BD03FFFFFFBC
:10418600FFFFFFFFFF00007A02000000001E000094
:1041960000B80B0000028302000000003C00000093
:1041A600B80B0000028C020000000019000000B8E5
:1041B6000B000002000000060000000005000000E1
:1041C60000040000000003000000000200010000DF
:1041D60000FFFF00000100000000000000000000DA
:1041E60000000000000700FF00000100FF0000C9FA
:1041F6000FC90F304050FF4D4350323531352063E3
:10420600616E5F73656E64205374617274656421B8
:1042160000253034580045676F5F6163653A2000BA
:104226003B200052656C617469766520446973743D
:10423600616E63653A200045474F2053504545441B
:104246003A200052656C6174697665205370656525
:10425600643A2000C501B601A701ED015D0980029F
:10426600D90600ED015D098902D90601ED015D0956
:104276009202D90603E801E301DE01D901D401BDAA
:1042860003E502D702C902BB02AD02F3025808F2E7
:104296000680002D0B0000040601005608EE0500FE
:1042A600012C0C000003050100040882078000842D
:1042B6000B000002040100EE066E040001E00A0095
:1042C6000001030100F0066E058000D50B0000001A
:1042D6000201000208060850006D0F0000050001EB
:1042E600000A02050200010101000000000000EFC3
:1042F60007BD07C6079F0733053C0720056507412D
:1043060008E206EA06FA08310833095A086609A5DA
:10431600089D09DD06EF097D08520A930AC4080DB7
:104326000A006E616E00696E66006F7666000000B8
:104336000000C31812169218101964187E18701807
:00000001FF
