:100000000C94EE000C94DD100C9404110C94160169
:100010000C9416010C9416010C9416010C94160104
:100020000C9416010C9416010C9416010C941601F4
:100030000C9416010C9416010C9416010C941601E4
:100040000C94800F0C9416010C9453190C94851980
:100050000C9416010C9416010C9416010C941601C4
:100060000C9416010C941601811301130513091346
:100070000D131113141317131B131E13221325131F
:1000800029132C1385133B133F139F13431364133E
:1000900047136C136F134A1376134E1351135413F3
:1000A0008913641368136C136F13721376137A1326
:1000B0007E13000000080002010000030407000096
:1000C000000000000000010204081020408001022E
:1000D000040810200102040810200404040404048D
:1000E00004040202020202020303030303030000EA
:1000F0000000230026002900000000002500280041
:100100002B0000000000240027002A0052657475AF
:10011000726E696E6720746F2050726576696F75B4
:1001200073204D6F6465204661696C7572652E2E73
:100130002E006053657474696E67204944204D6FCA
:100140006465204661696C7572652E2E2E005365BC
:100150007474696E672042617564726174652053BE
:1001600075636365737366756C2100536574746998
:100170006E67204261756472617465204661696CC6
:100180007572652E2E2E00456E746572696E67203D
:10019000436F6E66696775726174696F6E204D6F2B
:1001A0006465205375636365737366756C210045E0
:1001B0006E746572696E6720436F6E6669677572EB
:1001C0006174696F6E204D6F6465204661696C755E
:1001D00072652E2E2E00B90ED710AB1911241FBE3A
:1001E000CFEFD8E0DEBFCDBF13E0A0E0B1E0EEEC92
:1001F000F3E402C005900D92A63EB107D9F728E0BE
:10020000A6EEB3E001C01D92A33FB207E1F710E0F4
:10021000CEEED0E004C02197FE010E948E21CB3E9D
:10022000D107C9F70E94C8100C94571C0C94000009
:10023000E2E10E94BD010895E9E00E94BD01089538
:10024000EAE00E94BD010895E1E00E94BD01089529
:10025000E3E00E94BD010895E7E00E94BD0108951A
:10026000E5E00E94BD010895E0E00E94BD0108950F
:10027000E2E00E94BD010895E4E00E94BD010895FE
:10028000ECE00E94BD010895E8E00E94BD010895E0
:10029000EEE00E94BD010895E4E10E94BD010895D1
:1002A000E0E10E94BD010895E7E10E94BD010895CB
:1002B000E6E00E94BD010895EBE00E94BD010895B3
:1002C000EDE00E94BD010895EFE00E94BD01089598
:1002D000E1E10E94BD010895E3E10E94BD0108959E
:1002E000E5E10E94BD010895E6E10E94BD01089587
:1002F00021968A929A92AA92BA92CA92DA92EA9233
:10030000FA920A931A932197E0918201F091830166
:100310000080F181E02DC083D1830895C0918401D4
:10032000D0918501E881F981C081D181219619910F
:100330000991F990E990D990C990B990A9909990B4
:100340008990219708952F903F90E7E6F1E0CDB78F
:10035000DEB7EDBFFEBF3F922F9208952F903F90E2
:10036000CDBFDEBF3F922F920895E0E80E94BD010D
:100370000895E0E40E94BD0108952F923F924F92AC
:100380005F926F927F922FB62F92CF93DF937E2E44
:10039000F894E0910001EF5FE0930001E13011F487
:1003A0000E94A301E0E0E0939201E72DE07849F09C
:1003B0000E941106F0919301F17071F00E94C40443
:1003C0000BC0E72DEC3140F4EE0FF0E0EC56FC4FA3
:1003D0000190F081E02D0995F0919201EF2FE170ED
:1003E00059F0F27011F00E9478018F938F2F0E94C4
:1003F0000C048F910E948E012091000121502093C6
:100400000001222311F40E94AE01DF91CF912F90C1
:100410002FBE7F906F905F904F903F902F900895E8
:10042000CF92DF92EF92FF920F931F93DC01EC913A
:10043000DB012C918E2F8170C82ED12CE12CF12C58
:100440008E2F8F7090E0A0E0B0E0B695A7959795BD
:100450008795DC01A45BBB4F8C91C81AD108E108D9
:10046000F108EE70422F417050E060E070E0822FA2
:100470008F7090E0A0E0B0E0B695A795979587952E
:10048000DC01A45BBB4F8C91481B510961097109C8
:10049000822F8E7097018601017011272227332742
:1004A0000E2B4170552766277727482B81E090E077
:1004B000041715072607370710F080E090E01F911A
:1004C0000F91FF90EF90DF90CF9008958F929F92C1
:1004D000AF92BF92EF92FF920F931F93CF93DF9350
:1004E0007C014A015B01B694A794979487944230AB
:1004F000510561057105E0F0440F551F8701040F98
:10050000151FE401CC0FDD1FCE0DDF1DB801CE019C
:100510000E941002892B61F0F8019081818128816D
:1005200039813183208398838983B501A401DBCF8E
:10053000DF91CF911F910F91FF90EF90BF90AF90FF
:100540009F908F9008954F925F926F927F928F92BB
:100550009F92AF92BF92CF92DF92EF92FF920F9352
:100560001F93CF93DF9300D000D000D0CDB7DEB77C
:100570008C016A017B01DC018C91282F30E040E086
:1005800050E029833A834B835C8346015701880CF2
:10059000991CAA1CBB1C29813A814B815C812815BE
:1005A00039054A055B0508F442C0240135013FEFD7
:1005B000431A530A630A730A89819A81AB81BC8109
:1005C00084159505A605B70580F0B201660F771F63
:1005D000600F711FC401880F991F800F911F0E9427
:1005E0001002892B11F0530142013401660C771C73
:1005F000600E711ECC0CDD1CD801AC0DBD1DBE8380
:10060000AD83B301CD010E941002892B81F0ED81F1
:10061000FE8190818181D3012D913C91119731838D
:1006200020839C9311968C9375016401AECF26961E
:100630000FB6F894DEBF0FBECDBFDF91CF911F91F3
:100640000F91FF90EF90DF90CF90BF90AF909F9071
:100650008F907F906F905F904F900895EDE8F6E057
:1006600040814F5F408350E060E070E0E82FEE0F84
:10067000FF0BEC5DFC4F0190F081E02D238530E015
:10068000F901E45BFB4F908191509083FA01EE0FEA
:10069000FF1FE357F94F220F331F9170292B20833F
:1006A00081838DE896E00C946602EDE8F6E04081E7
:1006B0004F5F408350E060E070E0E82FEE0FFF0BEB
:1006C000E85EFC4F0190F081E02D9381FA01EE0F7E
:1006D000FF1FE357F94F908381838DE896E00C94D8
:1006E0006602CF93DF93EDE8F6E080819FEF980FED
:1006F0009083D281C38190E0880F991FDC01A357BA
:10070000B94F8D919C919383828341E050E060E0EA
:1007100070E0CF010E94A3028D2F9C2FDF91CF911B
:10072000089580918A0190918B01A0918C01B091E4
:100730008D018F3F2FEF9207A207B20731F0059787
:10074000A105B10524F481E0089580E0089582E0D8
:100750000895880F990BFC01EC5DFC4F0190F0812E
:10076000E02D0084F185E02D3097E9F02281211100
:100770001AC021E02283DC01A85EBC4F0D90BC9121
:10078000A02D13968C9113978183808190E0FC01BA
:10079000E45BFB4F208121502083880F991F21703B
:1007A000822B13968C930895880F990BFC01EC5DB6
:1007B000FC4F0190F081E02D0084F185E02D309711
:1007C00061F02281213049F412822181FC01E85E2E
:1007D000FC4F0190F081E02D2383089580918E01DC
:1007E00090918F01A0919001B091910140918A0167
:1007F00050918B0160918C0170918D0148175907C0
:100800006A077B0741F0E0918801F091890121E0BE
:1008100024830C9455030895CF93DF93882391F09C
:10082000C0918201D0918301E0918601F09187010E
:100830008481833049F081E0848380918A010E9421
:10084000550302C0C0E0D0E0E0918801F091890139
:10085000F0938701E0938601809184019091850156
:10086000909383018093820180918E0130918F015A
:10087000209190019091910180938A0130938B0196
:1008800020938C0190938D0192E094830E94A903A0
:10089000CE01DF91CF91089580918A010E94D40307
:1008A000E0918601F09187018281882319F085E02B
:1008B0008483089514820895CF93DF93282F220F05
:1008C000330BF901E85EFC4FC081D1819A81F901B7
:1008D000EC5DFC4F0190F081E02D2485921770F4BF
:1008E000911105C095E09C8391E0909393010E9443
:1008F0002E038A818F5F8A8380E001C084E0DF91CC
:10090000CF910895E82FEE0FFF0BE85EFC4F0190AA
:10091000F081E02D118210820C9482101F93CF93EE
:10092000DF930E947103182F892F492F092E000C85
:10093000550B660B770B40938E0150938F0160939C
:10094000900170939101292F220F330BF901E85E7A
:10095000FC4FC081D181D0938901C0938801F901F6
:10096000EC5DFC4F2081318130938501209384011F
:100970009C81953019F40E9482041B83109293018C
:10098000DF91CF911F910895E0918E01F0918F0139
:10099000EE0FFF1FE85EFC4F0190F081E02D90917B
:1009A0008F068381891730F40E94EE030E948E0423
:1009B00083E001C080E080939201089581E08093FC
:1009C00092010C948E04EF92FF920F931F93CF939A
:1009D000DF93C1E001C0CC0F8A95EAF785E00E9461
:1009E0005C040EE813E0D0E0F80181918F018C23C4
:1009F00019F08D2F0E945C04DF5FD530A9F709E85C
:100A000013E081EEE82E82E0F82ED1E0F80181912A
:100A10008F018C2339F0F70180819181FC01D68709
:100A20000E944A05F2E0EF0EF11C83E00E38180731
:100A300069F7DF91CF911F910F91FF90EF9008958B
:100A40000E94F80681110E941907E0918601F09139
:100A5000870180819181892B21F080918A010E94F8
:100A6000E0080C9441080E94F80681110E941907C1
:100A7000E0918601F091870180819181892B21F09D
:100A800080918A010E94E0080C94290881E08093FB
:100A9000E6030895AF92BF92CF92DF92EF92FF925A
:100AA0000F931F93CF93DF93FC01A081B181AD9091
:100AB000BC90E501AC89BD89109739F0428553851A
:100AC0006485758530E020E017C0D50155969C936C
:100AD0008E93549757969C938E93569715821482B3
:100AE000138212825BC012968D919C9113973A2FBC
:100AF0002B2F009779F0DC011A96CD90DD90ED90C8
:100B0000FC901D974C155D056E057F0560F7CD01C6
:100B1000A32FB22F93838283B583A483009719F008
:100B2000EC01FD83EC83109729F01396FC93EE9370
:100B3000129705C0D5015596FC93EE935497E501A5
:100B4000AE89BF891A968D919D910D90BC91A02D73
:100B5000088919892A893B8980179107A207B30759
:100B600080F4041715072607370728F04817590798
:100B70006A077B0798F4D5015796FC93EE93569736
:100B80000DC0041715072607370740F44817590703
:100B90006A077B0718F4E501FF8BEE8BDF91CF919D
:100BA0001F910F91FF90EF90DF90CF90BF90AF908B
:100BB0000895CF93DF93DC01ED91FC9111970190A3
:100BC000F081E02D848995891296CD91DC9113975F
:100BD000A817B90711F4D58BC48B86899789A817F4
:100BE000B90711F4D78BC68B209731F014968D91ED
:100BF0009C9115979D838C8314960D90BC91A02D8C
:100C0000109721F01396DC93CE93129786899789DB
:100C1000892B21F484899589978B868BDF91CF91DD
:100C20000895EF92FF920F931F93CF93DF93FC01F0
:100C30008091E603882309F4B5C084859585A6854F
:100C4000B7850196A11DB11D84879587A687B787B3
:100C5000408151816281738184179507A607B70788
:100C600009F0A0C040895189628973894F5F5F4F45
:100C70006F4F7F4F84819581A681B7818417950737
:100C8000A607B70718F440E050E0BA01408B518B3B
:100C9000628B738B1486158616861786C689D7894C
:100CA000209709F47FC08A859B85AC85BD85481750
:100CB00059076A077B0709F075C0CE01DC0112965F
:100CC000ED90FC901397E114F10471F0D7011A969E
:100CD0000D911D912D913C911D9740175107620771
:100CE000730711F4C701EACF2C813D81211531052D
:100CF00029F0D9011396FC92EE921297E114F104B7
:100D000029F0D70115963C932E93149724893589A1
:100D1000C217D30711F4F58AE48AE114F10419F03B
:100D2000F78AE68A04C024893589378B268B8F01A0
:100D3000FC0113821282EA80FB80E881F981028043
:100D4000F381E02DCE0109954E815F81688579851B
:100D5000411551056105710509F18A859B85AC85B1
:100D6000BD85840F951FA61FB71FF80144815581CB
:100D700066817781481759076A077B0738F4841B17
:100D8000950BA60BB70B0197A109B1098A879B8721
:100D9000AC87BD87CE010E944A0501C01E86E701CF
:100DA000209749F6DF91CF911F910F91FF90EF901F
:100DB0000895FC0182810C945C040E94F8068091E5
:100DC00068010895809368010E94E3040E9446052B
:100DD0000C94DE040C948110CF93C82F0E949103D1
:100DE000811102C00E94BE108C2FCF910C941C0167
:100DF0008091F3038130D9F08091EB039091EC0363
:100E0000A091ED03B091EE03892B8A2B8B2B79F403
:100E100081E04091EF035091F0036091F1037091F4
:100E2000F203452B462B472B19F480E0089581E00F
:100E300008951092F3031092EF031092F0031092B2
:100E4000F1031092F2031092EB031092EC03109254
:100E5000ED031092EE038091E7039091E803A091D7
:100E6000E903B091EA038093F4039093F503A09310
:100E7000F603B093F70308950E94C1108091F40324
:100E80009091F503A091F603B091F7030196A11D8F
:100E9000B11D8093F4039093F503A093F603B093F0
:100EA000F7038091EF039091F003A091F103B091CB
:100EB000F2030196A11DB11D8093EF039093F003FF
:100EC000A093F103B093F20308958091EF03909102
:100ED000F003A091F103B091F2030097A105B105D1
:100EE00069F14091F4035091F5036091F60370911C
:100EF000F70341505109610971094093F40350937C
:100F0000F5036093F6037093F7030197A109B10904
:100F10008093EF039093F003A093F103B093F20357
:100F20008091F4039091F503A091F603B091F7033B
:100F3000892B8A2B8B2B11F40C94BF100895809170
:100F4000EF039091F003A091F103B091F203892B8C
:100F50008A2B8B2B89F48091EB039091EC03A09169
:100F6000ED03B091EE03892B8A2B8B2B29F40E9481
:100F7000C11081E08093F30308958091F3038823E7
:100F800021F01092F3030C94BF1008950E94C51035
:100F90008091F4039091F503A091F603B091F703CB
:100FA0000196A11DB11D8093F4039093F503A093C6
:100FB000F603B093F7038091EB039091EC03A091BB
:100FC000ED03B091EE030196A11DB11D8093EB03DB
:100FD0009093EC03A093ED03B093EE0308958091FA
:100FE000EB039091EC03A091ED03B091EE03009719
:100FF000A105B10569F14091F4035091F5036091A9
:10100000F6037091F703415051096109710940934A
:10101000F4035093F5036093F6037093F70301977D
:10102000A109B1098093EB039093EC03A093ED0326
:10103000B093EE038091F4039091F503A091F60331
:10104000B091F703892B8A2B8B2B11F40C94C310CE
:1010500008950E94F806882311F083E1089580E046
:101060000895CF93C82F0E94F8068C2F0E945C042D
:10107000C82F8091930181110E94C4048C2FCF91BD
:101080000895CF930E94F806882311F0C3E101C0B0
:10109000C0E0E0918601F0918701828181508283D6
:1010A0000E944C0481E0809392010E948E048C2F58
:1010B000CF910895CF93C82F0E94F806E091860142
:1010C000F09187018281815082838C2F0E945C0481
:1010D000C82F811108C00E944C0481E080939201C6
:1010E0000E948E0407C0E0918601F0918701828101
:1010F0008F5F82838C2FCF910895CF930E94F80643
:10110000882311F0C3E101C0C0E080918A010E94F0
:10111000D4030E94C40480918A0190918B01A09114
:101120008C01B0918D0140918E0150918F016091A1
:1011300090017091910184179507A607B70711F4E4
:101140000E94A9038C2FCF910895CF93DF93EC01D8
:101150000E94F806882311F083E101C080E04091ED
:101160008A0150918B0160918C0170918D01453005
:1011700051056105710514F4488303C09091210263
:101180009883DF91CF9108950F931F93CF93C82F2A
:101190008B010E94F806882311F083E101C080E0F2
:1011A000EC2FEE0FFF0BE85EFC4F0190F081E02D7D
:1011B00094819370F8019083CF911F910F910895BE
:1011C000880F990BFC01E85EFC4FA081B181ED9185
:1011D000FC911197309769F01D921C922091210289
:1011E00093818481228314821382E92FF82F309710
:1011F000B9F70895CF93C82F0E94F806882311F0FD
:1012000083E101C080E0EC2FF0E0EE0FFF1FEC5710
:10121000FC4FA081B18190918A0112969C93129704
:10122000E0918601F09187012081318114963C93F1
:101230002E931397B183A083938111969C9311975A
:101240002C9193819695921760F430E0D901A45BBC
:10125000BB4F9C9191509C93220F331F9170292B6F
:101260002383CF910895CF93DF93C82F0E94F80670
:10127000882311F0D3E101C0D0E0EC2FF0E0EE0FB5
:10128000FF1FEC57FC4F0190F081E02DA0918601EB
:10129000B0918701818113968C93139783819481F8
:1012A0008D939C93148213828091210282830E94E9
:1012B000C4048D2FDF91CF910895DC01ED91FC9155
:1012C00084819581DC01ED91FC9109941F93CF936A
:1012D000DF93182FEB010E94F806882311F083E1B9
:1012E00001C080E0E12FF0E0EE0FFF1FEF51FD4F56
:1012F0000190F081E02D0190F081E02D0190F081CE
:10130000E02D40815181628173814C835D836E83C6
:101310007F834481558166817781488359836A83BD
:101320007B834085518562857385488759876A87A5
:101330007B87DF91CF911F9108958F929F92AF92FB
:10134000BF92CF92DF92EF92FF920F931F93CF93B2
:10135000C82F8B010E94F806882311F083E101C099
:1013600080E0EC2FF0E0EE0FFF1FEF51FD4F0190FA
:10137000F081E02D9685913029F54285538564856D
:1013800075850190F081E02D0190F081E02DC088FD
:10139000D188E288F3884C155D056E057F0540F421
:1013A00084809580A680B780480D591D6A1D7B1DDD
:1013B0004C195D096E097F09F801408351836283EE
:1013C000738301C085E0CF911F910F91FF90EF9043
:1013D000DF90CF90BF90AF909F908F9008958F92A5
:1013E0009F92AF92BF92CF92DF92EF92FF920F93B4
:1013F0001F93CF93DF93D82F4A015B0168017901D6
:101400000E94F806882311F0C3E101C0C0E0ED2F6F
:10141000F0E0EE0FFF1FEF51FD4F0190F081E02D46
:101420008685811130C0A081B1810D90BC91A02D25
:1014300050964D915D916D917C915397480D591D3A
:101440006A1D7B1D14968D919D910D90BC91A02DD0
:1014500084179507A607B70740F4481B590B6A0B7A
:101460007B0B415051096109710942875387648799
:101470007587C682D782E086F18681E08687CF01B4
:101480000E944A0501C0C7E08C2FDF91CF911F91C8
:101490000F91FF90EF90DF90CF90BF90AF909F9013
:1014A0008F9008958F929F92AF92BF92CF92DF92CA
:1014B000EF92FF920F931F93CF93DF93C82F4A01B0
:1014C0005B01680179010E94F806882311F0D3E1DD
:1014D00001C0D0E0EC2FF0E0EE0FFF1FEF51FD4F09
:1014E0000190F081E02D868581110EC08286938661
:1014F000A486B586C682D782E086F18681E086879B
:10150000CF010E944A0501C0D7E08D2FDF91CF9116
:101510001F910F91FF90EF90DF90CF90BF90AF9011
:101520009F908F9008950F931F93CF93DF93C82FB1
:101530000E94F806882311F0D3E101C0D0E0EC2F1F
:10154000F0E0EE0FFF1FEF51FD4F00811181F80118
:101550008685813031F4C8010E94D905F8011686CC
:1015600001C0D5E08D2FDF91CF911F910F9108958C
:1015700026E040E052EC61E070E083E694E00E94F7
:10158000A61A22E04DE063E088EF93E00E941A166D
:10159000882339F068EC70E080E090E00E94091048
:1015A000F0CF60E088EF93E00E94DF1260E082E01D
:1015B0000C94EC0ECF9382E00E94570F892B09F018
:1015C0005EC0C09188038C2F0E945C0120E434E04F
:1015D0004FE354E068E474E088EF93E00E94D9168A
:1015E0008091480490914904A0914A04B0914B0421
:1015F00088279470A07FBC7081159440A04FBC4098
:1016000069F481E090914004911101C080E08093E1
:101610007D018C2F0E9460010E944401809148044A
:1016200090914904A0914A04B0914B048370957045
:10163000A07FB87183309540A04FB84101F560910B
:10164000410470914204762767277627072E000C05
:10165000880B990B0E94A11D20E030E040E85BE37D
:101660000E94561E60932F047093300480933104BF
:10167000909332048C2F0E9460010E94440180915B
:1016800088030E946001CF910C944401CF9382E0C3
:101690000E94570F892B09F0BEC0C09188038C2F80
:1016A0000E945C0120E434E04FE354E068E474E01D
:1016B00088EF93E00E94D9168091480490914904E4
:1016C000A0914A04B0914B04847B917AA374BC70BE
:1016D000843B914AA344BC4009F040C0609141045E
:1016E00070914204762767277627072E000C880B17
:1016F000990B0E94A11D20E030E040E85BE30E94CE
:10170000561E60933B0470933C0480933D04909379
:101710003E0466EC73E083E694E00E94A71762E261
:1017200072E083E694E00E94A71760E372E083E62C
:1017300094E00E94881740914804509149046091B8
:101740004A0470914B042AE030E083E694E00E9462
:1017500015188C2F0E9460010E944401809148045A
:1017600090914904A0914A04B0914B0488709078FC
:10177000AB71BA7088309048AB41BA40D1F46091F7
:10178000410470914204762767277627072E000CC4
:10179000880B990B0E94A11D609337047093380445
:1017A0008093390490933A048C2F0E9460010E9428
:1017B00044018091480490914904A0914A04B09159
:1017C0004B0489749073AB71BC7089349043AB4106
:1017D000BC40F1F460914104709142047627672780
:1017E0007627072E000C880B990B0E94A11D20E084
:1017F00030E040E85BE30E94561E60933304709330
:10180000340480933504909336048C2F0E94600139
:101810008C2F0E946001CF910C944401EF92FF92B3
:101820000F931F93CF93DF93C09188038C2F0E9457
:101830005C01D091260410917D01D11122C01123A9
:10184000A1F18091270481111CC020E030E040E329
:1018500051E460913B0470913C0480913D0490916F
:101860003E040E94511E87FD0CC080912804811106
:1018700008C080912904811104C081E0809326046E
:1018800011C0112391F0DD2381F080912704811193
:101890000CC080912804811108C080912904811115
:1018A00004C081E080932A0404C010922A0410929C
:1018B000260480912A0480936A018C2F0E94600183
:1018C00089E6E82E81E0F82E08E021E040E051EFC3
:1018D0006EEF78E188EF93E00E949E16DF91CF9142
:1018E0001F910F91FF90EF900C9444014F925F92E3
:1018F0006F927F928F929F92AF92BF92CF92DF9220
:10190000EF92FF920F931F93CF93DF9300D000D0FD
:101910001F92CDB7DEB72091210460917E017091B6
:101920007F018091800190918101222321F09B0110
:10193000AC010E94861C6093220470932304809360
:10194000240490932504F09088038F2D0E945C015D
:1019500080912A04882309F422C180913B0490914C
:101960003C04A0913D04B0913E0489839A83AB83EB
:10197000BC8320912204309123044091240450918F
:101980002504BC01CD010E94561E20E030E040E25B
:1019900051E40E94861C6093790170937A018093D0
:1019A0007B0190937C012091370430913804409161
:1019B000390450913A040E94851C2B013C0160932C
:1019C0000C0470930D0480930E0490930F042AE08E
:1019D00037ED43E25DE3609133047091340480910C
:1019E0003504909136040E94561E4B015C012DEC8B
:1019F0003CEC4CE45EE3C301B2010E94561E9B0125
:101A0000AC01C501B4010E94851CB62EC72ED82E8C
:101A1000E92E862F9C2DAD2DBE2D80931004909322
:101A20001104A0931204B093130429813A814B81CD
:101A30005C8160912F047091300480913104909109
:101A400032040E94851C20E030E040E05FE30E9409
:101A5000561E8B018D839983CB01AD81B981809313
:101A6000140490931504A0931604B093170420E077
:101A700030E0A901C301B2010E94511E18162CF4D6
:101A80008B2D9C2DAD2DBE2D35C098014D815981DA
:101A90006B2D7C2D8D2D9E2D0E94F21C87FF04C086
:101AA0000B2D1C2DDD82E98220E030E040EA50EC75
:101AB000B8018D8199810E94F21C87FD12C026EF2A
:101AC00038E24CEB5FE3B8018D8199810E94511E91
:101AD00018166CF406EF18E29CEB9D83AFE3A98324
:101AE00006C000E010E0B0EABD8380EC8983C80145
:101AF000AD81B98180931D0490931E04A0931F04AF
:101B0000B09320042AE037ED43E25CE360911D04CA
:101B100070911E0480911F04909120040E94F71C74
:101B200020E030E040EA50E40E94861C0E94691DDB
:101B30007F936F9386E392E09F938F9388E194E085
:101B40009F938F930E94631C40E150E060E070E03F
:101B500088E194E00E94411B7093720140E150E0E3
:101B600060E070E08AE194E00E94411B60937301A1
:101B70008F2D0E94600181E7E82E81E0F82E08E0B9
:101B800021E040EB51E060E47DE088EF93E00E94CB
:101B90009E160F900F900F900F900F900F900F9038
:101BA0000F900F900F900F90DF91CF911F910F9199
:101BB000FF90EF90DF90CF90BF90AF909F908F906D
:101BC0007F906F905F904F900C944401CF93C091A1
:101BD00088038C2F0E945C016BE372E083E694E043
:101BE0000E94881760912A0470E04AE050E083E682
:101BF00094E00E946F1867E572E083E694E00E942B
:101C000088176AE572E083E694E00E948817609185
:101C1000720170917301762767277627072E000CD3
:101C2000880B990B0E94A11D60932B0470932C04C8
:101C300080932D0490932E0420E030E040EA50E49D
:101C40000E94851C2AE037ED43E25CE30E94561EA9
:101C5000AB01BC0122E030E083E694E00E94511920
:101C600069E672E083E694E00E94A7176BE672E0F3
:101C700083E694E00E94881760917D0170E04AE05D
:101C800050E083E694E00E946F1867E572E083E617
:101C900094E00E94881769E872E083E694E00E946D
:101CA000881740912F045091300460913104709155
:101CB000320422E030E083E694E00E94511967E5A7
:101CC00072E083E694E00E94A71765E972E083E67C
:101CD00094E00E94881740913B0450913C0460912D
:101CE0003D0470913E0422E030E083E694E00E94DF
:101CF000511967E572E083E694E00E9488176CEB67
:101D000072E083E694E00E94881740913704509176
:101D100038046091390470913A0422E030E083E69F
:101D200094E00E94511967E572E083E694E00E9416
:101D3000881760ED72E083E694E00E948817409176
:101D4000330450913404609135047091360422E0DC
:101D500030E083E694E00E94511967E572E083E683
:101D600094E00E94A7178C2F0E946001CF910C94E1
:101D700044016AE088EF93E00C94071688EF91E045
:101D80000C94B5010895833081F028F4813099F0E6
:101D90008230A1F008958730A9F08830B9F08430FE
:101DA000D1F4809180008F7D03C0809180008F7777
:101DB00080938000089584B58F7702C084B58F7DAD
:101DC00084BD08958091B0008F7703C08091B000EA
:101DD0008F7D8093B0000895CF93DF9390E0FC0156
:101DE000EA53FF4F2491FC01E652FF4F8491882370
:101DF00061F190E0880F991FFC01EE5FFE4FC591E5
:101E0000D491FC01E850FF4FA591B491611109C034
:101E10009FB7F8948881209582238883EC912E23A4
:101E20000BC0623061F49FB7F8948881322F3095EF
:101E300083238883EC912E2B2C939FBF06C08FB7F2
:101E4000F894E8812E2B28838FBFDF91CF910895DE
:101E50001F93CF93DF93282F30E0F901EE54FF4F0B
:101E60008491F901EA53FF4FD491F901E652FF4FF3
:101E7000C491CC23C1F0162F81110E94C30EEC2F08
:101E8000F0E0EE0FFF1FE850FF4FA591B4919FB710
:101E9000F894111104C08C91D095D82302C0EC9114
:101EA000DE2BDC939FBFDF91CF911F910895CF93DD
:101EB000DF93282F30E0F901EE54FF4F8491F901B0
:101EC000EA53FF4FD491F901E652FF4FC491CC235E
:101ED00091F081110E94C30EEC2FF0E0EE0FFF1F76
:101EE000E251FF4FA591B491EC91ED2381E090E098
:101EF00021F480E002C080E090E0DF91CF9108956E
:101F00001F920F920FB60F9211242F933F934F936E
:101F10005F936F937F938F939F93AF93BF93EF9351
:101F2000FF9380915A0490915B04A0915C04B0915E
:101F30005D043091590423E0230F2D3720F40196DE
:101F4000A11DB11D05C026E8230F0296A11DB11DDC
:101F50002093590480935A0490935B04A0935C04EB
:101F6000B0935D0480915E0490915F04A091600441
:101F7000B09161040196A11DB11D80935E04909300
:101F80005F04A0936004B09361040E94BE0EFF91B1
:101F9000EF91BF91AF919F918F917F916F915F91E1
:101FA0004F913F912F910F900FBE0F901F9018955A
:101FB0002FB7F89460915A0470915B0480915C048F
:101FC00090915D042FBF08953FB7F89480915E040F
:101FD00090915F04A0916004B091610426B5A89B24
:101FE00005C02F3F19F00196A11DB11D3FBFBA2FAB
:101FF000A92F982F8827820F911DA11DB11DBC010B
:10200000CD0142E0660F771F881F991F4A95D1F7CF
:1020100008958F929F92AF92BF92CF92DF92EF92EC
:10202000FF926B017C010E94E40F4B015C01C11423
:10203000D104E104F10401F10E947F100E94E40F39
:10204000DC01CB0188199909AA09BB09883E934094
:10205000A105B10560F321E0C21AD108E108F10839
:1020600088EE880E83E0981EA11CB11CC114D10417
:10207000E104F10419F7DBCFFF90EF90DF90CF90F0
:10208000BF90AF909F908F90089584B5826084BD7B
:1020900084B5816084BD85B5826085BD85B581606C
:1020A00085BDEEE6F0E0808181608083E1E8F0E0CC
:1020B0001082808182608083808181608083E0E8FB
:1020C000F0E0808181608083E1EBF0E080818460DA
:1020D0008083E0EBF0E0808181608083EAE7F0E0DC
:1020E0008081846080838081826080838081816040
:1020F00080838081806880831092C1000895089554
:10210000FFCFFFCFCF93DF93880F990BFC01EC5DDE
:10211000FC4FC081D181AC81BD8111978A819B81A7
:10212000A80FB91F2D85CD010197FD0132972230EF
:1021300019F42CE331E002C028E531E02C93DC01F6
:102140003C939E818F819083DF018E93CF0107970F
:102150001E928A179B07E1F780E8DF0118978C939E
:10216000CF0144971E928A179B07E1F7A881B98196
:102170007597ED93FC93DF91CF910895089578942E
:102180000895F894089578940895F894089508951A
:102190000E9445100E94C7100E94C20E0E94B80AF9
:1021A000809162040E94EC0680E090E008958091A6
:1021B000930380936204089508951F920F920FB6BF
:1021C0000F9211242F933F934F935F936F937F93BD
:1021D0008F939F93AF93BF93EF93FF93E0911A0276
:1021E000F0911B020995FF91EF91BF91AF919F91E3
:1021F0008F917F916F915F914F913F912F910F90B0
:102200000FBE0F901F9018951F920F920FB60F924E
:1022100011242F933F934F935F936F937F938F93EB
:102220009F93AF93BF93EF93FF93E0911C02F091C4
:102230001D020995FF91EF91BF91AF919F918F91F1
:102240007F916F915F914F913F912F910F900FBEB2
:102250000F901F90189520910205222399F04FB7F7
:10226000F89420910205213059F42DB320930005F4
:102270003DB320910105209523232DBB4FBF02C004
:10228000409300058CBD9DBD08958EBD00000DB42A
:1022900007FEFDCF8EB5089580910205882361F079
:1022A0009FB7F8942091020580910005213019F420
:1022B0008DBB9FBF08958FBF0895CF93DF93EC012F
:1022C00080E591E00E942B1160E08A890E94280F2E
:1022D00080EC0E94451161E08A890E94280F0E94CB
:1022E0004C1165E070E080E090E0DF91CF910C94BC
:1022F00009101F93CF93DF93EC01162F80E591E037
:102300000E942B1160E08A890E94280F83E00E94BE
:102310004511812F0E94451180E00E944511182F20
:1023200061E08A890E94280F0E944C11812FDF9161
:10233000CF911F910895DF92EF92FF920F931F9319
:10234000CF93DF938C01C62FD42EE52EF22E80E59D
:1023500091E00E942B1160E0F80182890E94280F11
:1023600083E00E9445118C2F0E944511CD2DDE2D5A
:10237000CE018F0D911D7C01EC16FD0629F080E049
:102380000E9445118993F8CF61E0F80182890E948B
:10239000280FDF91CF911F910F91FF90EF90DF9069
:1023A0000C944C110F931F93CF93DF93EC01062FE6
:1023B000142F80E591E00E942B1160E08A890E9431
:1023C000280F82E00E944511802F0E944511812F25
:1023D0000E94451161E08A890E94280FDF91CF9108
:1023E0001F910F910C944C11DF92EF92FF920F937B
:1023F0001F93CF93DF938C01C62FD42EE52EF22EA0
:1024000080E591E00E942B1160E0F80182890E9432
:10241000280F82E00E9445118C2F0E944511CD2D7E
:10242000DE2DCE018F0D911D7C01EC16FD0621F0F5
:1024300089910E944511F9CF61E0F80182890E94DB
:10244000280FDF91CF911F910F91FF90EF90DF90B8
:102450000C944C11FF920F931F93CF93DF93EC01D9
:10246000F62E042F122F80E591E00E942B1160E0E0
:102470008A890E94280F85E00E9445118F2D0E94B5
:102480004511802F0E944511812F0E94451161E066
:102490008A890E94280FDF91CF911F910F91FF90A1
:1024A0000C944C111F93CF93DF93EC0180E591E0E6
:1024B0000E942B1160E08A890E94280F80EA0E9406
:1024C000451180E00E944511182F61E08A890E9421
:1024D000280F0E944C11812FDF91CF911F910895F9
:1024E000EF92FF920F931F93CF93DF93EC01162F80
:1024F0000E94D80F062FE12EF12C212F40EE6FE025
:10250000CE010E942A126EE0CE010E947911807ED7
:1025100090E08E159F0539F00E94D80F601B693C32
:1025200060F381E001C080E0DF91CF911F910F91B6
:10253000FF90EF9008950F931F93CF93DF93EC01DB
:10254000162F6EE00E947911807E803221F51032C4
:1025500011F16BE2CE010E947911082F007486FD03
:1025600006C020E440E46BE2CE010E942A1220E47F
:1025700040E46CE2CE010E942A1260E6CE010E9485
:102580007012811116C0011106C020E040E46BE218
:10259000CE010E942A1220E040E46CE2CE010E94AB
:1025A0002A12612FCE01DF91CF911F910F910C94D0
:1025B000701281E0DF91CF911F910F910895FC017E
:1025C000638B0C949B12CF92DF92EF92FF920F934A
:1025D0001F93CF93DF93342F3370313009F43FC012
:1025E00008F466C0323009F0AAC0062F10E0F801E6
:1025F0003197EE30F10508F0A2C0EC5CFF4F0C946F
:102600008E21C4E8D6EF23E987C0C4E8D6EF29E8D5
:1026100083C0C3E8D5EE27E87FC0C4E8D6EF25E83D
:102620007BC0C4E8D6EF05C0C3E8D5EE02C0C1E860
:10263000D3ED24E871C0C4E8D6EF02C0C3E8D5EEFC
:1026400021E86AC0C4E8D6EF02C0C3E8D5EE20E8AE
:1026500063C0C1E8D1ED2AC0C0E8D0EC27C0C62EC7
:10266000D12CF6013197EE30F10508F068C0EE5B31
:10267000FF4F0C948E21C4E8D6EF27E64DC0C4E886
:10268000D6EF23E549C0C3E8D5EE2EE445C0C4E843
:10269000D6EF42C0C3E8D5EE23E43EC0C3E8D5EE92
:1026A00027C0C3E8D5EE28C0C1E8DAEC20E034C08A
:1026B000062F10E0F8013697E930F10508F03FC029
:1026C000E05BFF4F0C948E21C4E8D6EF29E424C0D0
:1026D000C7E8DFEF24EC20C0C4E8D6EF05C0C3E8AC
:1026E000D5EE02C0C1E8D3ED24E416C0C4E8D6EFAD
:1026F00021E412C0C4E8D6EF20E40EC0C2E8D9ED50
:10270000D5CFC4E8D6EF27EA07C0C7E8DFEF2FE34D
:1027100003C0C1E8D3ED28E142FDCF778C01422F01
:102720006AE20E94D2114D2F69E2C8010E94D211C3
:102730004C2F68E2C8010E94D21180E001C081E004
:10274000DF91CF911F910F91FF90EF90DF90CF908D
:1027500008950F931F93CF93DF9300D000D0CDB790
:10276000DEB74130B1F40C831B8389012227332764
:10277000502F5C71402F437078E0579F400D11241B
:1027800048604A8355E0169507955A95E1F7098305
:102790000DC0A80123E0569547952A95E1F7498396
:1027A0000295000F007E0A831C821B8224E0AE018A
:1027B0004F5F5F4F0E94F4110F900F900F900F909A
:1027C000DF91CF911F910F9108950F931F93CF9396
:1027D000DF9300D000D0CDB7DEB7E62FF42FA901EC
:1027E000662777270C831B83F13081F4342F3C71EB
:1027F000242F2370F8E03F9F200D112428602A83A6
:1028000035E0569547953A95E1F70AC0242F229571
:10281000220F207E2A8323E0569547952A95E1F7DB
:10282000498324E0AE014F5F5F4F6E2F0E94F41189
:102830000F900F900F900F90DF91CF911F910F91FC
:1028400008950F931F93CF93DF93EC0100E010E006
:10285000980141E060E20E94E51300E010E0980179
:1028600041E064E2CE010E94E51300E010E098012F
:1028700041E060E0CE010E94E51300E010E0980125
:1028800040E064E0CE010E94E51300E010E0980112
:1028900041E068E0CE010E94E51300E010E09801FD
:1028A00040E060E1CE010E94E51300E010E09801F5
:1028B00041E064E1CE010E94E51300E010E09801E0
:1028C00040E068E1CE010E94E51310E340E0612F93
:1028D000CE010E94D21160E1610F40E0CE010E9462
:1028E000D21160E2610F40E0CE010E94D2111F5F61
:1028F0001E3361F740E060E6CE010E94D21140E055
:1029000060E7CE01DF91CF911F910F910C94D2110E
:10291000EF92FF920F931F93CF93DF93EC01062F5B
:10292000F42EE22E0E945D1180E48B8B60E8CE01D4
:102930000E949B12182F882341F06FEA71E083E612
:1029400094E00E949517812F5CC067E871E083E6F0
:1029500094E00E9495174E2D6F2DCE010E94E31238
:10296000882339F06BE671E083E694E00E949517C6
:1029700047C06EE471E083E694E00E949517CE01B3
:102980000E94211443E06BE2CE010E94D2114CE37D
:102990006CE0CE010E94D21140E06DE0CE010E94B9
:1029A000D211002351F0033019F524E644E660E625
:1029B000CE010E942A1220E607C024E044E660E629
:1029C000CE010E942A1220E040E660E7CE010E947C
:1029D0002A126B89CE010E949B12C82F882381F096
:1029E0006CE071E083E694E00E9495178C2F09C09B
:1029F00062E371E083E694E00E94951781E001C0F4
:102A000080E0DF91CF911F910F91FF90EF9008959B
:102A1000EF92FF920F931F93CF93DF9300D000D0DC
:102A2000CDB7DEB77A018901FA011082F90110826F
:102A300011821282138224E0AE014F5F5F4F0E9429
:102A40009B112A813981822F90E065E095958795C9
:102A50006A95E1F7F8E03F9F800D911D1124092E42
:102A6000000CAA0BBB0BF80180839183A283B38374
:102A700023FF25C032E0880F991FAA1FBB1F3A957C
:102A8000D1F72370820F911DA11DB11DBA2FA92F5F
:102A9000982F88272B81820F911DA11DB11DBA2F60
:102AA000A92F982F88272C81820F911DA11DB11D60
:102AB00080839183A283B38381E0F70180830F90A9
:102AC0000F900F900F90DF91CF911F910F91FF907A
:102AD000EF900895FF920F931F93CF93DF93EC0134
:102AE000F62EAC014A5F5F4F65E06F0D2D810E94AD
:102AF000F4118E85813019F48D8180648D8364E0BA
:102B00006F0D4D81CE010E94D21109811A812B8156
:102B10003C8148816F2DCE010E94A913DF91CF9196
:102B20001F910F91FF9008950F931F93CF93DF9301
:102B3000EC01162F9C012F5F3F4FAC010E9408153E
:102B40006FEF610FCE010E947911082F64E0610FD1
:102B5000CE010E9479118D8303FF03C091E09E870F
:102B600001C01E86282F2F702D83AE014A5F5F4F54
:102B700065E0610FCE01DF91CF911F910F910C9411
:102B80009B118F929F92AF92BF92CF92DF92EF9262
:102B9000FF921F93CF93DF9300D01F92CDB7DEB784
:102BA0004C016B0180911E0290911F02A0912002A6
:102BB00089839A83AB83FB011082CE0101967C014D
:102BC0005E0194E0A90EB11CF70111917F01612F04
:102BD000C4010E947911982F987083FD04C01F5F73
:102BE000F601108304C0EA14FB0471F792E0892F08
:102BF0000F900F900F90DF91CF911F91FF90EF906A
:102C0000DF90CF90BF90AF909F908F900895CF931B
:102C1000DF93EC01862F6A8B61E00E94280F61E050
:102C20008A890E94EC0E84E095E0998B888BDF9175
:102C3000CF910895FF920F931F93CF93DF93EC01F1
:102C4000162F042FF22E0E940B1B2F2D402F612FC9
:102C5000CE010E94881491E0811101C090E0892F7B
:102C6000DF91CF911F910F91FF900895BF92CF9266
:102C7000DF92EF92FF920F931F93CF93DF931F92F8
:102C8000CDB7DEB78C010E94E40F6B017C01BE0161
:102C90006F5F7F4FC8010E94C115B82E0E94E40FDC
:102CA000DC01CB018C199D09AE09BF0922E0B212EB
:102CB00006C0843C9940A105B10548F331C0843C6D
:102CC0009940A105B10560F56981C8010E946A15A6
:102CD0006981615028E048E0C8010E942A120E94E0
:102CE000E40F6B017C0169816150C8010E94791178
:102CF000B82E0E94E40FDC01CB018C199D09AE09AE
:102D0000BF09B3FE06C0843C9940A105B10558F344
:102D100009C0843C9940A105B10520F480E003C0BE
:102D200086E001C087E00F90DF91CF911F910F9156
:102D3000FF90EF90DF90CF90BF900895EF92FF92B9
:102D40000F93FC014183528363837483168620832F
:102D50000583F701DC0116969C01225F3F4F4191EC
:102D60004D93A217B307D9F70F91FF90EF900C94F2
:102D70003616CF93DF93EC010E94521280FF07C0FA
:102D800061E6CE010E94941520E041E008C081FF79
:102D90000CC061E7CE010E94941520E042E06CE295
:102DA000CE010E942A1280E001C084E0DF91CF9121
:102DB0000895CF92DF92EF92FF920F931F93CF93DC
:102DC000DF93EC016B017A0189010E94B91684300E
:102DD00099F18881882349F089819A81AB81BC81EE
:102DE000B06889839A83AB83BC838E85882349F03E
:102DF00089819A81AB81BC81B06489839A83AB83DA
:102E0000BC8389819A81AB81BC81F60180839183E7
:102E1000A283B3838D81F7018083DE011696F801CA
:102E20008D8190E09F01201B310B281739071CF47E
:102E30008D918193F5CF80E0DF91CF911F910F911C
:102E4000FF90EF90DF90CF900895CF92DF92EF92B6
:102E5000FF920F931F93CF93DF936C017A018B0145
:102E6000C0E0D0E0CE15DF0581F0D8016D918D0175
:102E7000D601ED91FC910190F081E02DC6010995FC
:102E8000892B11F02196EECF7E01C701DF91CF9102
:102E90001F910F91FF90EF90DF90CF9008956115F3
:102EA000710579F0FB0101900020E9F73197AF013E
:102EB000461B570BDC01ED91FC910280F381E02D64
:102EC000099480E090E00895EF92FF920F931F9392
:102ED000CF93DF938C017B01C0E0D0E0F701EC0FD2
:102EE000FD1F6491662361F0D801ED91FC91019082
:102EF000F081E02DC8010995892B11F02196EECFC4
:102F0000CE01DF91CF911F910F91FF90EF90089527
:102F10000C944F17DC01ED91FC910190F081E02DB4
:102F2000099464EC73E00C944F170F931F93CF93A5
:102F3000DF93EC010E9464178C01CE010E9491176F
:102F4000800F911FDF91CF911F910F9108950F93E3
:102F50001F93CF93DF93EC010E944F178C01CE019A
:102F60000E949117800F911FDF91CF911F910F91B8
:102F700008958F929F92AF92BF92EF92FF920F931C
:102F80001F93CF93DF93CDB7DEB7A1970FB6F89419
:102F9000DEBF0FBECDBF7C01FA01CB0119A22230EA
:102FA00008F42AE08E010F5D1F4F822E912CA12C78
:102FB000B12CBF01A50194010E946C21F901CA0145
:102FC000015011096A3014F4605D01C0695CD801D8
:102FD0006C93232B242B252B61F7B801C7010E948A
:102FE0004F17A1960FB6F894DEBF0FBECDBFDF918D
:102FF000CF911F910F91FF90EF90BF90AF909F9056
:103000008F9008952115310541F4DC01ED91FC917B
:103010000190F081E02D642F09940C94B9179A0166
:10302000AB0160E070E00C9402180F931F93CF93F4
:10303000DF93EC010E9402188C01CE010E949117CF
:10304000800F911FDF91CF911F910F910895CF9223
:10305000DF92EF92FF920F931F93CF93DF9321158F
:10306000310581F4DC01ED91FC910190F081E02DBE
:10307000642FDF91CF911F910F91FF90EF90DF9020
:10308000CF9009942A30310501F577FF1DC06A0100
:103090007B01EC016DE20E948A178C0144275527C1
:1030A000BA014C195D096E097F092AE0CE010E9420
:1030B000B917800F911FDF91CF911F910F91FF9052
:1030C000EF90DF90CF9008952AE0DF91CF911F918C
:1030D0000F91FF90EF90DF90CF900C94B9179A0169
:1030E000AB01770F660B770B0C9427187F928F92AA
:1030F0009F92AF92BF92CF92DF92EF92FF920F9387
:103100001F93CF93DF938C016A017B01722E9A018A
:10311000AB01C701B6010E94C31E882319F067ECFA
:1031200073E027C046015701E894B7F82FEF3FEF4F
:103130004FE75FE7C501B4010E94C31E81110DC0B6
:103140002FEF3FEF4FE75FE7C501B4010E94F21C8C
:1031500018161CF46BEC73E00CC02FEF3FEF4FE739
:103160005FE4C701B6010E94511E181694F46FEC7B
:1031700073E0C801DF91CF911F910F91FF90EF9005
:10318000DF90CF90BF90AF909F908F907F900C94E6
:103190004F172FEF3FEF4FE75FECC701B6010E94DB
:1031A000F21C87FDE4CF20E030E0A901C701B601A1
:1031B0000E94F21C87FF0AC06DE2C8010E948A17B4
:1031C000EC01F7FAF094F7F8F09402C0C0E0D0E018
:1031D000B12C60E070E080E09FE37B1441F020E0E0
:1031E00030E040E251E40E94F71CB394F6CFA7010F
:1031F00096010E94861C6B017C010E94701D4B0190
:103200005C012AE0AB01BC01C8010E94B917C80FDC
:10321000D91F7720B9F1C501B4010E949F1D9B0100
:10322000AC01C701B6010E94851C6B017C016EE2F6
:10323000C8010E948A17C80FD91F20E030E040E281
:1032400051E4C701B6010E94561E4B015C010E9469
:10325000701D6B017C014AE050E0C8010E940F180C
:10326000C80FD91FB60180E090E00E949F1D9B010E
:10327000AC01C501B4010E94851C6B017C017A94EC
:103280007110DBCFCE01DF91CF911F910F91FF9095
:10329000EF90DF90CF90BF90AF909F908F907F90F6
:1032A00008950C9476181F920F920FB60F92112466
:1032B0002F938F939F93EF93FF93E0917304F0917B
:1032C00074048081E0917904F0917A0482FD12C047
:1032D000908180917C048F5F8F7320917D04821791
:1032E00051F0E0917C04F0E0ED59FB4F958F809315
:1032F0007C0401C08081FF91EF919F918F912F916C
:103300000F900FBE0F901F9018951F920F920FB63F
:103310000F9211242F933F934F935F936F937F935B
:103320008F939F93AF93BF93EF93FF9383E694E0C4
:103330000E94151AFF91EF91BF91AF919F918F91CC
:103340007F916F915F914F913F912F910F900FBEA1
:103350000F901F901895E3E6F4E01382128288EE36
:1033600093E0A0E0B0E084839583A683B78387EDE4
:1033700093E09183808385EC90E09587848784EC4B
:1033800090E09787868780EC90E0918B808B81EC32
:1033900090E0938B828B82EC90E0958B848B86EC13
:1033A00090E0978B868B118E128E138E148E08955B
:1033B000FC01918D228D892F90E0805C9F4F821BB4
:1033C00091098F7399270895FC01918D828D98172B
:1033D00031F0828DE80FF11D858D90E008958FEF1B
:1033E0009FEF0895FC01918D828D981761F0828D79
:1033F000DF01A80FB11D5D968C91928D9F5F9F7329
:10340000928F90E008958FEF9FEF0895FC01538D08
:10341000448D252F30E0842F90E0821B930B5417AE
:1034200010F0CF96089501970895FC01848DDF0177
:10343000A80FB11DA35ABF4F2C91848D90E0019627
:103440008F739927848FA689B7892C93A089B18916
:103450008C91837080648C93938D848D981306C0B7
:103460000288F389E02D80818F7D80830895EF921B
:10347000FF920F931F93CF93DF93EC0181E0888F2E
:103480009B8D8C8D981305C0E889F989808185FD15
:1034900026C0F62E0B8D10E00F5F1F4F0F73112704
:1034A000E02E8C8DE8120CC00FB607FCFACFE8892D
:1034B000F989808185FFF5CFCE010E94151AF1CFE1
:1034C0008B8DFE01E80FF11DE35AFF4FF0829FB78D
:1034D000F8940B8FEA89FB89808180620AC09FB7CC
:1034E000F894EE89FF896083E889F9898081837087
:1034F000806480839FBF81E090E0DF91CF911F9136
:103500000F91FF90EF900895CF93DF93EC01888D9A
:103510008823C9F0EA89FB89808185FD05C0A889D7
:10352000B9898C9186FD0FC00FB607FCF5CF80815D
:1035300085FFF2CFA889B9898C9185FFEDCFCE01A7
:103540000E94151AE7CFDF91CF910895CF92DF92B5
:10355000EF92FF921F93CF93DF93EC016A017B01FF
:10356000122FE889F98982E080834115514E610567
:103570007105B1F060E079E08DE390E0A70196017C
:103580000E946C21DA01C9010197A109B109B69520
:10359000A795979587959C01211580E13807A8F09C
:1035A000E889F989108260E874E88EE190E0A7016B
:1035B00096010E946C21DA01C9010197A109B109A4
:1035C000B695A795979587959C01EC85FD853083E9
:1035D000EE85FF852083188EEC89FD891083EA89AA
:1035E000FB89808180618083EA89FB898081886092
:1035F0008083EA89FB89808180688083EA89FB89EE
:1036000080818F7D8083DF91CF911F91FF90EF901C
:10361000DF90CF900895CF93CFB7F89480910305B2
:10362000811127C0E4EEF0E08491E0EDF0E09491A8
:10363000E82FF0E0EE0FFF1FEE5FFE4FA591B49173
:10364000EC91E92321F461E08AE00E94280F61E017
:103650008AE00E94EC0E8CB580618CBD8CB58064D4
:103660008CBD61E08DE00E94EC0E61E08BE00E9479
:10367000EC0E809103058F5F80930305CFBFCF9140
:103680000895A0E0B0E0E7E4FBE10C94A0215C0128
:103690006B017A016115710519F0FB01918380833B
:1036A000E114F10429F0C7010297839708F0E5C0FF
:1036B000E5012196F5011081812F90E00E945A1CAE
:1036C000892B11F05E01F4CF1D3229F42196F5010A
:1036D000118101E007C01B3221F4E5012296F501BA
:1036E000118100E0E114F10409F1F0E1EF16F104B9
:1036F00029F43FC010E3E114F10421F128E0E216BF
:10370000F10401F154F4E2E0EE16F10421F5812C0C
:10371000912CA12CB0E4BB2E3EC0FAE0EF16F104D0
:1037200039F020E1E216F104B1F430C0103319F1A0
:10373000FAE0EF2EF12CACEC8A2E982CA82CACE001
:10374000BA2E29C078E0E72EF12C812C912CA12CE7
:10375000E0E1BE2E20C060E070E080E090E89701DC
:103760000F2C000C440B550B0E946C2149015A018F
:1037700012C0103359F488818F7D883509F0BACF93
:1037800019812296026080E1E82EF12C812C912C87
:10379000A12C68E0B62E40E060E070E0CB0127018C
:1037A0000F2C000C66087708FE0150ED352E310E07
:1037B00029E0231570F42FEB210F2A3118F439EC8E
:1037C000332E06C02FE9210F2A3118F529EA322EAF
:1037D000310E232D30E02E153F05DCF447FD16C0D9
:1037E00086169706A806B90670F0A30192010E94FA
:1037F0005C21630D711D811D911D61307105810575
:1038000020E8920710F04FEF01C041E021961081AF
:10381000CBCF202F2170C114D10471F0442329F0A3
:103820002197F601D183C08307C001FF19C02297F9
:10383000F601D183C08314C047FF12C0222329F0B0
:1038400060E070E080E090E804C06FEF7FEF8FEF02
:103850009FE722E230E03093F2082093F10809C09C
:10386000222381F090958095709561957F4F8F4FC1
:103870009F4F462F372F282F12C040E030E020E026
:1038800090E00DC097FFF5CF82E290E09093F208B0
:103890008093F1086FEF7FEF8FEF9FE7EACF642F00
:1038A000732F822FCDB7DEB7E1E10C94BC21F894E1
:1038B0000C94E52191110C94A920803219F08950C3
:1038C0008550C8F70895AEE0B0E0E9E6FCE10C945D
:1038D000AD210D891E8986E08C831A8309838FEFC1
:1038E0009FE79E838D83AE01475E5F4F6F89788D22
:1038F000CE0101960E94C81EEF81F885E00FF11FEE
:1039000010822E96E4E00C94C9215058BB27AA27B8
:103910000E949D1C0C94171E0E94091E38F00E94E4
:10392000101E20F039F49F3F19F426F40C94061E63
:103930000EF4E095E7FB0C94001EE92F0E94281E70
:1039400058F3BA17620773078407950720F079F4D4
:10395000A6F50C944A1E0EF4E0950B2EBA2FA02D5E
:103960000B01B90190010C01CA01A0011124FF272C
:10397000591B99F0593F50F4503E68F11A16F04027
:10398000A22F232F342F4427585FF3CF4695379526
:103990002795A795F0405395C9F77EF41F16BA0BEB
:1039A000620B730B840BBAF09150A1F0FF0FBB1F99
:1039B000661F771F881FC2F70EC0BA0F621F731FE2
:1039C000841F48F4879577956795B795F7959E3F3F
:1039D00008F0B0CF9395880F08F09927EE0F9795D0
:1039E000879508950E94DC1D08F481E008950E94E7
:1039F0000B1D0C94171E0E94101E58F00E94091EE9
:103A000040F029F45F3F29F00C94001E51110C94F2
:103A10004B1E0C94061E0E94281E68F39923B1F3D6
:103A2000552391F3951B550BBB27AA2762177307E4
:103A3000840738F09F5F5F4F220F331F441FAA1F78
:103A4000A9F335D00E2E3AF0E0E832D09150504034
:103A5000E695001CCAF72BD0FE2F29D0660F771FE2
:103A6000881FBB1F261737074807AB07B0E809F0C8
:103A7000BB0B802DBF01FF2793585F4F3AF09E3F4D
:103A8000510578F00C94001E0C944B1E5F3FE4F33C
:103A9000983ED4F3869577956795B795F7959F5F90
:103AA000C9F7880F911D9695879597F90895E1E0DC
:103AB000660F771F881FBB1F621773078407BA073B
:103AC00020F0621B730B840BBA0BEE1F88F7E09596
:103AD00008950E94701D6894B1110C944B1E0895B6
:103AE0000E94301E88F09F5798F0B92F9927B75140
:103AF000B0F0E1F0660F771F881F991F1AF0BA9592
:103B0000C9F714C0B13091F00E944A1EB1E0089587
:103B10000C944A1E672F782F8827B85F39F0B93F79
:103B2000CCF3869577956795B395D9F73EF4909544
:103B30008095709561957F4F8F4F9F4F0895E894C2
:103B400009C097FB3EF490958095709561957F4FE5
:103B50008F4F9F4F9923A9F0F92F96E9BB27939593
:103B6000F695879577956795B795F111F8CFFAF4A3
:103B7000BB0F11F460FF1BC06F5F7F4F8F4F9F4FD4
:103B800016C0882311F096E911C0772321F09EE832
:103B9000872F762F05C0662371F096E8862F70E098
:103BA00060E02AF09A95660F771F881FDAF7880F72
:103BB0009695879597F90895990F0008550FAA0BC8
:103BC000E0E8FEEF16161706E807F907C0F0121630
:103BD0001306E407F50798F0621B730B840B950B33
:103BE00039F40A2661F0232B242B252B21F4089588
:103BF0000A2609F4A140A6958FEF811D811D089525
:103C000097F99F6780E870E060E008959FEF80EC8F
:103C1000089500240A941616170618060906089532
:103C200000240A9412161306140605060895092E98
:103C30000394000C11F4882352F0BB0F40F4BF2B07
:103C400011F460FF04C06F5F7F4F8F4F9F4F089547
:103C500057FD9058440F551F59F05F3F71F047953D
:103C6000880F97FB991F61F09F3F79F08795089522
:103C7000121613061406551FF2CF4695F1DF08C041
:103C8000161617061806991FF1CF8695710561055E
:103C900008940895E894BB2766277727CB0197F906
:103CA00008950E94DC1D08F48FEF08950E94691E9C
:103CB0000C94171E0E94091E38F00E94101E20F05E
:103CC000952311F00C94001E0C94061E11240C94E4
:103CD0004B1E0E94281E70F3959FC1F3950F50E074
:103CE000551F629FF001729FBB27F00DB11D639FAE
:103CF000AA27F00DB11DAA1F649F6627B00DA11D54
:103D0000661F829F2227B00DA11D621F739FB00DF9
:103D1000A11D621F839FA00D611D221F749F332769
:103D2000A00D611D231F849F600D211D822F762F02
:103D30006A2F11249F5750409AF0F1F088234AF0DF
:103D4000EE0FFF1FBB1F661F771F881F915050404B
:103D5000A9F79E3F510580F00C94001E0C944B1E59
:103D60005F3FE4F3983ED4F3869577956795B795D2
:103D7000F795E7959F5FC1F7FE2B880F911D9695EC
:103D8000879597F908950E94DC1D880B990B08957B
:103D9000ABE0B0E0EEECFEE10C949F216C017B0106
:103DA0008A01FC0117821682838181FFCCC1CE017A
:103DB00001963C01F6019381F70193FD859193FFF4
:103DC00081917F01882309F4BAC1853239F493FDCA
:103DD000859193FF81917F01853229F4B60190E0AE
:103DE0000E94C220E7CF912C212C312CFFE1F3154A
:103DF000D8F08B3279F038F4803279F08332A1F444
:103E0000232D20611DC08D3261F0803369F4232D94
:103E1000216016C0832D8260382EE32DE4603E2E93
:103E20002AC0F32DF8601DC037FC2DC020ED280FEF
:103E30002A3040F08E32B9F436FC81C1232D206443
:103E4000322E19C036FE06C08AE0989E200D11243D
:103E5000922E11C0EAE02E9E200D1124222EF32D69
:103E6000F0623F2E08C08C3621F4832D8068382EF6
:103E700002C0883641F4F70193FD859193FF81914B
:103E80007F018111B3CF982F9F7D9554933028F4F3
:103E90000C5F1F4F9FE399830DC0833631F083374A
:103EA00071F0833509F059C021C0F8018081898300
:103EB0000E5F1F4F88248394912C530113C0280157
:103EC000F2E04F0E511CF801A080B18036FE03C015
:103ED000692D70E002C06FEF7FEFC5010E94B7202F
:103EE0004C018201F32DFF773F2E16C0280122E0FE
:103EF000420E511CF801A080B18036FE03C0692D2E
:103F000070E002C06FEF7FEFC5010E94AC204C0152
:103F1000F32DF0683F2E820133FC1BC0822D90E010
:103F200088169906B0F4B60180E290E00E94C220A3
:103F30002A94F4CFF50137FC859137FE81915F011A
:103F4000B60190E00E94C22021102A9421E0821A3A
:103F500091088114910471F7E8C0843611F0893614
:103F600041F5F80137FE07C060817181828193813C
:103F70000C5F1F4F08C060817181072E000C880BF9
:103F8000990B0E5F1F4FF32DFF763F2E97FF09C051
:103F900090958095709561957F4F8F4F9F4FF068FA
:103FA0003F2E2AE030E0A3010E94FE20882E8618D2
:103FB00045C0853731F4232D2F7EB22E2AE030E024
:103FC00025C0932D997FB92E8F36C1F018F488350E
:103FD00079F0B5C0803719F0883721F0B0C0E92FEB
:103FE000E061BE2EB4FE0DC0FB2DF460BF2E09C0F3
:103FF00034FE0AC0292F2660B22E06C028E030E029
:1040000005C020E130E002C020E132E0F801B7FE57
:1040100007C060817181828193810C5F1F4F06C050
:104020006081718180E090E00E5F1F4FA3010E94CC
:10403000FE20882E8618FB2DFF773F2E36FE0DC002
:10404000232D2E7FA22E891458F434FE0BC032FC8F
:1040500009C0832D8E7EA82E05C0B82CA32C03C0CA
:10406000B82C01C0B92CA4FE0FC0FE01E80DF11D53
:104070008081803321F49A2D997EA92E09C0A2FE59
:1040800006C0B394B39404C08A2D867809F0B39423
:10409000A3FC11C0A0FE06C0B21488F4280C922C18
:1040A0009B180EC0B21460F4B60180E290E00E944A
:1040B000C220B394F7CFB21418F42B1802C0982C76
:1040C000212CA4FE10C0B60180E390E00E94C22023
:1040D000A2FE17C0A1FC03C088E790E002C088E5FB
:1040E00090E0B6010CC08A2D867859F0A1FE02C07E
:1040F0008BE201C080E2A7FC8DE2B60190E00E9455
:10410000C220891438F4B60180E390E00E94C220F6
:104110009A94F7CF8A94F301E80DF11D8081B601DE
:1041200090E00E94C2208110F5CF222009F442CEF7
:10413000B60180E290E00E94C2202A94F6CFF601F8
:104140008681978102C08FEF9FEF2B96E2E10C945E
:10415000BB21992788270895FC0105906150704084
:104160000110D8F7809590958E0F9F1F0895FC0140
:104170006150704001900110D8F7809590958E0F96
:104180009F1F08950F931F93CF93DF93FB0123810C
:1041900021FD03C08FEF9FEF2CC022FF16C0468188
:1041A0005781248135814217530744F4A081B1819E
:1041B0009D012F5F3F4F318320838C932681378170
:1041C0002F5F3F4F3783268314C08B01EC01FB0127
:1041D0000084F185E02D0995892BE1F6D80116962A
:1041E0008D919C911797019617969C938E93169795
:1041F000CE01DF91CF911F910F910895FA01AA2767
:10420000283051F1203181F1E8946F936E7F6E5F19
:104210007F4F8F4F9F4FAF4FB1E03ED0B4E03CD0C7
:10422000670F781F891F9A1FA11D680F791F8A1FAA
:10423000911DA11D6A0F711D811D911DA11D20D011
:1042400009F468943F912AE0269F11243019305DCB
:104250003193DEF6CF010895462F4770405D4193BC
:10426000B3E00FD0C9F7F6CF462F4F70405D4A3309
:1042700018F0495D31FD4052419302D0A9F7EACFD1
:10428000B4E0A6959795879577956795BA95C9F700
:1042900000976105710508959B01AC010A2E0694F3
:1042A0005795479537952795BA95C9F7620F731FAC
:1042B000841F951FA01D0895DB018F939F930E947B
:1042C0009421BF91AF91A29F800D911DA39F900D4E
:1042D000B29F900D11240895A1E21A2EAA1BBB1BB8
:1042E000FD010DC0AA1FBB1FEE1FFF1FA217B307C2
:1042F000E407F50720F0A21BB30BE40BF50B661FD8
:10430000771F881F991F1A9469F76095709580959B
:1043100090959B01AC01BD01CF010895EE0FFF1FE9
:104320000590F491E02D09940E94D621A59F900D4F
:10433000B49F900DA49F800D911D112408952F927C
:104340003F924F925F926F927F928F929F92AF9225
:10435000BF92CF92DF92EF92FF920F931F93CF9372
:10436000DF93CDB7DEB7CA1BDB0B0FB6F894DEBF09
:104370000FBECDBF09942A88398848885F846E842F
:104380007D848C849B84AA84B984C884DF80EE8079
:10439000FD800C811B81AA81B981CE0FD11D0FB682
:1043A000F894DEBF0FBECDBFED010895A29FB0010E
:1043B000B39FC001A39F700D811D1124911DB29F59
:0E43C000700D811D1124911D0895F894FFCFFA
:1043CE0000000000000000000000000000000000DF
:1043DE0000000000000000000000000000000000CF
:1043EE0000000000000000000000000000000000BF
:1043FE0000000000000000000000000000000000AF
:10440E00000000000000000000000000000000009E
:10441E00000000000000000000000000000000008E
:10442E000000000000000000FFFFFFFFFFFFFFFF86
:10443E00FFFFFFFFFFFFFFFFFF00007041010000C5
:10444E0040400000760300005404FFFFFFFFFFFF13
:10445E00FFFF0000EB0200000000A00F0000A00F05
:10446E00000002F402000000007C1500007C150024
:10447E000002FD0200000000D0070000D00700007F
:10448E0002060300000000D0070000D00700000263
:10449E000F030000000088130000881300000200C4
:1044AE0000000600000000050000000004000000EF
:1044BE00000300000000020001000000FFFF0000EA
:1044CE0001000000000000000000000000000000DD
:1044DE000700FF00000100FF0000DC10DC10304080
:1044EE0050FF524543454245552073706565640043
:1044FE004944203D20002530345800456E766961D0
:10450E006E646F202D2D2D2D204143435F656E610E
:10451E00626C65643A20003B20004163656C6572F5
:10452E0061C3A7C3A36F3A20003B00436865676170
:10453E006E646F2049434D202D2D2D2D2041434378
:10454E005F696E7075743A20005365745F737065A1
:10455E0065643A200043686567616E646F20536935
:10456E006D755F61726475696E6F202D2D2D2D2016
:10457E0045676F5F73706565643A200052656C61C4
:10458E00746976655F64697374616E63653A200061
:10459E0052656C61746976655F73706565643A2007
:1045AE0000D001C101B201A3019401F8015D09F12E
:1045BE0002D90602F8015D09FA02D90604F8015D76
:1045CE00090303D90600F8015D090C03D90601F8A9
:1045DE00015D091503D90603F301EE01E901E401BA
:1045EE00DF01540468035A034C033E033003760381
:1045FE0005069F068000E60D000004060100070672
:10460E0005050001760C0000030501006F07710718
:10461E0000010E0C00000204010009060D068000C8
:10462E00DA0A0000010301000B0671088000460B38
:10463E000000000201009D061F07500080100000C0
:10464E000500010015021002000101010101000028
:10465E0000000000EF07BD07C6079F0733053C07A4
:10466E00200565074108E206EA06FA083108330913
:10467E005A086609A5089D09DD06EF097D08520A4C
:10468E00930AC4080D0A006E616E00696E66006FB3
:10469E0076660000000000371A2517061A841AD80D
:0646AE0019F219E41900E5
:00000001FF
