:100000000C94EE000C946C100C9493100C9416014C
:100010000C9416010C9416010C9416010C94160104
:100020000C9416010C9416010C9416010C941601F4
:100030000C9416010C9416010C9416010C941601E4
:100040000C940F0F0C9416010C94D0180C940219F8
:100050000C9416010C9416010C9416010C941601C4
:100060000C9416010C94160110139012941298120D
:100070009C12A012A312A612AA12AD12B112B412AF
:10008000B812BB121413CA12CE122E13D212F312CC
:10009000D612FB12FE12D9120513DD12E012E31282
:1000A0001813F312F712FB12FE12011305130913B2
:1000B0000D13000000080002010000030407000007
:1000C000000000000000010204081020408001022E
:1000D000040810200102040810200404040404048D
:1000E00004040202020202020303030303030000EA
:1000F0000000230026002900000000002500280041
:100100002B0000000000240027002A0052657475AF
:10011000726E696E6720746F2050726576696F75B4
:1001200073204D6F6465204661696C7572652E2E73
:100130002E006053657474696E67204944204D6FCA
:100140006465204661696C7572652E2E2E005365BC
:100150007474696E672042617564726174652053BE
:1001600075636365737366756C2100536574746998
:100170006E67204261756472617465204661696CC6
:100180007572652E2E2E00456E746572696E67203D
:10019000436F6E66696775726174696F6E204D6F2B
:1001A0006465205375636365737366756C210045E0
:1001B0006E746572696E6720436F6E6669677572EB
:1001C0006174696F6E204D6F6465204661696C755E
:1001D00072652E2E2E00480E6610281911241FBE9F
:1001E000CFEFD8E0DEBFCDBF13E0A0E0B1E0E8EC98
:1001F000F2E402C005900D92A63DB107D9F728E0C0
:10020000A6EDB3E001C01D92AE35B207E1F710E0F4
:10021000CEEED0E004C02197FE010E940B21CB3E20
:10022000D107C9F70E9457100C94D41B0C940000FE
:10023000E2E10E94BD010895E9E00E94BD01089538
:10024000EAE00E94BD010895E1E00E94BD01089529
:10025000E3E00E94BD010895E7E00E94BD0108951A
:10026000E5E00E94BD010895E0E00E94BD0108950F
:10027000E2E00E94BD010895E4E00E94BD010895FE
:10028000ECE00E94BD010895E8E00E94BD010895E0
:10029000EEE00E94BD010895E4E10E94BD010895D1
:1002A000E0E10E94BD010895E7E10E94BD010895CB
:1002B000E6E00E94BD010895EBE00E94BD010895B3
:1002C000EDE00E94BD010895EFE00E94BD01089598
:1002D000E1E10E94BD010895E3E10E94BD0108959E
:1002E000E5E10E94BD010895E6E10E94BD01089587
:1002F00021968A929A92AA92BA92CA92DA92EA9233
:10030000FA920A931A932197E0918201F091830166
:100310000080F181E02DC083D1830895C0918401D4
:10032000D0918501E881F981C081D181219619910F
:100330000991F990E990D990C990B990A9909990B4
:100340008990219708952F903F90E7E6F1E0CDB78F
:10035000DEB7EDBFFEBF3F922F9208952F903F90E2
:10036000CDBFDEBF3F922F920895E0E80E94BD010D
:100370000895E0E40E94BD0108952F923F924F92AC
:100380005F926F927F922FB62F92CF93DF937E2E44
:10039000F894E0910001EF5FE0930001E13011F487
:1003A0000E94A301E0E0E0939201E72DE07849F09C
:1003B0000E941106F0919301F17071F00E94C40443
:1003C0000BC0E72DEC3140F4EE0FF0E0EC57FC4FA2
:1003D0000190F081E02D0995F0919201EF2FE170ED
:1003E00059F0F27011F00E9478018F938F2F0E94C4
:1003F0000C048F910E948E012091000121502093C6
:100400000001222311F40E94AE01DF91CF912F90C1
:100410002FBE7F906F905F904F903F902F900895E8
:10042000CF92DF92EF92FF920F931F93DC01EC913A
:10043000DB012C918E2F8170C82ED12CE12CF12C58
:100440008E2F8F7090E0A0E0B0E0B695A7959795BD
:100450008795DC01A45CBB4F8C91C81AD108E108D8
:10046000F108EE70422F417050E060E070E0822FA2
:100470008F7090E0A0E0B0E0B695A795979587952E
:10048000DC01A45CBB4F8C91481B510961097109C7
:10049000822F8E7097018601017011272227332742
:1004A0000E2B4170552766277727482B81E090E077
:1004B000041715072607370710F080E090E01F911A
:1004C0000F91FF90EF90DF90CF9008958F929F92C1
:1004D000AF92BF92EF92FF920F931F93CF93DF9350
:1004E0007C014A015B01B694A794979487944230AB
:1004F000510561057105E0F0440F551F8701040F98
:10050000151FE401CC0FDD1FCE0DDF1DB801CE019C
:100510000E941002892B61F0F8019081818128816D
:1005200039813183208398838983B501A401DBCF8E
:10053000DF91CF911F910F91FF90EF90BF90AF90FF
:100540009F908F9008954F925F926F927F928F92BB
:100550009F92AF92BF92CF92DF92EF92FF920F9352
:100560001F93CF93DF9300D000D000D0CDB7DEB77C
:100570008C016A017B01DC018C91282F30E040E086
:1005800050E029833A834B835C8346015701880CF2
:10059000991CAA1CBB1C29813A814B815C812815BE
:1005A00039054A055B0508F442C0240135013FEFD7
:1005B000431A530A630A730A89819A81AB81BC8109
:1005C00084159505A605B70580F0B201660F771F63
:1005D000600F711FC401880F991F800F911F0E9427
:1005E0001002892B11F0530142013401660C771C73
:1005F000600E711ECC0CDD1CD801AC0DBD1DBE8380
:10060000AD83B301CD010E941002892B81F0ED81F1
:10061000FE8190818181D3012D913C91119731838D
:1006200020839C9311968C9375016401AECF26961E
:100630000FB6F894DEBF0FBECDBFDF91CF911F91F3
:100640000F91FF90EF90DF90CF90BF90AF909F9071
:100650008F907F906F905F904F900895EAE7F6E05B
:1006600040814F5F408350E060E070E0E82FEE0F84
:10067000FF0BEA5DFC4F0190F081E02D238530E017
:10068000F901E45CFB4F908191509083FA01EE0FE9
:10069000FF1FE658F94F220F331F9170292B20833B
:1006A00081838AE796E00C946602EAE7F6E04081EF
:1006B0004F5F408350E060E070E0E82FEE0FFF0BEB
:1006C000E45EFC4F0190F081E02D9381FA01EE0F82
:1006D000FF1FE658F94F908381838AE796E00C94D8
:1006E0006602CF93DF93EAE7F6E080819FEF980FF1
:1006F0009083D281C38190E0880F991FDC01A658B6
:10070000B94F8D919C919383828341E050E060E0EA
:1007100070E0CF010E94A3028D2F9C2FDF91CF911B
:10072000089580918A0190918B01A0918C01B091E4
:100730008D018F3F2FEF9207A207B20731F0049788
:10074000A105B10524F481E0089580E0089582E0D8
:100750000895880F990BFC01EA5DFC4F0190F08130
:10076000E02D0084F185E02D3097E9F02281211100
:100770001AC021E02283DC01A45EBC4F0D90BC9125
:10078000A02D13968C9113978183808190E0FC01BA
:10079000E45CFB4F208121502083880F991F21703A
:1007A000822B13968C930895880F990BFC01EA5DB8
:1007B000FC4F0190F081E02D0084F185E02D309711
:1007C00061F02281213049F412822181FC01E45E32
:1007D000FC4F0190F081E02D2383089580918E01DC
:1007E00090918F01A0919001B091910140918A0167
:1007F00050918B0160918C0170918D0148175907C0
:100800006A077B0741F0E0918801F091890121E0BE
:1008100024830C9455030895CF93DF93882391F09C
:10082000C0918201D0918301E0918601F09187010E
:100830008481833049F081E0848380918A010E9421
:10084000550302C0C0E0D0E0E0918801F091890139
:10085000F0938701E0938601809184019091850156
:10086000909383018093820180918E0130918F015A
:10087000209190019091910180938A0130938B0196
:1008800020938C0190938D0192E094830E94A903A0
:10089000CE01DF91CF91089580918A010E94D40307
:1008A000E0918601F09187018281882319F085E02B
:1008B0008483089514820895CF93DF93282F220F05
:1008C000330BF901E45EFC4FC081D1819A81F901BB
:1008D000EA5DFC4F0190F081E02D2485921770F4C1
:1008E000911105C095E09C8391E0909393010E9443
:1008F0002E038A818F5F8A8380E001C084E0DF91CC
:10090000CF910895E82FEE0FFF0BE45EFC4F0190AE
:10091000F081E02D118210820C9411101F93CF935F
:10092000DF930E947103182F892F492F092E000C85
:10093000550B660B770B40938E0150938F0160939C
:10094000900170939101292F220F330BF901E45E7E
:10095000FC4FC081D181D0938901C0938801F901F6
:10096000EA5DFC4F20813181309385012093840121
:100970009C81953019F40E9482041B83109293018C
:10098000DF91CF911F910895E0918E01F0918F0139
:10099000EE0FFF1FE45EFC4F0190F081E02D90917F
:1009A0007C068381891730F40E94EE030E948E0436
:1009B00083E001C080E080939201089581E08093FC
:1009C00092010C948E04EF92FF920F931F93CF939A
:1009D000DF93C1E001C0CC0F8A95EAF784E00E9462
:1009E0005C040FE713E0D0E0F80181918F018C23C4
:1009F00019F08D2F0E945C04DF5FD430A9F70BE75C
:100A000013E080EFE82E82E0F82ED1E0F80181912A
:100A10008F018C2339F0F70180819181FC01D68709
:100A20000E944A05F2E0EF0EF11C83E00F37180731
:100A300069F7DF91CF911F910F91FF90EF9008958B
:100A40000E94F80681110E941907E0918601F09139
:100A5000870180819181892B21F080918A010E94F8
:100A6000E0080C9441080E94F80681110E941907C1
:100A7000E0918601F091870180819181892B21F09D
:100A800080918A010E94E0080C94290881E08093FB
:100A9000D6030895AF92BF92CF92DF92EF92FF926A
:100AA0000F931F93CF93DF93FC01A081B181AD9091
:100AB000BC90E501AC89BD89109739F0428553851A
:100AC0006485758530E020E017C0D50155969C936C
:100AD0008E93549757969C938E93569715821482B3
:100AE000138212825BC012968D919C9113973A2FBC
:100AF0002B2F009779F0DC011A96CD90DD90ED90C8
:100B0000FC901D974C155D056E057F0560F7CD01C6
:100B1000A32FB22F93838283B583A483009719F008
:100B2000EC01FD83EC83109729F01396FC93EE9370
:100B3000129705C0D5015596FC93EE935497E501A5
:100B4000AE89BF891A968D919D910D90BC91A02D73
:100B5000088919892A893B8980179107A207B30759
:100B600080F4041715072607370728F04817590798
:100B70006A077B0798F4D5015796FC93EE93569736
:100B80000DC0041715072607370740F44817590703
:100B90006A077B0718F4E501FF8BEE8BDF91CF919D
:100BA0001F910F91FF90EF90DF90CF90BF90AF908B
:100BB0000895CF93DF93DC01ED91FC9111970190A3
:100BC000F081E02D848995891296CD91DC9113975F
:100BD000A817B90711F4D58BC48B86899789A817F4
:100BE000B90711F4D78BC68B209731F014968D91ED
:100BF0009C9115979D838C8314960D90BC91A02D8C
:100C0000109721F01396DC93CE93129786899789DB
:100C1000892B21F484899589978B868BDF91CF91DD
:100C20000895EF92FF920F931F93CF93DF93FC01F0
:100C30008091D603882309F4B5C084859585A6855F
:100C4000B7850196A11DB11D84879587A687B787B3
:100C5000408151816281738184179507A607B70788
:100C600009F0A0C040895189628973894F5F5F4F45
:100C70006F4F7F4F84819581A681B7818417950737
:100C8000A607B70718F440E050E0BA01408B518B3B
:100C9000628B738B1486158616861786C689D7894C
:100CA000209709F47FC08A859B85AC85BD85481750
:100CB00059076A077B0709F075C0CE01DC0112965F
:100CC000ED90FC901397E114F10471F0D7011A969E
:100CD0000D911D912D913C911D9740175107620771
:100CE000730711F4C701EACF2C813D81211531052D
:100CF00029F0D9011396FC92EE921297E114F104B7
:100D000029F0D70115963C932E93149724893589A1
:100D1000C217D30711F4F58AE48AE114F10419F03B
:100D2000F78AE68A04C024893589378B268B8F01A0
:100D3000FC0113821282EA80FB80E881F981028043
:100D4000F381E02DCE0109954E815F81688579851B
:100D5000411551056105710509F18A859B85AC85B1
:100D6000BD85840F951FA61FB71FF80144815581CB
:100D700066817781481759076A077B0738F4841B17
:100D8000950BA60BB70B0197A109B1098A879B8721
:100D9000AC87BD87CE010E944A0501C01E86E701CF
:100DA000209749F6DF91CF911F910F91FF90EF901F
:100DB0000895FC0182810C945C040E94F8068091E5
:100DC00068010895809368010E94E3040E9446052B
:100DD0000C94DE040C941010CF93C82F0E94910342
:100DE000811102C00E944D108C2FCF910C941C01D8
:100DF0008091E3038130D9F08091DB039091DC0393
:100E0000A091DD03B091DE03892B8A2B8B2B79F423
:100E100081E04091DF035091E0036091E103709124
:100E2000E203452B462B472B19F480E0089581E01F
:100E300008951092E3031092DF031092E0031092E2
:100E4000E1031092E2031092DB031092DC03109294
:100E5000DD031092DE038091D7039091D803A09117
:100E6000D903B091DA038093E4039093E503A09350
:100E7000E603B093E70308950E9450108091E403C5
:100E80009091E503A091E603B091E7030196A11DBF
:100E9000B11D8093E4039093E503A093E603B09320
:100EA000E7038091DF039091E003A091E103B0910B
:100EB000E2030196A11DB11D8093DF039093E0032F
:100EC000A093E103B093E20308958091DF03909132
:100ED000E003A091E103B091E2030097A105B10501
:100EE00069F14091E4035091E5036091E60370914C
:100EF000E70341505109610971094093E40350939C
:100F0000E5036093E6037093E7030197A109B10934
:100F10008093DF039093E003A093E103B093E20397
:100F20008091E4039091E503A091E603B091E7037B
:100F3000892B8A2B8B2B11F40C944E1008958091E1
:100F4000DF039091E003A091E103B091E203892BCC
:100F50008A2B8B2B89F48091DB039091DC03A09189
:100F6000DD03B091DE03892B8A2B8B2B29F40E94A1
:100F7000501081E08093E30308958091E303882378
:100F800021F01092E3030C944E1008950E94541027
:100F90008091E4039091E503A091E603B091E7030B
:100FA0000196A11DB11D8093E4039093E503A093E6
:100FB000E603B093E7038091DB039091DC03A091FB
:100FC000DD03B091DE030196A11DB11D8093DB030B
:100FD0009093DC03A093DD03B093DE03089580912A
:100FE000DB039091DC03A091DD03B091DE03009759
:100FF000A105B10569F14091E4035091E5036091C9
:10100000E6037091E703415051096109710940936A
:10101000E4035093E5036093E6037093E7030197BD
:10102000A109B1098093DB039093DC03A093DD0356
:10103000B093DE038091E4039091E503A091E60371
:10104000B091E703892B8A2B8B2B11F40C9452104F
:1010500008950E94F806882311F083E1089580E046
:101060000895CF93C82F0E94F8068C2F0E945C042D
:10107000C82F8091930181110E94C4048C2FCF91BD
:101080000895CF930E94F806882311F0C3E101C0B0
:10109000C0E0E0918601F0918701828181508283D6
:1010A0000E944C0481E0809392010E948E048C2F58
:1010B000CF910895CF93C82F0E94F806E091860142
:1010C000F09187018281815082838C2F0E945C0481
:1010D000C82F811108C00E944C0481E080939201C6
:1010E0000E948E0407C0E0918601F0918701828101
:1010F0008F5F82838C2FCF910895CF930E94F80643
:10110000882311F0C3E101C0C0E080918A010E94F0
:10111000D4030E94C40480918A0190918B01A09114
:101120008C01B0918D0140918E0150918F016091A1
:1011300090017091910184179507A607B70711F4E4
:101140000E94A9038C2FCF910895CF93DF93EC01D8
:101150000E94F806882311F083E101C080E04091ED
:101160008A0150918B0160918C0170918D01443006
:1011700051056105710514F4488303C090910D0277
:101180009883DF91CF9108950F931F93CF93C82F2A
:101190008B010E94F806882311F083E101C080E0F2
:1011A000EC2FEE0FFF0BE45EFC4F0190F081E02D81
:1011B00094819370F8019083CF911F910F910895BE
:1011C000880F990BFC01E45EFC4FA081B181ED9189
:1011D000FC911197309769F01D921C9220910D029D
:1011E00093818481228314821382E92FF82F309710
:1011F000B9F70895CF93C82F0E94F806882311F0FD
:1012000083E101C080E0EC2FF0E0EE0FFF1FEA5811
:10121000FC4FA081B18190918A0112969C93129704
:10122000E0918601F09187012081318114963C93F1
:101230002E931397B183A083938111969C9311975A
:101240002C9193819695921760F430E0D901A45CBB
:10125000BB4F9C9191509C93220F331F9170292B6F
:101260002383CF910895CF93DF93C82F0E94F80670
:10127000882311F0D3E101C0D0E0EC2FF0E0EE0FB5
:10128000FF1FEA58FC4F0190F081E02DA0918601EC
:10129000B0918701818113968C93139783819481F8
:1012A0008D939C931482138280910D0282830E94FD
:1012B000C4048D2FDF91CF910895DC01ED91FC9155
:1012C00084819581DC01ED91FC9109941F93CF936A
:1012D000DF93182FEB010E94F806882311F083E1B9
:1012E00001C080E0E12FF0E0EE0FFF1FE051FD4F65
:1012F0000190F081E02D0190F081E02D0190F081CE
:10130000E02D40815181628173814C835D836E83C6
:101310007F834481558166817781488359836A83BD
:101320007B834085518562857385488759876A87A5
:101330007B87DF91CF911F9108958F929F92AF92FB
:10134000BF92CF92DF92EF92FF920F931F93CF93B2
:10135000C82F8B010E94F806882311F083E101C099
:1013600080E0EC2FF0E0EE0FFF1FE051FD4F019009
:10137000F081E02D9685913029F54285538564856D
:1013800075850190F081E02D0190F081E02DC088FD
:10139000D188E288F3884C155D056E057F0540F421
:1013A00084809580A680B780480D591D6A1D7B1DDD
:1013B0004C195D096E097F09F801408351836283EE
:1013C000738301C085E0CF911F910F91FF90EF9043
:1013D000DF90CF90BF90AF909F908F9008958F92A5
:1013E0009F92AF92BF92CF92DF92EF92FF920F93B4
:1013F0001F93CF93DF93D82F4A015B0168017901D6
:101400000E94F806882311F0C3E101C0C0E0ED2F6F
:10141000F0E0EE0FFF1FE051FD4F0190F081E02D55
:101420008685811130C0A081B1810D90BC91A02D25
:1014300050964D915D916D917C915397480D591D3A
:101440006A1D7B1D14968D919D910D90BC91A02DD0
:1014500084179507A607B70740F4481B590B6A0B7A
:101460007B0B415051096109710942875387648799
:101470007587C682D782E086F18681E08687CF01B4
:101480000E944A0501C0C7E08C2FDF91CF911F91C8
:101490000F91FF90EF90DF90CF90BF90AF909F9013
:1014A0008F9008958F929F92AF92BF92CF92DF92CA
:1014B000EF92FF920F931F93CF93DF93C82F4A01B0
:1014C0005B01680179010E94F806882311F0D3E1DD
:1014D00001C0D0E0EC2FF0E0EE0FFF1FE051FD4F18
:1014E0000190F081E02D868581110EC08286938661
:1014F000A486B586C682D782E086F18681E086879B
:10150000CF010E944A0501C0D7E08D2FDF91CF9116
:101510001F910F91FF90EF90DF90CF90BF90AF9011
:101520009F908F9008950F931F93CF93DF93C82FB1
:101530000E94F806882311F0D3E101C0D0E0EC2F1F
:10154000F0E0EE0FFF1FE051FD4F00811181F80127
:101550008685813031F4C8010E94D905F8011686CC
:1015600001C0D5E08D2FDF91CF911F910F9108958C
:1015700026E040E052EC61E070E082E594E00E94F9
:10158000231A22E04DE063E088EE93E00E94A91563
:10159000882339F068EC70E080E090E00E94980FBA
:1015A000F0CF60E088EE93E00E946E1260E082E08F
:1015B0000C947B0ECF9382E00E94E60E892B09F0FB
:1015C000B3C0C0917A038C2F0E945C0120E334E009
:1015D0004FE254E068E374E088EE93E00E946816FE
:1015E0008091380490913904A0913A04B0913B0461
:1015F00089749073AB71BC7089349043AB41BC402B
:1016000009F050C060913104709132047627672749
:101610007627072E000C880B990B0E941E1D20E0D8
:1016200030E040E85BE30E94D31D60932B0470938D
:101630002C0480932D0490932E04609133047091B8
:101640003404762767277627072E000C880B990B22
:101650000E941E1D60932704709328048093290420
:1016600090932A0460913504709136047627672799
:101670007627072E000C880B990B0E941E1D20E078
:1016800030E040E85BE30E94D31D60932304709335
:10169000240480932504909326048C2F0E946001DB
:1016A0000E9444018091380490913904A0913A0439
:1016B000B0913B0483709570A07FB87183309540E2
:1016C000A04FB84171F56EE072E082E594E00E94AF
:1016D0003617609131047091320476276727762798
:1016E000072E000C880B990B0E941E1D20E030E095
:1016F00040E85BE30E94D31D60931F0470932004B5
:10170000809321049093220481E0909133049111FD
:1017100001C080E080937D018C2F0E9460010E94B7
:1017200044018C2F0E946001CF910C944401EF92F0
:10173000FF920F931F93CF93DF93C0917A038C2F67
:101740000E945C01D091160410917D01D11122C03C
:101750001123A1F18091170481111CC020E030E019
:1017600040E351E460912B0470912C0480912D048E
:1017700090912E040E94CE1D87FD0CC0809118040C
:10178000811108C080911904811104C081E0809307
:10179000160411C0112391F0DD2381F0809117040C
:1017A00081110CC080911804811108C08091190426
:1017B000811104C081E080931A0404C010921A04BD
:1017C0001092160480911A0480936A018C2F0E9453
:1017D000600189E6E82E81E0F82E08E021E040E093
:1017E00051EF6EEF78E188EE93E00E942D1662E2F1
:1017F00072E082E594E00E943617DF91CF911F914D
:101800000F91FF90EF900C9444013F924F925F92A2
:101810006F927F928F929F92AF92BF92CF92DF9200
:10182000EF92FF920F931F93CF93DF9320911104B8
:1018300060917E0170917F01809180019091810182
:10184000222321F09B01AC010E94031C609312042F
:1018500070931304809314049093150430907A03CA
:10186000832D0E945C0180911A04882309F42AC107
:10187000C0902B04D0902C04E0902D04F0902E0406
:1018800020911204309113044091140450911504D6
:10189000C701B6010E94D31D20E030E040E251E4D0
:1018A0000E94031C6093790170937A0180937B01FD
:1018B00090937C01209127043091280440912904C1
:1018C00050912A040E94021C2B013C016093FC03EE
:1018D0007093FD038093FE039093FF032AE037ED9E
:1018E00043E25DE360912304709124048091250418
:1018F000909126040E94D31D4B015C012DEC3CEC21
:101900004CE45EE3C301B2010E94D31D9B01AC0114
:10191000C501B4010E94021C8B01D82FC92FCB0135
:10192000AD2FBC2F8093000490930104A093020478
:10193000B0930304A701960160911F0470912004E5
:1019400080912104909122040E94021C20E030E04A
:1019500040E05FE30E94D31D6B017C01CB01D70106
:101960008093040490930504A0930604B0930704A5
:1019700020E030E0A901C301B2010E94CE1D18167B
:1019800064F09601A701B8018D2F9C2F0E946F1C57
:1019900087FD03C08601DE2DCF2DC801AD2FBC2FE2
:1019A00080930D0490930E04A0930F04B093100441
:1019B00000910D0410910E04D0910F04C0911004F9
:1019C00020E030E040EA50ECB8018D2F9C2F0E94BF
:1019D0006F1C87FD0FC026EF38E24CEB5FE3B801C8
:1019E0008D2F9C2F0E94CE1D18164CF0E02F712FCA
:1019F000CE0109C0E0E070E090EA80EC04C0E6EFC0
:101A000078E29CEB8FE30E2F172F292F382F0093AE
:101A10000D0410930E0420930F04309310042AE059
:101A200037ED43E25CE3CE2ED72EE92EF82EC70128
:101A3000B6010E94741C20E030E040EA50E40E94AD
:101A4000031C0E94E61C7F936F9381E392E09F93B7
:101A50008F9388E094E09F938F930E94E01B40E176
:101A600050E060E070E088E094E00E94BE1A70935D
:101A7000720140E150E060E070E08AE094E00E9492
:101A8000BE1A60937301832D0E94600181E7E82EE6
:101A900081E0F82E08E021E040EB51E060E47DE0D9
:101AA00088EE93E00E942D160F900F900F900F90EC
:101AB0000F900F90811106C066E372E082E594E01A
:101AC0000E943617DF91CF911F910F91FF90EF90F9
:101AD000DF90CF90BF90AF909F908F907F906F904E
:101AE0005F904F903F900C944401CF93C0917A0344
:101AF0008C2F0E945C016AE472E082E594E00E940F
:101B0000171760911A0470E04AE050E082E594E013
:101B10000E94EC1766E672E082E594E00E941717D7
:101B200069E672E082E594E00E9417176091720105
:101B300070917301762767277627072E000C880B94
:101B4000990B0E941E1D60931B0470931C048093CC
:101B50001D0490931E0420E030E040EA50E40E940F
:101B6000021C2AE037ED43E25CE30E94D31DAB0187
:101B7000BC0122E030E082E594E00E94CE1868E7E4
:101B800072E082E594E00E9436176AE772E082E52F
:101B900094E00E94171760917D0170E04AE050E0E8
:101BA00082E594E00E94EC1766E672E082E594E03C
:101BB0000E94171768E972E082E594E00E94171707
:101BC00040911F04509120046091210470912204DF
:101BD00022E030E082E594E00E94CE1866E672E0F2
:101BE00082E594E00E94361764EA72E082E594E0B0
:101BF0000E94171740912B0450912C0460912D04E2
:101C000070912E0422E030E082E594E00E94CE182C
:101C100066E672E082E594E00E9417176BEC72E0D2
:101C200082E594E00E941717409127045091280400
:101C30006091290470912A0422E030E082E594E06A
:101C40000E94CE1866E672E082E594E00E941717C3
:101C50006FED72E082E594E00E9417174091230433
:101C600050912404609125047091260422E030E014
:101C700082E594E00E94CE1866E672E082E594E088
:101C80000E9436178C2F0E946001CF910C94440162
:101C90006AE088EE93E00C94961584EE91E00C9443
:101CA000B5010895833081F028F4813099F08230B5
:101CB000A1F008958730A9F08830B9F08430D1F4CC
:101CC000809180008F7D03C0809180008F7780930A
:101CD0008000089584B58F7702C084B58F7D84BD60
:101CE00008958091B0008F7703C08091B0008F7D00
:101CF0008093B0000895CF93DF9390E0FC01EA5306
:101D0000FF4F2491FC01E652FF4F8491882361F13B
:101D100090E0880F991FFC01EE5FFE4FC591D491B2
:101D2000FC01E850FF4FA591B491611109C09FB724
:101D3000F8948881209582238883EC912E230BC010
:101D4000623061F49FB7F8948881322F30958323F5
:101D50008883EC912E2B2C939FBF06C08FB7F894ED
:101D6000E8812E2B28838FBFDF91CF9108951F9399
:101D7000CF93DF93282F30E0F901EE54FF4F849189
:101D8000F901EA53FF4FD491F901E652FF4FC49194
:101D9000CC23C1F0162F81110E94520EEC2FF0E0DF
:101DA000EE0FFF1FE850FF4FA591B4919FB7F89435
:101DB000111104C08C91D095D82302C0EC91DE2B78
:101DC000DC939FBFDF91CF911F910895CF93DF9355
:101DD000282F30E0F901EE54FF4F8491F901EA53C6
:101DE000FF4FD491F901E652FF4FC491CC2391F0FB
:101DF00081110E94520EEC2FF0E0EE0FFF1FE25116
:101E0000FF4FA591B491EC91ED2381E090E021F496
:101E100080E002C080E090E0DF91CF9108951F92B2
:101E20000F920FB60F9211242F933F934F935F930E
:101E30006F937F938F939F93AF93BF93EF93FF9392
:101E40008091490490914A04A0914B04B0914C04B4
:101E50003091480423E0230F2D3720F40196A11D73
:101E6000B11D05C026E8230F0296A11DB11D2093C8
:101E700048048093490490934A04A0934B04B09380
:101E80004C0480914D0490914E04A0914F04B09168
:101E900050040196A11DB11D80934D0490934E04F2
:101EA000A0934F04B09350040E944D0EFF91EF9108
:101EB000BF91AF919F918F917F916F915F914F9162
:101EC0003F912F910F900FBE0F901F9018952FB735
:101ED000F8946091490470914A0480914B04909168
:101EE0004C042FBF08953FB7F89480914D04909112
:101EF0004E04A0914F04B091500426B5A89B05C094
:101F00002F3F19F00196A11DB11D3FBFBA2FA92F78
:101F1000982F8827820F911DA11DB11DBC01CD01F5
:101F200042E0660F771F881F991F4A95D1F70895E1
:101F30008F929F92AF92BF92CF92DF92EF92FF92D9
:101F40006B017C010E94730F4B015C01C114D10431
:101F5000E104F10401F10E940E100E94730FDC01F4
:101F6000CB0188199909AA09BB09883E9340A105AC
:101F7000B10560F321E0C21AD108E108F10888EE4A
:101F8000880E83E0981EA11CB11CC114D104E10489
:101F9000F10419F7DBCFFF90EF90DF90CF90BF9067
:101FA000AF909F908F90089584B5826084BD84B572
:101FB000816084BD85B5826085BD85B5816085BD44
:101FC000EEE6F0E0808181608083E1E8F0E010825D
:101FD000808182608083808181608083E0E8F0E09E
:101FE000808181608083E1EBF0E080818460808388
:101FF000E0EBF0E0808181608083EAE7F0E08081BF
:10200000846080838081826080838081816080831E
:102010008081806880831092C10008950895FFCF69
:10202000FFCFCF93DF93880F990BFC01EA5DFC4F44
:10203000C081D181AC81BD8111978A819B81A80F1C
:10204000B91F2D85CD010197FD013297223019F47A
:102050002CE331E002C028E531E02C93DC013C9315
:102060009E818F819083DF018E93CF0107971E920F
:102070008A179B07E1F780E8DF0118978C93CF015F
:1020800044971E928A179B07E1F7A881B98175973B
:10209000ED93FC93DF91CF9108950895789408957E
:1020A000F894089578940895F894089508950E94F6
:1020B000D40F0E9456100E94510E0E94B80A8091BF
:1020C00051040E94EC0680E090E008958091830323
:1020D00080935104089508951F920F920FB60F92A6
:1020E00011242F933F934F935F936F937F938F931D
:1020F0009F93AF93BF93EF93FF93E0910602F0910C
:1021000007020995FF91EF91BF91AF919F918F9138
:102110007F916F915F914F913F912F910F900FBEE3
:102120000F901F9018951F920F920FB60F921124C7
:102130002F933F934F935F936F937F938F939F93CF
:10214000AF93BF93EF93FF93E0910802F0910902E0
:102150000995FF91EF91BF91AF919F918F917F91E1
:102160006F915F914F913F912F910F900FBE0F9004
:102170001F9018952091F104222399F04FB7F894FD
:102180002091F104213059F42DB32093EF043DB395
:102190002091F004209523232DBB4FBF02C0409314
:1021A000EF048CBD9DBD08958EBD00000DB407FEEB
:1021B000FDCF8EB508958091F104882361F09FB71B
:1021C000F8942091F1048091EF04213019F48DBB33
:1021D0009FBF08958FBF0895CF93DF93EC0180E5F3
:1021E00091E00E94BA1060E08A890E94B70E80ECEC
:1021F0000E94D41061E08A890E94B70E0E94DB1011
:1022000065E070E080E090E0DF91CF910C94980F52
:102210001F93CF93DF93EC01162F80E591E00E948E
:10222000BA1060E08A890E94B70E83E00E94D41041
:10223000812F0E94D41080E00E94D410182F61E0FA
:102240008A890E94B70E0E94DB10812FDF91CF9107
:102250001F910895DF92EF92FF920F931F93CF93F8
:10226000DF938C01C62FD42EE52EF22E80E591E06F
:102270000E94BA1060E0F80182890E94B70E83E0E4
:102280000E94D4108C2F0E94D410CD2DDE2DCE01B3
:102290008F0D911D7C01EC16FD0629F080E00E9457
:1022A000D4108993F8CF61E0F80182890E94B70EBB
:1022B000DF91CF911F910F91FF90EF90DF900C94E1
:1022C000DB100F931F93CF93DF93EC01062F142F96
:1022D00080E591E00E94BA1060E08A890E94B70E02
:1022E00082E00E94D410802F0E94D410812F0E947F
:1022F000D41061E08A890E94B70EDF91CF911F91BF
:102300000F910C94DB10DF92EF92FF920F931F93CB
:10231000CF93DF938C01C62FD42EE52EF22E80E5CD
:1023200091E00E94BA1060E0F80182890E94B70E25
:1023300082E00E94D4108C2F0E94D410CD2DDE2D6F
:10234000CE018F0D911D7C01EC16FD0621F08991C7
:102350000E94D410F9CF61E0F80182890E94B70E83
:10236000DF91CF911F910F91FF90EF90DF900C9430
:10237000DB10FF920F931F93CF93DF93EC01F62EA8
:10238000042F122F80E591E00E94BA1060E08A8944
:102390000E94B70E85E00E94D4108F2D0E94D410A9
:1023A000802F0E94D410812F0E94D41061E08A896E
:1023B0000E94B70EDF91CF911F910F91FF900C9467
:1023C000DB101F93CF93DF93EC0180E591E00E9437
:1023D000BA1060E08A890E94B70E80EA0E94D41089
:1023E00080E00E94D410182F61E08A890E94B70E05
:1023F0000E94DB10812FDF91CF911F910895EF9202
:10240000FF920F931F93CF93DF93EC01162F0E943F
:10241000670F062FE12EF12C212F40EE6FE0CE0149
:102420000E94B9116EE0CE010E940811807E90E0FA
:102430008E159F0539F00E94670F601B693C60F3A1
:1024400081E001C080E0DF91CF911F910F91FF905B
:10245000EF9008950F931F93CF93DF93EC01162F06
:102460006EE00E940811807E803221F5103211F159
:102470006BE2CE010E940811082F007486FD06C091
:1024800020E440E46BE2CE010E94B91120E440E474
:102490006CE2CE010E94B91160E6CE010E94FF11EC
:1024A000811116C0011106C020E040E46BE2CE01AC
:1024B0000E94B91120E040E46CE2CE010E94B91103
:1024C000612FCE01DF91CF911F910F910C94FF11DD
:1024D00081E0DF91CF911F910F910895FC01638BF3
:1024E0000C942A12CF92DF92EF92FF920F931F93D8
:1024F000CF93DF93342F3370313009F43FC008F4A9
:1025000066C0323009F0AAC0062F10E0F8013197FA
:10251000EE30F10508F0A2C0EC5CFF4F0C940B21EB
:10252000C4E8D6EF23E987C0C4E8D6EF29E883C022
:10253000C3E8D5EE27E87FC0C4E8D6EF25E87BC026
:10254000C4E8D6EF05C0C3E8D5EE02C0C1E8D3EDBC
:1025500024E871C0C4E8D6EF02C0C3E8D5EE21E894
:102560006AC0C4E8D6EF02C0C3E8D5EE20E863C075
:10257000C1E8D1ED2AC0C0E8D0EC27C0C62ED12CCE
:10258000F6013197EE30F10508F068C0EE5BFF4FC1
:102590000C940B21C4E8D6EF27E64DC0C4E8D6EF73
:1025A00023E549C0C3E8D5EE2EE445C0C4E8D6EF24
:1025B00042C0C3E8D5EE23E43EC0C3E8D5EE27C051
:1025C000C3E8D5EE28C0C1E8DAEC20E034C0062F1D
:1025D00010E0F8013697E930F10508F03FC0E05B04
:1025E000FF4F0C940B21C4E8D6EF29E424C0C7E8C0
:1025F000DFEF24EC20C0C4E8D6EF05C0C3E8D5EE79
:1026000002C0C1E8D3ED24E416C0C4E8D6EF21E44B
:1026100012C0C4E8D6EF20E40EC0C2E8D9EDD5CF91
:10262000C4E8D6EF27EA07C0C7E8DFEF2FE303C00F
:10263000C1E8D3ED28E142FDCF778C01422F6AE259
:102640000E9461114D2F69E2C8010E9461114C2F57
:1026500068E2C8010E94611180E001C081E0DF9161
:10266000CF911F910F91FF90EF90DF90CF90089541
:102670000F931F93CF93DF9300D000D0CDB7DEB779
:102680004130B1F40C831B83890122273327502F5B
:102690005C71402F437078E0579F400D11244860D3
:1026A0004A8355E0169507955A95E1F709830DC0C1
:1026B000A80123E0569547952A95E1F749830295AD
:1026C000000F007E0A831C821B8224E0AE014F5F54
:1026D0005F4F0E9483110F900F900F900F90DF912A
:1026E000CF911F910F9108950F931F93CF93DF9375
:1026F00000D000D0CDB7DEB7E62FF42FA9016627B2
:1027000077270C831B83F13081F4342F3C71242F05
:102710002370F8E03F9F200D112428602A8335E0C4
:10272000569547953A95E1F70AC0242F2295220F36
:10273000207E2A8323E0569547952A95E1F7498321
:1027400024E0AE014F5F5F4F6E2F0E9483110F9008
:102750000F900F900F90DF91CF911F910F910895DF
:102760000F931F93CF93DF93EC0100E010E09801EB
:1027700041E060E20E94741300E010E0980141E043
:1027800064E2CE010E94741300E010E0980141E081
:1027900060E0CE010E94741300E010E0980140E078
:1027A00064E0CE010E94741300E010E0980141E063
:1027B00068E0CE010E94741300E010E0980140E050
:1027C00060E1CE010E94741300E010E0980141E046
:1027D00064E1CE010E94741300E010E0980140E033
:1027E00068E1CE010E94741310E340E0612FCE0136
:1027F0000E94611160E1610F40E0CE010E94611111
:1028000060E2610F40E0CE010E9461111F5F1E3344
:1028100061F740E060E6CE010E94611140E060E7B0
:10282000CE01DF91CF911F910F910C946111EF9226
:10283000FF920F931F93CF93DF93EC01062FF42E9B
:10284000E22E0E94EC1080E48B8B60E8CE010E94A7
:102850002A12182F882341F06FEA71E082E594E094
:102860000E942417812F5CC067E871E082E594E044
:102870000E9424174E2D6F2DCE010E9472128823C4
:1028800039F06BE671E082E594E00E94241747C0BE
:102890006EE471E082E594E00E942417CE010E946C
:1028A000B01343E06BE2CE010E9461114CE36CE097
:1028B000CE010E94611140E06DE0CE010E946111E5
:1028C000002351F0033019F524E644E660E6CE011A
:1028D0000E94B91120E607C024E044E660E6CE017C
:1028E0000E94B91120E040E660E7CE010E94B911D4
:1028F0006B89CE010E942A12C82F882381F06CE0D8
:1029000071E082E594E00E9424178C2F09C062E3F5
:1029100071E082E594E00E94241781E001C080E02C
:10292000DF91CF911F910F91FF90EF900895EF925B
:10293000FF920F931F93CF93DF9300D000D0CDB7BA
:10294000DEB77A018901FA011082F9011082118241
:102950001282138224E0AE014F5F5F4F0E942A1162
:102960002A813981822F90E065E0959587956A9557
:10297000E1F7F8E03F9F800D911D1124092E000C16
:10298000AA0BBB0BF80180839183A283B38323FF3F
:1029900025C032E0880F991FAA1FBB1F3A95D1F7B7
:1029A0002370820F911DA11DB11DBA2FA92F982F41
:1029B00088272B81820F911DA11DB11DBA2FA92F30
:1029C000982F88272C81820F911DA11DB11D808316
:1029D0009183A283B38381E0F70180830F900F90EE
:1029E0000F900F90DF91CF911F910F91FF90EF907B
:1029F0000895FF920F931F93CF93DF93EC01F62E70
:102A0000AC014A5F5F4F65E06F0D2D810E9483111D
:102A10008E85813019F48D8180648D8364E06F0D23
:102A20004D81CE010E94611109811A812B813C8167
:102A300048816F2DCE010E943813DF91CF911F91F5
:102A40000F91FF9008950F931F93CF93DF93EC01A5
:102A5000162F9C012F5F3F4FAC010E9497146FEF20
:102A6000610FCE010E940811082F64E0610FCE01B2
:102A70000E9408118D8303FF03C091E09E8701C06F
:102A80001E86282F2F702D83AE014A5F5F4F65E0B1
:102A9000610FCE01DF91CF911F910F910C942A11FC
:102AA0008F929F92AF92BF92CF92DF92EF92FF925E
:102AB0001F93CF93DF9300D01F92CDB7DEB74C01A9
:102AC0006B0180910A0290910B02A0910C02898304
:102AD0009A83AB83FB011082CE0101967C015E01DB
:102AE00094E0A90EB11CF70111917F01612FC4017F
:102AF0000E940811982F987083FD04C01F5FF60193
:102B0000108304C0EA14FB0471F792E0892F0F9040
:102B10000F900F90DF91CF911F91FF90EF90DF907A
:102B2000CF90BF90AF909F908F900895CF93DF93F9
:102B3000EC01862F6A8B61E00E94B70E61E08A8902
:102B40000E947B0E83EF94E0998B888BDF91CF916D
:102B50000895FF920F931F93CF93DF93EC01162FED
:102B6000042FF22E0E94881A2F2D402F612FCE01A4
:102B70000E94171491E0811101C090E0892FDF912C
:102B8000CF911F910F91FF900895BF92CF92DF9246
:102B9000EF92FF920F931F93CF93DF931F92CDB7C6
:102BA000DEB78C010E94730F6B017C01BE016F5F69
:102BB0007F4FC8010E945015B82E0E94730FDC0190
:102BC000CB018C199D09AE09BF0922E0B21206C0E3
:102BD000843C9940A105B10548F331C0843C99403B
:102BE000A105B10560F56981C8010E94F9146981E8
:102BF000615028E048E0C8010E94B9110E94730F9B
:102C00006B017C0169816150C8010E940811B82ED6
:102C10000E94730FDC01CB018C199D09AE09BF091D
:102C2000B3FE06C0843C9940A105B10558F309C024
:102C3000843C9940A105B10520F480E003C086E002
:102C400001C087E00F90DF91CF911F910F91FF900E
:102C5000EF90DF90CF90BF900895EF92FF920F9387
:102C6000FC0141835283638374831686208305832A
:102C7000F701DC0116969C01225F3F4F41914D9375
:102C8000A217B307D9F70F91FF90EF900C94C515D9
:102C9000CF93DF93EC010E94E11180FF07C061E652
:102CA000CE010E94231520E041E008C081FF0CC046
:102CB00061E7CE010E94231520E042E06CE2CE01E4
:102CC0000E94B91180E001C084E0DF91CF910895A6
:102CD000CF92DF92EF92FF920F931F93CF93DF93E8
:102CE000EC016B017A0189010E944816843099F148
:102CF0008881882349F089819A81AB81BC81B06841
:102D000089839A83AB83BC838E85882349F089812C
:102D10009A81AB81BC81B06489839A83AB83BC8385
:102D200089819A81AB81BC81F60180839183A283E2
:102D3000B3838D81F7018083DE011696F8018D81C2
:102D400090E09F01201B310B281739071CF48D914F
:102D50008193F5CF80E0DF91CF911F910F91FF908C
:102D6000EF90DF90CF900895CF92DF92EF92FF9295
:102D70000F931F93CF93DF936C017A018B01C0E017
:102D8000D0E0CE15DF0581F0D8016D918D01D6011F
:102D9000ED91FC910190F081E02DC6010995892B00
:102DA00011F02196EECF7E01C701DF91CF911F91E7
:102DB0000F91FF90EF90DF90CF900895611571050E
:102DC00079F0FB0101900020E9F73197AF01461B34
:102DD000570BDC01ED91FC910280F381E02D099409
:102DE00080E090E00895EF92FF920F931F93CF93AE
:102DF000DF938C017B01C0E0D0E0F701EC0FFD1FF9
:102E00006491662361F0D801ED91FC910190F0810D
:102E1000E02DC8010995892B11F02196EECFCE0146
:102E2000DF91CF911F910F91FF90EF9008950C9437
:102E3000DE16DC01ED91FC910190F081E02D09940A
:102E400064EB73E00C94DE160F931F93CF93DF9324
:102E5000EC010E94F3168C01CE010E942017800F16
:102E6000911FDF91CF911F910F9108950F931F93A1
:102E7000CF93DF93EC010E94DE168C01CE010E94FD
:102E80002017800F911FDF91CF911F910F9108950F
:102E90008F929F92AF92BF92EF92FF920F931F93E8
:102EA000CF93DF93CDB7DEB7A1970FB6F894DEBF0F
:102EB0000FBECDBF7C01FA01CB0119A2223008F46C
:102EC0002AE08E010F5D1F4F822E912CA12CB12C78
:102ED000BF01A50194010E94E920F901CA01015036
:102EE00011096A3014F4605D01C0695CD8016C930B
:102EF000232B242B252B61F7B801C7010E94DE1676
:102F0000A1960FB6F894DEBF0FBECDBFDF91CF9173
:102F10001F910F91FF90EF90BF90AF909F908F9077
:102F200008952115310541F4DC01ED91FC910190EA
:102F3000F081E02D642F09940C9448179A01AB019D
:102F400060E070E00C949117CF92DF92EF92FF92C5
:102F50000F931F93CF93DF932115310581F4DC018B
:102F6000ED91FC910190F081E02D642FDF91CF91E4
:102F70001F910F91FF90EF90DF90CF9009942A302E
:102F8000310501F577FF1DC06A017B01EC016DE29F
:102F90000E9419178C0144275527BA014C195D0965
:102FA0006E097F092AE0CE010E944817800F911F09
:102FB000DF91CF911F910F91FF90EF90DF90CF9015
:102FC00008952AE0DF91CF911F910F91FF90EF902C
:102FD000DF90CF900C9448179A01AB01770F660BE6
:102FE000770B0C94A4177F928F929F92AF92BF920F
:102FF000CF92DF92EF92FF920F931F93CF93DF93C5
:103000008C016A017B01722E9A01AB01C701B601E6
:103010000E94401E882319F067EB73E027C0460129
:103020005701E894B7F82FEF3FEF4FE75FE7C5018F
:10303000B4010E94401E81110DC02FEF3FEF4FE7FA
:103040005FE7C501B4010E946F1C18161CF46BEBFE
:1030500073E00CC02FEF3FEF4FE75FE4C701B6010D
:103060000E94CE1D181694F46FEB73E0C801DF9137
:10307000CF911F910F91FF90EF90DF90CF90BF9075
:10308000AF909F908F907F900C94DE162FEF3FEFC4
:103090004FE75FECC701B6010E946F1C87FDE4CFCC
:1030A00020E030E0A901C701B6010E946F1C87FF34
:1030B0000AC06DE2C8010E941917EC01F7FAF094FA
:1030C000F7F8F09402C0C0E0D0E0B12C60E070E00E
:1030D00080E09FE37B1441F020E030E040E251E4E7
:1030E0000E94741CB394F6CFA70196010E94031CA2
:1030F0006B017C010E94ED1C4B015C012AE0AB01DD
:10310000BC01C8010E944817C80FD91F7720B9F128
:10311000C501B4010E941C1D9B01AC01C701B60191
:103120000E94021C6B017C016EE2C8010E9419170B
:10313000C80FD91F20E030E040E251E4C701B601DA
:103140000E94D31D4B015C010E94ED1C6B017C01B0
:103150004AE050E0C8010E949E17C80FD91FB6016F
:1031600080E090E00E941C1D9B01AC01C501B401F0
:103170000E94021C6B017C017A947110DBCFCE019E
:10318000DF91CF911F910F91FF90EF90DF90CF9043
:10319000BF90AF909F908F907F9008950C94F317FD
:1031A0001F920F920FB60F9211242F938F939F931C
:1031B000EF93FF93E0916204F09163048081E091CA
:1031C0006804F091690482FD12C0908180916B04C3
:1031D0008F5F8F7320916C04821751F0E0916B0424
:1031E000F0E0EE5AFB4F958F80936B0401C0808115
:1031F000FF91EF919F918F912F910F900FBE0F90A4
:103200001F9018951F920F920FB60F9211242F93B3
:103210003F934F935F936F937F938F939F93AF935E
:10322000BF93EF93FF9382E594E00E949219FF9180
:10323000EF91BF91AF919F918F917F916F915F912E
:103240004F913F912F910F900FBE0F901F901895A7
:10325000E2E5F4E01382128288EE93E0A0E0B0E0B1
:1032600084839583A683B78387EC93E091838083DF
:1032700085EC90E09587848784EC90E0978786873B
:1032800080EC90E0918B808B81EC90E0938B828B33
:1032900082EC90E0958B848B86EC90E0978B868B0C
:1032A000118E128E138E148E0895FC01918D228D35
:1032B000892F90E0805C9F4F821B91098F73992723
:1032C0000895FC01918D828D981731F0828DE80F61
:1032D000F11D858D90E008958FEF9FEF0895FC011B
:1032E000918D828D981761F0828DDF01A80FB11D3D
:1032F0005D968C91928D9F5F9F73928F90E0089561
:103300008FEF9FEF0895FC01538D448D252F30E002
:10331000842F90E0821B930B541710F0CF960895E2
:1033200001970895FC01848DDF01A80FB11DA35AF8
:10333000BF4F2C91848D90E001968F739927848FD5
:10334000A689B7892C93A089B1898C9183708064F8
:103350008C93938D848D981306C00288F389E02D99
:1033600080818F7D80830895EF92FF920F931F934A
:10337000CF93DF93EC0181E0888F9B8D8C8D981328
:1033800005C0E889F989808185FD26C0F62E0B8D60
:1033900010E00F5F1F4F0F731127E02E8C8DE81286
:1033A0000CC00FB607FCFACFE889F989808185FF48
:1033B000F5CFCE010E949219F1CF8B8DFE01E80F5F
:1033C000F11DE35AFF4FF0829FB7F8940B8FEA8903
:1033D000FB89808180620AC09FB7F894EE89FF89DB
:1033E0006083E889F98980818370806480839FBFCE
:1033F00081E090E0DF91CF911F910F91FF90EF90CE
:103400000895CF93DF93EC01888D8823C9F0EA8972
:10341000FB89808185FD05C0A889B9898C9186FDCD
:103420000FC00FB607FCF5CF808185FFF2CFA889CA
:10343000B9898C9185FFEDCFCE010E949219E7CF1B
:10344000DF91CF910895CF92DF92EF92FF921F9379
:10345000CF93DF93EC016A017B01122FE889F98990
:1034600082E080834115514E61057105B1F060E045
:1034700079E08DE390E0A70196010E94E920DA014E
:10348000C9010197A109B109B695A79597958795A7
:103490009C01211580E13807A8F0E889F98910829C
:1034A00060E874E88EE190E0A70196010E94E920AF
:1034B000DA01C9010197A109B109B695A7959795B8
:1034C00087959C01EC85FD853083EE85FF85208303
:1034D000188EEC89FD891083EA89FB8980818061DF
:1034E0008083EA89FB89808188608083EA89FB89FF
:1034F000808180688083EA89FB8980818F7D8083D9
:10350000DF91CF911F91FF90EF90DF90CF900895C2
:10351000CF93CFB7F8948091F204811127C0E4EEE5
:10352000F0E08491E0EDF0E09491E82FF0E0EE0F10
:10353000FF1FEE5FFE4FA591B491EC91E92321F4BA
:1035400061E08AE00E94B70E61E08AE00E947B0E93
:103550008CB580618CBD8CB580648CBD61E08DE0E4
:103560000E947B0E61E08BE00E947B0E8091F20452
:103570008F5F8093F204CFBFCF910895A0E0B0E0B9
:10358000E4ECFAE10C941D215C016B017A016115F8
:10359000710519F0FB0191838083E114F10429F096
:1035A000C7010297839708F0E5C0E5012196F50170
:1035B0001081812F90E00E94D71B892B11F05E01B2
:1035C000F4CF1D3229F42196F501118101E007C0E5
:1035D0001B3221F4E5012296F501118100E0E1148E
:1035E000F10409F1F0E1EF16F10429F43FC010E312
:1035F000E114F10421F128E0E216F10401F154F4A0
:10360000E2E0EE16F10421F5812C912CA12CB0E41E
:10361000BB2E3EC0FAE0EF16F10439F020E1E216CD
:10362000F104B1F430C0103319F1FAE0EF2EF12CAF
:10363000ACEC8A2E982CA82CACE0BA2E29C078E0ED
:10364000E72EF12C812C912CA12CE0E1BE2E20C084
:1036500060E070E080E090E897010F2C000C440BD4
:10366000550B0E94E92049015A0112C0103359F448
:1036700088818F7D883509F0BACF19812296026042
:1036800080E1E82EF12C812C912CA12C68E0B62E43
:1036900040E060E070E0CB0127010F2C000C6608D1
:1036A0007708FE0150ED352E310E29E0231570F418
:1036B0002FEB210F2A3118F439EC332E06C02FE9F5
:1036C000210F2A3118F529EA322E310E232D30E050
:1036D0002E153F05DCF447FD16C086169706A80692
:1036E000B90670F0A30192010E94D920630D711DEB
:1036F000811D911D61307105810520E8920710F050
:103700004FEF01C041E021961081CBCF202F2170D7
:10371000C114D10471F0442329F02197F601D1831B
:10372000C08307C001FF19C02297F601D183C0836F
:1037300014C047FF12C0222329F060E070E080E04F
:1037400090E804C06FEF7FEF8FEF9FE722E230E059
:1037500030935D0820935C0809C0222381F0909586
:103760008095709561957F4F8F4F9F4F462F372FD4
:10377000282F12C040E030E020E090E00DC097FF1D
:10378000F5CF82E290E090935D0880935C086FEF44
:103790007FEF8FEF9FE7EACF642F732F822FCDB794
:1037A000DEB7E1E10C943921F8940C946221911177
:1037B0000C942620803219F089508550C8F708955E
:1037C000AEE0B0E0E6EEFBE10C942A210D891E8903
:1037D00086E08C831A8309838FEF9FE79E838D8316
:1037E000AE01475E5F4F6F89788DCE0101960E94D2
:1037F000451EEF81F885E00FF11F10822E96E4E060
:103800000C9446215058BB27AA270E941A1C0C94DE
:10381000941D0E94861D38F00E948D1D20F039F401
:103820009F3F19F426F40C94831D0EF4E095E7FBFA
:103830000C947D1DE92F0E94A51D58F3BA1762074D
:1038400073078407950720F079F4A6F50C94C71D3B
:103850000EF4E0950B2EBA2FA02D0B01B9019001AB
:103860000C01CA01A0011124FF27591B99F0593FEF
:1038700050F4503E68F11A16F040A22F232F342F37
:103880004427585FF3CF469537952795A795F04085
:103890005395C9F77EF41F16BA0B620B730B840B9A
:1038A000BAF09150A1F0FF0FBB1F661F771F881F52
:1038B000C2F70EC0BA0F621F731F841F48F48795AA
:1038C00077956795B795F7959E3F08F0B0CF93959C
:1038D000880F08F09927EE0F9795879508950E9415
:1038E000591D08F481E008950E94881C0C94941DD1
:1038F0000E948D1D58F00E94861D40F029F45F3F04
:1039000029F00C947D1D51110C94C81D0C94831D3D
:103910000E94A51D68F39923B1F3552391F3951BDC
:10392000550BBB27AA2762177307840738F09F5FE0
:103930005F4F220F331F441FAA1FA9F335D00E2E4D
:103940003AF0E0E832D091505040E695001CCAF7BA
:103950002BD0FE2F29D0660F771F881FBB1F26177D
:1039600037074807AB07B0E809F0BB0B802DBF0154
:10397000FF2793585F4F3AF09E3F510578F00C9423
:103980007D1D0C94C81D5F3FE4F3983ED4F38695EB
:1039900077956795B795F7959F5FC9F7880F911D44
:1039A0009695879597F90895E1E0660F771F881F30
:1039B000BB1F621773078407BA0720F0621B730BE3
:1039C000840BBA0BEE1F88F7E09508950E94ED1C5A
:1039D0006894B1110C94C81D08950E94AD1D88F023
:1039E0009F5798F0B92F9927B751B0F0E1F0660FC3
:1039F000771F881F991F1AF0BA95C9F714C0B13004
:103A000091F00E94C71DB1E008950C94C71D672F67
:103A1000782F8827B85F39F0B93FCCF38695779532
:103A20006795B395D9F73EF490958095709561951B
:103A30007F4F8F4F9F4F0895E89409C097FB3EF446
:103A400090958095709561957F4F8F4F9F4F9923EB
:103A5000A9F0F92F96E9BB279395F6958795779569
:103A60006795B795F111F8CFFAF4BB0F11F460FF29
:103A70001BC06F5F7F4F8F4F9F4F16C0882311F081
:103A800096E911C0772321F09EE8872F762F05C095
:103A9000662371F096E8862F70E060E02AF09A9530
:103AA000660F771F881FDAF7880F9695879597F925
:103AB0000895990F0008550FAA0BE0E8FEEF1616BF
:103AC0001706E807F907C0F012161306E407F50712
:103AD00098F0621B730B840B950B39F40A2661F086
:103AE000232B242B252B21F408950A2609F4A14029
:103AF000A6958FEF811D811D089597F99F6780E836
:103B000070E060E008959FEF80EC089500240A942F
:103B10001616170618060906089500240A941216A8
:103B20001306140605060895092E0394000C11F4DB
:103B3000882352F0BB0F40F4BF2B11F460FF04C088
:103B40006F5F7F4F8F4F9F4F089557FD9058440FE1
:103B5000551F59F05F3F71F04795880F97FB991FEC
:103B600061F09F3F79F087950895121613061406A9
:103B7000551FF2CF4695F1DF08C016161706180636
:103B8000991FF1CF86957105610508940895E89411
:103B9000BB2766277727CB0197F908950E94591D07
:103BA00008F48FEF08950E94E61D0C94941D0E9466
:103BB000861D38F00E948D1D20F0952311F00C9485
:103BC0007D1D0C94831D11240C94C81D0E94A51DFD
:103BD00070F3959FC1F3950F50E0551F629FF00160
:103BE000729FBB27F00DB11D639FAA27F00DB11D79
:103BF000AA1F649F6627B00DA11D661F829F222702
:103C0000B00DA11D621F739FB00DA11D621F839F88
:103C1000A00D611D221F749F3327A00D611D231F5E
:103C2000849F600D211D822F762F6A2F11249F57AC
:103C300050409AF0F1F088234AF0EE0FFF1FBB1FAF
:103C4000661F771F881F91505040A9F79E3F51056E
:103C500080F00C947D1D0C94C81D5F3FE4F3983EEA
:103C6000D4F3869577956795B795F795E7959F5F18
:103C7000C1F7FE2B880F911D9695879597F90895AA
:103C80000E94591D880B990B0895ABE0B0E0EBE45E
:103C9000FEE10C941C216C017B018A01FC0117825E
:103CA0001682838181FFCCC1CE0101963C01F601D1
:103CB0009381F70193FD859193FF81917F01882383
:103CC00009F4BAC1853239F493FD859193FF81914E
:103CD0007F01853229F4B60190E00E943F20E7CFB2
:103CE000912C212C312CFFE1F315D8F08B3279F097
:103CF00038F4803279F08332A1F4232D20611DC085
:103D00008D3261F0803369F4232D216016C0832D3C
:103D10008260382EE32DE4603E2E2AC0F32DF86039
:103D20001DC037FC2DC020ED280F2A3040F08E3208
:103D3000B9F436FC81C1232D2064322E19C036FE21
:103D400006C08AE0989E200D1124922E11C0EAE050
:103D50002E9E200D1124222EF32DF0623F2E08C03E
:103D60008C3621F4832D8068382E02C0883641F4C9
:103D7000F70193FD859193FF81917F018111B3CF6D
:103D8000982F9F7D9554933028F40C5F1F4F9FE32D
:103D900099830DC0833631F0833771F0833509F094
:103DA00059C021C0F801808189830E5F1F4F88248C
:103DB0008394912C530113C02801F2E04F0E511C43
:103DC000F801A080B18036FE03C0692D70E002C00A
:103DD0006FEF7FEFC5010E9434204C018201F32D6B
:103DE000FF773F2E16C0280122E0420E511CF80139
:103DF000A080B18036FE03C0692D70E002C06FEF75
:103E00007FEFC5010E9429204C01F32DF0683F2E61
:103E1000820133FC1BC0822D90E088169906B0F415
:103E2000B60180E290E00E943F202A94F4CFF50191
:103E300037FC859137FE81915F01B60190E00E94C9
:103E40003F2021102A9421E0821A910881149104C4
:103E500071F7E8C0843611F0893641F5F80137FE74
:103E600007C060817181828193810C5F1F4F08C000
:103E700060817181072E000C880B990B0E5F1F4F1C
:103E8000F32DFF763F2E97FF09C090958095709592
:103E900061957F4F8F4F9F4FF0683F2E2AE030E0B3
:103EA000A3010E947B20882E861845C0853731F4F7
:103EB000232D2F7EB22E2AE030E025C0932D997F4E
:103EC000B92E8F36C1F018F4883579F0B5C0803737
:103ED00019F0883721F0B0C0E92FE061BE2EB4FEA2
:103EE0000DC0FB2DF460BF2E09C034FE0AC0292F7F
:103EF0002660B22E06C028E030E005C020E130E0A8
:103F000002C020E132E0F801B7FE07C06081718194
:103F1000828193810C5F1F4F06C06081718180E0B8
:103F200090E00E5F1F4FA3010E947B20882E861811
:103F3000FB2DFF773F2E36FE0DC0232D2E7FA22EA8
:103F4000891458F434FE0BC032FC09C0832D8E7ED8
:103F5000A82E05C0B82CA32C03C0B82C01C0B92CC6
:103F6000A4FE0FC0FE01E80DF11D8081803321F415
:103F70009A2D997EA92E09C0A2FE06C0B394B394CF
:103F800004C08A2D867809F0B394A3FC11C0A0FE6A
:103F900006C0B21488F4280C922C9B180EC0B214E0
:103FA00060F4B60180E290E00E943F20B394F7CF26
:103FB000B21418F42B1802C0982C212CA4FE10C0A7
:103FC000B60180E390E00E943F20A2FE17C0A1FC52
:103FD00003C088E790E002C088E590E0B6010CC01D
:103FE0008A2D867859F0A1FE02C08BE201C080E2E2
:103FF000A7FC8DE2B60190E00E943F20891438F4BE
:10400000B60180E390E00E943F209A94F7CF8A9413
:10401000F301E80DF11D8081B60190E00E943F2080
:104020008110F5CF222009F442CEB60180E290E063
:104030000E943F202A94F6CFF6018681978102C024
:104040008FEF9FEF2B96E2E10C9438219927882778
:104050000895FC010590615070400110D8F78095DB
:1040600090958E0F9F1F0895FC0161507040019044
:104070000110D8F7809590958E0F9F1F08950F938C
:104080001F93CF93DF93FB01238121FD03C08FEFAB
:104090009FEF2CC022FF16C04681578124813581B5
:1040A0004217530744F4A081B1819D012F5F3F4F18
:1040B000318320838C93268137812F5F3F4F378355
:1040C000268314C08B01EC01FB010084F185E02DF7
:1040D0000995892BE1F6D80116968D919C91179739
:1040E000019617969C938E931697CE01DF91CF91F0
:1040F0001F910F910895FA01AA27283051F120311C
:1041000081F1E8946F936E7F6E5F7F4F8F4F9F4F6B
:10411000AF4FB1E03ED0B4E03CD0670F781F891FAD
:104120009A1FA11D680F791F8A1F911DA11D6A0F7B
:10413000711D811D911DA11D20D009F468943F912E
:104140002AE0269F11243019305D3193DEF6CF012D
:104150000895462F4770405D4193B3E00FD0C9F7F3
:10416000F6CF462F4F70405D4A3318F0495D31FD60
:104170004052419302D0A9F7EACFB4E0A6959795B3
:10418000879577956795BA95C9F700976105710589
:1041900008959B01AC010A2E0694579547953795D3
:1041A0002795BA95C9F7620F731F841F951FA01D2D
:1041B0000895DB018F939F930E941121BF91AF91CE
:1041C000A29F800D911DA39F900DB29F900D112471
:1041D0000895A1E21A2EAA1BBB1BFD010DC0AA1F48
:1041E000BB1FEE1FFF1FA217B307E407F50720F060
:1041F000A21BB30BE40BF50B661F771F881F991FDB
:104200001A9469F760957095809590959B01AC0123
:10421000BD01CF010895EE0FFF1F0590F491E02D31
:1042200009940E945321A59F900DB49F900DA49FC7
:10423000800D911D112408952F923F924F925F920D
:104240006F927F928F929F92AF92BF92CF92DF92A6
:10425000EF92FF920F931F93CF93DF93CDB7DEB70B
:10426000CA1BDB0B0FB6F894DEBF0FBECDBF09949F
:104270002A88398848885F846E847D848C849B84F6
:10428000AA84B984C884DF80EE80FD800C811B8104
:10429000AA81B981CE0FD11D0FB6F894DEBF0FBE33
:1042A000CDBFED010895A29FB001B39FC001A39FB0
:1042B000700D811D1124911DB29F700D811D11245F
:0842C000911D0895F894FFCF51
:1042C80000000000000000000000000000000000E6
:1042D80000000000000000000000000000000000D6
:1042E80000000000000000000000000000000000C6
:1042F80000000000000000000000000000000000B6
:1043080000000000000000000000000000000000A5
:104318000000000000000000000000000000000095
:104328000000000000000000FFFFFFFFFFFFFFFF8D
:10433800FFFFFFFFFFFFFFFFFF00007041010000CC
:1043480040400000680300004304FFFFFFFFFFFF39
:10435800FFFF0000F80200000000A00F0000A00FFF
:1043680000000201030000000028000000A00F0068
:1043780000020A03000000000A000000E803000031
:10438800021303000000001E000000881300000252
:104398000000000500000000040000000003000009
:1043A8000000020001000000FFFF00000100000003
:1043B8000000000000000000000000000600FF00F0
:1043C800000100FF00006B106B10304050FF524599
:1043D8004345424555204D53472049434D5F45438A
:1043E8005500454E56494F5520454E41424C45448F
:1043F800002530345800454E56494F552041434515
:104408004C455241C387C3834F00456E7669616E40
:10441800646F202D2D2D2D204143435F656E616211
:104428006C65643A20003B20004163656C657261ED
:10443800C3A7C3A36F3A20003B0043686567616E5A
:10444800646F2049434D202D2D2D2D204143435F7E
:10445800696E7075743A20005365745F7370656592
:10446800643A200043686567616E646F2053696D24
:10447800755F61726475696E6F202D2D2D2D204535
:10448800676F5F73706565643A200052656C61748C
:104498006976655F64697374616E63653A2000527A
:1044A800656C61746976655F73706565643A200050
:1044B800C101B201A3019401E4015D09FE02D9061C
:1044C80001E4015D090703D90603E4015D0910034E
:1044D800D90600E4015D091903D90602DF01DA01F2
:1044E800D501D00143045A034C033E03300368034B
:1044F800F4058A068000750D000003050100F60525
:10450800F4040001050C0000020401005A075C07CE
:104518000001970B000001030100F805FA0580006F
:10452800DA0A00000002010088060A0750000F108E
:104538000000040001000102FC010001010101006A
:1045480000000000EF07BD07C6079F0733053C07BB
:10455800200565074108E206EA06FA08310833092A
:104568005A086609A5089D09DD06EF097D08520A63
:10457800930AC4080D0A006E616E00696E66006FCA
:1045880076660000000000B419B4168319011A55A4
:06459800196F1961190002
:00000001FF
