:100000000C94EE000C94F3100C941A110C9416013D
:100010000C9416010C9416010C9416010C94160104
:100020000C9416010C9416010C9416010C941601F4
:100030000C9416010C9416010C9416010C941601E4
:100040000C94960F0C9416010C9469190C949B193E
:100050000C9416010C9416010C9416010C941601C4
:100060000C9416010C941601971317131B131F13EE
:10007000231327132A132D133113341338133B136F
:100080003F1342139B1351135513B51359137A138E
:100090005D138213851360138C13641367136A1343
:1000A0009F137A137E138213851388138C13901376
:1000B0009413000000080002010000030407000080
:1000C000000000000000010204081020408001022E
:1000D000040810200102040810200404040404048D
:1000E00004040202020202020303030303030000EA
:1000F0000000230026002900000000002500280041
:100100002B0000000000240027002A0052657475AF
:10011000726E696E6720746F2050726576696F75B4
:1001200073204D6F6465204661696C7572652E2E73
:100130002E006053657474696E67204944204D6FCA
:100140006465204661696C7572652E2E2E005365BC
:100150007474696E672042617564726174652053BE
:1001600075636365737366756C2100536574746998
:100170006E67204261756472617465204661696CC6
:100180007572652E2E2E00456E746572696E67203D
:10019000436F6E66696775726174696F6E204D6F2B
:1001A0006465205375636365737366756C210045E0
:1001B0006E746572696E6720436F6E6669677572EB
:1001C0006174696F6E204D6F6465204661696C755E
:1001D00072652E2E2E00CF0EED10C11911241FBEF8
:1001E000CFEFD8E0DEBFCDBF13E0A0E0B1E0EAEF93
:1001F000F3E402C005900D92A43EB107D9F728E0C0
:10020000A4EEB3E001C01D92A13FB207E1F710E0F8
:10021000CEEED0E004C02197FE010E94A421CB3E87
:10022000D107C9F70E94DE100C946D1C0C940000DD
:10023000E2E10E94BD010895E9E00E94BD01089538
:10024000EAE00E94BD010895E1E00E94BD01089529
:10025000E3E00E94BD010895E7E00E94BD0108951A
:10026000E5E00E94BD010895E0E00E94BD0108950F
:10027000E2E00E94BD010895E4E00E94BD010895FE
:10028000ECE00E94BD010895E8E00E94BD010895E0
:10029000EEE00E94BD010895E4E10E94BD010895D1
:1002A000E0E10E94BD010895E7E10E94BD010895CB
:1002B000E6E00E94BD010895EBE00E94BD010895B3
:1002C000EDE00E94BD010895EFE00E94BD01089598
:1002D000E1E10E94BD010895E3E10E94BD0108959E
:1002E000E5E10E94BD010895E6E10E94BD01089587
:1002F00021968A929A92AA92BA92CA92DA92EA9233
:10030000FA920A931A932197E0918101F091820168
:100310000080F181E02DC083D1830895C0918301D5
:10032000D0918401E881F981C081D1812196199110
:100330000991F990E990D990C990B990A9909990B4
:100340008990219708952F903F90E7E6F1E0CDB78F
:10035000DEB7EDBFFEBF3F922F9208952F903F90E2
:10036000CDBFDEBF3F922F920895E0E80E94BD010D
:100370000895E0E40E94BD0108952F923F924F92AC
:100380005F926F927F922FB62F92CF93DF937E2E44
:10039000F894E0910001EF5FE0930001E13011F487
:1003A0000E94A301E0E0E0939101E72DE07849F09D
:1003B0000E941B06F0919201F17071F00E94CE0430
:1003C0000BC0E72DEC3140F4EE0FF0E0ED56FC4FA2
:1003D0000190F081E02D0995F0919101EF2FE170EE
:1003E00059F0F27011F00E9478018F938F2F0E94C4
:1003F00016048F910E948E012091000121502093BC
:100400000001222311F40E94AE01DF91CF912F90C1
:100410002FBE7F906F905F904F903F902F900895E8
:10042000CF92DF92EF92FF920F931F93DC01EC913A
:10043000DB012C918E2F8370C82ED12CE12CF12C56
:100440008E2F8F7190E0A0E0B0E032E0B695A795D6
:10045000979587953A95D1F7DC01A55BBB4F8C91B9
:10046000C81AD108E108F108EC71422F437050E03E
:1004700060E070E0822F8F7190E0A0E0B0E0F2E0E9
:10048000B695A79597958795FA95D1F7DC01A55B69
:10049000BB4F8C91481B510961097109822F8C71E6
:1004A0009701860103701127222733270E2B4370F3
:1004B000552766277727482B81E090E0041715071A
:1004C0002607370710F080E090E01F910F91FF9012
:1004D000EF90DF90CF9008958F929F92AF92BF924E
:1004E000EF92FF920F931F93CF93DF937C014A010A
:1004F0005B01B694A79497948794423051056105A7
:100500007105E0F0440F551F8701040F151FE4012A
:10051000CC0FDD1FCE0DDF1DB801CE010E941002F1
:10052000892B61F0F80190818181288139813183A3
:10053000208398838983B501A401DBCFDF91CF911C
:100540001F910F91FF90EF90BF90AF909F908F9071
:1005500008954F925F926F927F928F929F92AF9287
:10056000BF92CF92DF92EF92FF920F931F93CF93A0
:10057000DF9300D000D000D0CDB7DEB78C016A0188
:100580007B01DC018C91282F30E040E050E0298392
:100590003A834B835C8346015701880C991CAA1C43
:1005A000BB1C29813A814B815C81281539054A059C
:1005B0005B0508F442C0240135013FEF431A530A9A
:1005C000630A730A89819A81AB81BC818415950580
:1005D000A605B70580F0B201660F771F600F711F87
:1005E000C401880F991F800F911F0E941002892B50
:1005F00011F0530142013401660C771C600E711E2C
:10060000CC0CDD1CD801AC0DBD1DBE83AD83B30188
:10061000CD010E941002892B81F0ED81FE81908135
:100620008181D3012D913C911197318320839C933B
:1006300011968C9375016401AECF26960FB6F8948F
:10064000DEBF0FBECDBFDF91CF911F910F91FF9005
:10065000EF90DF90CF90BF90AF909F908F907F9062
:100660006F905F904F900895EBE8F6E040814F5F08
:10067000408350E060E070E0E82FEE0FFF0BED5D8F
:10068000FC4F0190F081E02D238530E0F901E55B1E
:10069000FB4F908191509083FA01EE0FFF1FE557B9
:1006A000F94F220F331F220F331F9370292B208302
:1006B00081838BE896E00C946C02EBE8F6E04081D5
:1006C0004F5F408350E060E070E0E82FEE0FFF0BDB
:1006D000E95EFC4F0190F081E02D9381FA01EE0F6D
:1006E000FF1FE557F94F908381838BE896E00C94C8
:1006F0006C02CF93DF93EBE8F6E080819FEF980FD9
:100700009083D281C38190E0880F991FDC01A557A7
:10071000B94F8D919C919383828341E050E060E0DA
:1007200070E0CF010E94A9028D2F9C2FDF91CF9105
:1007300008958091890190918A01A0918B01B091D7
:100740008C018F3F2FEF9207A207B20731F0059778
:10075000A105B10524F481E0089580E0089582E0C8
:100760000895880F990BFC01ED5DFC4F0190F0811D
:10077000E02D0084F185E02D3097F9F022812111E0
:100780001CC021E02283DC01A95EBC4F0D90BC910E
:10079000A02D13968C9113978183808190E0FC01AA
:1007A000E55BFB4F208121502083880F991F880F24
:1007B000991F2370822B13968C930895880F990BA1
:1007C000FC01ED5DFC4F0190F081E02D0084F1858E
:1007D000E02D309761F02281213049F4128221818D
:1007E000FC01E95EFC4F0190F081E02D2383089528
:1007F00080918D0190918E01A0918F01B091900117
:100800004091890150918A0160918B0170918C0116
:10081000481759076A077B0741F0E0918701F0917B
:10082000880121E024830C945D030895CF93DF9326
:10083000882391F0C0918101D0918201E0918501DE
:10084000F09186018481833049F081E08483809136
:1008500089010E945D0302C0C0E0D0E0E091870101
:10086000F0918801F0938601E093850180918301E6
:1008700090918401909382018093810180918D01F8
:1008800030918E0120918F01909190018093890188
:1008900030938A0120938B0190938C0192E0948392
:1008A0000E94B103CE01DF91CF910895809189011B
:1008B0000E94DE03E0918501F09186018281882308
:1008C00019F085E08483089514820895CF93DF930F
:1008D000282F220F330BF901E95EFC4FC081D18133
:1008E0009A81F901ED5DFC4F0190F081E02D2485A6
:1008F000921770F4911105C095E09C8391E090935C
:1009000092010E9434038A818F5F8A8380E001C054
:1009100084E0DF91CF910895E82FEE0FFF0BE95EA1
:10092000FC4F0190F081E02D118210820C94981000
:100930001F93CF93DF930E947903182F892F492F9C
:10094000092E000C550B660B770B40938D015093CD
:100950008E0160938F0170939001292F220F330B2A
:10096000F901E95EFC4FC081D181D0938801C09329
:100970008701F901ED5DFC4F2081318130938401C5
:10098000209383019C81953019F40E948C041B8371
:1009900010929201DF91CF911F910895E0918D0106
:1009A000F0918E01EE0FFF1FE95EFC4F0190F08188
:1009B000E02D90918D068381891730F40E94F80311
:1009C0000E94980483E001C080E080939101089523
:1009D00081E0809391010C949804EF92FF920F9321
:1009E0001F93CF93DF93C1E001C0CC0F8A95EAF744
:1009F00085E00E9466040DE813E0D0E0F8018191E3
:100A00008F018C2319F08D2F0E946604DF5FD53093
:100A1000A9F708E813E080EEE82E82E0F82ED1E096
:100A2000F80181918F018C2339F0F7018081918148
:100A3000FC01D6870E945405F2E0EF0EF11C83E022
:100A40000D38180769F7DF91CF911F910F91FF9033
:100A5000EF9008950E94020781110E942307E09100
:100A60008501F091860180819181892B21F080910F
:100A700089010E94EA080C944B080E940207811128
:100A80000E942307E0918501F09186018081918188
:100A9000892B21F0809189010E94EA080C94330887
:100AA00081E08093E4030895AF92BF92CF92DF92EA
:100AB000EF92FF920F931F93CF93DF93FC01A081DE
:100AC000B181AD90BC90E501AC89BD89109739F03A
:100AD000428553856485758530E020E017C0D501D7
:100AE00055969C938E93549757969C938E935697B6
:100AF00015821482138212825BC012968D919C9192
:100B000013973A2F2B2F009779F0DC011A96CD908E
:100B1000DD90ED90FC901D974C155D056E057F05F1
:100B200060F7CD01A32FB22F93838283B583A48373
:100B3000009719F0EC01FD83EC83109729F01396D0
:100B4000FC93EE93129705C0D5015596FC93EE9356
:100B50005497E501AE89BF891A968D919D910D90AC
:100B6000BC91A02D088919892A893B898017910792
:100B7000A207B30780F4041715072607370728F0E4
:100B8000481759076A077B0798F4D5015796FC93D5
:100B9000EE9356970DC0041715072607370740F444
:100BA000481759076A077B0718F4E501FF8BEE8B9E
:100BB000DF91CF911F910F91FF90EF90DF90CF9039
:100BC000BF90AF900895CF93DF93DC01ED91FC913E
:100BD00011970190F081E02D848995891296CD912D
:100BE000DC911397A817B90711F4D58BC48B8689AC
:100BF0009789A817B90711F4D78BC68B209731F0C6
:100C000014968D919C9115979D838C8314960D90CD
:100C1000BC91A02D109721F01396DC93CE931297E0
:100C200086899789892B21F484899589978B868B6E
:100C3000DF91CF910895EF92FF920F931F93CF937F
:100C4000DF93FC018091E403882309F4B5C0848517
:100C50009585A685B7850196A11DB11D84879587C9
:100C6000A687B78740815181628173818417950778
:100C7000A607B70709F0A0C0408951896289738926
:100C80004F5F5F4F6F4F7F4F84819581A681B78102
:100C900084179507A607B70718F440E050E0BA019B
:100CA000408B518B628B738B148615861686178644
:100CB000C689D789209709F47FC08A859B85AC8532
:100CC000BD85481759076A077B0709F075C0CE0133
:100CD000DC011296ED90FC901397E114F10471F091
:100CE000D7011A960D911D912D913C911D9740179A
:100CF00051076207730711F4C701EACF2C813D81C8
:100D00002115310529F0D9011396FC92EE92129724
:100D1000E114F10429F0D70115963C932E93149712
:100D200024893589C217D30711F4F58AE48AE114BE
:100D3000F10419F0F78AE68A04C024893589378BD3
:100D4000268B8F01FC0113821282EA80FB80E881EE
:100D5000F9810280F381E02DCE0109954E815F81FA
:100D600068857985411551056105710509F18A8507
:100D70009B85AC85BD85840F951FA61FB71FF80105
:100D80004481558166817781481759076A077B0737
:100D900038F4841B950BA60BB70B0197A109B10979
:100DA0008A879B87AC87BD87CE010E94540501C00E
:100DB0001E86E701209749F6DF91CF911F910F9191
:100DC000FF90EF900895FC0182810C9466040E94CC
:100DD0000207809168010895809368010E94ED04E4
:100DE0000E9450050C94E8040C949710CF93C82FE0
:100DF0000E949903811102C00E94D4108C2FCF91C0
:100E00000C941C018091F1038130D9F08091E903A9
:100E10009091EA03A091EB03B091EC03892B8A2B0C
:100E20008B2B79F481E04091ED035091EE036091BA
:100E3000EF037091F003452B462B472B19F480E00C
:100E4000089581E008951092F1031092ED0310923D
:100E5000EE031092EF031092F0031092E903109248
:100E6000EA031092EB031092EC038091E50390915A
:100E7000E603A091E703B091E8038093F203909317
:100E8000F303A093F403B093F50308950E94D710E1
:100E90008091F2039091F303A091F403B091F503D4
:100EA0000196A11DB11D8093F2039093F303A093CB
:100EB000F403B093F5038091ED039091EE03A091BC
:100EC000EF03B091F0030196A11DB11D8093ED03D6
:100ED0009093EE03A093EF03B093F00308958091F5
:100EE000ED039091EE03A091EF03B091F003009712
:100EF000A105B10569F14091F2035091F3036091AE
:100F0000F4037091F503415051096109710940934F
:100F1000F2035093F3036093F4037093F503019786
:100F2000A109B1098093ED039093EE03A093EF0321
:100F3000B093F0038091F2039091F303A091F40336
:100F4000B091F503892B8A2B8B2B11F40C94D510BF
:100F500008958091ED039091EE03A091EF03B0917D
:100F6000F003892B8A2B8B2B89F48091E9039091D4
:100F7000EA03A091EB03B091EC03892B8A2B8B2B16
:100F800029F40E94D71081E08093F10308958091A5
:100F9000F103882321F01092F1030C94D5100895E9
:100FA0000E94DB108091F2039091F303A091F4036F
:100FB000B091F5030196A11DB11D8093F2039093AA
:100FC000F303A093F403B093F5038091E9039091A8
:100FD000EA03A091EB03B091EC030196A11DB11DB2
:100FE0008093E9039093EA03A093EB03B093EC039F
:100FF00008958091E9039091EA03A091EB03B091E9
:10100000EC030097A105B10569F14091F2035091FD
:10101000F3036091F4037091F503415051096109A4
:1010200071094093F2035093F3036093F4037093B8
:10103000F5030197A109B1098093E9039093EA03AD
:10104000A093EB03B093EC038091F2039091F30330
:10105000A091F403B091F503892B8A2B8B2B11F40B
:101060000C94D91008950E940207882311F083E19F
:10107000089580E00895CF93C82F0E9402078C2F17
:101080000E946604C82F8091920181110E94CE04B3
:101090008C2FCF910895CF930E940207882311F0DF
:1010A000C3E101C0C0E0E0918501F0918601828139
:1010B000815082830E94560481E0809391010E94B6
:1010C00098048C2FCF910895CF93C82F0E940207C8
:1010D000E0918501F09186018281815082838C2F7D
:1010E0000E946604C82F811108C00E94560481E046
:1010F000809391010E94980407C0E0918501F091CE
:10110000860182818F5F82838C2FCF910895CF9348
:101110000E940207882311F0C3E101C0C0E0809162
:1011200089010E94DE030E94CE0480918901909182
:101130008A01A0918B01B0918C0140918D01509159
:101140008E0160918F017091900184179507A60719
:10115000B70711F40E94B1038C2FCF910895CF935C
:10116000DF93EC010E940207882311F083E101C0A4
:1011700080E04091890150918A0160918B017091CA
:101180008C01453051056105710514F4488303C095
:10119000909120029883DF91CF9108950F931F9330
:1011A000CF93C82F8B010E940207882311F083E19F
:1011B00001C080E0EC2FEE0FFF0BE95EFC4F0190C9
:1011C000F081E02D94819370F8019083CF911F916D
:1011D0000F910895880F990BFC01E95EFC4FA081E7
:1011E000B181ED91FC911197309769F01D921C929D
:1011F0002091200293818481228314821382E92F1B
:10120000F82F3097B9F70895CF93C82F0E9402079F
:10121000882311F083E101C080E0EC2FF0E0EE0FB5
:10122000FF1FED57FC4FA081B1819091890112966B
:101230009C931297E0918501F09186012081318184
:1012400014963C932E931397B183A08393811196A8
:101250009C9311972C91938196959695921770F483
:1012600030E0D901A55BBB4F9C9191509C93220F1C
:10127000331F220F331F9370292B2383CF9108959F
:10128000CF93DF93C82F0E940207882311F0D3E188
:1012900001C0D0E0EC2FF0E0EE0FFF1FED57FC4F48
:1012A0000190F081E02DA0918501B09186018181AE
:1012B00013968C931397838194818D939C931482BE
:1012C00013828091200282830E94CE048D2FDF91B1
:1012D000CF910895DC01ED91FC9184819581DC0131
:1012E000ED91FC9109941F93CF93DF93182FEB019D
:1012F0000E940207882311F083E101C080E0E12F02
:10130000F0E0EE0FFF1FE052FD4F0190F081E02D65
:101310000190F081E02D0190F081E02D408151811C
:10132000628173814C835D836E837F8344815581A9
:1013300066817781488359836A837B8340855185A1
:1013400062857385488759876A877B87DF91CF914C
:101350001F9108958F929F92AF92BF92CF92DF928A
:10136000EF92FF920F931F93CF93C82F8B010E9490
:101370000207882311F083E101C080E0EC2FF0E048
:10138000EE0FFF1FE052FD4F0190F081E02D96859A
:10139000913029F542855385648575850190F081EA
:1013A000E02D0190F081E02DC088D188E288F3889B
:1013B0004C155D056E057F0540F484809580A68000
:1013C000B780480D591D6A1D7B1D4C195D096E09BA
:1013D0007F09F801408351836283738301C085E0F4
:1013E000CF911F910F91FF90EF90DF90CF90BF9022
:1013F000AF909F908F9008958F929F92AF92BF92DF
:10140000CF92DF92EF92FF920F931F93CF93DF93D0
:10141000D82F4A015B01680179010E9402078823E5
:1014200011F0C3E101C0C0E0ED2FF0E0EE0FFF1FAF
:10143000E052FD4F0190F081E02D8685811130C092
:10144000A081B1810D90BC91A02D50964D915D91E0
:101450006D917C915397480D591D6A1D7B1D149603
:101460008D919D910D90BC91A02D84179507A60795
:10147000B70740F4481B590B6A0B7B0B41505109CD
:10148000610971094287538764877587C682D7824D
:10149000E086F18681E08687CF010E94540501C075
:1014A000C7E08C2FDF91CF911F910F91FF90EF90AC
:1014B000DF90CF90BF90AF909F908F9008958F92C4
:1014C0009F92AF92BF92CF92DF92EF92FF920F93D3
:1014D0001F93CF93DF93C82F4A015B016801790105
:1014E0000E940207882311F0D3E101C0D0E0EC2F65
:1014F000F0E0EE0FFF1FE052FD4F0190F081E02D74
:10150000868581110EC082869386A486B586C682A2
:10151000D782E086F18681E08687CF010E9454055C
:1015200001C0D7E08D2FDF91CF911F910F91FF90D8
:10153000EF90DF90CF90BF90AF909F908F900895E5
:101540000F931F93CF93DF93C82F0E940207882326
:1015500011F0D3E101C0D0E0EC2FF0E0EE0FFF1F5F
:10156000E052FD4F00811181F8018685813031F410
:10157000C8010E94E305F801168601C0D5E08D2F51
:10158000DF91CF911F910F91089526E040E052EC3A
:1015900061E070E081E694E00E94BC1A22E04DE038
:1015A00063E086EF93E00E943016882339F068EC00
:1015B00070E080E090E00E941F10F0CF60E086EFC6
:1015C00093E00E94F51260E082E00C94020FCF934A
:1015D00082E00E946D0F892B09F05EC0C0918703E5
:1015E0008C2F0E945C012FE334E04EE354E067E46B
:1015F00074E086EF93E00E94EF168091470490918B
:101600004804A0914904B0914A0488279470A07FAF
:10161000BC7081159440A04FBC4069F481E090916A
:101620003F04911101C080E080933D048C2F0E9403
:1016300060010E9444018091470490914804A09168
:101640004904B0914A0483709570A07FB8718330CB
:101650009540A04FB84101F560914004709141045C
:10166000762767277627072E000C880B990B0E9498
:10167000B71D20E030E040E85BE30E946C1E609301
:101680002D0470932E0480932F04909330048C2F9C
:101690000E9460010E944401809187030E946001C2
:1016A000CF910C944401CF9382E00E946D0F892B5F
:1016B00009F0BBC0C09187038C2F0E945C012FE30F
:1016C00034E04EE354E067E474E086EF93E00E9478
:1016D000EF168091470490914804A0914904B0917D
:1016E0004A04847B917AA274BC70843B914AA244E0
:1016F000BC4009F040C060914004709141047627DD
:1017000067277627072E000C880B990B0E94B71DC0
:1017100020E030E040E85BE30E946C1E60933904F7
:1017200070933A0480933B0490933C0465EC73E01F
:1017300081E694E00E94BD1761E272E081E694E0E8
:101740000E94BD176FE272E081E694E00E949E174E
:1017500040914704509148046091490470914A04B3
:101760002AE030E081E694E00E942B188C2F0E9442
:1017700060010E9444018091470490914804A09127
:101780004904B0914A0488709078AB71BA7088307F
:101790009048AB41BA40D1F460914004709141044B
:1017A000762767277627072E000C880B990B0E9457
:1017B000B71D60933504709336048093370490937B
:1017C00038048C2F0E9460010E94440180914704DC
:1017D00090914804A0914904B0914A04897490738F
:1017E000AB71BC7089349043AB41BC40F1F4609163
:1017F000400470914104762767277627072E000C56
:10180000880B990B0E94B71D20E030E040E85BE3B5
:101810000E946C1E609331047093320480933304F1
:10182000909334048C2F0E946001809187030E9462
:101830006001CF910C944401EF92FF920F931F939C
:10184000CF93DF93C09187038C2F0E945C01D091CE
:10185000240410913D04D11122C01123A1F18091E3
:10186000250481111CC020E030E040E351E4609188
:10187000390470913A0480913B0490913C040E9499
:10188000671E87FD0CC080912604811108C08091DD
:101890002704811104C081E08093240411C0112326
:1018A00091F0DD2381F08091250481110CC080919D
:1018B0002604811108C080912704811104C081E0B1
:1018C0008093280404C0109228041092240480916C
:1018D000280480936A018C2F0E94600189E6E82E1B
:1018E00081E0F82E08E021E040E051EF6EEF78E172
:1018F00086EF93E00E94B416DF91CF911F910F9174
:10190000FF90EF900C9444014F925F926F927F9200
:101910008F929F92AF92BF92CF92DF92EF92FF92FF
:101920000F931F93CF93DF9300D000D01F92CDB7BA
:10193000DEB720911F0460917D0170917E0180913E
:101940007F0190918001222321F09B01AC010E9434
:101950009C1C609320047093210480932204909334
:101960002304F09087038F2D0E945C01809128044E
:10197000882309F422C18091390490913A04A091FE
:101980003B04B0913C0489839A83AB83BC83209150
:101990002004309121044091220450912304BC0181
:1019A000CD010E946C1E20E030E040E251E40E9434
:1019B0009C1C6093790170937A0180937B019093D2
:1019C0007C012091350430913604409137045091C8
:1019D00038040E949B1C2B013C0160930A04709305
:1019E0000B0480930C0490930D042AE037ED43E23E
:1019F0005DE36091310470913204809133049091E1
:101A000034040E946C1E4B015C012DEC3CEC4CE458
:101A10005EE3C301B2010E946C1E9B01AC01C501D3
:101A2000B4010E949B1CB62EC72ED82EE92E862FFD
:101A30009C2DAD2DBE2D80930E0490930F04A0938A
:101A40001004B093110429813A814B815C8160912B
:101A50002D0470912E0480912F04909130040E94E7
:101A60009B1C20E030E040E05FE30E946C1E8B0195
:101A70008D839983CB01AD81B981809312049093BA
:101A80001304A0931404B093150420E030E0A901DE
:101A9000C301B2010E94671E18162CF48B2D9C2DD9
:101AA000AD2DBE2D35C098014D8159816B2D7C2DFA
:101AB0008D2D9E2D0E94081D87FF04C00B2D1C2D0F
:101AC000DD82E98220E030E040EA50ECB8018D810F
:101AD00099810E94081D87FD12C026EF38E24CEB69
:101AE0005FE3B8018D8199810E94671E18166CF41E
:101AF00006EF18E29CEB9D83AFE3A98306C000E0EC
:101B000010E0B0EABD8380EC8983C801AD81B98162
:101B100080931B0490931C04A0931D04B0931E0497
:101B200020E030E040EA50E460911B0470911C0416
:101B300080911D0490911E040E949B1C2AE037EDA9
:101B400043E25CE30E940D1D0E947F1D7F936F9313
:101B500085E392E09F938F9386E194E09F938F9328
:101B60000E94791C40E150E060E070E086E194E082
:101B70000E94571B7093720140E150E060E070E0FA
:101B800088E194E00E94571B609373018F2D0E949F
:101B9000600181E7E82E81E0F82E08E021E040E1D5
:101BA00052EE6FEE78E186EF93E00E94B4160F904C
:101BB0000F900F900F900F900F900F900F900F902D
:101BC0000F900F90DF91CF911F910F91FF90EF90A9
:101BD000DF90CF90BF90AF909F908F907F906F904D
:101BE0005F904F900C944401CF93C09187038C2F4A
:101BF0000E945C016AE372E081E694E00E949E1715
:101C00006091280470E04AE050E081E694E00E9490
:101C1000851866E572E081E694E00E949E1769E50A
:101C200072E081E694E00E949E17609172017091CB
:101C30007301762767277627072E000C880B990BF0
:101C40000E94B71D6093290470932A0480932B048B
:101C500090932C042AE037ED43E25CE360911B048F
:101C600070911C0480911D0490911E040E946C1EB2
:101C700020E030E040EA50E40E949C1CAB01BC0133
:101C800022E030E081E694E00E94671968E672E0A5
:101C900081E694E00E94BD176AE672E081E694E076
:101CA0000E949E1760913D0470E04AE050E081E69A
:101CB00094E00E94851866E572E081E694E00E9457
:101CC0009E1768E872E081E694E00E949E174091BA
:101CD0002D0450912E0460912F047091300422E065
:101CE00030E081E694E00E94671966E572E081E6E3
:101CF00094E00E94BD1764E972E081E694E00E94DE
:101D00009E174091390450913A0460913B047091C0
:101D10003C0422E030E081E694E00E94671966E529
:101D200072E081E694E00E949E176BEB72E081E620
:101D300094E00E949E1740913504509136046091C2
:101D400037047091380422E030E081E694E00E948C
:101D5000671966E572E081E694E00E949E176FECD9
:101D600072E081E694E00E949E1740913104509108
:101D70003204609133047091340422E030E081E653
:101D800094E00E94671966E572E081E694E00E94A3
:101D9000BD178C2F0E946001CF910C9444016AE022
:101DA00086EF93E00C941D1687EF91E00C94B5013B
:101DB0000895833081F028F4813099F08230A1F0C9
:101DC00008958730A9F08830B9F08430D1F480913B
:101DD00080008F7D03C0809180008F77809380008A
:101DE000089584B58F7702C084B58F7D84BD089532
:101DF0008091B0008F7703C08091B0008F7D809379
:101E0000B0000895CF93DF9390E0FC01EA53FF4FB9
:101E10002491FC01E652FF4F8491882361F190E008
:101E2000880F991FFC01EE5FFE4FC591D491FC0114
:101E3000E850FF4FA591B491611109C09FB7F89484
:101E40008881209582238883EC912E230BC06230F9
:101E500061F49FB7F8948881322F3095832388836B
:101E6000EC912E2B2C939FBF06C08FB7F894E8817E
:101E70002E2B28838FBFDF91CF9108951F93CF938F
:101E8000DF93282F30E0F901EE54FF4F8491F901E0
:101E9000EA53FF4FD491F901E652FF4FC491CC238E
:101EA000C1F0162F81110E94D90EEC2FF0E0EE0F39
:101EB000FF1FE850FF4FA591B4919FB7F8941111FF
:101EC00004C08C91D095D82302C0EC91DE2BDC931A
:101ED0009FBFDF91CF911F910895CF93DF93282F5C
:101EE00030E0F901EE54FF4F8491F901EA53FF4FBE
:101EF000D491F901E652FF4FC491CC2391F08111A6
:101F00000E94D90EEC2FF0E0EE0FFF1FE251FF4FC1
:101F1000A591B491EC91ED2381E090E021F480E073
:101F200002C080E090E0DF91CF9108951F920F9260
:101F30000FB60F9211242F933F934F935F936F939C
:101F40007F938F939F93AF93BF93EF93FF93809172
:101F5000580490915904A0915A04B0915B043091B7
:101F6000570423E0230F2D3720F40196A11DB11D46
:101F700005C026E8230F0296A11DB11D209357042A
:101F80008093580490935904A0935A04B0935B042F
:101F900080915C0490915D04A0915E04B0915F0417
:101FA0000196A11DB11D80935C0490935D04A093E4
:101FB0005E04B0935F040E94D40EFF91EF91BF9135
:101FC000AF919F918F917F916F915F914F913F91D1
:101FD0002F910F900FBE0F901F9018952FB7F89468
:101FE000609158047091590480915A0490915B0457
:101FF0002FBF08953FB7F89480915C0490915D04E1
:10200000A0915E04B0915F0426B5A89B05C02F3F48
:1020100019F00196A11DB11D3FBFBA2FA92F982F0E
:102020008827820F911DA11DB11DBC01CD0142E089
:10203000660F771F881F991F4A95D1F708958F92D1
:102040009F92AF92BF92CF92DF92EF92FF926B017D
:102050007C010E94FA0F4B015C01C114D104E10420
:10206000F10401F10E9495100E94FA0FDC01CB01EE
:1020700088199909AA09BB09883E9340A105B105B1
:1020800060F321E0C21AD108E108F10888EE880E59
:1020900083E0981EA11CB11CC114D104E104F10419
:1020A00019F7DBCFFF90EF90DF90CF90BF90AF900C
:1020B0009F908F90089584B5826084BD84B58160BF
:1020C00084BD85B5826085BD85B5816085BDEEE640
:1020D000F0E0808181608083E1E8F0E0108280811F
:1020E00082608083808181608083E0E8F0E080818D
:1020F00081608083E1EBF0E0808184608083E0EBAD
:10210000F0E0808181608083EAE7F0E08081846094
:1021100080838081826080838081816080838081F0
:10212000806880831092C10008950895FFCFFFCF8B
:10213000CF93DF93880F990BFC01ED5DFC4FC081BD
:10214000D181AC81BD8111978A819B81A80FB91F74
:102150002D85CD010197FD013297223019F42CE332
:1021600031E002C028E531E02C93DC013C939E81F4
:102170008F819083DF018E93CF0107971E928A177C
:102180009B07E1F780E8DF0118978C93CF01449714
:102190001E928A179B07E1F7A881B9817597ED9385
:1021A000FC93DF91CF910895089578940895F89461
:1021B000089578940895F894089508950E945B1006
:1021C0000E94DD100E94D80E0E94C50A8091600412
:1021D0000E94F60680E090E008958091920380933B
:1021E0006004089508951F920F920FB60F92112464
:1021F0002F933F934F935F936F937F938F939F930F
:10220000AF93BF93EF93FF93E0911902F0911A02FD
:102210000995FF91EF91BF91AF919F918F917F9120
:102220006F915F914F913F912F910F900FBE0F9043
:102230001F9018951F920F920FB60F9211242F9393
:102240003F934F935F936F937F938F939F93AF933E
:10225000BF93EF93FF93E0911B02F0911C0209954D
:10226000FF91EF91BF91AF919F918F917F916F916E
:102270005F914F913F912F910F900FBE0F901F9044
:10228000189520910005222399F04FB7F8942091DA
:102290000005213059F42DB32093FE043DB3209165
:1022A000FF04209523232DBB4FBF02C04093FE04A3
:1022B0008CBD9DBD08958EBD00000DB407FEFDCF01
:1022C0008EB5089580910005882361F09FB7F8943A
:1022D000209100058091FE04213019F48DBB9FBF31
:1022E00008958FBF0895CF93DF93EC0180E591E0CF
:1022F0000E94411160E08A890E943E0F80EC0E949A
:102300005B1161E08A890E943E0F0E94621165E0C4
:1023100070E080E090E0DF91CF910C941F101F934C
:10232000CF93DF93EC01162F80E591E00E944111DD
:1023300060E08A890E943E0F83E00E945B11812F3A
:102340000E945B1180E00E945B11182F61E08A8976
:102350000E943E0F0E946211812FDF91CF911F9149
:102360000895DF92EF92FF920F931F93CF93DF9325
:102370008C01C62FD42EE52EF22E80E591E00E942E
:10238000411160E0F80182890E943E0F83E00E94C3
:102390005B118C2F0E945B11CD2DDE2DCE018F0D98
:1023A000911D7C01EC16FD0629F080E00E945B1176
:1023B0008993F8CF61E0F80182890E943E0FDF9196
:1023C000CF911F910F91FF90EF90DF900C946211CD
:1023D0000F931F93CF93DF93EC01062F142F80E50B
:1023E00091E00E94411160E08A890E943E0F82E0E4
:1023F0000E945B11802F0E945B11812F0E945B1154
:1024000061E08A890E943E0FDF91CF911F910F9169
:102410000C946211DF92EF92FF920F931F93CF9370
:10242000DF938C01C62FD42EE52EF22E80E591E0AD
:102430000E94411160E0F80182890E943E0F82E013
:102440000E945B118C2F0E945B11CD2DDE2DCE01E1
:102450008F0D911D7C01EC16FD0621F089910E94E3
:102460005B11F9CF61E0F80182890E943E0FDF9194
:10247000CF911F910F91FF90EF90DF900C9462111C
:10248000FF920F931F93CF93DF93EC01F62E042F4F
:10249000122F80E591E00E94411160E08A890E943C
:1024A0003E0F85E00E945B118F2D0E945B11802FF3
:1024B0000E945B11812F0E945B1161E08A890E945A
:1024C0003E0FDF91CF911F910F91FF900C946211FD
:1024D0001F93CF93DF93EC0180E591E00E944111BF
:1024E00060E08A890E943E0F80EA0E945B1180E0D2
:1024F0000E945B11182F61E08A890E943E0F0E94A2
:102500006211812FDF91CF911F910895EF92FF9279
:102510000F931F93CF93DF93EC01162F0E94EE0FC2
:10252000062FE12EF12C212F40EE6FE0CE010E940C
:1025300040126EE0CE010E948F11807E90E08E15D9
:102540009F0539F00E94EE0F601B693C60F381E04B
:1025500001C080E0DF91CF911F910F91FF90EF902C
:1025600008950F931F93CF93DF93EC01162F6EE026
:102570000E948F11807E803221F5103211F16BE2C2
:10258000CE010E948F11082F007486FD06C020E442
:1025900040E46BE2CE010E94401220E440E46CE291
:1025A000CE010E94401260E6CE010E948612811187
:1025B00016C0011106C020E040E46BE2CE010E948B
:1025C000401220E040E46CE2CE010E944012612FF4
:1025D000CE01DF91CF911F910F910C94861281E073
:1025E000DF91CF911F910F910895FC01638B0C94A3
:1025F000B112CF92DF92EF92FF920F931F93CF937E
:10260000DF93342F3370313009F43FC008F466C0D3
:10261000323009F0AAC0062F10E0F8013197EE30F1
:10262000F10508F0A2C0EC5CFF4F0C94A421C4E8B3
:10263000D6EF23E987C0C4E8D6EF29E883C0C3E812
:10264000D5EE27E87FC0C4E8D6EF25E87BC0C4E814
:10265000D6EF05C0C3E8D5EE02C0C1E8D3ED24E84B
:1026600071C0C4E8D6EF02C0C3E8D5EE21E86AC065
:10267000C4E8D6EF02C0C3E8D5EE20E863C0C1E8E5
:10268000D1ED2AC0C0E8D0EC27C0C62ED12CF6016F
:102690003197EE30F10508F068C0EE5BFF4F0C9407
:1026A000A421C4E8D6EF27E64DC0C4E8D6EF23E561
:1026B00049C0C3E8D5EE2EE445C0C4E8D6EF42C019
:1026C000C3E8D5EE23E43EC0C3E8D5EE27C0C3E897
:1026D000D5EE28C0C1E8DAEC20E034C0062F10E0C7
:1026E000F8013697E930F10508F03FC0E05BFF4F95
:1026F0000C94A421C4E8D6EF29E424C0C7E8DFEF96
:1027000024EC20C0C4E8D6EF05C0C3E8D5EE02C073
:10271000C1E8D3ED24E416C0C4E8D6EF21E412C02A
:10272000C4E8D6EF20E40EC0C2E8D9EDD5CFC4E8A6
:10273000D6EF27EA07C0C7E8DFEF2FE303C0C1E801
:10274000D3ED28E142FDCF778C01422F6AE20E944F
:10275000E8114D2F69E2C8010E94E8114C2F68E290
:10276000C8010E94E81180E001C081E0DF91CF91B3
:102770001F910F91FF90EF90DF90CF9008950F93EE
:102780001F93CF93DF9300D000D0CDB7DEB7413099
:10279000B1F40C831B83890122273327502F5C71EE
:1027A000402F437078E0579F400D112448604A83C2
:1027B00055E0169507955A95E1F709830DC0A801D4
:1027C00023E0569547952A95E1F749830295000F36
:1027D000007E0A831C821B8224E0AE014F5F5F4FA4
:1027E0000E940A120F900F900F900F90DF91CF91DF
:1027F0001F910F9108950F931F93CF93DF9300D0F4
:1028000000D0CDB7DEB7E62FF42FA90166277727D2
:102810000C831B83F13081F4342F3C71242F2370FF
:10282000F8E03F9F200D112428602A8335E056955B
:1028300047953A95E1F70AC0242F2295220F207E72
:102840002A8323E0569547952A95E1F7498324E0AA
:10285000AE014F5F5F4F6E2F0E940A120F900F90D4
:102860000F900F90DF91CF911F910F9108950F93CB
:102870001F93CF93DF93EC0100E010E0980141E05B
:1028800060E20E94FB1300E010E0980141E064E286
:10289000CE010E94FB1300E010E0980141E060E0EF
:1028A000CE010E94FB1300E010E0980140E064E0DC
:1028B000CE010E94FB1300E010E0980141E068E0C7
:1028C000CE010E94FB1300E010E0980140E060E1BF
:1028D000CE010E94FB1300E010E0980141E064E1AA
:1028E000CE010E94FB1300E010E0980140E068E197
:1028F000CE010E94FB1310E340E0612FCE010E9445
:10290000E81160E1610F40E0CE010E94E81160E251
:10291000610F40E0CE010E94E8111F5F1E3361F796
:1029200040E060E6CE010E94E81140E060E7CE01A1
:10293000DF91CF911F910F910C94E811EF92FF92CC
:102940000F931F93CF93DF93EC01062FF42EE22E0B
:102950000E94731180E48B8B60E8CE010E94B1125B
:10296000182F882341F06FEA71E081E694E00E941D
:10297000AB17812F5CC067E871E081E694E00E94AC
:10298000AB174E2D6F2DCE010E94F912882339F01E
:102990006BE671E081E694E00E94AB1747C06EE4FD
:1029A00071E081E694E00E94AB17CE010E943714DB
:1029B00043E06BE2CE010E94E8114CE36CE0CE01F3
:1029C0000E94E81140E06DE0CE010E94E811002372
:1029D00051F0033019F524E644E660E6CE010E948A
:1029E000401220E607C024E044E660E6CE010E94E3
:1029F000401220E040E660E7CE010E9440126B8961
:102A0000CE010E94B112C82F882381F06CE071E0E2
:102A100081E694E00E94AB178C2F09C062E371E05D
:102A200081E694E00E94AB1781E001C080E0DF9175
:102A3000CF911F910F91FF90EF900895EF92FF9229
:102A40000F931F93CF93DF9300D000D0CDB7DEB7A5
:102A50007A018901FA011082F90110821182128231
:102A6000138224E0AE014F5F5F4F0E94B1112A81B3
:102A70003981822F90E065E0959587956A95E1F719
:102A8000F8E03F9F800D911D1124092E000CAA0B28
:102A9000BB0BF80180839183A283B38323FF25C0FE
:102AA00032E0880F991FAA1FBB1F3A95D1F72370F8
:102AB000820F911DA11DB11DBA2FA92F982F882714
:102AC0002B81820F911DA11DB11DBA2FA92F982F07
:102AD00088272C81820F911DA11DB11D80839183B8
:102AE000A283B38381E0F70180830F900F900F9052
:102AF0000F90DF91CF911F910F91FF90EF9008956C
:102B0000FF920F931F93CF93DF93EC01F62EAC014E
:102B10004A5F5F4F65E06F0D2D810E940A128E851E
:102B2000813019F48D8180648D8364E06F0D4D8157
:102B3000CE010E94E81109811A812B813C814881D4
:102B40006F2DCE010E94BF13DF91CF911F910F9186
:102B5000FF9008950F931F93CF93DF93EC01162FEF
:102B60009C012F5F3F4FAC010E941E156FEF610F5C
:102B7000CE010E948F11082F64E0610FCE010E94E8
:102B80008F118D8303FF03C091E09E8701C01E86D5
:102B9000282F2F702D83AE014A5F5F4F65E0610FD4
:102BA000CE01DF91CF911F910F910C94B1118F92B3
:102BB0009F92AF92BF92CF92DF92EF92FF921F93BC
:102BC000CF93DF9300D01F92CDB7DEB74C016B01DE
:102BD00080911D0290911E02A0911F0289839A8309
:102BE000AB83FB011082CE0101967C015E0194E073
:102BF000A90EB11CF70111917F01612FC4010E9440
:102C00008F11982F987083FD04C01F5FF601108309
:102C100004C0EA14FB0471F792E0892F0F900F9023
:102C20000F90DF91CF911F91FF90EF90DF90CF90A9
:102C3000BF90AF909F908F900895CF93DF93EC015A
:102C4000862F6A8B61E00E943E0F61E08A890E94B4
:102C5000020F82E095E0998B888BDF91CF910895E8
:102C6000FF920F931F93CF93DF93EC01162F042F46
:102C7000F22E0E94211B2F2D402F612FCE010E948A
:102C80009E1491E0811101C090E0892FDF91CF91D6
:102C90001F910F91FF900895BF92CF92DF92EF9214
:102CA000FF920F931F93CF93DF931F92CDB7DEB7A1
:102CB0008C010E94FA0F6B017C01BE016F5F7F4F98
:102CC000C8010E94D715B82E0E94FA0FDC01CB0173
:102CD0008C199D09AE09BF0922E0B21206C0843CDE
:102CE0009940A105B10548F331C0843C9940A10544
:102CF000B10560F56981C8010E9480156981615044
:102D000028E048E0C8010E9440120E94FA0F6B01BF
:102D10007C0169816150C8010E948F11B82E0E9408
:102D2000FA0FDC01CB018C199D09AE09BF09B3FE76
:102D300006C0843C9940A105B10558F309C0843C04
:102D40009940A105B10520F480E003C086E001C0F0
:102D500087E00F90DF91CF911F910F91FF90EF903F
:102D6000DF90CF90BF900895EF92FF920F93FC01F8
:102D70004183528363837483168620830583F7011E
:102D8000DC0116969C01225F3F4F41914D93A217A3
:102D9000B307D9F70F91FF90EF900C944C16CF9397
:102DA000DF93EC010E94681280FF07C061E6CE014C
:102DB0000E94AA1520E041E008C081FF0CC061E735
:102DC000CE010E94AA1520E042E06CE2CE010E94F2
:102DD000401280E001C084E0DF91CF910895CF924E
:102DE000DF92EF92FF920F931F93CF93DF93EC014B
:102DF0006B017A0189010E94CF16843099F1888194
:102E0000882349F089819A81AB81BC81B06889832C
:102E10009A83AB83BC838E85882349F089819A810C
:102E2000AB81BC81B06489839A83AB83BC83898185
:102E30009A81AB81BC81F60180839183A283B383A5
:102E40008D81F7018083DE011696F8018D8190E077
:102E50009F01201B310B281739071CF48D9181939A
:102E6000F5CF80E0DF91CF911F910F91FF90EF9010
:102E7000DF90CF900895CF92DF92EF92FF920F9361
:102E80001F93CF93DF936C017A018B01C0E0D0E0F8
:102E9000CE15DF0581F0D8016D918D01D601ED9140
:102EA000FC910190F081E02DC6010995892B11F06C
:102EB0002196EECF7E01C701DF91CF911F910F9137
:102EC000FF90EF90DF90CF9008956115710579F034
:102ED000FB0101900020E9F73197AF01461B570B2A
:102EE000DC01ED91FC910280F381E02D099480E0FA
:102EF00090E00895EF92FF920F931F93CF93DF938B
:102F00008C017B01C0E0D0E0F701EC0FFD1F649164
:102F1000662361F0D801ED91FC910190F081E02DE4
:102F2000C8010995892B11F02196EECFCE01DF91D2
:102F3000CF911F910F91FF90EF9008950C9465171A
:102F4000DC01ED91FC910190F081E02D099463EC9E
:102F500073E00C9465170F931F93CF93DF93EC01ED
:102F60000E947A178C01CE010E94A717800F911F33
:102F7000DF91CF911F910F9108950F931F93CF93DE
:102F8000DF93EC010E9465178C01CE010E94A71708
:102F9000800F911FDF91CF911F910F9108958F9214
:102FA0009F92AF92BF92EF92FF920F931F93CF9396
:102FB000DF93CDB7DEB7A1970FB6F894DEBF0FBE93
:102FC000CDBF7C01FA01CB0119A2223008F42AE01E
:102FD0008E010F5D1F4F822E912CA12CB12CBF01B1
:102FE000A50194010E948221F901CA010150110931
:102FF0006A3014F4605D01C0695CD8016C93232BC6
:10300000242B252B61F7B801C7010E946517A196F3
:103010000FB6F894DEBF0FBECDBFDF91CF911F91E9
:103020000F91FF90EF90BF90AF909F908F90089579
:103030002115310541F4DC01ED91FC910190F08105
:10304000E02D642F09940C94CF179A01AB0160E036
:1030500070E00C9418180F931F93CF93DF93EC013B
:103060000E9418188C01CE010E94A717800F911F93
:10307000DF91CF911F910F910895CF92DF92EF9240
:10308000FF920F931F93CF93DF932115310581F4A6
:10309000DC01ED91FC910190F081E02D642FDF9136
:1030A000CF911F910F91FF90EF90DF90CF900994F7
:1030B0002A30310501F577FF1DC06A017B01EC0163
:1030C0006DE20E94A0178C0144275527BA014C19C4
:1030D0005D096E097F092AE0CE010E94CF17800F9B
:1030E000911FDF91CF911F910F91FF90EF90DF9093
:1030F000CF9008952AE0DF91CF911F910F91FF901B
:10310000EF90DF90CF900C94CF179A01AB01770F1F
:10311000660B770B0C943D187F928F929F92AF9223
:10312000BF92CF92DF92EF92FF920F931F93CF93B4
:10313000DF938C016A017B01722E9A01AB01C701FA
:10314000B6010E94D91E882319F066EC73E027C0EF
:1031500046015701E894B7F82FEF3FEF4FE75FE7DD
:10316000C501B4010E94D91E81110DC02FEF3FEFA0
:103170004FE75FE7C501B4010E94081D18161CF453
:103180006AEC73E00CC02FEF3FEF4FE75FE4C7013D
:10319000B6010E94671E181694F46EEC73E0C80125
:1031A000DF91CF911F910F91FF90EF90DF90CF9023
:1031B000BF90AF909F908F907F900C9465172FEFEA
:1031C0003FEF4FE75FECC701B6010E94081D87FD86
:1031D000E4CF20E030E0A901C701B6010E94081D3C
:1031E00087FF0AC06DE2C8010E94A017EC01F7FA40
:1031F000F094F7F8F09402C0C0E0D0E0B12C60E0A9
:1032000070E080E09FE37B1441F020E030E040E29A
:1032100051E40E940D1DB394F6CFA70196010E94C0
:103220009C1C6B017C010E94861D4B015C012AE005
:10323000AB01BC01C8010E94CF17C80FD91F77206E
:10324000B9F1C501B4010E94B51D9B01AC01C701D4
:10325000B6010E949B1C6B017C016EE2C8010E94BA
:10326000A017C80FD91F20E030E040E251E4C701A9
:10327000B6010E946C1E4B015C010E94861D6B0111
:103280007C014AE050E0C8010E942518C80FD91FF0
:10329000B60180E090E00E94B51D9B01AC01C50124
:1032A000B4010E949B1C6B017C017A947110DBCFEE
:1032B000CE01DF91CF911F910F91FF90EF90DF90A2
:1032C000CF90BF90AF909F908F907F9008950C9477
:1032D0008C181F920F920FB60F9211242F938F9379
:1032E0009F93EF93FF93E0917104F09172048081BA
:1032F000E0917704F091780482FD12C09081809172
:103300007A048F5F8F7320917B04821751F0E091D4
:103310007A04F0E0EF59FB4F958F80937A0401C057
:103320008081FF91EF919F918F912F910F900FBE10
:103330000F901F9018951F920F920FB60F921124A5
:103340002F933F934F935F936F937F938F939F93AD
:10335000AF93BF93EF93FF9381E694E00E942B1A03
:10336000FF91EF91BF91AF919F918F917F916F915D
:103370005F914F913F912F910F900FBE0F901F9033
:103380001895E1E6F4E01382128288EE93E0A0E063
:10339000B0E084839583A683B78386ED93E0918321
:1033A000808385EC90E09587848784EC90E0978714
:1033B000868780EC90E0918B808B81EC90E0938B02
:1033C000828B82EC90E0958B848B86EC90E0978BDF
:1033D000868B118E128E138E148E0895FC01918DA2
:1033E000228D892F90E0805C9F4F821B91098F7303
:1033F00099270895FC01918D828D981731F0828D67
:10340000E80FF11D858D90E008958FEF9FEF0895EF
:10341000FC01918D828D981761F0828DDF01A80FDC
:10342000B11D5D968C91928D9F5F9F73928F90E0FE
:1034300008958FEF9FEF0895FC01538D448D252F44
:1034400030E0842F90E0821B930B541710F0CF963E
:10345000089501970895FC01848DDF01A80FB11D27
:10346000A35ABF4F2C91848D90E001968F739927BA
:10347000848FA689B7892C93A089B1898C91837098
:1034800080648C93938D848D981306C00288F38991
:10349000E02D80818F7D80830895EF92FF920F93BE
:1034A0001F93CF93DF93EC0181E0888F9B8D8C8DF0
:1034B000981305C0E889F989808185FD26C0F62E1C
:1034C0000B8D10E00F5F1F4F0F731127E02E8C8DB7
:1034D000E8120CC00FB607FCFACFE889F9898081A1
:1034E00085FFF5CFCE010E942B1AF1CF8B8DFE0107
:1034F000E80FF11DE35AFF4FF0829FB7F8940B8F4E
:10350000EA89FB89808180620AC09FB7F894EE89BE
:10351000FF896083E889F989808183708064808372
:103520009FBF81E090E0DF91CF911F910F91FF90BD
:10353000EF900895CF93DF93EC01888D8823C9F035
:10354000EA89FB89808185FD05C0A889B9898C91AC
:1035500086FD0FC00FB607FCF5CF808185FFF2CF47
:10356000A889B9898C9185FFEDCFCE010E942B1AD5
:10357000E7CFDF91CF910895CF92DF92EF92FF9244
:103580001F93CF93DF93EC016A017B01122FE8892F
:10359000F98982E080834115514E61057105B1F0D2
:1035A00060E079E08DE390E0A70196010E9482211E
:1035B000DA01C9010197A109B109B695A7959795B7
:1035C00087959C01211580E13807A8F0E889F989E1
:1035D000108260E874E88EE190E0A70196010E94F5
:1035E0008221DA01C9010197A109B109B695A79510
:1035F000979587959C01EC85FD853083EE85FF8549
:103600002083188EEC89FD891083EA89FB898081EB
:1036100080618083EA89FB89808188608083EA8970
:10362000FB89808180688083EA89FB8980818F7D26
:103630008083DF91CF911F91FF90EF90DF90CF902B
:103640000895CF93CFB7F89480910105811127C0D9
:10365000E4EEF0E08491E0EDF0E09491E82FF0E00A
:10366000EE0FFF1FEE5FFE4FA591B491EC91E923A1
:1036700021F461E08AE00E943E0F61E08AE00E944E
:10368000020F8CB580618CBD8CB580648CBD61E00F
:103690008DE00E94020F61E08BE00E94020F80919A
:1036A00001058F5F80930105CFBFCF910895A0E002
:1036B000B0E0EDE5FBE10C94B6215C016B017A0111
:1036C0006115710519F0FB0191838083E114F10408
:1036D00029F0C7010297839708F0E5C0E50121961C
:1036E000F5011081812F90E00E94701C892B11F050
:1036F0005E01F4CF1D3229F42196F501118101E01C
:1037000007C01B3221F4E5012296F501118100E08A
:10371000E114F10409F1F0E1EF16F10429F43FC0DE
:1037200010E3E114F10421F128E0E216F10401F1C3
:1037300054F4E2E0EE16F10421F5812C912CA12C39
:10374000B0E4BB2E3EC0FAE0EF16F10439F020E100
:10375000E216F104B1F430C0103319F1FAE0EF2EA3
:10376000F12CACEC8A2E982CA82CACE0BA2E29C0F7
:1037700078E0E72EF12C812C912CA12CE0E1BE2EDB
:1037800020C060E070E080E090E897010F2C000C12
:10379000440B550B0E94822149015A0112C010337B
:1037A00059F488818F7D883509F0BACF1981229626
:1037B000026080E1E82EF12C812C912CA12C68E094
:1037C000B62E40E060E070E0CB0127010F2C000C2A
:1037D00066087708FE0150ED352E310E29E02315DD
:1037E00070F42FEB210F2A3118F439EC332E06C078
:1037F0002FE9210F2A3118F529EA322E310E232D17
:1038000030E02E153F05DCF447FD16C086169706FE
:10381000A806B90670F0A30192010E947221630DFF
:10382000711D811D911D61307105810520E8920790
:1038300010F04FEF01C041E021961081CBCF202F37
:103840002170C114D10471F0442329F02197F601AD
:10385000D183C08307C001FF19C02297F601D1832D
:10386000C08314C047FF12C0222329F060E070E03B
:1038700080E090E804C06FEF7FEF8FEF9FE722E2D8
:1038800030E03093F0082093EF0809C0222381F044
:1038900090958095709561957F4F8F4F9F4F462FE4
:1038A000372F282F12C040E030E020E090E00DC01C
:1038B00097FFF5CF82E290E09093F0088093EF08B5
:1038C0006FEF7FEF8FEF9FE7EACF642F732F822F89
:1038D000CDB7DEB7E1E10C94D221F8940C94FB2132
:1038E00091110C94BF20803219F089508550C8F78F
:1038F0000895AEE0B0E0EFE7FCE10C94C3210D8940
:103900001E8986E08C831A8309838FEF9FE79E834D
:103910008D83AE01475E5F4F6F89788DCE01019632
:103920000E94DE1EEF81F885E00FF11F10822E96B7
:10393000E4E00C94DF215058BB27AA270E94B31C57
:103940000C942D1E0E941F1E38F00E94261E20F08F
:1039500039F49F3F19F426F40C941C1E0EF4E095E4
:10396000E7FB0C94161EE92F0E943E1E58F3BA176F
:10397000620773078407950720F079F4A6F50C9485
:10398000601E0EF4E0950B2EBA2FA02D0B01B9018D
:1039900090010C01CA01A0011124FF27591B99F0C5
:1039A000593F50F4503E68F11A16F040A22F232FD1
:1039B000342F4427585FF3CF469537952795A79521
:1039C000F0405395C9F77EF41F16BA0B620B730BC8
:1039D000840BBAF09150A1F0FF0FBB1F661F771F39
:1039E000881FC2F70EC0BA0F621F731F841F48F4EE
:1039F000879577956795B795F7959E3F08F0B0CF77
:103A00009395880F08F09927EE0F9795879508955D
:103A10000E94F21D08F481E008950E94211D0C947B
:103A20002D1E0E94261E58F00E941F1E40F029F4F1
:103A30005F3F29F00C94161E51110C94611E0C94DA
:103A40001C1E0E943E1E68F39923B1F3552391F387
:103A5000951B550BBB27AA2762177307840738F0FD
:103A60009F5F5F4F220F331F441FAA1FA9F335D05A
:103A70000E2E3AF0E0E832D091505040E695001C0E
:103A8000CAF72BD0FE2F29D0660F771F881FBB1FC8
:103A9000261737074807AB07B0E809F0BB0B802DA6
:103AA000BF01FF2793585F4F3AF09E3F510578F0D2
:103AB0000C94161E0C94611E5F3FE4F3983ED4F301
:103AC000869577956795B795F7959F5FC9F7880FA6
:103AD000911D9695879597F90895E1E0660F771FF8
:103AE000881FBB1F621773078407BA0720F0621B89
:103AF000730B840BBA0BEE1F88F7E09508950E94B4
:103B0000861D6894B1110C94611E08950E94461E92
:103B100088F09F5798F0B92F9927B751B0F0E1F08E
:103B2000660F771F881F991F1AF0BA95C9F714C03E
:103B3000B13091F00E94601EB1E008950C94601EB7
:103B4000672F782F8827B85F39F0B93FCCF3869577
:103B500077956795B395D9F73EF4909580957095D4
:103B600061957F4F8F4F9F4F0895E89409C097FB51
:103B70003EF490958095709561957F4F8F4F9F4F44
:103B80009923A9F0F92F96E9BB279395F695879588
:103B900077956795B795F111F8CFFAF4BB0F11F44B
:103BA00060FF1BC06F5F7F4F8F4F9F4F16C08823F2
:103BB00011F096E911C0772321F09EE8872F762F28
:103BC00005C0662371F096E8862F70E060E02AF069
:103BD0009A95660F771F881FDAF7880F9695879555
:103BE00097F90895990F0008550FAA0BE0E8FEEF2A
:103BF00016161706E807F907C0F012161306E407B1
:103C0000F50798F0621B730B840B950B39F40A26A9
:103C100061F0232B242B252B21F408950A2609F487
:103C2000A140A6958FEF811D811D089597F99F678B
:103C300080E870E060E008959FEF80EC0895002434
:103C40000A941616170618060906089500240A9401
:103C500012161306140605060895092E0394000C87
:103C600011F4882352F0BB0F40F4BF2B11F460FF16
:103C700004C06F5F7F4F8F4F9F4F089557FD90583F
:103C8000440F551F59F05F3F71F04795880F97FB20
:103C9000991F61F09F3F79F08795089512161306DA
:103CA0001406551FF2CF4695F1DF08C01616170609
:103CB0001806991FF1CF869571056105089408953E
:103CC000E894BB2766277727CB0197F908950E94D0
:103CD000F21D08F48FEF08950E947F1E0C942D1E94
:103CE0000E941F1E38F00E94261E20F0952311F01E
:103CF0000C94161E0C941C1E11240C94611E0E9420
:103D00003E1E70F3959FC1F3950F50E0551F629FC3
:103D1000F001729FBB27F00DB11D639FAA27F00D24
:103D2000B11DAA1F649F6627B00DA11D661F829F4B
:103D30002227B00DA11D621F739FB00DA11D621F30
:103D4000839FA00D611D221F749F3327A00D611D4D
:103D5000231F849F600D211D822F762F6A2F11242F
:103D60009F5750409AF0F1F088234AF0EE0FFF1F62
:103D7000BB1F661F771F881F91505040A9F79E3FB9
:103D8000510580F00C94161E0C94611E5F3FE4F305
:103D9000983ED4F3869577956795B795F795E7950F
:103DA0009F5FC1F7FE2B880F911D9695879597F918
:103DB00008950E94F21D880B990B0895ABE0B0E0C6
:103DC000E4EEFEE10C94B5216C017B018A01FC015B
:103DD00017821682838181FFCCC1CE0101963C01FE
:103DE000F6019381F70193FD859193FF81917F0106
:103DF000882309F4BAC1853239F493FD859193FF84
:103E000081917F01853229F4B60190E00E94D8208B
:103E1000E7CF912C212C312CFFE1F315D8F08B3218
:103E200079F038F4803279F08332A1F4232D2061C7
:103E30001DC08D3261F0803369F4232D216016C0DE
:103E4000832D8260382EE32DE4603E2E2AC0F32DB0
:103E5000F8601DC037FC2DC020ED280F2A3040F03F
:103E60008E32B9F436FC81C1232D2064322E19C064
:103E700036FE06C08AE0989E200D1124922E11C0B5
:103E8000EAE02E9E200D1124222EF32DF0623F2E0B
:103E900008C08C3621F4832D8068382E02C0883605
:103EA00041F4F70193FD859193FF81917F01811189
:103EB000B3CF982F9F7D9554933028F40C5F1F4FFC
:103EC0009FE399830DC0833631F0833771F08335DA
:103ED00009F059C021C0F801808189830E5F1F4F0E
:103EE00088248394912C530113C02801F2E04F0ED3
:103EF000511CF801A080B18036FE03C0692D70E02E
:103F000002C06FEF7FEFC5010E94CD204C018201FE
:103F1000F32DFF773F2E16C0280122E0420E511CE0
:103F2000F801A080B18036FE03C0692D70E002C0A8
:103F30006FEF7FEFC5010E94C2204C01F32DF068A6
:103F40003F2E820133FC1BC0822D90E0881699061B
:103F5000B0F4B60180E290E00E94D8202A94F4CF19
:103F6000F50137FC859137FE81915F01B60190E044
:103F70000E94D82021102A9421E0821A91088114ED
:103F8000910471F7E8C0843611F0893641F5F801E3
:103F900037FE07C060817181828193810C5F1F4F62
:103FA00008C060817181072E000C880B990B0E5F91
:103FB0001F4FF32DFF763F2E97FF09C090958095F8
:103FC000709561957F4F8F4F9F4FF0683F2E2AE08D
:103FD00030E0A3010E941421882E861845C0853741
:103FE00031F4232D2F7EB22E2AE030E025C0932D10
:103FF000997FB92E8F36C1F018F4883579F0B5C0A5
:10400000803719F0883721F0B0C0E92FE061BE2E6B
:10401000B4FE0DC0FB2DF460BF2E09C034FE0AC0F3
:10402000292F2660B22E06C028E030E005C020E12E
:1040300030E002C020E132E0F801B7FE07C0608145
:104040007181828193810C5F1F4F06C060817181F5
:1040500080E090E00E5F1F4FA3010E941421882E84
:104060008618FB2DFF773F2E36FE0DC0232D2E7FA9
:10407000A22E891458F434FE0BC032FC09C0832DE3
:104080008E7EA82E05C0B82CA32C03C0B82C01C06E
:10409000B92CA4FE0FC0FE01E80DF11D8081803314
:1040A00021F49A2D997EA92E09C0A2FE06C0B394D0
:1040B000B39404C08A2D867809F0B394A3FC11C090
:1040C000A0FE06C0B21488F4280C922C9B180EC0D7
:1040D000B21460F4B60180E290E00E94D820B3945C
:1040E000F7CFB21418F42B1802C0982C212CA4FE80
:1040F00010C0B60180E390E00E94D820A2FE17C055
:10410000A1FC03C088E790E002C088E590E0B6011A
:104110000CC08A2D867859F0A1FE02C08BE201C046
:1041200080E2A7FC8DE2B60190E00E94D8208914BD
:1041300038F4B60180E390E00E94D8209A94F7CF3B
:104140008A94F301E80DF11D8081B60190E00E9490
:10415000D8208110F5CF222009F442CEB60180E2AA
:1041600090E00E94D8202A94F6CFF60186819781AC
:1041700002C08FEF9FEF2B96E2E10C94D12199279B
:1041800088270895FC010590615070400110D8F710
:10419000809590958E0F9F1F0895FC01615070408F
:1041A00001900110D8F7809590958E0F9F1F08956C
:1041B0000F931F93CF93DF93FB01238121FD03C056
:1041C0008FEF9FEF2CC022FF16C0468157812481BC
:1041D00035814217530744F4A081B1819D012F5FBF
:1041E0003F4F318320838C93268137812F5F3F4F50
:1041F0003783268314C08B01EC01FB010084F18519
:10420000E02D0995892BE1F6D80116968D919C91A8
:104210001797019617969C938E931697CE01DF9170
:10422000CF911F910F910895FA01AA27283051F1DB
:10423000203181F1E8946F936E7F6E5F7F4F8F4FD7
:104240009F4FAF4FB1E03ED0B4E03CD0670F781F36
:10425000891F9A1FA11D680F791F8A1F911DA11D1B
:104260006A0F711D811D911DA11D20D009F4689454
:104270003F912AE0269F11243019305D3193DEF6FC
:10428000CF010895462F4770405D4193B3E00FD0B2
:10429000C9F7F6CF462F4F70405D4A3318F0495D9D
:1042A00031FD4052419302D0A9F7EACFB4E0A69580
:1042B0009795879577956795BA95C9F700976105A2
:1042C000710508959B01AC010A2E069457954795F8
:1042D00037952795BA95C9F7620F731F841F951FED
:1042E000A01D0895DB018F939F930E94AA21BF9187
:1042F000AF91A29F800D911DA39F900DB29F900D35
:1043000011240895A1E21A2EAA1BBB1BFD010DC0AA
:10431000AA1FBB1FEE1FFF1FA217B307E407F50775
:1043200020F0A21BB30BE40BF50B661F771F881F51
:10433000991F1A9469F760957095809590959B01E7
:10434000AC01BD01CF010895EE0FFF1F0590F49160
:10435000E02D09940E94EC21A59F900DB49F900D33
:10436000A49F800D911D112408952F923F924F928A
:104370005F926F927F928F929F92AF92BF92CF92F5
:10438000DF92EF92FF920F931F93CF93DF93CDB7FE
:10439000DEB7CA1BDB0B0FB6F894DEBF0FBECDBF76
:1043A00009942A88398848885F846E847D848C8447
:1043B0009B84AA84B984C884DF80EE80FD800C8150
:1043C0001B81AA81B981CE0FD11D0FB6F894DEBF33
:1043D0000FBECDBFED010895A29FB001B39FC001F4
:1043E000A39F700D811D1124911DB29F700D811D21
:0A43F0001124911D0895F894FFCFE9
:1043FA0000000000000000000000000000000000B3
:10440A0000000000000000000000000000000000A2
:10441A000000000000000000000000000000000092
:10442A000000000000000000000000000000000082
:10443A000000000000000000000000000000000072
:10444A000000000000000000000000000000000062
:10445A000000000000000000FFFFFFFFFFFFFFFF5A
:10446A00FFFFFFFFFFFFFFFFFF000070410000405A
:10447A00400000750300005204FFFFFFFFFFFFFF2B
:10448A00FF0000EA020000000064000000B80B0010
:10449A000002F302000000001E000000B80B00003A
:1044AA0002FC020000000019000000B80B00000224
:1044BA0005030000000019000000B80B0000020EFE
:1044CA00030000000028000000B80B0000020000F2
:1044DA0000050000000004000000000300000000C6
:1044EA000200000000020001000000FFFF000001BE
:1044FA0000000000000000000000000000000006AC
:10450A0000FF00000100FF0000F210F210304050DE
:10451A00FF5245434542455520737065656400491D
:10452A0044203D20002530345800456E7669616E7E
:10453A00646F202D2D2D2D204143435F656E6162EE
:10454A006C65643A20003B20004163656C657261CA
:10455A00C3A7C3A36F3A20003B0043686567616E37
:10456A00646F2049434D202D2D2D2D204143435F5B
:10457A00696E7075743A20005365745F737065656F
:10458A00643A200043686567616E646F2053696D01
:10459A00755F61726475696E6F202D2D2D2D204512
:1045AA00676F5F73706565643A200052656C617469
:1045BA006976655F64697374616E63653A20005257
:1045CA00656C61746976655F73706565643A20002D
:1045DA00CF01C001B101A2019301F7016A09F002FA
:1045EA00E30603F7016A09F902E30604F7016A0917
:1045FA000203E30600F7016A090B03E30601F70168
:10460A006A091403E30602F201ED01E801E301DE9F
:10461A00015204670359034B033D032F0375030338
:10462A00069D068000F40D0000040501006D076F69
:10463A000700011C0C000003040100050603050025
:10464A0001840C00000203010007060B068000E744
:10465A000A00000102010009066F088000530B00DE
:10466A0000000201009B061D07500096100000057D
:10467A0000010014020F0200010101010100000003
:10468A00000000F907C707D007A9073D0546072A12
:10469A00056F074B08EC06F40604093B0840096459
:1046AA00087309AF08AA09E706FC0987085F0AA088
:1046BA000ACE080D0A006E616E00696E66006F769A
:1046CA006600000000004D1A3B171C1A9A1AEE19D0
:0446DA00081AFA19A7
:00000001FF
