:100000000C94EE000C942A100C9451100C941601D0
:100010000C9416010C9416010C9416010C94160104
:100020000C9416010C9416010C9416010C941601F4
:100030000C9416010C9416010C9416010C941601E4
:100040000C94CD0E0C9416010C948E180C94C018C0
:100050000C9416010C9416010C9416010C941601C4
:100060000C9416010C941601CE124E125212561216
:100070005A125E126112641268126B126F127212BF
:1000800076127912D21288128C12EC129012B112DE
:100090009412B912BC129712C3129B129E12A11293
:1000A000D612B112B512B912BC12BF12C312C712C6
:1000B000CB1200000008000201000003040700004A
:1000C000000000000000010204081020408001022E
:1000D000040810200102040810200404040404048D
:1000E00004040202020202020303030303030000EA
:1000F0000000230026002900000000002500280041
:100100002B0000000000240027002A0052657475AF
:10011000726E696E6720746F2050726576696F75B4
:1001200073204D6F6465204661696C7572652E2E73
:100130002E006053657474696E67204944204D6FCA
:100140006465204661696C7572652E2E2E005365BC
:100150007474696E672042617564726174652053BE
:1001600075636365737366756C2100536574746998
:100170006E67204261756472617465204661696CC6
:100180007572652E2E2E00456E746572696E67203D
:10019000436F6E66696775726174696F6E204D6F2B
:1001A0006465205375636365737366756C210045E0
:1001B0006E746572696E6720436F6E6669677572EB
:1001C0006174696F6E204D6F6465204661696C755E
:1001D00072652E2E2E00060E2410E61811241FBE66
:1001E000CFEFD8E0DEBFCDBF13E0A0E0B1E0E4E4A4
:1001F000F2E402C005900D92A03DB107D9F728E0C6
:10020000A0EDB3E001C01D92A034B207E1F710E009
:10021000CEEED0E004C02197FE010E94C920CB3E63
:10022000D107C9F70E9415100C94921B0C94000082
:10023000E2E10E94BD010895E9E00E94BD01089538
:10024000EAE00E94BD010895E1E00E94BD01089529
:10025000E3E00E94BD010895E7E00E94BD0108951A
:10026000E5E00E94BD010895E0E00E94BD0108950F
:10027000E2E00E94BD010895E4E00E94BD010895FE
:10028000ECE00E94BD010895E8E00E94BD010895E0
:10029000EEE00E94BD010895E4E10E94BD010895D1
:1002A000E0E10E94BD010895E7E10E94BD010895CB
:1002B000E6E00E94BD010895EBE00E94BD010895B3
:1002C000EDE00E94BD010895EFE00E94BD01089598
:1002D000E1E10E94BD010895E3E10E94BD0108959E
:1002E000E5E10E94BD010895E6E10E94BD01089587
:1002F00021968A929A92AA92BA92CA92DA92EA9233
:10030000FA920A931A932197E0917D01F0917E0170
:100310000080F181E02DC083D1830895C0917F01D9
:10032000D0918001E881F981C081D1812196199114
:100330000991F990E990D990C990B990A9909990B4
:100340008990219708952F903F90E7E6F1E0CDB78F
:10035000DEB7EDBFFEBF3F922F9208952F903F90E2
:10036000CDBFDEBF3F922F920895E0E80E94BD010D
:100370000895E0E40E94BD0108952F923F924F92AC
:100380005F926F927F922FB62F92CF93DF937E2E44
:10039000F894E0910001EF5FE0930001E13011F487
:1003A0000E94A301E0E0E0938D01E72DE07849F0A1
:1003B0000E941106F0918E01F17071F00E94C40448
:1003C0000BC0E72DEC3140F4EE0FF0E0E158FC4FAC
:1003D0000190F081E02D0995F0918D01EF2FE170F2
:1003E00059F0F27011F00E9478018F938F2F0E94C4
:1003F0000C048F910E948E012091000121502093C6
:100400000001222311F40E94AE01DF91CF912F90C1
:100410002FBE7F906F905F904F903F902F900895E8
:10042000CF92DF92EF92FF920F931F93DC01EC913A
:10043000DB012C918E2F8170C82ED12CE12CF12C58
:100440008E2F8F7090E0A0E0B0E0B695A7959795BD
:100450008795DC01A25EBB4F8C91C81AD108E108D8
:10046000F108EE70422F417050E060E070E0822FA2
:100470008F7090E0A0E0B0E0B695A795979587952E
:10048000DC01A25EBB4F8C91481B510961097109C7
:10049000822F8E7097018601017011272227332742
:1004A0000E2B4170552766277727482B81E090E077
:1004B000041715072607370710F080E090E01F911A
:1004C0000F91FF90EF90DF90CF9008958F929F92C1
:1004D000AF92BF92EF92FF920F931F93CF93DF9350
:1004E0007C014A015B01B694A794979487944230AB
:1004F000510561057105E0F0440F551F8701040F98
:10050000151FE401CC0FDD1FCE0DDF1DB801CE019C
:100510000E941002892B61F0F8019081818128816D
:1005200039813183208398838983B501A401DBCF8E
:10053000DF91CF911F910F91FF90EF90BF90AF90FF
:100540009F908F9008954F925F926F927F928F92BB
:100550009F92AF92BF92CF92DF92EF92FF920F9352
:100560001F93CF93DF9300D000D000D0CDB7DEB77C
:100570008C016A017B01DC018C91282F30E040E086
:1005800050E029833A834B835C8346015701880CF2
:10059000991CAA1CBB1C29813A814B815C812815BE
:1005A00039054A055B0508F442C0240135013FEFD7
:1005B000431A530A630A730A89819A81AB81BC8109
:1005C00084159505A605B70580F0B201660F771F63
:1005D000600F711FC401880F991F800F911F0E9427
:1005E0001002892B11F0530142013401660C771C73
:1005F000600E711ECC0CDD1CD801AC0DBD1DBE8380
:10060000AD83B301CD010E941002892B81F0ED81F1
:10061000FE8190818181D3012D913C91119731838D
:1006200020839C9311968C9375016401AECF26961E
:100630000FB6F894DEBF0FBECDBFDF91CF911F91F3
:100640000F91FF90EF90DF90CF90BF90AF909F9071
:100650008F907F906F905F904F900895ECE5F6E05B
:1006600040814F5F408350E060E070E0E82FEE0F84
:10067000FF0BEF5DFC4F0190F081E02D238530E012
:10068000F901E25EFB4F908191509083FA01EE0FE9
:10069000FF1FE45AF94F220F331F9170292B20833B
:1006A00081838CE596E00C946602ECE5F6E04081EF
:1006B0004F5F408350E060E070E0E82FEE0FFF0BEB
:1006C000E95EFC4F0190F081E02D9381FA01EE0F7D
:1006D000FF1FE45AF94F908381838CE596E00C94D8
:1006E0006602CF93DF93ECE5F6E080819FEF980FF1
:1006F0009083D281C38190E0880F991FDC01A45AB6
:10070000B94F8D919C919383828341E050E060E0EA
:1007100070E0CF010E94A3028D2F9C2FDF91CF911B
:1007200008958091850190918601A0918701B091F3
:1007300088018F3F2FEF9207A207B20731F004978D
:10074000A105B10524F481E0089580E0089582E0D8
:100750000895880F990BFC01EF5DFC4F0190F0812B
:10076000E02D0084F185E02D3097E9F02281211100
:100770001AC021E02283DC01A95EBC4F0D90BC9120
:10078000A02D13968C9113978183808190E0FC01BA
:10079000E25EFB4F208121502083880F991F21703A
:1007A000822B13968C930895880F990BFC01EF5DB3
:1007B000FC4F0190F081E02D0084F185E02D309711
:1007C00061F02281213049F412822181FC01E95E2D
:1007D000FC4F0190F081E02D2383089580918901E1
:1007E00090918A01A0918B01B0918C01409185017B
:1007F00050918601609187017091880148175907CF
:100800006A077B0741F0E0918301F091840121E0C8
:1008100024830C9455030895CF93DF93882391F09C
:10082000C0917D01D0917E01E0918101F091820122
:100830008481833049F081E08483809185010E9426
:10084000550302C0C0E0D0E0E0918301F091840143
:10085000F0938201E093810180917F01909180016A
:1008600090937E0180937D018091890130918A016E
:1008700020918B0190918C018093850130938601AA
:10088000209387019093880192E094830E94A903AA
:10089000CE01DF91CF910895809185010E94D4030C
:1008A000E0918101F09182018281882319F085E035
:1008B0008483089514820895CF93DF93282F220F05
:1008C000330BF901E95EFC4FC081D1819A81F901B6
:1008D000EF5DFC4F0190F081E02D2485921770F4BC
:1008E000911105C095E09C8391E090938E010E9448
:1008F0002E038A818F5F8A8380E001C084E0DF91CC
:10090000CF910895E82FEE0FFF0BE95EFC4F0190A9
:10091000F081E02D118210820C94CF0F1F93CF93A2
:10092000DF930E947103182F892F492F092E000C85
:10093000550B660B770B4093890150938A016093A6
:100940008B0170938C01292F220F330BF901E95E83
:10095000FC4FC081D181D0938401C0938301F90100
:10096000EF5DFC4F208131813093800120937F0126
:100970009C81953019F40E9482041B8310928E0191
:10098000DF91CF911F910895E0918901F0918A0143
:10099000EE0FFF1FE95EFC4F0190F081E02D90917A
:1009A0005E068381891730F40E94EE030E948E0454
:1009B00083E001C080E080938D01089581E0809301
:1009C0008D010C948E04EF92FF920F931F93CF939F
:1009D000DF93C1E001C0CC0F8A95EAF784E00E9462
:1009E0005C040AE713E0D0E0F80181918F018C23C9
:1009F00019F08D2F0E945C04DF5FD430A9F706E761
:100A000013E08BEEE82E82E0F82ED1E0F801819120
:100A10008F018C2339F0F70180819181FC01D68709
:100A20000E944A05F2E0EF0EF11C83E00A37180736
:100A300069F7DF91CF911F910F91FF90EF9008958B
:100A40000E94F80681110E941907E0918101F0913E
:100A5000820180819181892B21F0809185010E9402
:100A6000E0080C9441080E94F80681110E941907C1
:100A7000E0918101F091820180819181892B21F0A7
:100A8000809185010E94E0080C94290881E0809300
:100A9000D0030895AF92BF92CF92DF92EF92FF9270
:100AA0000F931F93CF93DF93FC01A081B181AD9091
:100AB000BC90E501AC89BD89109739F0428553851A
:100AC0006485758530E020E017C0D50155969C936C
:100AD0008E93549757969C938E93569715821482B3
:100AE000138212825BC012968D919C9113973A2FBC
:100AF0002B2F009779F0DC011A96CD90DD90ED90C8
:100B0000FC901D974C155D056E057F0560F7CD01C6
:100B1000A32FB22F93838283B583A483009719F008
:100B2000EC01FD83EC83109729F01396FC93EE9370
:100B3000129705C0D5015596FC93EE935497E501A5
:100B4000AE89BF891A968D919D910D90BC91A02D73
:100B5000088919892A893B8980179107A207B30759
:100B600080F4041715072607370728F04817590798
:100B70006A077B0798F4D5015796FC93EE93569736
:100B80000DC0041715072607370740F44817590703
:100B90006A077B0718F4E501FF8BEE8BDF91CF919D
:100BA0001F910F91FF90EF90DF90CF90BF90AF908B
:100BB0000895CF93DF93DC01ED91FC9111970190A3
:100BC000F081E02D848995891296CD91DC9113975F
:100BD000A817B90711F4D58BC48B86899789A817F4
:100BE000B90711F4D78BC68B209731F014968D91ED
:100BF0009C9115979D838C8314960D90BC91A02D8C
:100C0000109721F01396DC93CE93129786899789DB
:100C1000892B21F484899589978B868BDF91CF91DD
:100C20000895EF92FF920F931F93CF93DF93FC01F0
:100C30008091D003882309F4B5C084859585A68565
:100C4000B7850196A11DB11D84879587A687B787B3
:100C5000408151816281738184179507A607B70788
:100C600009F0A0C040895189628973894F5F5F4F45
:100C70006F4F7F4F84819581A681B7818417950737
:100C8000A607B70718F440E050E0BA01408B518B3B
:100C9000628B738B1486158616861786C689D7894C
:100CA000209709F47FC08A859B85AC85BD85481750
:100CB00059076A077B0709F075C0CE01DC0112965F
:100CC000ED90FC901397E114F10471F0D7011A969E
:100CD0000D911D912D913C911D9740175107620771
:100CE000730711F4C701EACF2C813D81211531052D
:100CF00029F0D9011396FC92EE921297E114F104B7
:100D000029F0D70115963C932E93149724893589A1
:100D1000C217D30711F4F58AE48AE114F10419F03B
:100D2000F78AE68A04C024893589378B268B8F01A0
:100D3000FC0113821282EA80FB80E881F981028043
:100D4000F381E02DCE0109954E815F81688579851B
:100D5000411551056105710509F18A859B85AC85B1
:100D6000BD85840F951FA61FB71FF80144815581CB
:100D700066817781481759076A077B0738F4841B17
:100D8000950BA60BB70B0197A109B1098A879B8721
:100D9000AC87BD87CE010E944A0501C01E86E701CF
:100DA000209749F6DF91CF911F910F91FF90EF901F
:100DB0000895FC0182810C945C040E94F8068091E5
:100DC00068010895809368010E94E3040E9446052B
:100DD0000C94DE040C94CE0FCF93C82F0E94910385
:100DE000811102C00E940B108C2FCF910C941C011A
:100DF0008091DD038130D9F08091D5039091D603A5
:100E0000A091D703B091D803892B8A2B8B2B79F42F
:100E100081E04091D9035091DA036091DB03709136
:100E2000DC03452B462B472B19F480E0089581E025
:100E300008951092DD031092D9031092DA031092F4
:100E4000DB031092DC031092D5031092D6031092AC
:100E5000D7031092D8038091D1039091D203A0912F
:100E6000D303B091D4038093DE039093DF03A09368
:100E7000E003B093E10308950E940E108091DE0319
:100E80009091DF03A091E003B091E1030196A11DD1
:100E9000B11D8093DE039093DF03A093E003B09332
:100EA000E1038091D9039091DA03A091DB03B09123
:100EB000DC030196A11DB11D8093D9039093DA0341
:100EC000A093DB03B093DC0308958091D903909144
:100ED000DA03A091DB03B091DC030097A105B10513
:100EE00069F14091DE035091DF036091E00370915E
:100EF000E10341505109610971094093DE035093A8
:100F0000DF036093E0037093E1030197A109B10946
:100F10008093D9039093DA03A093DB03B093DC03AF
:100F20008091DE039091DF03A091E003B091E10393
:100F3000892B8A2B8B2B11F40C940C100895809123
:100F4000D9039091DA03A091DB03B091DC03892BE4
:100F50008A2B8B2B89F48091D5039091D603A09195
:100F6000D703B091D803892B8A2B8B2B29F40E94AD
:100F70000E1081E08093DD0308958091DD038823C6
:100F800021F01092DD030C940C1008950E941210B1
:100F90008091DE039091DF03A091E003B091E10323
:100FA0000196A11DB11D8093DE039093DF03A093F2
:100FB000E003B093E1038091D5039091D603A09113
:100FC000D703B091D8030196A11DB11D8093D5031D
:100FD0009093D603A093D703B093D803089580913C
:100FE000D5039091D603A091D703B091D803009771
:100FF000A105B10569F14091DE035091DF036091D5
:10100000E0037091E1034150510961097109409376
:10101000DE035093DF036093E0037093E1030197D5
:10102000A109B1098093D5039093D603A093D70368
:10103000B093D8038091DE039091DF03A091E00389
:10104000B091E103892B8A2B8B2B11F40C94101097
:1010500008950E94F806882311F083E1089580E046
:101060000895CF93C82F0E94F8068C2F0E945C042D
:10107000C82F80918E0181110E94C4048C2FCF91C2
:101080000895CF930E94F806882311F0C3E101C0B0
:10109000C0E0E0918101F0918201828181508283E0
:1010A0000E944C0481E080938D010E948E048C2F5D
:1010B000CF910895CF93C82F0E94F806E091810147
:1010C000F09182018281815082838C2F0E945C0486
:1010D000C82F811108C00E944C0481E080938D01CB
:1010E0000E948E0407C0E0918101F091820182810B
:1010F0008F5F82838C2FCF910895CF930E94F80643
:10110000882311F0C3E101C0C0E0809185010E94F5
:10111000D4030E94C4048091850190918601A0911E
:101120008701B09188014091890150918A016091B5
:101130008B0170918C0184179507A607B70711F4EE
:101140000E94A9038C2FCF910895CF93DF93EC01D8
:101150000E94F806882311F083E101C080E04091ED
:10116000850150918601609187017091880144301A
:1011700051056105710514F4488303C0909108027C
:101180009883DF91CF9108950F931F93CF93C82F2A
:101190008B010E94F806882311F083E101C080E0F2
:1011A000EC2FEE0FFF0BE95EFC4F0190F081E02D7C
:1011B00094819370F8019083CF911F910F910895BE
:1011C000880F990BFC01E95EFC4FA081B181ED9184
:1011D000FC911197309769F01D921C9220910802A2
:1011E00093818481228314821382E92FF82F309710
:1011F000B9F70895CF93C82F0E94F806882311F0FD
:1012000083E101C080E0EC2FF0E0EE0FFF1FEF580C
:10121000FC4FA081B1819091850112969C93129709
:10122000E0918101F09182012081318114963C93FB
:101230002E931397B183A083938111969C9311975A
:101240002C9193819695921760F430E0D901A25EBB
:10125000BB4F9C9191509C93220F331F9170292B6F
:101260002383CF910895CF93DF93C82F0E94F80670
:10127000882311F0D3E101C0D0E0EC2FF0E0EE0FB5
:10128000FF1FEF58FC4F0190F081E02DA0918101EC
:10129000B0918201818113968C93139783819481FD
:1012A0008D939C93148213828091080282830E9402
:1012B000C4048D2FDF91CF910895DC01ED91FC9155
:1012C00084819581DC01ED91FC9109941F93CF936A
:1012D000DF93182FEB010E94F806882311F083E1B9
:1012E00001C080E0E12FF0E0EE0FFF1FE551FD4F60
:1012F0000190F081E02D0190F081E02D0190F081CE
:10130000E02D40815181628173814C835D836E83C6
:101310007F834481558166817781488359836A83BD
:101320007B834085518562857385488759876A87A5
:101330007B87DF91CF911F9108958F929F92AF92FB
:10134000BF92CF92DF92EF92FF920F931F93CF93B2
:10135000C82F8B010E94F806882311F083E101C099
:1013600080E0EC2FF0E0EE0FFF1FE551FD4F019004
:10137000F081E02D9685913029F54285538564856D
:1013800075850190F081E02D0190F081E02DC088FD
:10139000D188E288F3884C155D056E057F0540F421
:1013A00084809580A680B780480D591D6A1D7B1DDD
:1013B0004C195D096E097F09F801408351836283EE
:1013C000738301C085E0CF911F910F91FF90EF9043
:1013D000DF90CF90BF90AF909F908F9008958F92A5
:1013E0009F92AF92BF92CF92DF92EF92FF920F93B4
:1013F0001F93CF93DF93D82F4A015B0168017901D6
:101400000E94F806882311F0C3E101C0C0E0ED2F6F
:10141000F0E0EE0FFF1FE551FD4F0190F081E02D50
:101420008685811130C0A081B1810D90BC91A02D25
:1014300050964D915D916D917C915397480D591D3A
:101440006A1D7B1D14968D919D910D90BC91A02DD0
:1014500084179507A607B70740F4481B590B6A0B7A
:101460007B0B415051096109710942875387648799
:101470007587C682D782E086F18681E08687CF01B4
:101480000E944A0501C0C7E08C2FDF91CF911F91C8
:101490000F91FF90EF90DF90CF90BF90AF909F9013
:1014A0008F9008958F929F92AF92BF92CF92DF92CA
:1014B000EF92FF920F931F93CF93DF93C82F4A01B0
:1014C0005B01680179010E94F806882311F0D3E1DD
:1014D00001C0D0E0EC2FF0E0EE0FFF1FE551FD4F13
:1014E0000190F081E02D868581110EC08286938661
:1014F000A486B586C682D782E086F18681E086879B
:10150000CF010E944A0501C0D7E08D2FDF91CF9116
:101510001F910F91FF90EF90DF90CF90BF90AF9011
:101520009F908F9008950F931F93CF93DF93C82FB1
:101530000E94F806882311F0D3E101C0D0E0EC2F1F
:10154000F0E0EE0FFF1FE551FD4F00811181F80122
:101550008685813031F4C8010E94D905F8011686CC
:1015600001C0D5E08D2FDF91CF911F910F9108958C
:1015700026E040E052EC61E070E084E394E00E94F9
:10158000E11922E04DE063E082EE93E00E946715EE
:10159000882339F068EC70E080E090E00E94560FFC
:1015A000F0CF60E082EE93E00E942C1260E082E0D7
:1015B0000C94390ECF9382E00E94A40E892B09F07F
:1015C000B3C0C09175038C2F0E945C0122E134E00E
:1015D00041E154E06AE174E082EE93E00E94261655
:1015E00080911A0490911B04A0911C04B0911D04D9
:1015F00089749073AB71BC7089349043AB41BC402B
:1016000009F050C060911304709114047627672785
:101610007627072E000C880B990B0E94DC1C20E01B
:1016200030E040E85BE30E94911D60930C047093EE
:101630000D0480930E0490930F0460911504709133
:101640001604762767277627072E000C880B990B40
:101650000E94DC1C609308047093090480930A04C0
:1016600090930B04609117047091180476276727F4
:101670007627072E000C880B990B0E94DC1C20E0BB
:1016800030E040E85BE30E94911D60930404709396
:10169000050480930604909307048C2F0E94600138
:1016A0000E94440180911A0490911B04A0911C0493
:1016B000B0911D0483709570A07FB8718330954000
:1016C000A04FB84171F569E072E084E394E00E94B4
:1016D000F416609113047091140476276727762717
:1016E000072E000C880B990B0E94DC1C20E030E0D8
:1016F00040E85BE30E94911D609300047093010435
:10170000809302049093030481E090911504911159
:1017100001C080E0809310048C2F0E9460010E9421
:1017200044018C2F0E946001CF910C944401EF92F0
:10173000FF920F931F93CF93DF9300917503802F38
:101740000E945C01F090FB03E09010041091FC03F8
:10175000D091FD03C091FE03F1101CC0EE2041F1B9
:10176000111118C020E030E040E351E460910C0416
:1017700070910D0480910E0490910F040E948C1DB5
:1017800087FD08C0D11106C0C11104C081E080935B
:10179000FB030BC0EE2061F0FF2051F0111108C0D7
:1017A000D11106C0C11104C081E08093FF0304C0C1
:1017B0001092FF031092FB038091FF0380936A0154
:1017C00010936B01D0936C01C0936D01802F0E9428
:1017D000600189E6E82E81E0F82E08E021E040E093
:1017E00051EF6EEF78E182EE93E00E94EB156DE130
:1017F00072E084E394E00E94F416DF91CF911F9190
:101800000F91FF90EF900C9444013F924F925F92A2
:101810006F927F928F929F92AF92BF92CF92DF9200
:10182000EF92FF920F931F93CF93DF93CDB7DEB765
:1018300029970FB6F894DEBF0FBECDBF2091F603F7
:101840006091790170917A0180917B0190917C0186
:10185000222321F09B01AC010E94C11B6093F7037E
:101860007093F8038093F9039093FA033090750313
:10187000832D0E945C018091FF03882309F4E5C059
:1018800080900C0490900D04A0900E04B0900F0472
:101890002091F7033091F8034091F9035091FA0336
:1018A000C501B4010E94911D20E030E040E251E406
:1018B0000E94C11B209108043091090440910A0440
:1018C00050910B040E94C01B2B013C012AE037ED14
:1018D00043E25DE360910404709105048091060485
:1018E000909107040E94911D6B017C012DEC3CEC52
:1018F0004CE45EE3C301B2010E94911D9B01AC0167
:10190000C701B6010E94C01B7B018C0180910004BD
:1019100090910104A0910204B09103048E839F83EF
:10192000A887B98720E030E0A901C301B2010E9475
:101930008C1D1816D4F0A50194016E817F818885D5
:1019400099850E94C01B20E030E040E05FE30E94E8
:10195000911D4B015C019B01AC01B701C8010E94C4
:101960002D1C87FD02C07401850120E030E040EAB3
:1019700050ECB701C8010E942D1C87FD0DC026EF59
:1019800038E24CEB5FE3B701C8010E948C1D1816CA
:1019900044F0FE2DEF2D09C0F0E0E0E000EA10EC8D
:1019A00004C0F6EFE8E20CEB1FE32AE037ED43E278
:1019B0005CE36F2F7E2FC8010E94321C20E030E0D4
:1019C00040EA50E40E94C11B0E94A41C7F936F93C5
:1019D0008CE292E09F938F938E010F5F1F4F1F93B6
:1019E0000F930E949E1B40E150E060E070E0C80150
:1019F0000E947C1A7093720140E150E060E070E058
:101A0000CE0103960E947C1A60937301832D0E947D
:101A1000600181E7E82E81E0F82E08E021E040EB4C
:101A200051E060E47DE082EE93E00E94EB150F90C0
:101A30000F900F900F900F900F90811106C061E3EF
:101A400072E084E394E00E94F4160E944401299617
:101A50000FB6F894DEBF0FBECDBFDF91CF911F91BF
:101A60000F91FF90EF90DF90CF90BF90AF909F903D
:101A70008F907F906F905F904F903F900895CF939D
:101A8000C09175038C2F0E945C0165E472E084E3D1
:101A900094E00E94D5166091FF0370E04AE050E0A8
:101AA00084E394E00E94AA1761E672E084E394E084
:101AB0000E94D51664E672E084E394E00E94D51695
:101AC00060917201709173017627672776276550C0
:101AD0007109072E000C880B990B0E94DC1C2AE070
:101AE00037ED43E25CE30E94911DAB01BC0122E0B3
:101AF00030E084E394E00E948C1863E772E084E3B2
:101B000094E00E94F41665E772E084E394E00E949A
:101B1000D5166091100470E04AE050E084E394E050
:101B20000E94AA1761E672E084E394E00E94D51651
:101B300063E972E084E394E00E94D51640910004CA
:101B400050910104609102047091030422E030E09E
:101B500084E394E00E948C1861E672E084E394E0F0
:101B60000E94F4166FE972E084E394E00E94D516B7
:101B700040910C0450910D0460910E0470910F047B
:101B800022E030E084E394E00E948C1861E672E089
:101B900084E394E00E94D51666EC72E084E394E05E
:101BA0000E94D516409108045091090460910A04DE
:101BB00070910B0422E030E084E394E00E948C18E2
:101BC00061E672E084E394E00E94D5166AED72E06B
:101BD00084E394E00E94D5164091040450910504DA
:101BE000609106047091070422E030E084E394E001
:101BF0000E948C1861E672E084E394E00E94F4167F
:101C00008C2F0E946001CF910C9444016AE082EE17
:101C100093E00C9454158FED91E00C94B501089568
:101C2000833081F028F4813099F08230A1F008955A
:101C30008730A9F08830B9F08430D1F480918000E9
:101C40008F7D03C0809180008F77809380000895FE
:101C500084B58F7702C084B58F7D84BD089580914F
:101C6000B0008F7703C08091B0008F7D8093B0006B
:101C70000895CF93DF9390E0FC01EA53FF4F249146
:101C8000FC01E652FF4F8491882361F190E0880FB8
:101C9000991FFC01EE5FFE4FC591D491FC01E85005
:101CA000FF4FA591B491611109C09FB7F894888145
:101CB000209582238883EC912E230BC0623061F43F
:101CC0009FB7F8948881322F309583238883EC91D5
:101CD0002E2B2C939FBF06C08FB7F894E8812E2B34
:101CE00028838FBFDF91CF9108951F93CF93DF9308
:101CF000282F30E0F901EE54FF4F8491F901EA53A7
:101D0000FF4FD491F901E652FF4FC491CC23C1F0AB
:101D1000162F81110E94100EEC2FF0E0EE0FFF1F26
:101D2000E850FF4FA591B4919FB7F894111104C0EA
:101D30008C91D095D82302C0EC91DE2BDC939FBF11
:101D4000DF91CF911F910895CF93DF93282F30E03B
:101D5000F901EE54FF4F8491F901EA53FF4FD491FA
:101D6000F901E652FF4FC491CC2391F081110E94FA
:101D7000100EEC2FF0E0EE0FFF1FE251FF4FA59188
:101D8000B491EC91ED2381E090E021F480E002C079
:101D900080E090E0DF91CF9108951F920F920FB6EF
:101DA0000F9211242F933F934F935F936F937F93E1
:101DB0008F939F93AF93BF93EF93FF9380912B04E7
:101DC00090912C04A0912D04B0912E0430912A04FE
:101DD00023E0230F2D3720F40196A11DB11D05C06E
:101DE00026E8230F0296A11DB11D20932A0480939B
:101DF0002B0490932C04A0932D04B0932E04809177
:101E00002F0490913004A0913104B09132040196D6
:101E1000A11DB11D80932F0490933004A093310431
:101E2000B09332040E940B0EFF91EF91BF91AF91DE
:101E30009F918F917F916F915F914F913F912F91E2
:101E40000F900FBE0F901F9018952FB7F8946091C8
:101E50002B0470912C0480912D0490912E042FBF9F
:101E600008953FB7F89480912F0490913004A09189
:101E70003104B091320426B5A89B05C02F3F19F05C
:101E80000196A11DB11D3FBFBA2FA92F982F8827FA
:101E9000820F911DA11DB11DBC01CD0142E0660F55
:101EA000771F881F991F4A95D1F708958F929F92A7
:101EB000AF92BF92CF92DF92EF92FF926B017C01C3
:101EC0000E94310F4B015C01C114D104E104F10403
:101ED00001F10E94CC0F0E94310FDC01CB01881967
:101EE0009909AA09BB09883E9340A105B10560F391
:101EF00021E0C21AD108E108F10888EE880E83E0DB
:101F0000981EA11CB11CC114D104E104F10419F7FD
:101F1000DBCFFF90EF90DF90CF90BF90AF909F907E
:101F20008F90089584B5826084BD84B5816084BD3E
:101F300085B5826085BD85B5816085BDEEE6F0E042
:101F4000808181608083E1E8F0E01082808182609E
:101F50008083808181608083E0E8F0E0808181601F
:101F60008083E1EBF0E0808184608083E0EBF0E04F
:101F7000808181608083EAE7F0E0808184608083F3
:101F8000808182608083808181608083808180689D
:101F900080831092C10008950895FFCFFFCFCF93A3
:101FA000DF93880F990BFC01EF5DFC4FC081D1815D
:101FB000AC81BD8111978A819B81A80FB91F2D85A6
:101FC000CD010197FD013297223019F42CE331E065
:101FD00002C028E531E02C93DC013C939E818F8187
:101FE0009083DF018E93CF0107971E928A179B077C
:101FF000E1F780E8DF0118978C93CF0144971E9298
:102000008A179B07E1F7A881B9817597ED93FC9337
:10201000DF91CF910895089578940895F8940895E4
:1020200078940895F894089508950E94920F0E945C
:1020300014100E940F0E0E94B80A809133040E946F
:10204000EC0680E090E0089580917E038093330455
:10205000089508951F920F920FB60F9211242F9397
:102060003F934F935F936F937F938F939F93AF9320
:10207000BF93EF93FF93E0910102F0910202099563
:10208000FF91EF91BF91AF919F918F917F916F9150
:102090005F914F913F912F910F900FBE0F901F9026
:1020A00018951F920F920FB60F9211242F933F9302
:1020B0004F935F936F937F938F939F93AF93BF9350
:1020C000EF93FF93E0910302F09104020995FF91D1
:1020D000EF91BF91AF919F918F917F916F915F91A0
:1020E0004F913F912F910F900FBE0F901F90189519
:1020F0002091D304222399F04FB7F8942091D30470
:10210000213059F42DB32093D1043DB32091D20452
:10211000209523232DBB4FBF02C04093D1048CBD1B
:102120009DBD08958EBD00000DB407FEFDCF8EB598
:1021300008958091D304882361F09FB7F89420918B
:10214000D3048091D104213019F48DBB9FBF089531
:102150008FBF0895CF93DF93EC0180E591E00E945B
:10216000781060E08A890E94750E80EC0E949210BF
:1021700061E08A890E94750E0E94991065E070E006
:1021800080E090E0DF91CF910C94560F1F93CF9396
:10219000DF93EC01162F80E591E00E94781060E05B
:1021A0008A890E94750E83E00E949210812F0E94FE
:1021B000921080E00E949210182F61E08A890E949C
:1021C000750E0E949910812FDF91CF911F91089574
:1021D000DF92EF92FF920F931F93CF93DF938C01C7
:1021E000C62FD42EE52EF22E80E591E00E947810C5
:1021F00060E0F80182890E94750E83E00E949210CF
:102200008C2F0E949210CD2DDE2DCE018F0D911DB1
:102210007C01EC16FD0629F080E00E949210899363
:10222000F8CF61E0F80182890E94750EDF91CF91AD
:102230001F910F91FF90EF90DF900C9499100F93E6
:102240001F93CF93DF93EC01062F142F80E591E0CD
:102250000E94781060E08A890E94750E82E00E94D8
:102260009210802F0E949210812F0E94921061E0A4
:102270008A890E94750EDF91CF911F910F910C9466
:102280009910DF92EF92FF920F931F93CF93DF93FA
:102290008C01C62FD42EE52EF22E80E591E00E940F
:1022A000781060E0F80182890E94750E82E00E9439
:1022B00092108C2F0E949210CD2DDE2DCE018F0D0D
:1022C000911D7C01EC16FD0621F089910E9492106F
:1022D000F9CF61E0F80182890E94750EDF91CF91FC
:1022E0001F910F91FF90EF90DF900C949910FF9247
:1022F0000F931F93CF93DF93EC01F62E042F122F31
:1023000080E591E00E94781060E08A890E94750E55
:1023100085E00E9492108F2D0E949210802F0E94C3
:102320009210812F0E94921061E08A890E94750E9E
:10233000DF91CF911F910F91FF900C9499101F93F3
:10234000CF93DF93EC0180E591E00E94781060E08C
:102350008A890E94750E80EA0E94921080E00E9495
:102360009210182F61E08A890E94750E0E949910C0
:10237000812FDF91CF911F910895EF92FF920F93DC
:102380001F93CF93DF93EC01162F0E94250F062F8A
:10239000E12EF12C212F40EE6FE0CE010E9477114B
:1023A0006EE0CE010E94C610807E90E08E159F05E3
:1023B00039F00E94250F601B693C60F381E001C089
:1023C00080E0DF91CF911F910F91FF90EF900895E2
:1023D0000F931F93CF93DF93EC01162F6EE00E94B3
:1023E000C610807E803221F5103211F16BE2CE01F1
:1023F0000E94C610082F007486FD06C020E440E449
:102400006BE2CE010E94771120E440E46CE2CE0141
:102410000E94771160E6CE010E94BD11811116C0A5
:10242000011106C020E040E46BE2CE010E9477116A
:1024300020E040E46CE2CE010E947711612FCE01D2
:10244000DF91CF911F910F910C94BD1181E0DF912D
:10245000CF911F910F910895FC01638B0C94E811AB
:10246000CF92DF92EF92FF920F931F93CF93DF9360
:10247000342F3370313009F43FC008F466C0323075
:1024800009F0AAC0062F10E0F8013197EE30F105EF
:1024900008F0A2C0EC5CFF4F0C94C920C4E8D6EF52
:1024A00023E987C0C4E8D6EF29E883C0C3E8D5EEA6
:1024B00027E87FC0C4E8D6EF25E87BC0C4E8D6EFA4
:1024C00005C0C3E8D5EE02C0C1E8D3ED24E871C071
:1024D000C4E8D6EF02C0C3E8D5EE21E86AC0C4E87C
:1024E000D6EF02C0C3E8D5EE20E863C0C1E8D1ED65
:1024F0002AC0C0E8D0EC27C0C62ED12CF6013197F7
:10250000EE30F10508F068C0EE5BFF4F0C94C92077
:10251000C4E8D6EF27E64DC0C4E8D6EF23E549C0AE
:10252000C3E8D5EE2EE445C0C4E8D6EF42C0C3E808
:10253000D5EE23E43EC0C3E8D5EE27C0C3E8D5EE10
:1025400028C0C1E8DAEC20E034C0062F10E0F80122
:102550003697E930F10508F03FC0E05BFF4F0C947F
:10256000C920C4E8D6EF29E424C0C7E8DFEF24EC93
:1025700020C0C4E8D6EF05C0C3E8D5EE02C0C1E86C
:10258000D3ED24E416C0C4E8D6EF21E412C0C4E8B9
:10259000D6EF20E40EC0C2E8D9EDD5CFC4E8D6EF1F
:1025A00027EA07C0C7E8DFEF2FE303C0C1E8D3ED98
:1025B00028E142FDCF778C01422F6AE20E941F1171
:1025C0004D2F69E2C8010E941F114C2F68E2C8011B
:1025D0000E941F1180E001C081E0DF91CF911F9127
:1025E0000F91FF90EF90DF90CF9008950F931F937E
:1025F000CF93DF9300D000D0CDB7DEB74130B1F438
:102600000C831B83890122273327502F5C71402FB5
:10261000437078E0579F400D112448604A8355E08D
:10262000169507955A95E1F709830DC0A80123E097
:10263000569547952A95E1F749830295000F007E4C
:102640000A831C821B8224E0AE014F5F5F4F0E9411
:1026500041110F900F900F900F90DF91CF911F912C
:102660000F9108950F931F93CF93DF9300D000D065
:10267000CDB7DEB7E62FF42FA901662777270C83A5
:102680001B83F13081F4342F3C71242F2370F8E048
:102690003F9F200D112428602A8335E056954795E9
:1026A0003A95E1F70AC0242F2295220F207E2A8333
:1026B00023E0569547952A95E1F7498324E0AE013A
:1026C0004F5F5F4F6E2F0E9441110F900F900F9040
:1026D0000F90DF91CF911F910F9108950F931F934A
:1026E000CF93DF93EC0100E010E0980141E060E25D
:1026F0000E94321300E010E0980141E064E2CE0154
:102700000E94321300E010E0980141E060E0CE0149
:102710000E94321300E010E0980140E064E0CE0136
:102720000E94321300E010E0980141E068E0CE0121
:102730000E94321300E010E0980140E060E1CE0119
:102740000E94321300E010E0980141E064E1CE0104
:102750000E94321300E010E0980140E068E1CE01F1
:102760000E94321310E340E0612FCE010E941F113E
:1027700060E1610F40E0CE010E941F1160E2610F35
:1027800040E0CE010E941F111F5F1E3361F740E041
:1027900060E6CE010E941F1140E060E7CE01DF91AC
:1027A000CF911F910F910C941F11EF92FF920F93F5
:1027B0001F93CF93DF93EC01062FF42EE22E0E949D
:1027C000AA1080E48B8B60E8CE010E94E811182FDC
:1027D000882341F06FEA71E084E394E00E94E216FE
:1027E000812F5CC067E871E084E394E00E94E21608
:1027F0004E2D6F2DCE010E943012882339F06BE6EA
:1028000071E084E394E00E94E21647C06EE471E058
:1028100084E394E00E94E216CE010E946E1343E02E
:102820006BE2CE010E941F114CE36CE0CE010E94CE
:102830001F1140E06DE0CE010E941F11002351F0F6
:10284000033019F524E644E660E6CE010E947711D4
:1028500020E607C024E044E660E6CE010E9477113E
:1028600020E040E660E7CE010E9477116B89CE013F
:102870000E94E811C82F882381F06CE071E084E3A6
:1028800094E00E94E2168C2F09C062E371E084E3B9
:1028900094E00E94E21681E001C080E0DF91CF91D8
:1028A0001F910F91FF90EF900895EF92FF920F9379
:1028B0001F93CF93DF9300D000D0CDB7DEB77A015E
:1028C0008901FA011082F9011082118212821382A9
:1028D00024E0AE014F5F5F4F0E94E8102A813981EA
:1028E000822F90E065E0959587956A95E1F7F8E08D
:1028F0003F9F800D911D1124092E000CAA0BBB0BCC
:10290000F80180839183A283B38323FF25C032E043
:10291000880F991FAA1FBB1F3A95D1F72370820F0A
:10292000911DA11DB11DBA2FA92F982F88272B818A
:10293000820F911DA11DB11DBA2FA92F982F882795
:102940002C81820F911DA11DB11D80839183A283D3
:10295000B38381E0F70180830F900F900F900F9069
:10296000DF91CF911F910F91FF90EF900895FF920B
:102970000F931F93CF93DF93EC01F62EAC014A5FC8
:102980005F4F65E06F0D2D810E9441118E85813072
:1029900019F48D8180648D8364E06F0D4D81CE01CB
:1029A0000E941F1109811A812B813C8148816F2D62
:1029B000CE010E94F612DF91CF911F910F91FF90EF
:1029C00008950F931F93CF93DF93EC01162F9C0173
:1029D0002F5F3F4FAC010E9455146FEF610FCE0186
:1029E0000E94C610082F64E0610FCE010E94C6103D
:1029F0008D8303FF03C091E09E8701C01E86282FB0
:102A00002F702D83AE014A5F5F4F65E0610FCE01ED
:102A1000DF91CF911F910F910C94E8108F929F92AC
:102A2000AF92BF92CF92DF92EF92FF921F93CF931C
:102A3000DF9300D01F92CDB7DEB74C016B018091C0
:102A4000050290910602A091070289839A83AB83C5
:102A5000FB011082CE0101967C015E0194E0A90E7B
:102A6000B11CF70111917F01612FC4010E94C610B2
:102A7000982F987083FD04C01F5FF601108304C077
:102A8000EA14FB0471F792E0892F0F900F900F90DA
:102A9000DF91CF911F91FF90EF90DF90CF90BF908B
:102AA000AF909F908F900895CF93DF93EC01862F86
:102AB0006A8B61E00E94750E61E08A890E94390E7E
:102AC00085ED94E0998B888BDF91CF910895FF92EB
:102AD0000F931F93CF93DF93EC01162F042FF22E49
:102AE0000E94461A2F2D402F612FCE010E94D51330
:102AF00091E0811101C090E0892FDF91CF911F916A
:102B00000F91FF900895BF92CF92DF92EF92FF92C4
:102B10000F931F93CF93DF931F92CDB7DEB78C0136
:102B20000E94310F6B017C01BE016F5F7F4FC801B6
:102B30000E940E15B82E0E94310FDC01CB018C19BA
:102B40009D09AE09BF0922E0B21206C0843C99403B
:102B5000A105B10548F331C0843C9940A105B105F8
:102B600060F56981C8010E94B7146981615028E04D
:102B700048E0C8010E9477110E94310F6B017C016F
:102B800069816150C8010E94C610B82E0E94310FA1
:102B9000DC01CB018C199D09AE09BF09B3FE06C04B
:102BA000843C9940A105B10558F309C0843C994083
:102BB000A105B10520F480E003C086E001C087E0F4
:102BC0000F90DF91CF911F910F91FF90EF90DF90C9
:102BD000CF90BF900895EF92FF920F93FC01418335
:102BE000528363837483168620830583F701DC0197
:102BF00016969C01225F3F4F41914D93A217B30758
:102C0000D9F70F91FF90EF900C948315CF93DF933A
:102C1000EC010E949F1180FF07C061E6CE010E9477
:102C2000E11420E041E008C081FF0CC061E7CE0163
:102C30000E94E11420E042E06CE2CE010E94771194
:102C400080E001C084E0DF91CF910895CF92DF92C0
:102C5000EF92FF920F931F93CF93DF93EC016B01E1
:102C60007A0189010E940616843099F188818823AF
:102C700049F089819A81AB81BC81B06889839A834C
:102C8000AB83BC838E85882349F089819A81AB818F
:102C9000BC81B06489839A83AB83BC8389819A8128
:102CA000AB81BC81F60180839183A283B3838D8144
:102CB000F7018083DE011696F8018D8190E09F0177
:102CC000201B310B281739071CF48D918193F5CF08
:102CD00080E0DF91CF911F910F91FF90EF90DF90F7
:102CE000CF900895CF92DF92EF92FF920F931F93B0
:102CF000CF93DF936C017A018B01C0E0D0E0CE1559
:102D0000DF0581F0D8016D918D01D601ED91FC9127
:102D10000190F081E02DC6010995892B11F02196D3
:102D2000EECF7E01C701DF91CF911F910F91FF90F0
:102D3000EF90DF90CF9008956115710579F0FB0158
:102D400001900020E9F73197AF01461B570BDC01DA
:102D5000ED91FC910280F381E02D099480E090E0F8
:102D60000895EF92FF920F931F93CF93DF938C01FF
:102D70007B01C0E0D0E0F701EC0FFD1F64916623FA
:102D800061F0D801ED91FC910190F081E02DC80136
:102D90000995892B11F02196EECFCE01DF91CF91CD
:102DA0001F910F91FF90EF9008950C949C16DC01F9
:102DB000ED91FC910190F081E02D09946FEA73E0B0
:102DC0000C949C160F931F93CF93DF93EC010E94FA
:102DD000B1168C01CE010E94DE16800F911FDF918B
:102DE000CF911F910F9108950F931F93CF93DF936E
:102DF000EC010E949C168C01CE010E94DE16800F11
:102E0000911FDF91CF911F910F9108958F929F9203
:102E1000AF92BF92EF92FF920F931F93CF93DF93E6
:102E2000CDB7DEB7A1970FB6F894DEBF0FBECDBF0A
:102E30007C01FA01CB0119A2223008F42AE08E01AC
:102E40000F5D1F4F822E912CA12CB12CBF01A5012B
:102E500094010E94A720F901CA01015011096A30AA
:102E600014F4605D01C0695CD8016C93232B242BA2
:102E7000252B61F7B801C7010E949C16A1960FB6D9
:102E8000F894DEBF0FBECDBFDF91CF911F910F91A0
:102E9000FF90EF90BF90AF909F908F900895211575
:102EA000310541F4DC01ED91FC910190F081E02DC0
:102EB000642F09940C9406179A01AB0160E070E04E
:102EC0000C944F17CF92DF92EF92FF920F931F93C4
:102ED000CF93DF932115310581F4DC01ED91FC9155
:102EE0000190F081E02D642FDF91CF911F910F9120
:102EF000FF90EF90DF90CF9009942A30310501F5D3
:102F000077FF1DC06A017B01EC016DE20E94D716BC
:102F10008C0144275527BA014C195D096E097F09B8
:102F20002AE0CE010E940617800F911FDF91CF91FA
:102F30001F910F91FF90EF90DF90CF9008952AE0BE
:102F4000DF91CF911F910F91FF90EF90DF90CF9085
:102F50000C9406179A01AB01770F660B770B0C9454
:102F600062177F928F929F92AF92BF92CF92DF9221
:102F7000EF92FF920F931F93CF93DF938C016A011F
:102F80007B01722E9A01AB01C701B6010E94FE1DA2
:102F9000882319F062EB73E027C046015701E894DB
:102FA000B7F82FEF3FEF4FE75FE7C501B4010E948D
:102FB000FE1D81110DC02FEF3FEF4FE75FE7C50109
:102FC000B4010E942D1C18161CF466EB73E00CC0B3
:102FD0002FEF3FEF4FE75FE4C701B6010E948C1D62
:102FE000181694F46AEB73E0C801DF91CF911F913A
:102FF0000F91FF90EF90DF90CF90BF90AF909F9098
:103000008F907F900C949C162FEF3FEF4FE75FEC73
:10301000C701B6010E942D1C87FDE4CF20E030E0FF
:10302000A901C701B6010E942D1C87FF0AC06DE2ED
:10303000C8010E94D716EC01F7FAF094F7F8F09463
:1030400002C0C0E0D0E0B12C60E070E080E09FE31F
:103050007B1441F020E030E040E251E40E94321C59
:10306000B394F6CFA70196010E94C11B6B017C01AE
:103070000E94AB1C4B015C012AE0AB01BC01C80102
:103080000E940617C80FD91F7720B9F1C501B401F6
:103090000E94DA1C9B01AC01C701B6010E94C01B53
:1030A0006B017C016EE2C8010E94D716C80FD91FC0
:1030B00020E030E040E251E4C701B6010E94911DDA
:1030C0004B015C010E94AB1C6B017C014AE050E0AB
:1030D000C8010E945C17C80FD91FB60180E090E0BC
:1030E0000E94DA1C9B01AC01C501B4010E94C01B07
:1030F0006B017C017A947110DBCFCE01DF91CF910F
:103100001F910F91FF90EF90DF90CF90BF90AF9005
:103110009F908F907F9008950C94B1171F920F92FB
:103120000FB60F9211242F938F939F93EF93FF93DA
:10313000E0914404F09145048081E0914A04F091CB
:103140004B0482FD12C0908180914D048F5F8F737C
:1031500020914E04821751F0E0914D04F0E0EC5CB8
:10316000FB4F958F80934D0401C08081FF91EF91BB
:103170009F918F912F910F900FBE0F901F901895D8
:103180001F920F920FB60F9211242F933F934F93DC
:103190005F936F937F938F939F93AF93BF93EF93BF
:1031A000FF9384E394E00E945019FF91EF91BF9147
:1031B000AF919F918F917F916F915F914F913F91CF
:1031C0002F910F900FBE0F901F901895E4E3F4E03D
:1031D0001382128288EE93E0A0E0B0E084839583AE
:1031E000A683B78382EC93E09183808385EC90E0A3
:1031F0009587848784EC90E09787868780EC90E0C1
:10320000918B808B81EC90E0938B828B82EC90E0B1
:10321000958B848B86EC90E0978B868B118E128E2B
:10322000138E148E0895FC01918D228D892F90E0CC
:10323000805C9F4F821B91098F7399270895FC0131
:10324000918D828D981731F0828DE80FF11D858D5B
:1032500090E008958FEF9FEF0895FC01918D828D8E
:10326000981761F0828DDF01A80FB11D5D968C91DA
:10327000928D9F5F9F73928F90E008958FEF9FEFE5
:103280000895FC01538D448D252F30E0842F90E06C
:10329000821B930B541710F0CF9608950197089551
:1032A000FC01848DDF01A80FB11DA35ABF4F2C91E3
:1032B000848D90E001968F739927848FA689B789B2
:1032C0002C93A089B1898C91837080648C93938DA9
:1032D000848D981306C00288F389E02D80818F7D4C
:1032E00080830895EF92FF920F931F93CF93DF9304
:1032F000EC0181E0888F9B8D8C8D981305C0E88947
:10330000F989808185FD26C0F62E0B8D10E00F5FB8
:103310001F4F0F731127E02E8C8DE8120CC00FB6D3
:1033200007FCFACFE889F989808185FFF5CFCE01C6
:103330000E945019F1CF8B8DFE01E80FF11DE35A69
:10334000FF4FF0829FB7F8940B8FEA89FB89808149
:1033500080620AC09FB7F894EE89FF896083E8898C
:10336000F98980818370806480839FBF81E090E0D1
:10337000DF91CF911F910F91FF90EF900895CF9320
:10338000DF93EC01888D8823C9F0EA89FB8980816D
:1033900085FD05C0A889B9898C9186FD0FC00FB63F
:1033A00007FCF5CF808185FFF2CFA889B9898C9180
:1033B00085FFEDCFCE010E945019E7CFDF91CF916D
:1033C0000895CF92DF92EF92FF921F93CF93DF93F6
:1033D000EC016A017B01122FE889F98982E0808380
:1033E0004115514E61057105B1F060E079E08DE362
:1033F00090E0A70196010E94A720DA01C901019778
:10340000A109B109B695A795979587959C012115B6
:1034100080E13807A8F0E889F989108260E874E84B
:103420008EE190E0A70196010E94A720DA01C90170
:103430000197A109B109B695A795979587959C0124
:10344000EC85FD853083EE85FF852083188EEC8921
:10345000FD891083EA89FB89808180618083EA8904
:10346000FB89808188608083EA89FB89808180680C
:103470008083EA89FB8980818F7D8083DF91CF9172
:103480001F91FF90EF90DF90CF900895CF93CFB72B
:10349000F8948091D404811127C0E4EEF0E0849187
:1034A000E0EDF0E09491E82FF0E0EE0FFF1FEE5F0B
:1034B000FE4FA591B491EC91E92321F461E08AE0FB
:1034C0000E94750E61E08AE00E94390E8CB5806121
:1034D0008CBD8CB580648CBD61E08DE00E94390E9E
:1034E00061E08BE00E94390E8091D4048F5F80935D
:1034F000D404CFBFCF910895A0E0B0E0E2E8FAE1B4
:103500000C94DB205C016B017A016115710519F0E7
:10351000FB0191838083E114F10429F0C701029734
:10352000839708F0E5C0E5012196F5011081812F10
:1035300090E00E94951B892B11F05E01F4CF1D32A3
:1035400029F42196F501118101E007C01B3221F415
:10355000E5012296F501118100E0E114F10409F181
:10356000F0E1EF16F10429F43FC010E3E114F10497
:1035700021F128E0E216F10401F154F4E2E0EE1644
:10358000F10421F5812C912CA12CB0E4BB2E3EC07E
:10359000FAE0EF16F10439F020E1E216F104B1F49B
:1035A00030C0103319F1FAE0EF2EF12CACEC8A2E7A
:1035B000982CA82CACE0BA2E29C078E0E72EF12C8C
:1035C000812C912CA12CE0E1BE2E20C060E070E0A7
:1035D00080E090E897010F2C000C440B550B0E94E3
:1035E000A72049015A0112C0103359F488818F7DF8
:1035F000883509F0BACF19812296026080E1E82E61
:10360000F12C812C912CA12C68E0B62E40E060E0DA
:1036100070E0CB0127010F2C000C66087708FE0133
:1036200050ED352E310E29E0231570F42FEB210FCC
:103630002A3118F439EC332E06C02FE9210F2A3134
:1036400018F529EA322E310E232D30E02E153F05D4
:10365000DCF447FD16C086169706A806B90670F07A
:10366000A30192010E949720630D711D811D911D80
:1036700061307105810520E8920710F04FEF01C01D
:1036800041E021961081CBCF202F2170C114D104AD
:1036900071F0442329F02197F601D183C08307C03C
:1036A00001FF19C02297F601D183C08314C047FFE0
:1036B00012C0222329F060E070E080E090E804C0AE
:1036C0006FEF7FEF8FEF9FE722E230E030933F080C
:1036D00020933E0809C0222381F090958095709533
:1036E00061957F4F8F4F9F4F462F372F282F12C046
:1036F00040E030E020E090E00DC097FFF5CF82E29F
:1037000090E090933F0880933E086FEF7FEF8FEF3C
:103710009FE7EACF642F732F822FCDB7DEB7E1E1A9
:103720000C94F720F8940C94202191110C94E41F30
:10373000803219F089508550C8F70895AEE0B0E0A6
:10374000E4EAFBE10C94E8200D891E8986E08C8375
:103750001A8309838FEF9FE79E838D83AE01475EB7
:103760005F4F6F89788DCE0101960E94031EEF8115
:10377000F885E00FF11F10822E96E4E00C940421EE
:103780005058BB27AA270E94D81B0C94521D0E9498
:10379000441D38F00E944B1D20F039F49F3F19F46E
:1037A00026F40C94411D0EF4E095E7FB0C943B1DB0
:1037B000E92F0E94631D58F3BA1762077307840745
:1037C000950720F079F4A6F50C94851D0EF4E0958C
:1037D0000B2EBA2FA02D0B01B90190010C01CA01CB
:1037E000A0011124FF27591B99F0593F50F4503E76
:1037F00068F11A16F040A22F232F342F4427585F68
:10380000F3CF469537952795A795F0405395C9F77F
:103810007EF41F16BA0B620B730B840BBAF0915037
:10382000A1F0FF0FBB1F661F771F881FC2F70EC0D6
:10383000BA0F621F731F841F48F4879577956795A9
:10384000B795F7959E3F08F0B0CF9395880F08F095
:103850009927EE0F9795879508950E94171D08F4F4
:1038600081E008950E94461C0C94521D0E944B1D3D
:1038700058F00E94441D40F029F45F3F29F00C9459
:103880003B1D51110C94861D0C94411D0E94631D1B
:1038900068F39923B1F3552391F3951B550BBB277F
:1038A000AA2762177307840738F09F5F5F4F220FC4
:1038B000331F441FAA1FA9F335D00E2E3AF0E0E8BB
:1038C00032D091505040E695001CCAF72BD0FE2F05
:1038D00029D0660F771F881FBB1F26173707480799
:1038E000AB07B0E809F0BB0B802DBF01FF27935851
:1038F0005F4F3AF09E3F510578F00C943B1D0C94BD
:10390000861D5F3FE4F3983ED4F3869577956795DF
:10391000B795F7959F5FC9F7880F911D9695879585
:1039200097F90895E1E0660F771F881FBB1F6217A4
:1039300073078407BA0720F0621B730B840BBA0B62
:10394000EE1F88F7E09508950E94AB1C6894B111B2
:103950000C94861D08950E946B1D88F09F5798F067
:10396000B92F9927B751B0F0E1F0660F771F881F84
:10397000991F1AF0BA95C9F714C0B13091F00E949E
:10398000851DB1E008950C94851D672F782F882739
:10399000B85F39F0B93FCCF3869577956795B395C5
:1039A000D9F73EF490958095709561957F4F8F4F34
:1039B0009F4F0895E89409C097FB3EF49095809539
:1039C000709561957F4F8F4F9F4F9923A9F0F92FE5
:1039D00096E9BB279395F695879577956795B79563
:1039E000F111F8CFFAF4BB0F11F460FF1BC06F5F49
:1039F0007F4F8F4F9F4F16C0882311F096E911C05B
:103A0000772321F09EE8872F762F05C0662371F07B
:103A100096E8862F70E060E02AF09A95660F771F8F
:103A2000881FDAF7880F9695879597F90895990F6B
:103A30000008550FAA0BE0E8FEEF16161706E80778
:103A4000F907C0F012161306E407F50798F0621B99
:103A5000730B840B950B39F40A2661F0232B242B6E
:103A6000252B21F408950A2609F4A140A6958FEF8D
:103A7000811D811D089597F99F6780E870E060E0DF
:103A800008959FEF80EC089500240A9416161706F7
:103A900018060906089500240A941216130614063F
:103AA00005060895092E0394000C11F4882352F0A2
:103AB000BB0F40F4BF2B11F460FF04C06F5F7F4F5A
:103AC0008F4F9F4F089557FD9058440F551F59F041
:103AD0005F3F71F04795880F97FB991F61F09F3FFB
:103AE00079F087950895121613061406551FF2CF24
:103AF0004695F1DF08C0161617061806991FF1CF74
:103B000086957105610508940895E894BB2766279A
:103B10007727CB0197F908950E94171D08F48FEFBE
:103B200008950E94A41D0C94521D0E94441D38F05B
:103B30000E944B1D20F0952311F00C943B1D0C941A
:103B4000411D11240C94861D0E94631D70F3959FE6
:103B5000C1F3950F50E0551F629FF001729FBB2784
:103B6000F00DB11D639FAA27F00DB11DAA1F649F20
:103B70006627B00DA11D661F829F2227B00DA11DD3
:103B8000621F739FB00DA11D621F839FA00D611D59
:103B9000221F749F3327A00D611D231F849F600D7A
:103BA000211D822F762F6A2F11249F5750409AF0A3
:103BB000F1F088234AF0EE0FFF1FBB1F661F771F2F
:103BC000881F91505040A9F79E3F510580F00C94FA
:103BD0003B1D0C94861D5F3FE4F3983ED4F386951D
:103BE00077956795B795F795E7959F5FC1F7FE2B9A
:103BF000880F911D9695879597F908950E94171D36
:103C0000880B990B0895ABE0B0E0E9E0FEE10C947D
:103C1000DA206C017B018A01FC0117821682838104
:103C200081FFCCC1CE0101963C01F6019381F701E1
:103C300093FD859193FF81917F01882309F4BAC197
:103C4000853239F493FD859193FF81917F0185320F
:103C500029F4B60190E00E94FD1FE7CF912C212CA2
:103C6000312CFFE1F315D8F08B3279F038F4803243
:103C700079F08332A1F4232D20611DC08D3261F0D3
:103C8000803369F4232D216016C0832D8260382E85
:103C9000E32DE4603E2E2AC0F32DF8601DC037FCF2
:103CA0002DC020ED280F2A3040F08E32B9F436FCBA
:103CB00081C1232D2064322E19C036FE06C08AE051
:103CC000989E200D1124922E11C0EAE02E9E200D08
:103CD0001124222EF32DF0623F2E08C08C3621F4E1
:103CE000832D8068382E02C0883641F4F70193FD99
:103CF000859193FF81917F018111B3CF982F9F7D93
:103D00009554933028F40C5F1F4F9FE399830DC0A7
:103D1000833631F0833771F0833509F059C021C003
:103D2000F801808189830E5F1F4F88248394912C32
:103D3000530113C02801F2E04F0E511CF801A0807E
:103D4000B18036FE03C0692D70E002C06FEF7FEFD7
:103D5000C5010E94F21F4C018201F32DFF773F2E17
:103D600016C0280122E0420E511CF801A080B1804B
:103D700036FE03C0692D70E002C06FEF7FEFC50112
:103D80000E94E71F4C01F32DF0683F2E820133FCA7
:103D90001BC0822D90E088169906B0F4B60180E22F
:103DA00090E00E94FD1F2A94F4CFF50137FC859125
:103DB00037FE81915F01B60190E00E94FD1F211046
:103DC0002A9421E0821A91088114910471F7E8C0C5
:103DD000843611F0893641F5F80137FE07C060815D
:103DE0007181828193810C5F1F4F08C06081718156
:103DF000072E000C880B990B0E5F1F4FF32DFF76DB
:103E00003F2E97FF09C090958095709561957F4FE3
:103E10008F4F9F4FF0683F2E2AE030E0A3010E94B1
:103E20003920882E861845C0853731F4232D2F7E02
:103E3000B22E2AE030E025C0932D997FB92E8F361F
:103E4000C1F018F4883579F0B5C0803719F088379B
:103E500021F0B0C0E92FE061BE2EB4FE0DC0FB2DF5
:103E6000F460BF2E09C034FE0AC0292F2660B22E8E
:103E700006C028E030E005C020E130E002C020E1CB
:103E800032E0F801B7FE07C06081718182819381C1
:103E90000C5F1F4F06C06081718180E090E00E5F73
:103EA0001F4FA3010E943920882E8618FB2DFF7713
:103EB0003F2E36FE0DC0232D2E7FA22E891458F4DE
:103EC00034FE0BC032FC09C0832D8E7EA82E05C0A7
:103ED000B82CA32C03C0B82C01C0B92CA4FE0FC071
:103EE000FE01E80DF11D8081803321F49A2D997E29
:103EF000A92E09C0A2FE06C0B394B39404C08A2DB3
:103F0000867809F0B394A3FC11C0A0FE06C0B214D9
:103F100088F4280C922C9B180EC0B21460F4B601E1
:103F200080E290E00E94FD1FB394F7CFB21418F422
:103F30002B1802C0982C212CA4FE10C0B60180E3DF
:103F400090E00E94FD1FA2FE17C0A1FC03C088E7FD
:103F500090E002C088E590E0B6010CC08A2D86781A
:103F600059F0A1FE02C08BE201C080E2A7FC8DE205
:103F7000B60190E00E94FD1F891438F4B60180E379
:103F800090E00E94FD1F9A94F7CF8A94F301E80D08
:103F9000F11D8081B60190E00E94FD1F8110F5CFD8
:103FA000222009F442CEB60180E290E00E94FD1F7B
:103FB0002A94F6CFF6018681978102C08FEF9FEF9A
:103FC0002B96E2E10C94F620992788270895FC01AE
:103FD0000590615070400110D8F7809590958E0F34
:103FE0009F1F0895FC016150704001900110D8F7A7
:103FF000809590958E0F9F1F08950F931F93CF93D9
:10400000DF93FB01238121FD03C08FEF9FEF2CC0C5
:1040100022FF16C0468157812481358142175307FC
:1040200044F4A081B1819D012F5F3F4F31832083F4
:104030008C93268137812F5F3F4F3783268314C0AF
:104040008B01EC01FB010084F185E02D0995892BA2
:10405000E1F6D80116968D919C91179701961796C7
:104060009C938E931697CE01DF91CF911F910F9164
:104070000895FA01AA27283051F1203181F1E894FE
:104080006F936E7F6E5F7F4F8F4F9F4FAF4FB1E04B
:104090003ED0B4E03CD0670F781F891F9A1FA11D46
:1040A000680F791F8A1F911DA11D6A0F711D811D47
:1040B000911DA11D20D009F468943F912AE0269F0C
:1040C00011243019305D3193DEF6CF010895462F6B
:1040D0004770405D4193B3E00FD0C9F7F6CF462F4C
:1040E0004F70405D4A3318F0495D31FD40524193B5
:1040F00002D0A9F7EACFB4E0A69597958795779572
:104100006795BA95C9F700976105710508959B01F8
:10411000AC010A2E06945795479537952795BA9581
:10412000C9F7620F731F841F951FA01D0895DB013F
:104130008F939F930E94CF20BF91AF91A29F800D3C
:10414000911DA39F900DB29F900D11240895A1E29F
:104150001A2EAA1BBB1BFD010DC0AA1FBB1FEE1F01
:10416000FF1FA217B307E407F50720F0A21BB30B4C
:10417000E40BF50B661F771F881F991F1A9469F7C8
:1041800060957095809590959B01AC01BD01CF0124
:104190000895EE0FFF1F0590F491E02D09940E9401
:1041A0001121A59F900DB49F900DA49F800D911D8E
:1041B000112408952F923F924F925F926F927F92B7
:1041C0008F929F92AF92BF92CF92DF92EF92FF9227
:1041D0000F931F93CF93DF93CDB7DEB7CA1BDB0BD3
:1041E0000FB6F894DEBF0FBECDBF09942A88398878
:1041F00048885F846E847D848C849B84AA84B9847F
:10420000C884DF80EE80FD800C811B81AA81B9818A
:10421000CE0FD11D0FB6F894DEBF0FBECDBFED019E
:104220000895A29FB001B39FC001A39F700D811D8F
:104230001124911DB29F700D811D1124911D0895AF
:04424000F894FFCF20
:10424400000000000000000000000000000000006A
:10425400000000000000000000000000000000005A
:10426400000000000000000000000000000000004A
:10427400000000000000000000000000000000003A
:10428400000000000000000000000000000000002A
:10429400000000000000000000000000000000001A
:1042A4000000000000000000FFFFFFFFFFFFFFFF12
:1042B400FFFFFFFFFFFFFFFFFF0000404000006320
:1042C4000300002504FFFFFFFFFFFFFFFF0000F3D3
:1042D4000200000000A00F0000A00F000002FC027A
:1042E4000000000028000000A00F000002050300E9
:1042F4000000000A000000E8030000020E030000B2
:1043040000001E00000088130000020000000500E9
:10431400000000040000000003000000000200018F
:10432400000000FFFF00000100000000000000008A
:10433400000000000000000600FF00000100FF0074
:104344000029102910304050FF524543454245553D
:10435400204D53472049434D5F45435500454E5634
:10436400494F5520454E41424C4544002530345870
:1043740000454E56494F55204143454C455241C393
:1043840087C3834F00456E7669616E646F202D2D5F
:104394002D2D204143435F656E61626C65643A2054
:1043A400003B20004163656C657261C3A7C3A36FC2
:1043B4003A20003B0043686567616E646F2049439F
:1043C4004D202D2D2D2D204143435F696E70757452
:1043D4003A20005365745F73706565643A20004346
:1043E400686567616E646F2053696D755F6172649F
:1043F40075696E6F202D2D2D2D2045676F5F7370AD
:104404006565643A200052656C61746976655F6421
:10441400697374616E63653A200052656C617469F6
:1044240076655F73706565643A2000BC01AD019EDA
:10443400018F01DF015D09F902D90601DF015D0980
:104444000203D90603DF015D090B03D90600DF016E
:104454005D091403D90602DA01D501D001CB012587
:10446400045503470339032B036303D6056C068005
:10447400003F0D000003050100D805D60400010526
:104484000C0000020401003C073E070001970B00EA
:104494000001030100DA05DC058000DA0A000000EF
:1044A4000201006A06EC065000CD0F000004000172
:1044B40000FC01F70100010101010000000000EF10
:1044C40007BD07C6079F0733053C0720056507415D
:1044D40008E206EA06FA08310833095A086609A50B
:1044E400089D09DD06EF097D08520A930AC4080DE8
:1044F4000A006E616E00696E66006F7666000000E9
:104504000000721972164119BF1913192D191F19B8
:00000001FF
